:1000000000000020FD040000DB300000E1300000B3
:10001000E7300000ED300000F33000000000000089
:100020000000000000000000000000006D0500005E
:10003000F930000000000000130600007306000005
:10004000992F0000A72F0000B52F0000C32F00003C
:10005000D12F0000DF2F0000ED2F0000FB2F00004C
:100060000930000017300000253000003330000058
:10007000413000004F3000005D3000006B30000068
:1000800079300000FF300000053100000B31000026
:1000900011310000173100001D3100002331000034
:1000A000293100002F310000353100003B310000C4
:1000B00041310000473100004D3100008730000021
:1000C000533100009530000059310000A33000008A
:1000D0005F310000B1300000653100006B3100007D
:1000E00071310000773100007D3100008331000064
:1000F000893100008F310000953100009B310000F4
:100100000D0500000D0500000D0500000D050000A7
:10011000A1310000A7310000AD310000B331000073
:10012000B9310000BF310000C5310000CB31000003
:10013000D1310000D7310000DD310000E331000093
:10014000E9310000EF310000BF300000F531000060
:10015000CD300000FB31000001320000073200000A
:100160000D32000013320000193200001F3200006F
:10017000253200002B3200003132000037320000FF
:100180003D3200000D0500000D0500000D050000CA
:100190000D0500000D0500000D0500000D05000017
:1001A0000D0500000D0500000D0500000D05000007
:1001B0000D0500000D0500000D0500000D050000F7
:1001C0000D0500000D0500000D0500000D050000E7
:1003F0000D0500000D0500000D050000FFFFFFFFCB
:10040000FFFFFFFFFFFFFFFFFFFFFFFFFEFFFFFFFD
:1004400010B5054C237833B9044B13B10448AFF30E
:1004500000800123237010BD680B00200000000005
:100460006492000008B5034B1BB103490348AFF386
:10047000008008BD000000006C0B002064920000AA
:10048000A3F5803A704700BF174B002B08BF134BF2
:100490009D46FFF7F5FF00218B460F461348144A8F
:1004A000121A06F0C7F80E4B002B00D098470D4BE0
:1004B000002B00D098470020002104000D000D48BB
:1004C000002802D00C4805F091FD05F0D5FD200074
:1004D000290001F0A9FE05F095FD00BF000008000D
:1004E00000000000C533000000000020680B002061
:1004F000E43C0020ED5F00002560000072B602F0D1
:100500007BFA02F011FA62B6FFF7BEFFFFF7FEBFFB
:1005100080F309887047EFF309807047684680F3DD
:1005200009885A480078C00714BF0220032080F3CE
:1005300014887047DFF858C1EFF305831B0618BF16
:100540006047EFF31483DB0708BF604700DF7047A5
:10055000DFF840C1EFF305831B0618BF6047EFF3D8
:100560001483DB0708BF604700DF7047EFF30980A3
:10057000816911F8021CE1BB90E80F1010B5E0474B
:10058000BDE81040EFF3098C8CE80700424B93E87C
:100590000600914208BF704741B91EF0100F16D1F6
:1005A0003E49086820F00100086010E01EF0100FBE
:1005B00006BF2CED108A0120002081F825002CE9CF
:1005C000F00FC1F828C00CB404F084F90CBC1A6018
:1005D000D2F828C0BCE8F00F92F8250000280EBF22
:1005E0006FF0020E6FF0120EBCEC108A8CF30988CB
:1005F000704710B52A4A1268914209D8294C54F81C
:10060000214090E80F10A047EFF3098C8CE80F0011
:1006100010BD10B504F0D0F8BDE810401E4B93E8B3
:100620000600914208BF7047EFF3098C1EF0100FCF
:1006300006BF2CED108A0120002081F825002CE94E
:10064000F00FC1F828C00CB404F044F90CBC1A60D7
:10065000D2F828C0BCE8F00F92F8250000280EBFA1
:100660006FF0020E6FF0120EBCEC108A8CF309884A
:10067000704710B504F010F9FFF7CEBF10B504F0C5
:1006800009F904F009F9FFF7C7BF00002C8C00003E
:100690004541000061410000803C002034EF00E053
:1006A00000000000FCFFFFFF81F0004102E000BFFE
:1006B00083F0004330B54FEA41044FEA430594EA22
:1006C000050F08BF90EA020F1FBF54EA000C55EA5D
:1006D000020C7FEA645C7FEA655C00F0E2804FEA2E
:1006E0005454D4EB5555B8BF6D420CDD2C4480EA10
:1006F000020281EA030382EA000083EA010180EA40
:10070000020281EA0303362D88BF30BD11F0004F8D
:100710004FEA01314FF4801C4CEA113102D04042C3
:1007200061EB410113F0004F4FEA03334CEA1333FE
:1007300002D0524263EB430394EA050F00F0A78016
:10074000A4F10104D5F1200E0DDB02FA0EFC22FA11
:1007500005F2801841F1000103FA0EF2801843FA05
:1007600005F359410EE0A5F120050EF1200E012AF6
:1007700003FA0EFC28BF4CF0020C43FA05F3C01834
:1007800051EBE37101F0004507D54FF0000EDCF1AD
:10079000000C7EEB00006EEB0101B1F5801F1BD356
:1007A000B1F5001F0CD349085FEA30004FEA3C0C5A
:1007B00004F101044FEA445212F5800F80F09A8050
:1007C000BCF1004F08BF5FEA500C50F1000041EB54
:1007D000045141EA050130BD5FEA4C0C404141EB58
:1007E0000101013C28BFB1F5801FE9D291F0000F53
:1007F00004BF01460020B1FA81F308BF2033A3F102
:100800000B03B3F120020CDA0C3208DD02F1140CF8
:10081000C2F10C0201FA0CF021FA02F10CE002F133
:100820001402D8BFC2F1200C01FA02F120FA0CFC2C
:10083000DCBF41EA0C019040E41AA2BF01EB045175
:10084000294330BD6FEA04041F3C1CDA0C340EDC73
:1008500004F11404C4F1200220FA04F001FA02F3B6
:1008600040EA030021FA04F345EA030130BDC4F174
:100870000C04C4F1200220FA02F001FA04F340EA69
:100880000300294630BD21FA04F0294630BD94F01A
:10089000000F83F4801306BF81F480110134013D01
:1008A0004EE77FEA645C18BF7FEA655C29D094EA72
:1008B000050F08BF90EA020F05D054EA000C04BFF0
:1008C0001946104630BD91EA030F1EBF00210020DB
:1008D00030BD5FEA545C05D14000494128BF41F07A
:1008E000004130BD14F580043CBF01F5801130BDDE
:1008F00001F0004545F0FE4141F470014FF0000069
:1009000030BD7FEA645C1ABF194610467FEA655C19
:100910001CBF0B46024650EA013406BF52EA0335BB
:1009200091EA030F41F4002130BD00BF90F0000FA9
:1009300004BF0021704730B54FF4806404F13204E5
:100940004FF000054FF0000150E700BF90F0000F9E
:1009500004BF0021704730B54FF4806404F13204C5
:1009600010F0004548BF40424FF000013EE700BF95
:1009700042004FEAE2014FEA31014FEA02701FBF25
:1009800012F07F4393F07F4F81F06051704732F057
:100990007F4208BF704793F07F4F04BF41F40021AE
:1009A000704730B54FF4607401F0004521F000410C
:1009B0001CE700BF50EA010208BF704730B54FF096
:1009C00000050AE050EA010208BF704730B511F097
:1009D000004502D5404261EB41014FF4806404F1CF
:1009E00032045FEA915C3FF4D8AE4FF003025FEA55
:1009F000DC0C18BF03325FEADC0C18BF033202EBD9
:100A0000DC02C2F1200300FA03FC20FA02F001FA32
:100A100003FE40EA0E0021FA02F11444BDE600BFD5
:100A20004FF0FF3C06E000BF4FF0010C02E000BFBA
:100A30004FF0010C4DF804CD4FEA410C7FEA6C5C9D
:100A40004FEA430C18BF7FEA6C5C1BD001B050EA40
:100A5000410C0CBF52EA430C91EA030F02BF90EA2B
:100A6000020F0020704710F1000F91EA030F58BFEA
:100A7000994208BF90422CBFD8176FEAE37040F04C
:100A8000010070474FEA410C7FEA6C5C02D150EAEA
:100A9000013C07D14FEA430C7FEA6C5CD6D152EAA5
:100AA000033CD3D05DF8040B704700BF844610466A
:100AB00062468C461946634600E000BF01B5FFF769
:100AC000B7FF002848BF10F1000F01BD4DF808ED39
:100AD000FFF7F4FF0CBF012000205DF808FB00BF0A
:100AE0004DF808EDFFF7EAFF34BF012000205DF864
:100AF00008FB00BF4DF808EDFFF7E0FF94BF0120B1
:100B000000205DF808FB00BF4DF808EDFFF7CEFFB1
:100B100094BF012000205DF808FB00BF4DF808EDF0
:100B2000FFF7C4FF34BF012000205DF808FB00BFC1
:100B30004A0011D212F5001211D20DD56FF478735C
:100B4000B3EB62520ED44FEAC12343F0004343EAB1
:100B5000505323FA02F070474FF00000704750EAFC
:100B6000013002D14FF0FF3070474FF00000704766
:100B700053B94AB9002908BF00281CBF4FF0FF3104
:100B80004FF0FF3001F0C0B8ADF1080C6DE904CEB4
:100B900000F006F8DDF804E0DDE9022304B0704758
:100BA0002DE9F047089D04468C46002B40F08380D9
:100BB0008A42174647D9B2FA82F242B1C2F1200006
:100BC00024FA00F09140974040EA010C94404FEA2B
:100BD0001748230CBCFBF8F61FFA87FE08FB16C16A
:100BE00043EA014306FB0EF1994209D9FB1806F1CD
:100BF000FF3080F01981994240F21681023E3B4459
:100C00005B1AA4B2B3FBF8F008FB103344EA0344C8
:100C100000FB0EFEA64509D93C1900F1FF3380F018
:100C20000581A64540F2028102383C4440EA064074
:100C3000A4EB0E0400261DB1D4400023C5E90043F7
:100C40003146BDE8F08702B9FFDEB2FA82F2002A2F
:100C500050D1CB1B4FEA174E1FFA87F80126B3FB82
:100C6000FEFC210C0EFB1C3341EA034108FB0CF394
:100C70008B4207D979180CF1FF3002D28B4200F277
:100C8000E9808446C91AA3B2B1FBFEF00EFB101135
:100C900043EA014408FB00F8A04507D93C1900F1DC
:100CA000FF3302D2A04500F2D9801846A4EB080415
:100CB00040EA0C40BFE78B4209D9002D00F0B1801B
:100CC0000026C5E9000130463146BDE8F087B3FA99
:100CD00083F6002E4AD18B4202D3824200F2B880C2
:100CE000841A61EB030101208C46002DA8D0C5E9D0
:100CF000004CA5E7C2F1200320FA03F6974001FA61
:100D000002F04FEA174ED9403043030CB1FBFEF618
:100D10001FFA87F80EFB161143EA014306FB08F1A0
:100D2000994204FA02F409D9FB1806F1FF3C80F05D
:100D30008D80994240F28A80023E3B445B1A81B228
:100D4000B3FBFEF00EFB103341EA034100FB08F356
:100D50008B4207D9791800F1FF3C73D28B4271D9CD
:100D600002383944CB1A40EA064678E7C6F1200C2F
:100D700003FA06F422FA0CF31C4320FA0CF701FAEA
:100D800006F34FEA144E21FA0CF11F433B0CB1FB62
:100D9000FEF91FFA84F80EFB191143EA014109FB21
:100DA00008FA8A4502FA06F200FA06F308D9611831
:100DB00009F1FF3048D28A4546D9A9F102092144F8
:100DC000A1EB0A01BFB2B1FBFEF00EFB101147EA26
:100DD000014700FB08F8B84507D9E71900F1FF31D2
:100DE0002ED2B8452CD90238274440EA0940A7EB57
:100DF0000807A0FB02894F45C64649461AD317D0BB
:100E00005DB1B3EB0E0267EB010707FA0CFCF24091
:100E10004CEA0202F740C5E9002700263146BDE84A
:100E2000F0872E4628460BE70646E9E61846FDE61B
:100E30004345E5D2B8EB020E69EB04010138DFE768
:100E40000846D2E760468DE78146B9E7664675E712
:100E500030464AE7ACF1020C394413E702383C440F
:100E600024E700BF03685A004CBF43F0004323F05F
:100E700000431844704700BF2DE9F84329B34F1EC3
:100E8000044615463E464FF0000808EB060101EB0C
:100E9000D171491004EBC1094846FFF7E3FF03464F
:100EA000C80008308F42204409D0AB4209D8FFF770
:100EB000D9FF0138A8420AD201F10108E5E7AB42A7
:100EC00005D9884501D04E1EDFE74FF0000948469E
:100ED000BDE8F883012807D0022807D0044B00287A
:100EE0000CBF184600207047024870470248704700
:100EF000991500009D150000A115000030B5234B89
:100F000083B004468D1E3BB301A92846AFF3008091
:100F1000E8B101992A46FFF7AFFF0146B8B1FFF7E4
:100F2000A1FF4B68A064012B2BD0002B01F1040022
:100F300023DBFFF797FF0023C4E913030368002BAB
:100F400010DBFFF78FFF2061002003B030BD0023CE
:100F50000920236103B030BD0D490E48091AC9109C
:100F60000191D7E7C3F30360FFF7B4FF00282061C6
:100F700014BF0020092003B030BD0123C4E91303CE
:100F8000DCE7002323610520DFE700BF000000004D
:100F900084950000B49300000368DA0710B5044696
:100FA00006D49B0700F1480009D500F04BFC2368EC
:100FB000590709D51A070ED5DB0613D510BD00F069
:100FC00039FC23685907F5D404F1D00000F042FC45
:100FD00023681A07F0D404F5A87000F043FC2368D6
:100FE000DB06EBD404F5E870BDE8104000F07EBCF1
:100FF0000346006800B11844704700BF09207047DD
:10100000704700BF70B504460E46316C2046FFF7AE
:1010100075FF054688B9336C636132462369214602
:10102000012098470828F0D0072806D12846316CBF
:10103000FFF7E6FF301D00F0F1FB04F0B1FF00BF49
:101040002DE9F0470D1D064614460FCDADF5727D16
:101050000DF10C0CACE80F000FCDACE80F000FCD7C
:10106000ACE80F0095E80F0002ADF768D6F81880DD
:101070008CE80F0000232B6021E02B6C73614FF490
:10108000F07229467AA800F041FE33697AAA314607
:1010900050469847889BCDE9005821466B648146AD
:1010A000334632460120B8470446E8B94FF4F0729F
:1010B0007AA9284600F02AFEB9F1080F1BD1296C45
:1010C0003046FFF71BFF09345FFA84FA8146002897
:1010D000D3D0AB6B4AF01001CDE9005832466B64B7
:1010E00001203346B84708B14FF0090948460DF5CD
:1010F000727DBDE8F087B9F1070FF5D12046296C64
:10110000FFF77EFF03A800F089FB00BF406C70472B
:10111000F0B5CB6B0B640E1D0F4605460FCEF9B034
:1011200001AC0FC40FCE0FC40FCE0FC496E80F0052
:101130004FF0FF3684E80F00009606E02B696A4600
:10114000294698470828044608D110992846FFF7F1
:10115000D5FE0028F2D0092079B0F0BD6846FFF72F
:101160001BFF062CF7D139462846FFF74BFF00BF7F
:1011700030B4DD6BC160826119461D64002230BC51
:101180005EE700BF70B5C66843690B64AEB903691A
:101190000A4604460D46014602209847072805D016
:1011A00008280FD129462046FFF72CFF3046296C2E
:1011B000FFF726FF281D00F031FB0122FFF740FF5B
:1011C00004F0EEFE04F0ECFEC2681AB1CA6B0A64C9
:1011D000002235E79CE700BF704700BF83680146E7
:1011E0000BB1012018477047012912D009D873B9F3
:1011F0000F2A0CD800EB820218465368009A13603D
:1012000070470339012994BF012002207047022052
:1012100070470846704700BF10B584B0002303AC88
:101220000A4600941946FFF7DFFF039804B010BD8B
:10123000012912D009D873B90F2A0CD800EB82000B
:10124000009A12684260184670470339012994BF1A
:10125000012002207047022070470846704700BFF7
:1012600010B584B0002303AC039200940A461946DB
:10127000FFF7DEFF04B010BDF0B5D36B1364151D8E
:101280008C4606460FCDADF50F7D17AC0FC40FCDC4
:101290000FC40FCD0FC495E80F004FF0FF3784E85F
:1012A0000F006546169710E0FFF7DAFF294616A8EB
:1012B000B047034616AA6946082083B9049B98479D
:1012C000052804460CD0092809D026996846FFF75E
:1012D00015FE03466A460C2116A8002BE4D009240B
:1012E00016A8FFF759FE20460DF50F7DF0BD00BF93
:1012F0002DE9F04FCC6C89B00D4654F8041B0694D0
:10130000174600F003081E46002B79D00B0CDAB20A
:1013100009048DF81D30022304EB820405918DF839
:101320001C302B6DB8F1020F08BFAC6B13F001033A
:101330000CD0384605A900F073FB18B9082009B095
:10134000BDE8F08F092009B0BDE8F08FD4F800A007
:10135000BAF1000FEDD0019300F008030293022EC2
:101360004AD0B4F800A0B4F802900434AA6C29F072
:10137000010B0F2138469344FFF74EFF834539D8C0
:101380002AF001025A44824294BF002001204FEA11
:10139000490303F002030AF0010A43EA0A03012B9E
:1013A00049D0022B32D0002BCCD1B8F1000F02D0A3
:1013B000002840F0CD800434D4F800A0BAF1000F2A
:1013C000CDD105A9384600F02BFB0028BAD1019BEE
:1013D000002BB3D00F213846FFF71EFF0E21024627
:1013E0003846FFF73DFF38466A4A0F21FFF738FFBE
:1013F0000720A8E70020CAE7D4F804900834B5E72E
:10140000090203230591ADF81C308AE7236823F015
:10141000004BB8F1000F45D128B1029A002A5CD0E8
:10142000BBF1000F74D0002B00DA04340BF1010B78
:1014300004EB8B04C0E7B8F1000F19D1B0B1D4E9C7
:101440000023991C4FEAD2723FF47CAF05F158019A
:101450000133049100F09080201DFFF7C9FD04AB1B
:1014600001462846AFF3008000285BD10834A3E78B
:101470000D213846D5F82090FFF7CEFE8145F5D1F5
:10148000AB6A9C42F2D12046FFF7ECFC0F210246EA
:101490003846FFF7E5FE38462A460021FFF7E0FE12
:1014A000072050E70D213846D5F82090FFF7B4FE0D
:1014B000814501D02368B6E7AB6A9C42FAD1042289
:1014C0000021C5E90B12A318C5F828B06B63236887
:1014D0008B4259DB01230193A8E705F15803CDF8AE
:1014E0000C8004F1040AB04691461E460DE00496B5
:1014F000FFF77EFD04AB014600222846AFF30080D3
:1015000009F101090AF1040AE8B9D9455046EED1BA
:1015100038460D21FFF780FE049B2862C5E9093497
:10152000062010E781460D213846FFF775FEB9F118
:10153000020F286225D12B46049A43F82C2F6B62A8
:10154000AC620620FFE646462368DDF80C806AE7B9
:101550002046FFF787FC04340246AC632846144655
:10156000AFF3008000283FF4EDAE384622460F214D
:10157000FFF776FE0720E6E638460D21FFF74CFE22
:101580002862049B6B62DBE70BF1010004EB800037
:101590007AE700BF000000000023A9E60123A7E6C8
:1015A0000223A5E62DE9F0430646C3B015461C46C6
:1015B000042900F2B980DFE801F09A53B72903004B
:1015C000002C40F0B180102A00F2AE800368D806EB
:1015D00000F1F38020AF384600F092F9B06B0023A1
:1015E000012404FA03F22A42014604D051F8042BE4
:1015F00047F8232008460133042BF2D1B063384664
:1016000000F074F9002043B0BDE8F083032C40F0F3
:101610008B8094B204EB1243102B4FEA124500F278
:10162000838003681F0700F1D08020AF384600F0A8
:101630003BF907EBC501B56B54B10B46E81A01EB5A
:10164000C401E4001A5843F8042B8B42FAD1254414
:101650003846B56300F006F9002043B0BDE8F083DA
:10166000012C4FEA124895B25AD0052C5CD108EBF8
:101670000509B9F1200F57D8B8F10F0F77D9A9464E
:10168000002D40F08880B36B6DB320AF4FF00009A0
:1016900007EBC807043F03EBC50553F8041B47F8E5
:1016A000041FAB42F9D1B9F1000F0FD06F4641468C
:1016B000102938BF102107EBC101843903EBC9059C
:1016C00053F8040B41F8040FAB42F9D1012C00F0A0
:1016D0008480B8F10F0FB56345D9B9F1000F02D07E
:1016E000684600F0B7F8002043B0BDE8F083DCB9ED
:1016F000876B2346012094B206F1040C00FA03F232
:101700002242394604D051F8042B4CF823200F46CE
:101710000133102BF2D115F40050E4D1B76304E08B
:1017200008EB0503102B03D9022043B0BDE8F0837A
:10173000B8F10F0FF8D83368DA0706D5304623F032
:10174000030340F8483B00F079F820AF384600F03A
:1017500075F8B36B002D99D11D460435B563384635
:1017600000F068F8BFE720A800F06CF8B5E7B9F121
:10177000100F40D9A9F110093368D90708D523F013
:101780000103304643F0020340F8483B00F05EF8A6
:10179000B9F1000F32D033685A0720D4B8F10F0FD7
:1017A00025D96F463846C8F1100500F057F8002DCE
:1017B000B36B7FF77CAF20AF6AE723F01003336091
:1017C00006F5E87000F09CF804E723F008030360D6
:1017D00000F5A87000F068F827E720AFBDE73046B5
:1017E00023F0040340F8D03B00F038F8D6E720A8F7
:1017F00000F02CF8D5E74FF00009BDE7B8F10F0F66
:101800003FF641AF20AF384600F020F8B36B002D13
:101810007FF43CAF384600F015F864E700F134017E
:1018200091E838009C46A6464CF8045D90E8FF0F0E
:10183000E54600BD90EC210B704700BF80EC210B0A
:10184000704700BF90EC200B704700BF80EC200B6E
:10185000704700BFD0EC200B704700BFC0EC200BDE
:10186000704700BFF0EC0201F0EC0211F0EC022135
:10187000F0EC0231F0EC0241F0EC0251F0EC0261CC
:10188000F0EC0271F0EC0281F0EC0291F0EC02A1BC
:10189000F0EC02B1F0EC02C1F0EC02D1F0EC02E1AC
:1018A000F0EC02F1704700BFE0EC0201E0EC021145
:1018B000E0EC0221E0EC0231E0EC0241E0EC02510C
:1018C000E0EC0261E0EC0271E0EC0281E0EC0291FC
:1018D000E0EC02A1E0EC02B1E0EC02C1E0EC02D1EC
:1018E000E0EC02E1E0EC02F1704700BFB0FC0181E6
:1018F000B0FC0191B0FC01A1B0FC01B1704700BF88
:10190000A0FC0181A0FC0191A0FC01A1A0FC01B1FF
:10191000704700BFEC4600B52DE900502DE9FF1FD0
:101920004FF000032DE90C0001A9FFF7F1FBDDF8F2
:1019300040E012B0704700BFEC4600B52DE9005002
:101940002DE9FF1F4FF000032DE90C0001A9FFF75F
:1019500019FCDDF840E012B0704700BFEC4600B55E
:101960002DE900502DE9FF1F4FF000032DE90C0079
:1019700001A9FFF729FCDDF840E012B0704700BF75
:10198000EC4600B52DE900502DE9FF1F4FF0000394
:101990002DE90C0001ABFFF7EBFBDDF840E012B0E6
:1019A000704700BFEC4600B52DE900502DE9FF1F40
:1019B0004FF000032DE90C0001AAFFF75DFCDDF8F4
:1019C00040E012B0704700BF027A7AB9437AA3B1FF
:1019D0004268013B10B4437213680321141D017265
:1019E0001A024460026010BC180E70470368013A86
:1019F00002721A020260180E7047B020704700BFD2
:101A000000B585B003AA0023009219460C22FFF707
:101A1000EBFB039805B05DF804FB00BFF0E700BFE7
:101A20002DE9F043054685B00E464FF000083046DC
:101A3000FFF7CAFFB028044600F0B280070620D5A1
:101A400000F0F003802B4DD0902B36D0A02B60D02F
:101A5000B02B74D0C02B00F08B8000F0F803D02B9B
:101A60000BD100F00702013242F4002205230121CC
:101A70002846FFF797FD0028D9D0092005B0BDE81A
:101A8000F0830DF10C09002319468700CDF8009072
:101A90000D222846FFF7A8FBFFB2039BCDF800906C
:101AA000043760064CBFDF1BFF18002319460D22C8
:101AB00028460397FFF7BCFBB9E700F00D030D2B99
:101AC000DBD003AF002300F00F0219460097284631
:101AD000FFF78AFB0023009719460D222846FFF7DF
:101AE000A7FBA4E73046FFF76FFF24022043B0F5C1
:101AF000004FC2D004010023A2B219462846FFF7C6
:101B000051FD0028B9D114F4004F18BF4FF001085F
:101B10008DE7C24302F007034FF47F621A410107C9
:101B200002F47F624FF0000348BF42F4804219463E
:101B30002846FFF737FD00283FF479AF9DE7B1282D
:101B400033D0B22800F08B80B32839D000F0FC03EA
:101B5000B42B92D000F007020132012342F400229C
:101B600019462846FFF71EFD00283FF460AF84E7C2
:101B7000C62842D0C7284CD000F0F803C02B5BD059
:101B8000C82860D0C9287FF478AF3046FFF71CFF23
:101B9000020300F00F0002F470220130024365E7F7
:101BA000B8F1000F18D0002068E73046FFF70CFFAF
:101BB000024600283FF461AF10F0F003D0D05CE79C
:101BC0003046FFF701FF010300F00F0001F4702120
:101BD000421C01230A43C3E703AC43460E2241469D
:101BE00000942846FFF700FB0094284643460F2246
:101BF0004146FFF71DFB404640E73046FFF7E4FE55
:101C0000010300F00F0001F47021421C03230A437A
:101C1000A6E73046FFF7D8FE024600283FF42DAF76
:101C200010F0F0037FF429AF04212846FFF7BAFC37
:101C300000283FF4FCAE20E700F00F02013203233E
:101C400042F420228CE73046FFF7BEFE00F0F0029F
:101C500000F00F031032013343EA023206E700239B
:101C60000DF10C090D221946CDF800902846FFF71A
:101C7000BBFA3046FFF7A8FE02064FF002070CD56C
:101C8000039B00F07F00B840034430460393FFF706
:101C90009BFE030607F10707F2D4039BCDF80090E3
:101CA00000F07F0403F50172BC4000231444194680
:101CB0000D2228460394FFF7BBFAB8E610B5C26CB4
:101CC00084B0536803248DF80C401B0202F1080411
:101CD0000846D279019301A902948DF80D20FFF7EF
:101CE0009FFE04B010BD00BF08B5FFF797FE806CE3
:101CF00008BD00BF08B5FFF791FEC06CC379023381
:101D000000EB830008BD00BF704700BF844641EA76
:101D1000000313F003036DD1403A41D351F8043B63
:101D200040F8043B51F8043B40F8043B51F8043BB5
:101D300040F8043B51F8043B40F8043B51F8043BA5
:101D400040F8043B51F8043B40F8043B51F8043B95
:101D500040F8043B51F8043B40F8043B51F8043B85
:101D600040F8043B51F8043B40F8043B51F8043B75
:101D700040F8043B51F8043B40F8043B51F8043B65
:101D800040F8043B51F8043B40F8043B51F8043B55
:101D900040F8043B51F8043B40F8043B403ABDD2C4
:101DA000303211D351F8043B40F8043B51F8043B66
:101DB00040F8043B51F8043B40F8043B51F8043B25
:101DC00040F8043B103AEDD20C3205D351F8043BF5
:101DD00040F8043B043AF9D2043208D0D2071CBFC1
:101DE00011F8013B00F8013B01D30B8803806046EA
:101DF000704700BF082A13D38B078DD010F0030360
:101E00008AD0C3F10403D21ADB071CBF11F8013BCF
:101E100000F8013B80D331F8023B20F8023B7BE71E
:101E2000043AD9D3013A11F8013B00F8013BF9D249
:101E30000B7803704B7843708B78837060467047E3
:101E400001F0FF01102A2BDB10F0070F08D010F86B
:101E5000013B013A8B422DD010F0070F42B3F6D16F
:101E6000F0B441EA012141EA014122F007047FF088
:101E700000070023F0E80256083C85EA010586EADF
:101E8000010685FA47F5A3FA87F586FA47F6A5FA1B
:101E900087F68EB9EED1F0BC01F0FF0102F0070227
:101EA00032B110F8013B013A83EA010313B1F8D1D2
:101EB0000020704701387047002D06BF35460338B3
:101EC000073815F0010F07D1013015F4807F02BFEC
:101ED000013015F4C03F0130F0BC0138704700BF3D
:101EE00000000000000000000000000000000000F2
:101EF00000000000000000000000000000000000E2
:101F000090F800F06DE9024520F007016FF0000C39
:101F100010F0070491F820F040F049804FF00004E1
:101F20006FF00700D1E9002391F840F000F10800BC
:101F300082FA4CF2A4FA8CF283FA4CF3A2FA8CF3F4
:101F40004BBBD1E9022382FA4CF200F10800A4FA5B
:101F50008CF283FA4CF3A2FA8CF3E3B9D1E90423AF
:101F600082FA4CF200F10800A4FA8CF283FA4CF3E6
:101F7000A2FA8CF37BB9D1E9062301F1200182FAA0
:101F80004CF200F10800A4FA8CF283FA4CF3A2FAA6
:101F90008CF3002BC6D0002A04BF04301A4612BAB4
:101FA000B2FA82F2FDE8024500EBD2007047D1E9B7
:101FB000002304F00305C4F100004FEAC50514F046
:101FC000040F91F840F00CFA05F562EA05021CBF17
:101FD00063EA050362464FF00004A9E780B590B0BC
:101FE00000AF78600B46FB70FB78002B27D107F120
:101FF000240300221A605A609A60DA601A615A61FA
:102000002D4A7B6852F833307B62012387F82830F1
:10201000012387F829304FF0FF333B6307F1240396
:10202000184603F0D9F9244A7B68DB0013440122E7
:102030001A717B68DB00204A1344FB6336E0FB78AF
:10204000012B31D107F10C0300221A605A609A600B
:10205000DA601A615A61184A7B6852F83330FB60C3
:1020600001233B754FF0FF33BB6107F10C031846AA
:1020700003F024FA104A7B68DB00134402221A7131
:102080007B68292B0AD97B682C2B07D80A4A7B68E6
:1020900052F833300121184603F04CFA7B68DB001C
:1020A000054A1344FB6301E00023FB63FB6B184606
:1020B0004037BD4680BD00BF0000002080B586B01F
:1020C00000AF78600B46FB707B687B617B69002BFF
:1020D0002FD07B691B79022B2BD17B691B681B0AD4
:1020E000DBB23B617B691B68DBB2FB603B69012BA8
:1020F00005D1FB68162B08D0FB68152B05D03B6972
:10210000042B0FD1FB681A2B0CD17B691A68FB7862
:10211000012B14BF01230023DBB21946104603F044
:1021200009FA06E07B691B68FA781146184603F045
:1021300001FA00BF1837BD4680BD80B485B000AF3E
:1021400078607B68FB60FB68002B0ED0FB681B7916
:10215000022B03D1FB6800221A7106E0FB681B7991
:10216000012B02D1FB6800221A7100BF1437BD4653
:102170005DF8047B7047000080B586B000AF7861E1
:10218000184B1B681B68002B0CBF01230023DBB21C
:102190001A46154B1A7011E03B461449184601F0D7
:1021A00002FA00F065F80F4B1B681B68002B14BF88
:1021B00001230023DBB21A460D4B1A700A4B1B7821
:1021C000DBB2002BE8D1084B00221A70786900F0CE
:1021D00011F8002001F040F9002318461837BD46D9
:1021E00080BD00BFF08B000078010020900B002024
:1021F000870B002080B582B000AF7860074B0122CA
:102200001A60074B00221A7000F0A0FA054801F08E
:10221000B7F9002318460837BD4680BDAC0B002037
:1022200078010020880B002080B586B000AF78616F
:10223000396100F0CFFC00F097FE0A4B1B680022CA
:102240001A6000F033F900209FED070A01F056F8FC
:102250003B460649184601F0A6F9002318461837F0
:10226000BD4680BDF08B00006F12833A880B0020C2
:10227000B0B584B000AF8A4BD3F8C830B3F1FF3F9C
:1022800006D0874BD3F8C8300133854AC2F8C8302E
:10229000834B93F8CC30002B1AD1814B012283F869
:1022A000CC207F4B022283F8CD207D4B0022C3F847
:1022B000C8200023BB600123FB6000233B60012397
:1022C0007B60784BD3E904237749C1E9002374E0AC
:1022D000734B93F8CD30012B3CD10123BB6000231D
:1022E000FB6001233B6000237B606D4BD3F8C8404B
:1022F0006C4BD3E908016B4BD3E90023FEF7D8F907
:1023000002460B4643EC172BB0EE470AF0EE670A85
:1023100003F0C6FD53EC102B10461946FEF708FCDF
:1023200003469C4249D35E4B022283F8CD205C4B8E
:102330000022C3F8C8200023BB600123FB600023F8
:102340003B6001237B60574BD3E904235649C1E925
:10235000002332E00023BB600123FB6000233B60CD
:1023600001237B604E4BD3F8C8404E4B93ED007B6E
:10237000B0EE470AF0EE670A03F092FD53EC102B23
:1023800010461946FEF7D4FB03469C4215D3444B36
:10239000012283F8CD20424B0022C3F8C82001233C
:1023A000BB600023FB6001233B6000237B603D4B4F
:1023B000D3E904233C49C1E90023394BD3F8C420B5
:1023C000BB68002B0CBF01230023DBB2194610466B
:1023D000FFF774FE324BD3F8B020BB68002B14BF5C
:1023E00001230023DBB219461046FFF767FE2C4B92
:1023F000D3F89C20FB68002B14BF01230023DBB221
:1024000019461046FFF75AFE254BD3F888300021B5
:102410001846FFF753FE224B5A6F3B68002B14BF40
:1024200001230023DBB219461046FFF747FE1C4B81
:102430001A6E7B68002B14BF01230023DBB2194600
:102440001046FFF73BFE164BDB6C00211846FFF7EA
:1024500035FE134B9B6B01211846FFF72FFE104BE7
:102460005B6A00211846FFF729FE0D4B1C690E4BD5
:10247000D3E9000101231D464FF000024FF0000395
:10248000FEF724FB0346002B01D000231D46EBB2D0
:1024900019462046FFF712FE00BF1037BD46B0BDFB
:1024A000B80B002080010020B00B002080B582B066
:1024B00000AF9C4B012283F8B4209A4B0022C3F852
:1024C000B820984B002283F8B420974B7B60954B43
:1024D000002283F8BC20934B0122C3F8B8200121CD
:1024E0002B20FFF77BFD02467B681A618D4B012292
:1024F00083F8BC208B4B012283F8A020894B00225B
:10250000C3F8A420874B002283F8A020874B7B6070
:10251000844B002283F8A820824B0122C3F8A42018
:1025200001212C20FFF75AFD02467B681A617D4B82
:10253000012283F8A8207B4B012283F88C20794B61
:102540000022C3F89020774B002283F88C20784B30
:102550007B60744B002283F89420724B0122C3F8F5
:10256000902001210220FFF739FD02467B681A61A5
:102570006C4B012283F894206A4B012283F8782067
:10258000684B0022DA67674B002283F87820694B9A
:102590007B60644B002283F88020624B0122DA6763
:1025A00001210820FFF71AFD02467B681A615D4B86
:1025B000012283F880205B4B012283F86420594B71
:1025C00000229A66574B002283F864205A4B7B60A6
:1025D000544B002283F86C20524B01229A66012151
:1025E0000920FFF7FBFC02467B681A614D4B012274
:1025F00083F86C204B4B012283F85020494B00227A
:102600005A65484B002283F850204C4B7B60454B69
:10261000002283F85820434B01225A6501210C20E7
:10262000FFF7DCFC02467B681A613E4B012283F80F
:1026300058203C4B012283F83C203A4B00221A647C
:10264000384B002283F83C203D4B7B60354B002209
:1026500083F84420334B01221A6401210B20FFF739
:10266000BDFC02467B681A612E4B012283F8442090
:102670002C4B012283F828202A4B0022DA62294BB6
:10268000002283F828202F4B7B60264B002283F802
:102690003020244B0122DA6201210A20FFF79EFC40
:1026A00002467B681A611F4B012283F830201D4BC4
:1026B00001221A751B4B00229A611A4B00221A75CF
:1026C000214B7B60174B00221A77164B01229A612F
:1026D00001210D20FFF782FC02467B681A61114B35
:1026E00001221A770F4B01221A700E4B00225A60FA
:1026F0000C4B00221A700B4B7B600A4B00221A72A3
:10270000084B01225A6001210520FFF767FC0246B1
:102710007B681A61034B01221A7200BF0837BD465D
:1027200080BD00BFB80B00206C0C0020580C0020AE
:10273000440C0020300C00201C0C0020080C002051
:10274000F40B0020E00B0020CC0B002080B500AF84
:10275000744B93F8B430002B13D1724B012283F8E1
:10276000B420704BD3F8B830012B0AD16D4B93F8DD
:10277000BC30002B05D06B4BD3F8C4301846FFF7A4
:10278000DCFC684B93F8A030002B13D1654B012281
:1027900083F8A020634BD3F8A430012B0AD1614BFE
:1027A00093F8A830002B05D05E4BD3F8B030184614
:1027B000FFF7C3FC5B4B93F88C30002B13D1594BC4
:1027C000012283F88C20574BD3F89030012B0AD18B
:1027D000544B93F89430002B05D0524BD3F89C30D7
:1027E0001846FFF7AAFC4F4B93F87830002B12D114
:1027F0004C4B012283F878204A4BDB6F012B0AD126
:10280000484B93F88030002B05D0464BD3F88830E6
:102810001846FFF792FC434B93F86430002B11D11C
:10282000404B012283F864203E4B9B6E012B09D163
:102830003C4B93F86C30002B04D03A4B5B6F18463E
:10284000FFF77BFC374B93F85030002B11D1354B01
:10285000012283F85020334B5B6D012B09D1314BA2
:1028600093F85830002B04D02E4B1B6E1846FFF700
:1028700064FC2C4B93F83C30002B11D1294B0122E6
:1028800083F83C20274B1B6C012B09D1254B93F877
:102890004430002B04D0234BDB6C1846FFF74DFC73
:1028A000204B93F82830002B11D11E4B012283F8C6
:1028B00028201C4BDB6A012B09D11A4B93F83030CE
:1028C000002B04D0174B9B6B1846FFF736FC154BBB
:1028D0001B7D002B0FD1134B01221A75114B9B69E5
:1028E000012B08D10F4B1B7F002B04D00D4B5B6AD3
:1028F0001846FFF722FC0B4B1B78002B0FD1094B1E
:1029000001221A70074B5B68012B08D1054B1B7A1B
:10291000002B04D0034B1B691846FFF70EFC00BFC9
:1029200080BD00BFB80B002080B489B000AF294B38
:10293000FB60294A294B9A4216D00023FB610AE02A
:10294000264AFB6952F823202349FB6941F82320DA
:10295000FB690133FB61FB689B08FA699A42EFD37C
:102960001F4B1D4A9A6002E01D4B1C4A9A601D4B8A
:10297000BB611D4B7B611D4BBB60BA687B69D31A81
:10298000FB6107E07A69531C7B61BB69591CB96123
:1029900012781A70FB695A1EFA61002BF2D1144B9F
:1029A0003B61144B7B607A683B69D31AFB6104E09E
:1029B0003B695A1C3A6100221A70FB695A1EFA617F
:1029C000002BF5D100BF00BF2437BD465DF8047B66
:1029D000704700BF00000000000000000000000081
:1029E00000ED00E00000002090950000F8A000003D
:1029F000680B0020E43C002080B400AF6B4BD3F8A0
:102A000088306A4A43F47003C2F88830684B4CF24D
:102A10002052DA81664B4DF62812DA81644B4FF46E
:102A2000E9721A80634B1B78DBB203F00103002BC1
:102A30000FD0614B9B78DBB203F00803002B2ED044
:102A40005D4B9B78DBB25C4A43F00803DBB29370CA
:102A500025E05A4B03F581531C331B68574943F05B
:102A6000005201F581531C331A60554B1B6903F466
:102A70008073002B13D1524B1B6923F47C53504AB3
:102A800043F4407313614E4B1B694D4A43F480730A
:102A900013614B4B1B694A4A23F400731361494B82
:102AA0002A221A70454B03F5825304334FF08A7281
:102AB0001A60424B1B6823F44023404A43F400232E
:102AC00013603E4B03F5805304331B6823F44033FB
:102AD0003A4943F4803201F5805304331A60374B8E
:102AE00003F5815318331B68344943F4007201F530
:102AF000815318331A60344B9B6C334A23F0807334
:102B000023F4E0639364314B00221A722F4B5B78FD
:102B1000DBB223F06003DBB22C4A43F02003DBB2CC
:102B200053702B4B80221A70284B00221A73274BAC
:102B3000BA221A7000BF254B9B79DBB203F0100359
:102B4000002BF8D1214BDB78DBB2204A03F01F03C6
:102B5000DBB2D3701D4B13221A711C4B18225A7111
:102B60001A4B5B79DBB2194A43F04003DBB2537175
:102B700000BF164B9B79DBB203F04003002BF8D06B
:102B8000124B1B78DBB2114A03F03F03DBB2137028
:102B900000BF0E4B9B79DBB203F00C030C2BF8D17A
:102BA00000BF00BFBD465DF8047B704700ED00E04C
:102BB0000020054000F0074000D0074000700440AE
:102BC00000D0034000E00740009004400040064071
:102BD0000050064080B483B000AF9C4B1B78DBB242
:102BE00003F0C003002B40F0DE80984B5B79DBB232
:102BF00003F04003002B40F0B980944B1B78DBB20C
:102C000003F00403002B4ED1904B1B7BDBB203F08F
:102C10000303002B02D0012B03D006E08C4B7B601A
:102C200006E04FF400437B6002E08A4B7B6000BF0C
:102C3000864B5B78DBB203F03003002B23D0834B51
:102C40001B7BDBB203F00303012B1CD07F4B1B78F3
:102C5000DBB203F03803302B05D0382B07D14FF40B
:102C6000C0637B800EE04FF4A0637B800AE0774B6B
:102C70001B78DBB2DB0803F00703202202FA03F320
:102C80007B8000BF09E0714B1B78DBB2DB0803F0EF
:102C90000703012202FA03F37B807B887A68B2FB88
:102CA000F3F37B6002E04FF400437B60674BDB781B
:102CB000DBB203F0E003E02B51D0E02B00F2B08058
:102CC000C02B45D0C02B00F2AB80A02B39D0A02B5D
:102CD00000F2A680802B2DD0802B00F2A180602BEB
:102CE00021D0602B00F29C80402B15D0402B00F2AD
:102CF0009780002B02D0202B07D091E07A681346F2
:102D00009B001344DB017B608BE07A6813469B00D9
:102D100013441B027B6084E07A6813461B019B1AF4
:102D2000DB017B607DE07A6813469B0013445B0205
:102D30007B6076E07B684FF4377202FB03F37B60C5
:102D40006FE07B684FF4B76202FB03F37B6068E0DF
:102D50007B6840F6950202FB03F37B6061E07B68D1
:102D600040F6713202FB03F37B605AE0374B1B796C
:102D7000DBB29BB203F01F039BB201337B807B88E5
:102D8000334AB2FBF3F37B60304B5B79DBB29BB22F
:102D900003F01F039BB218337B807A887B6802FBA9
:102DA00003F37B603DE0294B1B78DBB203F0C003EB
:102DB000402B1AD1254B5B78DBB203F00103002BCB
:102DC00003D14FF400437B602BE0204B1B7ADBB236
:102DD0005B0803F00703012202FA03F37B807B8880
:102DE0001D4AB2FBF3F37B601BE0184B1B78DBB290
:102DF00003F0C003802B23D1144B1B7BDBB203F009
:102E00000303002B02D0012B03D006E0104B7B60A4
:102E100007E04FF400437B6003E00E4B7B6000E073
:102E200000BF0E4B03F5825304331B681B0F03F0E6
:102E30000F0301337A68B2FBF3F3094A136000E031
:102E400000BF0C37BD465DF8047B7047004006406C
:102E500080F0FA02006CDC0200093D0000700440C2
:102E6000B001002080B584B000AFF860B9601346AF
:102E7000FB71BB681F2B05D90D4B0E4AFF210E4875
:102E800003F096F8FB68BA6853F8223023F0807399
:102E900023F4E063FA79120202F4E06243EA0201E9
:102EA000FB68BA6843F8221000BF1037BD4680BDEA
:102EB000A08B00000C8C0000AC8B000080B483B0B1
:102EC00000AF78600B46FB707B68FA781A7000BF21
:102ED0000C37BD465DF8047B7047000080B584B0B8
:102EE00000AF3B4600221A605A609A60DA60064BD7
:102EF0003B6002237B723B461946002002F0DEF85D
:102F000000BF1037BD4680BD80F0FA0280B584B0A6
:102F100000AF074A3B1D07CA83E807003B1D19465F
:102F2000002002F017F900BF1037BD4680BD00BF7A
:102F3000E48B000080B500AF2A210848FFF7BEFFF0
:102F4000002212210648FFF78DFFFFF7C7FFFFF7AA
:102F5000DDFF044802F054F900BF80BD00E00740E7
:102F600000900440F48B000080B582B000AF01F007
:102F7000E1FF0023FB7106E0FB79184602F096F9A9
:102F8000FB790133FB71FB79042BF5D9FFF7D2FFF5
:102F900000BF0837BD4680BD80B500AF002002F0FD
:102FA000AFF900BF80BD80B500AF012002F0A8F9E5
:102FB00000BF80BD80B500AF022002F0A1F900BFC4
:102FC00080BD80B500AF032002F09AF900BF80BD3C
:102FD00080B500AF042002F093F900BF80BD80B53A
:102FE00000AF052002F08CF900BF80BD80B500AFB6
:102FF000062002F085F900BF80BD80B500AF072034
:1030000002F07EF900BF80BD80B500AF082002F05D
:1030100077F900BF80BD80B500AF092002F070F9DC
:1030200000BF80BD80B500AF0A2002F069F900BF83
:1030300080BD80B500AF0B2002F062F900BF80BDFB
:1030400080B500AF0C2002F05BF900BF80BD80B5F9
:1030500000AF0D2002F054F900BF80BD80B500AF75
:103060000E2002F04DF900BF80BD80B500AF0F20EB
:1030700002F046F900BF80BD80B500AF002002F02D
:1030800057F900BF80BD80B500AF002002F0D2FD2F
:1030900000BF80BD80B500AF012002F0CBFD00BFB6
:1030A00080BD80B500AF022002F0C4FD00BF80BD2E
:1030B00080B500AF032002F0BDFD00BF80BD80B52C
:1030C00000AF042002F0B6FD00BF80BD80B500AFA8
:1030D000052002F0AFFD00BF80BD80B400AFFEE769
:1030E00080B400AFFEE780B400AFFEE780B400AF6D
:1030F000FEE780B400AFFEE780B400AFFEE780B427
:1031000000AFFEE780B400AFFEE780B400AFFEE79B
:1031100080B400AFFEE780B400AFFEE780B400AF3C
:10312000FEE780B400AFFEE780B400AFFEE780B4F6
:1031300000AFFEE780B400AFFEE780B400AFFEE76B
:1031400080B400AFFEE780B400AFFEE780B400AF0C
:10315000FEE780B400AFFEE780B400AFFEE780B4C6
:1031600000AFFEE780B400AFFEE780B400AFFEE73B
:1031700080B400AFFEE780B400AFFEE780B400AFDC
:10318000FEE780B400AFFEE780B400AFFEE780B496
:1031900000AFFEE780B400AFFEE780B400AFFEE70B
:1031A00080B400AFFEE780B400AFFEE780B400AFAC
:1031B000FEE780B400AFFEE780B400AFFEE780B466
:1031C00000AFFEE780B400AFFEE780B400AFFEE7DB
:1031D00080B400AFFEE780B400AFFEE780B400AF7C
:1031E000FEE780B400AFFEE780B400AFFEE780B436
:1031F00000AFFEE780B400AFFEE780B400AFFEE7AB
:1032000080B400AFFEE780B400AFFEE780B400AF4B
:10321000FEE780B400AFFEE780B400AFFEE780B405
:1032200000AFFEE780B400AFFEE780B400AFFEE77A
:1032300080B400AFFEE780B400AFFEE780B400AF1B
:10324000FEE7000080B584B000AF7860114B1B68CA
:10325000002B02D10F4B104A1A600E4B1B68FB600B
:103260000C4B1A687B6813440C4A934207D902F04E
:10327000C3FE03460C221A604FF0FF3306E0054BF5
:103280001A687B681344034A1360FB6818461037BA
:10329000BD4680BD8C0C00200000FF1F00000020F8
:1032A00080B582B000AF7860034800F069F900BFD4
:1032B0000837BD4680BD00BF900B002098B500AF19
:1032C000094B0A4A1A600A4B0A4A1C1D13460FCBC7
:1032D00084E80F0000F0B9F80346054A1360064B76
:1032E000034A1A6000BF98BD900B0020980B002085
:1032F000B40C0020608C0000880B002080B586B0E4
:1033000002AF87ED010A38600223FB60FFF7D6FFAA
:10331000164800F025F90346BB60154800F020F977
:103320000346BB60002300930023FA68114912484A
:1033300000F062F80346BB600023104A01211048E8
:1033400000F09BF80346BB60D7ED017A9FED0D7A44
:1033500067EE877AFCEEE77A17EE901A084800F0DD
:10336000B3F800BF1037BD4680BD00BF900B0020F2
:10337000880B002079210000980B0020A13200006A
:10338000900C002000007A4480B400AFFEE700BF3C
:1033900080B483B000AF78607B68013B032B0BD80F
:1033A00001A252F823F000BFB9330000B933000086
:1033B000B9330000B933000000BFFEE7704700BF1B
:1033C000704700BF0020002104460D46084802F067
:1033D0000DFE02F051FE2046294600F0B1F90548E5
:1033E000002100F069FA00F0BFF902F00BFE0000C6
:1033F00025600000608C000080B586B000AFF860EA
:10340000B9607A603B60FB68BA685A60FB687A68AA
:103410009A60FB680122DA603A68FB681A61FB680F
:103420000433396A184600F047FA0246FB681A600E
:10343000FB681B68002B14BF01230023DBB27B61F8
:103440007B6918461837BD4680BD80B500AF00F0D7
:1034500085FA0346184680BD80B584B000AF786019
:1034600000F07CFA0346FB60F86800F083FA03463C
:10347000BB6000BF1037BD4680BD80B586B000AFD1
:10348000F8607A603B600B46FB72FB6803F10C024C
:10349000FB689A60FB687A685A60FB680433F97AC3
:1034A0003A68184600F070FB0246FB681A60FB6839
:1034B0001B68002B14BF01230023DBB27B617B69F7
:1034C00018461837BD4680BD80B584B000AF78601F
:1034D00039607B681B683968184600F089FB034631
:1034E000FB60FB6818461037BD4680BD84B080B5D0
:1034F00082B000AF07F1100C8CE80F003B69796ACD
:10350000184600F04BFC03467B607B681846083782
:10351000BD46BDE8804004B0704784B080B500AFC0
:1035200007F1080C8CE80F00BB68F969184600F039
:1035300055FC03461846BD46BDE8804004B07047C0
:1035400080B582B000AF786039607B684FF0FF32A1
:103550003968184600F050FC78680837BD4680BDD1
:1035600080B485B000AF78607B6801225A60012387
:10357000FB60FB6818461437BD465DF8047B704756
:1035800080B584B002AF78607B681B687A68526847
:1035900001921A6900920FCBFFF7A8FF0346184665
:1035A0000837BD4680BD80B584B002AF7860396011
:1035B0003B681B683A68526801921A6900920FCB07
:1035C000FFF7ABFF3B685A687B6811461846FFF768
:1035D000B7FF78680837BD4680BD000000B5DFF84A
:1035E0000CC000DFDFF808C000DFFEE7593800003C
:1035F000713800002DE9F041344C237853B1344B3D
:103600001B68FF229A70334A002001231070237038
:10361000BDE8F081304B3148196800F00BFD0028FF
:103620004CD101F079FB2A4B21781B68FF229A705C
:103630000029E8D12A4A1368002B44D0556845B1C7
:103640002A78002A38D1191D890089B2284600F04D
:10365000B5FD244B244A1E68156096B35D68EA1CCC
:10366000062A2ED8DF688FB9291D30463B463A46D8
:1036700001F010FA054620B31C4B1D4A681E53F892
:103680002050AB6A5A631B4B1D60BCE73946134898
:1036900000F0DEFC8046A0B1291D41EA072130463A
:1036A0000023424601F0F6F905460028E4D14146E0
:1036B0000A4800F0F1FCE6E70D46CAE78520BDE8C0
:1036C000F0810025DFE71D46C3E700BF3C3C00203A
:1036D000803C00203D3C00203C8C0000802F0020DE
:1036E000548C0000448C0000743B0020443B0020BC
:1036F000DD350000503B002038B50F4C207808B174
:10370000002038BD0D4D2B6893F8241001F072F99C
:103710002B68DA78FF2A03D19A6A203282F309886B
:103720006A682AB101F066FB01232370002038BDCE
:10373000C5E90023F6E700BF3D3C0020803C0020A7
:1037400010B5EFF305845CB9EFF31484E40703D5F7
:10375000DFF810C000DF10BDBDE81040FFF74ABF22
:10376000822010BDF535000010B588B0EFF3058458
:103770001CBBEFF3148404F00304022C24D0032CAC
:1037800014D0012C16D008AC84F30988114C24788D
:10379000E40715D4032484F31488BFF34F8FBFF3D9
:1037A0006F8FDFF834C000DF08B010BD094C2478FB
:1037B000E407F6D5FF2008B010BD822008B010BD88
:1037C000022484F31488E8E7024C2478E407E8D460
:1037D000E0E700BF2C8C0000F936000098B3F8B584
:1037E000066876B34768FB1C062B2AD8C2680446D5
:1037F0000D46BAB11146154800F02AFC064600B342
:103800006268E1682068043242EA01212B463246B0
:1038100001F040F9044660B931460C4800F03CFC28
:103820002046F8BD0B463046391D01F033F90446F9
:1038300038B1601E064B074A53F82000836A5A636A
:10384000F8BD0020F8BD0020704700BF802F002089
:10385000443B0020DD35000008B501F0C3F818B185
:103860000138024B53F8200008BD00BF443B002044
:10387000D0B1820718D138B50478BCB9C28C0346E0
:10388000C0785AB1DD6A01F069F9FF2810D04DB156
:103890002946084800F000FC204638BD01F05EF9DA
:1038A000FF2805D0002038BD80207047802038BD1B
:1038B000812038BD802F0020F8B5EFF305848CB946
:1038C000EFF31484E40702D41F4C247864B1DFF8CA
:1038D00088C000DFF8BD0B463046391D01F0DAF82C
:1038E000044640BB0020F8BD0028FBD00668002E2F
:1038F000F8D04768FB1C062BF4D8C2680D46044676
:10390000002AE8D01146114800F0A2FB0646002824
:10391000E8D06268E1682068043242EA01212B465F
:10392000324601F0B7F8044628B93146074800F09E
:10393000B3FB2046F8BD601E054B064A53F8200035
:10394000836A5A63F8BD00BF3D3C0020802F0020F1
:10395000443B0020DD350000DD37000010B5EFF3FB
:1039600005841CB9DFF808C000DF10BD002010BDC1
:103970005938000010B5EFF305841CB9DFF808C012
:1039800000DF10BD822010BD71380000A0B10368B7
:103990009BB143688BB101290ED830B40A4C24681E
:1039A0006CB11C795CB9012559711D711C60C3E9AA
:1039B000042030BC18467047002318467047002387
:1039C000184630BC704700BF503B0020820727D10B
:1039D00030B3002951D0F8B5314B1A68002312F1E9
:1039E000FF3643F1FF3704464FF47A70E0FB01677E
:1039F00030463946FDF7BCF82379012B12D0022B53
:103A00000CD1284D2A684AB1944238D0114602E0C0
:103A10009C4228D019460B68002BF9D18120F8BDB3
:103A2000802070471F4DE06002232A682371002A1E
:103A30002AD09668B04206D22CE09D688D420BD801
:103A400008462E461A461368811B002BF5D12360C9
:103A5000A16014600020F8BDA16099682360081A75
:103A600006449E60F5E723680B602368002BE0D0D6
:103A70009968A66831449960D9E786207047236821
:103A80002B600BB11A46F3E70023A06023602C6083
:103A90000020F8BDA06093682260181A9060F6E7D5
:103AA000308C0000403C0020830704D130B1D0E9C5
:103AB000041318687047002001467047014670479C
:103AC0002DE9F8432E4F3C68002C37D0A368013B0A
:103AD000A360002B32D1DFF8AC902668D9F80050F3
:103AE0003E6025B195F80080B8F1010F17D0042091
:103AF000FFF74EFCA2609A682360551B65449D60E9
:103B00000460DEB1B368CBB9D9F8005033683B60CC
:103B1000002DECD02A78012AE9D134461E462846E9
:103B200000F0ACFB0028E2D02846214600F0AAFBBA
:103B30006379012B04D084F80480E2E7BDE8F883C0
:103B40003868E56890B1D0F808C0654506D211E044
:103B500099689142CED815468C4618460368A5EB65
:103B60000C02002BF4D12360A260C9E72060A5609D
:103B70003C60C6E7A560836820605D1B8560F7E751
:103B8000403C0020743B002030B5EFF305840CBBB3
:103B9000EFF31484E40702D4124C24782CB1DFF83C
:103BA0004CC000DF0346184630BDC0B10368002B8F
:103BB000F9D04368002BF6D001290ED80A4D2D68A4
:103BC00045B11D794DB901241D605971C3E9042027
:103BD0001C71E8E70023184630BD2346E3E703469F
:103BE000E1E700BF3D3C0020503B00208D39000044
:103BF00010B5EFF305841CB9DFF808C000DF10BD75
:103C0000822010BDCD39000008B50B4DEFF30580C3
:103C10004FF0FF310028F9D12868DFF820C000DF1D
:103C20001028F3D10846DFF818C000DF044600284A
:103C3000ECD00846A047E9E7743B0020253E000091
:103C4000A93A000010B570B183070CD1037853B9BD
:103C50000B0C1B043BB9034688B21C8BD97800F0CF
:103C600029FD204610BD4FF00044204610BD00BF86
:103C700010B570B183070CD1037853B90B0C1B043A
:103C80003BB9034688B21C8BD97800F03FFD204633
:103C900010BD4FF00044204610BD00BF2DE9F0419B
:103CA0004FEA10484FEA0848B8F1000F48D10D46D6
:103CB000044640B380B291B14A1C5DD0344B994266
:103CC00063D8344B1A684FF6FE714FF47A73561E60
:103CD00003FB0563B3FBF2F38B4200D899B20122D8
:103CE00000F0C6FC022844D0002D14BF402400245C
:103CF000002001460E460F464546204629463246DC
:103D00003B46BDE8F08159B34B1C38D0204B99425B
:103D100038D8204B1A684FF6FE714FF47A73501E54
:103D200003FB0505B5FBF2F58D4200D8A9B20022D0
:103D30004FF6FF7000F09CFC02280BD04024D7E720
:103D4000002586242E462F462046294632463B46ED
:103D5000BDE8F081104B1B680824B3F81A80C7E750
:103D600042464FF6FF7000F083FC0228F2D0444632
:103D7000BEE7A0460824BBE74FF6FF71AFE74FF65A
:103D8000FF71D4E74FF6FE71D1E74FF6FE71A6E75B
:103D900000093D00308C0000803C002070B5EFF33E
:103DA00005852DB9DFF830C000DF0446204670BD20
:103DB000044668B183070BD103784BB90B0C1B0485
:103DC00033B988B2E178248B00F0ACFC204670BD9A
:103DD0004FF00044204670BD453C000010B5EFF3A5
:103DE00005841CB9DFF80CC000DF10BD4FF00040A7
:103DF00010BD0000713C000070B50446EFF305856E
:103E00004DB908461146DFF818C000DFC4E90001CB
:103E1000A260204670BD82230360204670BD000072
:103E20009D3C0000F0B5034685B000283AD00278EA
:103E3000012A2AD10C4600293ED04A1C49D0264AE4
:103E400091422CD8254A11684FF47A75481E4FF6D6
:103E5000FE7205FB0404B4FBF1F4944200D8A2B254
:103E6000184602A900F0B6F9012830D00020024619
:103E700003461020029904460D4616461F4620466A
:103E8000294632463B4605B0F0BD002580242E462B
:103E90002F462046294632463B4605B0F0BD4FF638
:103EA000FE72DDE705460646074680242046294681
:103EB00032463B4605B0F0BD0A4602A900F08AF939
:103EC0000128D3D10020024603462046D2E74024F1
:103ED000F8E74FF6FF72C3E700093D00308C0000A1
:103EE000274B2DE9F047C58CD3F80090C66AAD0882
:103EF00008BFC9F38D0506EB8504630748BF043C82
:103F00008046A4F140074FF080738A4644F8081CAD
:103F100044F8043C38463822002102F08BFBD8F8E4
:103F20001C3044F8203C19F0805F3B46C8F82870EC
:103F3000C8F830A01FD0112D1DD9103D6D08012DDE
:103F400012D06FF03702A2EBC50214444FF0CC320E
:103F500043F8042C43F8082DA342F9D1C5EB45756D
:103F600007EBC50303F108073B1F9E423CBF4FF020
:103F7000CC3347F8043C034B3360BDE8F08700BF07
:103F8000248C0000A52E5AE290F82520836A12B1F5
:103F900060331960704720331960704710B490F88F
:103FA0002540836A2CB16033C3E900125DF8044BED
:103FB00070472033C3E900125DF8044B704700BF1F
:103FC000084B1B68DA0107D5074B1B68DB0703D5D5
:103FD000064B1B68002B00DB7047054B01221A7053
:103FE000704700BFFCED00E0800E00E0000E00E036
:103FF000443C002010B4094C2368002BFCD0036B18
:10400000064A23601368002BFCD0C3785DF8044B8C
:1040100043EA01239BB21380704700BF7C0000E09D
:10402000034A1368002BFCD0C0B21070704700BF69
:104030007C0000E0034648B1072907D90439002273
:10404000084418605A5010465A6070470120704763
:10405000F0B1F1B10B3170B4036821F0030603E055
:104060001968184649B10B46446802199D1AAE42B8
:10407000F6D82CB9466000F10801084670BC7047BC
:1040800002F10801C2E90036026070BC08467047C0
:1040900001460846704700BFC0B1B9B1083988422F
:1040A0001DD010B404689CB1A1421CD0236823B970
:1040B0000EE01A681C465AB113469942F9D15CB118
:1040C0001B68236000205DF8044B70470120704797
:1040D00001205DF8044B704700205860F3E7034669
:1040E00000205860704723460446E9E7002A30B4B0
:1040F0001FDB033222F003020C24BAB113198B42E6
:1041000014D8044401448D1AA3189D42C0E900410B
:10411000826015D3002100E0034698188542635061
:104120001144F9D20020186030BC7047012030BC27
:10413000704722F00042073222F007021024DCE729
:104140002346EFE7EFF3108372B6026803F0010332
:104150000AB11168016003B962B61046704700BF2A
:1041600081420DD343688B420AD9EFF3108372B6B4
:1041700002680A60016013F0010003D162B6704763
:104180000120704700207047426882B110B500F0EE
:104190001DF9044600F032FA012161702046FFF754
:1041A000F3FE21460448BDE8104000F0E7B842881D
:1041B00001324280704700BF4C3C00201039002380
:1041C00089080122C18102808370C0E901338381A3
:1041D000704700BF38B5838904467BB915465AB18C
:1041E000254A4368116823B300F0C8F8284608211F
:1041F00000F0D0FB012038BD012038BD4389C289C1
:10420000181D01339BB254F8200008609A42638164
:1042100004BF00236381636813B16378022B0ED05F
:10422000EFF3108372B6A389013BA38162B600202D
:1042300038BD01224160C1E901304270D6E7204615
:1042400000F0C4F800210546FFF79EFE2389E289AD
:10425000E869191D01339BB29A4244F82100238179
:1042600004BF00232381284600F0C8F9284600F047
:1042700055FB002038BD00BF803C0020C2898089EA
:10428000101A704708B500F0D1F9BDE8084000F0F9
:1042900083BA00BF426870B503464AB14578022D23
:1042A0000E4604463DD0032D1AD0012D30D070BDEE
:1042B0008489C08984425AD21889043043F8201076
:1042C000EFF3108172B699890131998162B619892B
:1042D000D889013189B288421981E8D11A8170BD2B
:1042E0000846FFF72FFF05460028E0D0204600F0E3
:1042F0006DF829460446FFF747FE01236370204608
:1043000000F07CF921461C48BDE8704000F036B84A
:1043100000F05CF8044632461021FFF73FFE65705E
:10432000EDE700F053F800210546FFF72DFE238945
:10433000EA69043344F82320EFF3108372B6A389AB
:104340000133A38162B62389E28901339BB29A4289
:10435000238104BF00232381012328466B7000F0D2
:104360004DF929460448BDE8704000F007B8032025
:10437000BDE87040FFF70CB84C3C002030B4057825
:1043800042688C78013DEDB2EAB19378A34204D241
:104390000FE0987884420ED81A465368002BF8D163
:1043A0000023022D4B60516000D900228A6030BC8E
:1043B000704713460246022D4B605160F5D8996054
:1043C00030BC8A6070470246EAE700BF0278436863
:1043D000013A59684160022A07D811B10022886069
:1043E0005A6000229A601846704700225A601846A8
:1043F000704700BF034B5A684260002258608260D9
:10440000704700BF4C3C0020816830B400292FD099
:104410000B780A461BB992681378002BFBD04468CE
:104420004C604568546805B1A960013B8578D9B2F4
:10443000002C3AD0A378AB4204D20FE09A78954290
:104440000ED81C466368002BF8D100230229436074
:1044500060600AD90023836030BC7047234614464D
:10446000022943606060F5D89860846030BC704772
:104470004378012BF0D10E494C68A0420DD04CB1CD
:10448000626890420FD02AB15368984206D01A460B
:10449000002AF9D10B78064AC7E70A4645685560F5
:1044A0000B78034AC1E72246F8E71446CDE700BF80
:1044B0004C3C002070B4164EF36823B3B58AA94271
:1044C0002A4602D821E0A4B123469D8ADC682A440A
:1044D0009142F8D895B2C460D860C268036102B155
:1044E00010616A1A82829A8A551B2944998270BC8B
:1044F0007047891A89B20022C26070BCD86003611B
:104500009982828270473346F5E71C463346E2E7DC
:10451000643C00202DE9F0432A4DEB68002B4AD083
:10452000A88A013880B2A882002844D1264F274AA1
:104530003E78B2F800E0013EF6B2B8464FF0010C0A
:104540009A6832B15968516011B159688A605860EF
:1045500098607A689C78002A2FD09178A14205D281
:104560001EE091F802904C451CD80A46516800297B
:10457000F7D1022E5860536000D900225C789A600F
:10458000042C998A02D1DA8A72449A82DA6883F812
:1045900001C06AB11561C3E9030081B91346CFE7D1
:1045A00011464246022E59605360E6D88B60E5E71B
:1045B000A982EA601A61BDE8F0834246D9E7A98280
:1045C000EA60F8E7643C00204C3C0020483C0020B6
:1045D00083682BB142685A60426842B19360704769
:1045E000054B5A68904203D01346002AF9D1704710
:1045F00042685A60704700BF4C3C002003699BB181
:10460000C268DA6062B1998A10B4848A21449982BE
:10461000002413610023C46003615DF8044B7047FC
:104620009A82002303617047704700BF30B40F4B7C
:10463000DC78EFF3108272B69A78944208D9551C50
:104640001A789D70551CAC4214BFEDB200251D7048
:1046500062B6DC78944205D903EBC203C3E90101D9
:1046600030BC7047022030BCFEF792BEC03A00203A
:1046700038B50F4B1C68238B00EA030552B1A842E2
:104680000BD006250A4660832946104600F082F9C1
:10469000012038BD35B90525F4E723EA0000208361
:1046A000022038BD23EA000020836583022038BD44
:1046B000803C00200139144B10B553F8214044B11F
:1046C000218B6378628B0843062B208318D0052B3F
:1046D00000D010BD10EA0203FBD0638320EA020081
:1046E00020832046FFF78AFF012320466370628BF8
:1046F0000821FFF753FC2046BDE8104000F00EB93A
:1047000032EA0003EAD010BD443B00200139044BDB
:1047100053F821301BB11A8B22EA00021A8370472A
:10472000443B002008B50139064B53F821303BB11A
:1047300001461846FFF77AFFBDE8084000F02CB8A4
:1047400008BD00BF443B002038B5038B4278458B41
:104750001943062A018319D0052A00D038BD11EA71
:104760000503FBD0438321EA050104460183FFF7DB
:1047700045FF012320466370628B0821FFF70EFC82
:1047800021460448BDE83840FFF7F8BD35EA01038B
:10479000E9D038BD4C3C0020054B1A7822B9054BB6
:1047A0004FF080521A60704701229A70704700BF24
:1047B000840B002004ED00E038B5234B234C18682F
:1047C00001234370FFF716FE6378A2781D46C2B13D
:1047D00004EBC5014B681A78184662B3012A2ED043
:1047E000FFF7D2FCE3780135AB4212D0EFF3108330
:1047F00072B6A378013BA37062B6A378002BE7D111
:10480000EBB213486370FFF7E1FDBDE8384000F0FC
:1048100073B8EFF3108372B6A378013BA37062B64E
:10482000A578002DECD0002504EBC5014B681A7863
:104830001846002AD2D10989FFF786FFD2E7896896
:10484000FFF728FDCEE700BF803C0020C03A0020E3
:104850004C3C00200A4A0B490B480C4B10B414681E
:104860000C600B4A002407210460196013685DF88E
:10487000044B43F07F434FF0FF301360704700BF9D
:10488000288C000014E000E018E000E010E000E0F8
:1048900020ED00E0704700BF08B50B4B18680123FE
:1048A0004370FFF7A7FDFEF78BFD084A136801333D
:1048B0001360FFF72FFEFFF703F90548FFF786FDAA
:1048C000BDE8084000F018B8803C0020483C0020BB
:1048D0004C3C0020064B1B68D3E90A329A4203D8AD
:1048E0001268044B9A4202D00120FEF751BD704776
:1048F000803C0020A52E5AE2064A074B12785860E9
:10490000022141702AB11B68984202D0C078FFF79B
:1049100087BB7047443C0020803C002038B500B382
:10492000194D82780446286883789A4211D9FFF796
:1049300061FD164A2B6812780120022158706C60C4
:104940006170DAB1A34219D0E078BDE83840FFF7D2
:1049500067BB0123637021460D48BDE83840FFF76F
:104960000DBD0B48FFF732FD084A074B127858601F
:104970000221417012B11B68984200D138BDC07845
:10498000BDE83840FFF74CBB803C0020443C002091
:104990004C3C002000B9704738B54FF6FF720E4D01
:1049A00090420C462B6804D001461846FFF782FD62
:1049B0002B685C700948FFF709FD094B68601B789C
:1049C000022242703BB12B68984204D0C078BDE807
:1049D0003840FFF725BB38BD803C00204C3C002010
:1049E000443C0020024B186800B1C078704700BFFB
:1049F000803C002038B5C0B1214B1B88834237D39F
:104A00000138204B53F82040002C31D01E4DA170AE
:104A10002B6884F824109C420CD02046FFF7F4FC4D
:104A20006378012B26D0002038BD174D2B68997074
:104A300083F82410154C626892788A42F3D919469B
:104A40002046FFF79BFC2B6801225A702046FFF797
:104A5000BDFC0F4B68601B7802224270002BE2D035
:104A60002B689842DFD0C078FFF7DAFA002038BD13
:104A7000FF2038BD0548FFF7A9FCFFF74FFFD2E73D
:104A8000208C0000443B0020803C00204C3C002057
:104A9000443C00202DE9F04111F0FF0F0D46064681
:104AA000294890461F4608BF0135FFF74BFB0446D7
:104AB00060B30023C5F30F214FF48072EDB2C0F84C
:104AC0002C80C761C184857080F824500280036205
:104AD000C0E90133C0E90333C0E9053380F825306C
:104AE000C1B120463146FFF7FBF9184B188868B171
:104AF000174E33682BB33246012303E052F8041FEC
:104B000069B12B46984203F10105F7D100252846EB
:104B1000BDE8F0810F48FFF715FBE062E1E7E9B27D
:104B20000D4A46F823401378E1702BB92046FFF771
:104B3000F5FE2846BDE8F08101212046FFF75AFA2C
:104B4000F4E701210D46EBE7C80C0020208C0000A3
:104B5000443B0020700D0020443C00202DE9F84F1C
:104B6000664E346800285ED0E37883425BD0644BA5
:104B70001B888342C0F0BF80471EDFF898B15BF806
:104B80002790B9F1000F00F0B6804846FFF720FDEE
:104B90004846FFF733FDD9F8204044B36368DFF897
:104BA0006CA14FF001082046DBB1FFF70FFC00219C
:104BB0000546FFF7E9F92846FFF720FD85F8018053
:104BC00029465046FFF7DAFBE2682B6AE360A560EE
:104BD000A4F802802C6252B1144620466368002B70
:104BE000E3D1E2686380C4E90233002AF4D1454D81
:104BF000D9F82C10444800244BF82740FFF7B0FAAE
:104C00002B78C9F82C40002B70D1404C40484946C5
:104C1000FFF7A6FA636831689A788B789A425ED873
:104C20000020BDE8F88F00236370FBF774FCA062DE
:104C3000FFF750FE33681C6A34B36368DFF8CC803A
:104C400001272046CBB1FFF7C1FB00210546FFF746
:104C50009BF92846FFF7D2FC6F7029464046FFF7C4
:104C60008DFBE2682B6AE360A56067802C6252B11D
:104C7000144620466368002BE5D1E2686380C4E9EE
:104C80000233002AF4D13368DA78D96A21481D4DFD
:104C9000531E002440F823401B48FFF761FA336895
:104CA0002A78DC62AAB91A481946FFF759FA002493
:104CB00016483460FFF78AFB2B787060022242703E
:104CC000002BADD033689842AAD0C078FFF7A8F97E
:104CD000A6E718462146FFF78DF93368E3E701237D
:104CE00020464B70FFF74AFB2046E3E72146484643
:104CF000FFF780F989E7FF20BDE8F88F803C0020AE
:104D0000208C0000443C0020700D00204C3C002012
:104D1000C80C0020443B002038B5FFF751F9244B64
:104D20001A8822B192000021224801F083FC224B14
:104D300022481988224D3422FFF7D8F9214A224B04
:104D400012881968214842F00042FFF7CFF9204B42
:104D5000204A186811880822FFF7C8F91E4B1B4823
:104D60000024C5E90034C5E90244C5E90444AC6146
:104D7000C5E90844FFF7E6F91849E8622846FFF755
:104D8000AFF8174B174A1D601748184912780223CD
:104D90006B70174BC270042204800A701A704C604A
:104DA000C3E903449C82BDE83840FEF707BB00BF5F
:104DB000208C0000443B0020348C0000C80C0020F4
:104DC000883C0020248C0000388C0000700D0020EE
:104DD000783B00205C8C0000000100FF893300005C
:104DE000803C0020408C0000C03A00204C3C002059
:104DF000643C002008B51E4B1A6842F47F021A601A
:104E00001B681B0203F07F43DB43B3FA83F3194AA9
:104E1000194812680168DBB2C3F10803C2F3022229
:104E2000934298BF531C6FF0807202FA03F303F0B1
:104E30007F4321F07F4213430360FFF70BFD0F4BCD
:104E40000028186012DB00F1604000F56440FF228A
:104E500002701A6853099B0003F1604303F5614334
:104E600002F01F02012101FA02F21A6008BD00BF20
:104E700020ED00E00CED00E01CED00E07C3C0020AB
:104E800073B50D4B0D4801251D604FF0854440F270
:104E90000113ADF8003000260099266000F076FB83
:104EA0004FF48073ADF804300199044800F050FBD2
:104EB000A661256002B070BD00079042000004406A
:104EC00010B5044628B90A4B0A4A0B48CC2101F018
:104ED0006FF84378FF2B09D000F00AFA63780133AA
:104EE000DBB2637000F0FAF9002010BD0120FCE78E
:104EF000708C0000B58C0000758C00000A4B0022FD
:104F00009A6403F140029A6303F130029A6203F15A
:104F100020029A6103F110029A60044A1360044B64
:104F2000C3E90233704700BF803B00207C3B002078
:104F3000D03B002008B5FFF7E1FFFFF7A1FF0020FD
:104F400008BD0000094B1A7802F03F0242F08002CF
:104F50001A709A79C2F38102022AFAD1044B002214
:104F60001A76044A1378002BFCD1704700400640A3
:104F7000A000C842D400C842F0B5044689B00E462D
:104F8000417A4148059100F05FFC23880599042B84
:104F900030D1802801D1FFF7D5FF07ABCDE9006301
:104FA00022796379E179384800F08CFC374B012293
:104FB0001A71374BA2781A71E2781A70A3786BB124
:104FC0002379012B03D161792F4800F075FB2F4A1B
:104FD0002379304913700A789342FCD1A07A0028D3
:104FE0004DD02948E37A627B217B00F0B5FB00209D
:104FF00009B0F0BD082B1CD1802803D10591FFF723
:10500000A1FF0599214B204D00221A7107ABCDE974
:105010000163E3790093A279237A284600F0B2FC79
:105020002B7803F03F032B70AB7913F00C0FFBD1FF
:10503000BFE7802B26D1802807AF0DD0134B124835
:10504000059100221A71E3790093CDE90167237A73
:10505000A27900F097FC05990B4D637B00930197B3
:10506000237B0022284600F005FD2B7803F03F0348
:105070002B70AB79C3F38103032BFAD199E7064B6D
:105080001876B5E70120B3E7004006402000C8428B
:105090000000C842C000C8428000C842064B0A78DF
:1050A00053F8203003F1424303F580135B011A7774
:1050B0004A781A75704700BF988D000010B50C46ED
:1050C00030B11D4B1D4A1E4840F24F2100F070FFC9
:1050D0008B7A012B17D10B79002B4B79897914BF6F
:1050E00008220022002B14BF042300230029E179A9
:1050F00041EA020141EA0301124B18BF02200143B9
:10510000186800F023FD04F10B010020FFF7C6FF33
:10511000A37A227A617A0C4800F06BFB628940F234
:1051200001139A4203D1094A1378002BFCD0084B93
:1051300022681A60002010BD348D0000708D0000C0
:10514000DA8C0000988D000000400640C400C84280
:10515000E83B002008B530B1124B134A13484FF416
:10516000307100F025FF124B01221A60114B0A68C2
:105170001A60114A114B126813445B010A7A1868CD
:1051800040B93AB108795861487918618879D8608E
:10519000C87998601A604A7A82F001025A60002049
:1051A00008BD00BF528D0000828D0000DA8C000027
:1051B000F4079042EC3B0020648F0000110010C205
:1051C000054B00F0E002134400F01F0003449B0075
:1051D00001221A60704700BF4001A41008B50648BC
:1051E00000F0F6FA054A41F24403D3581B0F01338D
:1051F000B0FBF3F008BD00BF004006400070044063
:1052000037B5044628B91D4B1D4A1E48722100F0CF
:10521000CFFE1D4D042300930122022328460021C6
:1052200000F09BFC19492046FFF7A6FE637D009322
:10523000237DE27CA17C284600F08FFC41F2040132
:10524000237C6A581B0422F4403203F44033134396
:105250006B50637C2A689B0422F4402203F44023B1
:1052600013432B6004F10E010020FFF717FFFFF737
:10527000B5FF074B1860002003B030BD9C8D0000C7
:10528000328E0000AB8D000000700440955200008B
:10529000B001002008B5FFF7A1FF40F6B833B0FB1E
:1052A000F3F0013800D208BD00BFFAE7042808B5C2
:1052B00006D9064B064A074840F2B12100F078FEB5
:1052C000054B185CBDE80840FFF77ABFF88D000079
:1052D0004D8E0000AB8D0000678E0000034A1368FE
:1052E0001BB1013B136003B962B67047E03B00207D
:1052F00072B6024A1368013313607047E03B002026
:10530000094B1B6853F8203063B10109074A52F872
:10531000212000F00F001077D0775A6812B1197B66
:1053200098681047704700BFE43B00206C8E000077
:10533000204B2DE9F74F53F82040DFF87C90D4F84C
:105340002CB00601002798464FF0020ABBF1000F6F
:1053500001D0102F09D104F1424404F580146401F6
:105360000023636103B0BDE8F08F1BF0010F1DD077
:10537000FDB2BB19002229462046019300F0C8FC6B
:10538000D9F80020019B52F823307BB13544C5F396
:10539000031205F00F0558F822201577D5775A68C3
:1053A00083F80CA012B1197B986890474FEA5B0B09
:1053B0000137CBE76C8E0000E43B002008B5034AC0
:1053C000034B0448FF2100F0F3FD00BF2E8F0000C7
:1053D000708E00007A8E00002DE9F84304682F4B90
:1053E000C4F30728054653F828902D4B404653F840
:1053F0002860FFF75BFF14F0E002E7B201D0FFF78F
:10540000DDFF56F8273023F0807323F4E06343F484
:10541000807346F82730394606EB8704484600F08B
:105420007DFC04F1424303F580135B012A795A6045
:105430006A791A60AA791A61EB79D6F8C020BB4064
:105440001343C6F8C030297A56F827200B0422F0FF
:10545000877203F4702322F48032134346F8273016
:10546000D1B1104B13F90830002B15D005DA0E4BD3
:105470000E4A5D210E4800F09BFD552B03DD0D4BC0
:105480000A4A5E21F6E75909012203F01F0302FAD6
:1054900003F3094A42F82130BDE8F8837490000014
:1054A000889000009C900000B18E0000428F0000A8
:1054B000C08E0000038F000000E100E02DE9F04104
:1054C00004681A4B0546C4F30720E6B253F820805F
:1054D000174B53F82070FFF7E9FE14F0E00F01D0EE
:1054E000FFF76CFF57F8263023F0807323F4E06356
:1054F00043F4807347F8263001223146404600F0DD
:105500000DFC07EB86046A683146404600F020FC3B
:1055100004F1424303F580135B012A7A9A606A7AA8
:105520009A61AA7A5A61BDE8F08100BF74900000C8
:105530008890000010B4054BC0F307240A46C1B29E
:1055400053F824005DF8044B00F002BC7490000096
:1055500082B001919DF804309DF8062001685B003F
:10556000D20002F0080203F0020313439DF8052065
:1055700043EA82039DF80720120102F0300221F075
:10558000BE0113430B43036002B070470B46C1F3E7
:1055900001225B0BC9B242EA810203F0780382B0B8
:1055A0001343436002B07047012905D0022905D09A
:1055B00031B9044B18687047034BFBE70348704749
:1055C00000207047E83B0020EC3B0020006CDC0230
:1055D000017B01F00301FFF7E7BF21FA02F07BB185
:1055E0009DF80030012B0BD0062A06D003D9072ADC
:1055F00007D000207047400970471423B0FBF3F038
:1056000070470C23FAE7000037B500F1424303F579
:1056100080135B0104461B7A8BB9FFF7D9FF227810
:105620006378257B05F0030501460095C3F301135C
:10563000C2F3C2022046FFF7D0FF03B030BD014BDA
:105640001868FAE7B801002010B522B1B1F5004F93
:1056500008D900200DE0A1F5F440123841F6856428
:10566000A04207D802EB4303034A32F8132001FBA0
:1056700002F010BD1046FCE7548F000010B50C4B33
:1056800003445B0104461B7D7BB9FFF7BDFF014668
:1056900058B1084B23445B0120461A7FE378BDE8EC
:1056A0001040C3F34113FFF7CFBF002010BD00BF70
:1056B000060010C2030010C2037AC3F342038B42F8
:1056C00010B50CD0104B03445B0149001A7801F06F
:1056D0000E012AB9037A03F0F0031943017210BDD9
:1056E00000221A70094A024452011478002CFCD19D
:1056F000047A04F0F0042143017201211970137837
:10570000012BFCD1EBE700BF010010C2060010C264
:1057100008B50F4B03445B0102461B7D33B90D4BAB
:1057200003445B01197E01F0FF0371B11046FFF7DE
:105730004FFF137903F01F030133B0FBF3F35079EC
:1057400000F01F001830584308BD1846FCE700BFA2
:10575000060010C2040010C230B5447902F01F05E3
:1057600004F0E0042C434471027901F01F0102F0BF
:1057700080020A4342EA431242F04002D2B202716E
:10578000400100F18440D8300378002BFCD030BDBC
:1057900000F1424303F580135B011A7902F0FF0325
:1057A00072B1084B03445B011B7813B9064B1868B0
:1057B0007047007A054AC0F342031068D84070472A
:1057C00018467047010010C2B8010020B401002043
:1057D0008379C3F38103022B09D0032B03D0012B60
:1057E00003D1FFF7D5BFFFF793BFFFF747BFFFF721
:1057F000EFBE10B5D2009B00447802F0080203F01F
:10580000040309011A4301F030010A4304F0C30400
:105810002243427010BD0000037B01F0030203F03D
:10582000FC031343037359B9064B03445B011B7A12
:1058300033B1400100F18440C4300378002BFCD028
:10584000704700BF010010C210B503461C4C13F88E
:10585000061F03F14243044403F580135B01640116
:105860001A7C20791B7DC1F381010229D2B2C0B21A
:10587000DBB211D0032916D0012905D0E3B9002AE3
:105880000CBF0820012010BD012A15D1A3B90028A2
:105890000CBF02200420F6E772B958B9002B14BFE0
:1058A00040201020EFE73AB9002B0CBF4FF40070F6
:1058B0008020E8E72020E6E74FF40070E3E700BF30
:1058C000010010C22DE9F843DDF824900446884613
:1058D00015461F46FFF7B8FF10F01D0F4AD0264BA4
:1058E00023445B0100221A772378224603F03B030E
:1058F00043F0440302F8063B02F1424202F58012F3
:10590000560106F110021378012BFCD1012D03D1B1
:1059100039462046FFF7D0FE637805F0010203F018
:10592000FC031343637033789D42FCD1E2784FEA65
:10593000481303F0600302F09F021343E370E3781F
:10594000C3F341134345FAD1A379C3F38103012B78
:10595000FAD1089B984735B9084B1B68C9F8003045
:105960000020BDE8F883064B1B6823FA07F7C9F847
:105970000070F5E70120F4E7030010C2B801002031
:10598000B40100202DE9F04704469DF820608946C7
:1059900015461F46FFF758FF10F07B0F82465FD079
:1059A00049462046FFF700FE804600285AD02E4B7D
:1059B00023445B0100221A762C4B23445B0103F144
:1059C0001400027802F0FF01002AFAD1284A22448A
:1059D0005201BAF1080F117106D0217B09F00300C2
:1059E00001F0FC01014321732178ED0005F0380539
:1059F00001F003010D4345F080052570197C002955
:105A0000FCD1BAF1080F06D1217B09F0030001F0A7
:105A1000FC0101432173B9F1000F04D1127A12B1D4
:105A20001A79002AFCD0E178720102F0600242EAA1
:105A3000C71301F01F021343DBB2E370E378C3F333
:105A40004113B342FAD1A379C3F38103022BFAD1F4
:105A5000099B98470A9B0020C3F80080BDE8F087A7
:105A60000120FBE72120F9E7050010C2060010C263
:105A7000010010C2F7B5044601911D46FFF7E4FE90
:105A800010F0B00F52D001992046FFF78DFD064669
:105A900000284DD0284B6A1CB0FBF2F2A2F5F4129C
:105AA000A2F590629A4245D8244B019923445B01A8
:105AB00000221A71237803F03F0343F08003237020
:105AC000A379C3F38103022BFAD12046FFF7A4FE8A
:105AD0001B4B1C49234421445B01490100221A76D7
:105AE0000A76194A2244520102F114073B78002B2E
:105AF000FCD1207905F01F0500F0E0000543257179
:105B000063799DF8200003F0E00300F01F000343D9
:105B1000637101230B763B78002BFCD0137E002BA6
:105B2000FCD0099B00201E6003B0F0BD0120FBE704
:105B30002120F9E74120F7E780841E00010010C210
:105B4000040010C2050010C2060010C2037803F062
:105B5000F0031943C9B20170704710B59DF80840B1
:105B60001B05240403F4700304F470242343120679
:105B700043EA017102F07063194341F24403C150DA
:105B800010BD0000052838B506D90D4B0D4A0E484A
:105B900040F2C32100F00CFA0C4B53F820500C4B90
:105BA00053F820200B4B13445B0100221A77AB7D86
:105BB00014461BB105F11800FFF782F92C7538BDAA
:105BC000688F0000CA8F0000878F0000F03B002024
:105BD000A4900000030010C2052838B506D90F4B69
:105BE0000F4A104840F20A3100F0E2F90E4B53F828
:105BF00020500E4B53F820000D4B03445B01002452
:105C00001C75224640F2032100F0C1F8EB7D1BB168
:105C100005F12400FFF754F96C7538BD688F00005A
:105C2000E48F0000878F0000F03B0020A49000006C
:105C3000030010C2F8B5324B53F82040314B53F8F3
:105C40002050237D074613B9637D002B57D02E4E7D
:105C50002E447601337D2BB12C4B2B445B011B7DF5
:105C6000002B34D1337FF3B1284B2B445B011B7FD6
:105C7000CBB1E368BBB12B7D2678F61AF6B296B1AC
:105C800063682846197800F07BF8A36B002B2FD0AF
:105C9000214638469847E368013EF6B2002BEED124
:105CA0003846FFF76FFF0321284600F0A3F830B312
:105CB00028460321BDE8F84000F0B4B8A1682846A2
:105CC00000F061F8236B33B1214638469847AB7D2D
:105CD000002BF3D1C6E7A3680133A3602369013B1E
:105CE00023612369002BF2D13846FFF775FFB9E72E
:105CF000636801336360E368013BE360CBE7F8BDB1
:105D0000F03B0020A4900000030010C2040010C269
:105D10000AB1C17670478176704700001F2908B527
:105D200005D9084B084A09482E2100F041F9012302
