:1000000000000020FD040000DB5F0000E15F000055
:10001000E75F0000ED5F0000F35F000000000000FC
:100020000000000000000000000000006D0500005E
:10003000F95F0000000000001306000073060000D6
:10004000995E0000A75E0000B55E0000C35E000080
:10005000D15E0000DF5E0000ED5E0000FB5E000090
:10006000095F0000175F0000255F0000335F00009C
:10007000415F00004F5F00005D5F00006B5F0000AC
:10008000795F0000FF5F0000056000000B6000006A
:1000900011600000176000001D6000002360000078
:1000A000296000002F600000356000003B60000008
:1000B00041600000476000004D600000875F000065
:1000C00053600000955F000059600000A35F0000CE
:1000D0005F600000B15F0000656000006B600000C1
:1000E00071600000776000007D60000083600000A8
:1000F000896000008F600000956000009B60000038
:100100000D0500000D0500000D0500000D050000A7
:10011000A1600000A7600000AD600000B3600000B7
:10012000B9600000BF600000C5600000CB60000047
:10013000D1600000D7600000DD600000E3600000D7
:10014000E9600000EF600000BF5F0000F5600000A4
:10015000CD5F0000FB60000001610000076100004E
:100160000D61000013610000196100001F610000B3
:10017000256100002B610000316100003761000043
:100180003D6100000D0500000D0500000D0500009B
:100190000D0500000D0500000D0500000D05000017
:1001A0000D0500000D0500000D0500000D05000007
:1001B0000D0500000D0500000D0500000D050000F7
:1001C0000D0500000D0500000D0500000D050000E7
:1003F0000D0500000D0500000D050000FFFFFFFFCB
:10040000FFFFFFFFFFFFFFFFFFFFFFFFFEFFFFFFFD
:1004400010B5054C237833B9044B13B10448AFF30E
:1004500000800123237010BD700E002000000000FA
:1004600018DF000008B5034B1BB103490348AFF385
:10047000008008BD00000000740E002018DF00009E
:10048000A3F5803A704700BF174B002B08BF134BF2
:100490009D46FFF7F5FF00218B460F461348144A8F
:1004A000121A0AF017FA0E4B002B00D098470D4B8A
:1004B000002B00D098470020002104000D000D48BB
:1004C000002802D00C4809F0E1FE09F025FF2000C9
:1004D000290002F077FF09F0E5FE00BF00000800E8
:1004E00000000000C562000000000020700E002027
:1004F000284600208DA20000C5A2000072B605F0BB
:10050000E3F805F079F862B6FFF7BEFFFFF7FEBF2C
:1005100080F309887047EFF309807047684680F3DD
:1005200009885A480078C00714BF0220032080F3CE
:1005300014887047DFF858C1EFF305831B0618BF16
:100540006047EFF31483DB0708BF604700DF7047A5
:10055000DFF840C1EFF305831B0618BF6047EFF3D8
:100560001483DB0708BF604700DF7047EFF30980A3
:10057000816911F8021CE1BB90E80F1010B5E0474B
:10058000BDE81040EFF3098C8CE80700424B93E87C
:100590000600914208BF704741B91EF0100F16D1F6
:1005A0003E49086820F00100086010E01EF0100FBE
:1005B00006BF2CED108A0120002081F825002CE9CF
:1005C000F00FC1F828C00CB407F07EF90CBC1A601B
:1005D000D2F828C0BCE8F00F92F8250000280EBF22
:1005E0006FF0020E6FF0120EBCEC108A8CF30988CB
:1005F000704710B52A4A1268914209D8294C54F81C
:10060000214090E80F10A047EFF3098C8CE80F0011
:1006100010BD10B507F0CAF8BDE810401E4B93E8B6
:100620000600914208BF7047EFF3098C1EF0100FCF
:1006300006BF2CED108A0120002081F825002CE94E
:10064000F00FC1F828C00CB407F03EF90CBC1A60DA
:10065000D2F828C0BCE8F00F92F8250000280EBFA1
:100660006FF0020E6FF0120EBCEC108A8CF309884A
:10067000704710B507F00AF9FFF7CEBF10B507F0C5
:1006800003F907F003F9FFF7C7BF0000E4D000004B
:100690003971000055710000C445002034EF00E0BE
:1006A00000000000FCFFFFFF81F0004102E000BFFE
:1006B00083F0004330B54FEA41044FEA430594EA22
:1006C000050F08BF90EA020F1FBF54EA000C55EA5D
:1006D000020C7FEA645C7FEA655C00F0E2804FEA2E
:1006E0005454D4EB5555B8BF6D420CDD2C4480EA10
:1006F000020281EA030382EA000083EA010180EA40
:10070000020281EA0303362D88BF30BD11F0004F8D
:100710004FEA01314FF4801C4CEA113102D04042C3
:1007200061EB410113F0004F4FEA03334CEA1333FE
:1007300002D0524263EB430394EA050F00F0A78016
:10074000A4F10104D5F1200E0DDB02FA0EFC22FA11
:1007500005F2801841F1000103FA0EF2801843FA05
:1007600005F359410EE0A5F120050EF1200E012AF6
:1007700003FA0EFC28BF4CF0020C43FA05F3C01834
:1007800051EBE37101F0004507D54FF0000EDCF1AD
:10079000000C7EEB00006EEB0101B1F5801F1BD356
:1007A000B1F5001F0CD349085FEA30004FEA3C0C5A
:1007B00004F101044FEA445212F5800F80F09A8050
:1007C000BCF1004F08BF5FEA500C50F1000041EB54
:1007D000045141EA050130BD5FEA4C0C404141EB58
:1007E0000101013C28BFB1F5801FE9D291F0000F53
:1007F00004BF01460020B1FA81F308BF2033A3F102
:100800000B03B3F120020CDA0C3208DD02F1140CF8
:10081000C2F10C0201FA0CF021FA02F10CE002F133
:100820001402D8BFC2F1200C01FA02F120FA0CFC2C
:10083000DCBF41EA0C019040E41AA2BF01EB045175
:10084000294330BD6FEA04041F3C1CDA0C340EDC73
:1008500004F11404C4F1200220FA04F001FA02F3B6
:1008600040EA030021FA04F345EA030130BDC4F174
:100870000C04C4F1200220FA02F001FA04F340EA69
:100880000300294630BD21FA04F0294630BD94F01A
:10089000000F83F4801306BF81F480110134013D01
:1008A0004EE77FEA645C18BF7FEA655C29D094EA72
:1008B000050F08BF90EA020F05D054EA000C04BFF0
:1008C0001946104630BD91EA030F1EBF00210020DB
:1008D00030BD5FEA545C05D14000494128BF41F07A
:1008E000004130BD14F580043CBF01F5801130BDDE
:1008F00001F0004545F0FE4141F470014FF0000069
:1009000030BD7FEA645C1ABF194610467FEA655C19
:100910001CBF0B46024650EA013406BF52EA0335BB
:1009200091EA030F41F4002130BD00BF90F0000FA9
:1009300004BF0021704730B54FF4806404F13204E5
:100940004FF000054FF0000150E700BF90F0000F9E
:1009500004BF0021704730B54FF4806404F13204C5
:1009600010F0004548BF40424FF000013EE700BF95
:1009700042004FEAE2014FEA31014FEA02701FBF25
:1009800012F07F4393F07F4F81F06051704732F057
:100990007F4208BF704793F07F4F04BF41F40021AE
:1009A000704730B54FF4607401F0004521F000410C
:1009B0001CE700BF50EA010208BF704730B54FF096
:1009C00000050AE050EA010208BF704730B511F097
:1009D000004502D5404261EB41014FF4806404F1CF
:1009E00032045FEA915C3FF4D8AE4FF003025FEA55
:1009F000DC0C18BF03325FEADC0C18BF033202EBD9
:100A0000DC02C2F1200300FA03FC20FA02F001FA32
:100A100003FE40EA0E0021FA02F11444BDE600BFD5
:100A200070B54FF0FF0C4CF4E06C1CEA11541DBF84
:100A30001CEA135594EA0C0F95EA0C0F00F0DEF84F
:100A40002C4481EA030621EA4C5123EA4C5350EA34
:100A5000013518BF52EA033541F4801143F4801385
:100A600038D0A0FB02CE4FF00005E1FB02E506F016
:100A70000042E0FB03E54FF00006E1FB03569CF06B
:100A8000000F18BF4EF0010EA4F1FF04B6F5007F71
:100A900064F5407404D25FEA4E0E6D4146EB0606E3
:100AA00042EAC62141EA55514FEAC52040EA5E506C
:100AB0004FEACE2EB4F1FD0C88BFBCF5E06F1ED816
:100AC000BEF1004F08BF5FEA500E50F1000041EB4D
:100AD000045170BD06F0004646EA010140EA0200FA
:100AE00081EA0301B4EB5C04C2BFD4EB0C0541EA1C
:100AF000045170BD41F480114FF0000E013C00F331
:100B0000AB8014F1360FDEBF002001F0004170BD54
:100B1000C4F10004203C35DA0C341BDC04F114046D
:100B2000C4F1200500FA05F320FA04F001FA05F2F9
:100B300040EA020001F0004221F0004110EBD370C6
:100B400021FA04F642EB06015EEA430E08BF20EAF2
:100B5000D37070BDC4F10C04C4F1200500FA04F395
:100B600020FA05F001FA04F240EA020001F0004127
:100B700010EBD37041F100015EEA430E08BF20EA9A
:100B8000D37070BDC4F1200500FA05F24EEA020EE2
:100B900020FA04F301FA05F243EA020321FA04F011
:100BA00001F0004121FA04F220EA020000EBD370C8
:100BB0005EEA430E08BF20EAD37070BD94F0000FC8
:100BC0000FD101F00046400041EB010111F4801FFC
:100BD00008BF013CF7D041EA060195F0000F18BFAD
:100BE000704703F00046520043EB030313F4801FE9
:100BF00008BF013DF7D043EA0603704794EA0C0FA3
:100C00000CEA135518BF95EA0C0F0CD050EA4106B8
:100C100018BF52EA4306D1D181EA030101F0004135
:100C20004FF0000070BD50EA410606BF104619465D
:100C300052EA430619D094EA0C0F02D150EA013669
:100C400013D195EA0C0F05D152EA03361CBF1046AA
:100C500019460AD181EA030101F0004141F0FE4149
:100C600041F470014FF0000070BD41F0FE4141F4CD
:100C7000780170BD70B54FF0FF0C4CF4E06C1CEACD
:100C800011541DBF1CEA135594EA0C0F95EA0C0F82
:100C900000F0A7F8A4EB050481EA030E52EA03353D
:100CA0004FEA013100F088804FEA03334FF080555E
:100CB00045EA131343EA12634FEA022245EA11158B
:100CC00045EA10654FEA00260EF000419D4208BF3C
:100CD000964244F1FD0404F5407402D25B084FEAE9
:100CE0003202B61A65EB03055B084FEA32024FF495
:100CF00080104FF4002CB6EB020E75EB030E22BFF2
:100D0000B61A754640EA0C005B084FEA3202B6EBB1
:100D1000020E75EB030E22BFB61A754640EA5C0060
:100D20005B084FEA3202B6EB020E75EB030E22BFF0
:100D3000B61A754640EA9C005B084FEA3202B6EBF1
:100D4000020E75EB030E22BFB61A754640EADC00B0
:100D500055EA060E18D04FEA051545EA16754FEA12
:100D600006164FEAC30343EA52734FEAC2025FEA30
:100D70001C1CC0D111F4801F0BD141EA00014FF0BF
:100D800000004FF0004CB6E711F4801F04BF014390
:100D90000020B4F1FD0C88BFBCF5E06F3FF6AFAEAC
:100DA000B5EB030C04BFB6EB020C5FEA500C50F13C
:100DB000000041EB045170BD0EF0004E4EEA1131BF
:100DC00014EB5C04C2BFD4EB0C0541EA045170BDC6
:100DD00041F480114FF0000E013C90E645EA060E0A
:100DE0008DE60CEA135594EA0C0F08BF95EA0C0F38
:100DF0003FF43BAF94EA0C0F0AD150EA01347FF480
:100E000034AF95EA0C0F7FF425AF104619462CE756
:100E100095EA0C0F06D152EA03353FF4FDAE1046B9
:100E2000194622E750EA410618BF52EA43067FF40A
:100E3000C5AE50EA41047FF40DAF52EA43057FF49A
:100E4000EBAE12E74FF0FF3C06E000BF4FF0010CA5
:100E500002E000BF4FF0010C4DF804CD4FEA410C09
:100E60007FEA6C5C4FEA430C18BF7FEA6C5C1BD0D6
:100E700001B050EA410C0CBF52EA430C91EA030F57
:100E800002BF90EA020F0020704710F1000F91EAB4
:100E9000030F58BF994208BF90422CBFD8176FEA82
:100EA000E37040F0010070474FEA410C7FEA6C5C50
:100EB00002D150EA013C07D14FEA430C7FEA6C5C57
:100EC000D6D152EA033CD3D05DF8040B704700BF83
:100ED0008446104662468C461946634600E000BFD1
:100EE00001B5FFF7B7FF002848BF10F1000F01BDA3
:100EF0004DF808EDFFF7F4FF0CBF012000205DF86E
:100F000008FB00BF4DF808EDFFF7EAFF34BF0120F2
:100F100000205DF808FB00BF4DF808EDFFF7E0FF8B
:100F200094BF012000205DF808FB00BF4DF808EDDC
:100F3000FFF7CEFF94BF012000205DF808FB00BF43
:100F40004DF808EDFFF7C4FF34BF012000205DF825
:100F500008FB00BF4A0011D212F5001211D20DD5C4
:100F60006FF47873B3EB62520ED44FEAC12343F0AF
:100F7000004343EA505323FA02F070474FF0000059
:100F8000704750EA013002D14FF0FF3070474FF008
:100F9000000070474FEA4102B2F1E04324BFB3F5CD
:100FA000001CDCF1FE5C0DD901F0004C4FEAC002E0
:100FB0004CEA5070B2F1004F40EB830008BF20F0C4
:100FC0000100704711F0804F21D113F13872BCBF7E
:100FD00001F00040704741F480114FEA5252C2F1D3
:100FE0001802C2F1200C10FA0CF320FA02F018BF1C
:100FF00040F001004FEAC1234FEAD32303FA0CFC6F
:1010000040EA0C0023FA02F34FEA4303CCE77FEAFD
:10101000625307D150EA01331EBF4FF0FE4040F447
:101020004000704701F0004040F0FE4040F40000F6
:10103000704700BF53B94AB9002908BF00281CBF38
:101040004FF0FF314FF0FF3001F0C0B8ADF1080CA8
:101050006DE904CE00F006F8DDF804E0DDE90223D6
:1010600004B070472DE9F047089D04468C46002BDC
:1010700040F083808A42174647D9B2FA82F242B1E1
:10108000C2F1200024FA00F09140974040EA010CA0
:1010900094404FEA1748230CBCFBF8F61FFA87FE72
:1010A00008FB16C143EA014306FB0EF1994209D938
:1010B000FB1806F1FF3080F01981994240F2168149
:1010C000023E3B445B1AA4B2B3FBF8F008FB1033BA
:1010D00044EA034400FB0EFEA64509D93C1900F181
:1010E000FF3380F00581A64540F2028102383C447E
:1010F00040EA0640A4EB0E0400261DB1D4400023B4
:10110000C5E900433146BDE8F08702B9FFDEB2FA17
:1011100082F2002A50D1CB1B4FEA174E1FFA87F8F4
:101120000126B3FBFEFC210C0EFB1C3341EA0341FC
:1011300008FB0CF38B4207D979180CF1FF3002D26F
:101140008B4200F2E9808446C91AA3B2B1FBFEF0DB
:101150000EFB101143EA014408FB00F8A04507D933
:101160003C1900F1FF3302D2A04500F2D9801846A5
:10117000A4EB080440EA0C40BFE78B4209D9002DDC
:1011800000F0B1800026C5E9000130463146BDE8D7
:10119000F087B3FA83F6002E4AD18B4202D3824203
:1011A00000F2B880841A61EB030101208C46002D07
:1011B000A8D0C5E9004CA5E7C2F1200320FA03F648
:1011C000974001FA02F04FEA174ED9403043030C22
:1011D000B1FBFEF61FFA87F80EFB161143EA014336
:1011E00006FB08F1994204FA02F409D9FB1806F14A
:1011F000FF3C80F08D80994240F28A80023E3B4461
:101200005B1A81B2B3FBFEF00EFB103341EA0341DF
:1012100000FB08F38B4207D9791800F1FF3C73D229
:101220008B4271D902383944CB1A40EA064678E736
:10123000C6F1200C03FA06F422FA0CF31C4320FA40
:101240000CF701FA06F34FEA144E21FA0CF11F4392
:101250003B0CB1FBFEF91FFA84F80EFB191143EAAF
:10126000014109FB08FA8A4502FA06F200FA06F380
:1012700008D9611809F1FF3048D28A4546D9A9F149
:1012800002092144A1EB0A01BFB2B1FBFEF00EFB43
:10129000101147EA014700FB08F8B84507D9E719DC
:1012A00000F1FF312ED2B8452CD90238274440EA4C
:1012B0000940A7EB0807A0FB02894F45C6464946EF
:1012C0001AD317D05DB1B3EB0E0267EB010707FA33
:1012D0000CFCF2404CEA0202F740C5E90027002668
:1012E0003146BDE8F0872E4628460BE70646E9E67C
:1012F0001846FDE64345E5D2B8EB020E69EB040162
:101300000138DFE70846D2E760468DE78146B9E756
:10131000664675E730464AE7ACF1020C394413E7FC
:1013200002383C4424E700BF03685A004CBF43F036
:10133000004323F000431844704700BF2DE9F843F1
:1013400029B34F1E044615463E464FF0000808EBF1
:10135000060101EBD171491004EBC1094846FFF7C2
:10136000E3FF0346C80008308F42204409D0AB4257
:1013700009D8FFF7D9FF0138A8420AD201F10108C4
:10138000E5E7AB4205D9884501D04E1EDFE74FF0B7
:1013900000094846BDE8F883012807D0022807D095
:1013A000044B00280CBF18460020704702487047C5
:1013B000024870475D1A0000611A0000651A0000BB
:1013C00030B5234B83B004468D1E3BB301A928469C
:1013D000AFF30080E8B101992A46FFF7AFFF01465D
:1013E000B8B1FFF7A1FF4B68A064012B2BD0002BF5
:1013F00001F1040023DBFFF797FF0023C4E9130387
:101400000368002B10DBFFF78FFF2061002003B083
:1014100030BD00230920236103B030BD0D490E48C3
:10142000091AC9100191D7E7C3F30360FFF7B4FFAE
:101430000028206114BF0020092003B030BD012323
:10144000C4E91303DCE7002323610520DFE700BFC5
:101450000000000004E400004CE100000368DA072B
:1014600010B5044606D49B0700F1480009D500F0EA
:101470004BFC2368590709D51A070ED5DB0613D58F
:1014800010BD00F039FC23685907F5D404F1D000F1
:1014900000F042FC23681A07F0D404F5A87000F0AD
:1014A00043FC2368DB06EBD404F5E870BDE810408C
:1014B00000F07EBC0346006800B11844704700BFCE
:1014C00009207047704700BF70B504460E46316C66
:1014D0002046FFF775FF054688B9336C63613246D5
:1014E00023692146012098470828F0D0072806D113
:1014F0002846316CFFF7E6FF301D00F0F1FB08F0E5
:101500009FFE00BF2DE9F0470D1D064614460FCD86
:10151000ADF5727D0DF10C0CACE80F000FCDACE811
:101520000F000FCDACE80F0095E80F0002ADF76893
:10153000D6F818808CE80F0000232B6021E02B6C7C
:1015400073614FF4F07229467AA800F041FE3369C6
:101550007AAA314650469847889BCDE900582146E3
:101560006B648146334632460120B8470446E8B9E9
:101570004FF4F0727AA9284600F02AFEB9F1080F5C
:101580001BD1296C3046FFF71BFF09345FFA84FA40
:1015900081460028D3D0AB6B4AF01001CDE900584A
:1015A00032466B6401203346B84708B14FF0090951
:1015B00048460DF5727DBDE8F087B9F1070FF5D10A
:1015C0002046296CFFF77EFF03A800F089FB00BFCF
:1015D000406C7047F0B5CB6B0B640E1D0F46054693
:1015E0000FCEF9B001AC0FC40FCE0FC40FCE0FC495
:1015F00096E80F004FF0FF3684E80F00009606E0F3
:101600002B696A46294698470828044608D110994C
:101610002846FFF7D5FE0028F2D0092079B0F0BDAA
:101620006846FFF71BFF062CF7D139462846FFF71F
:101630004BFF00BF30B4DD6BC160826119461D6491
:10164000002230BC5EE700BF70B5C66843690B641A
:10165000AEB903690A4604460D4601460220984782
:10166000072805D008280FD129462046FFF72CFF70
:101670003046296CFFF726FF281D00F031FB0122C0
:10168000FFF740FF08F0DCFD08F0DAFDC2681AB190
:10169000CA6B0A64002235E79CE700BF704700BFB1
:1016A000836801460BB1012018477047012912D009
:1016B00009D873B90F2A0CD800EB82021846536878
:1016C000009A136070470339012994BF012002205A
:1016D0007047022070470846704700BF10B584B0BD
:1016E000002303AC0A4600941946FFF7DFFF039876
:1016F00004B010BD012912D009D873B90F2A0CD833
:1017000000EB8200009A1268426018467047033965
:10171000012994BF0120022070470220704708462B
:10172000704700BF10B584B0002303AC039200944F
:101730000A461946FFF7DEFF04B010BDF0B5D36BC3
:101740001364151D8C4606460FCDADF50F7D17AC05
:101750000FC40FCD0FC40FCD0FC495E80F004FF08D
:10176000FF3784E80F006546169710E0FFF7DAFFB1
:10177000294616A8B047034616AA6946082083B929
:10178000049B9847052804460CD0092809D02699BF
:101790006846FFF715FE03466A460C2116A8002B83
:1017A000E4D0092416A8FFF759FE20460DF50F7D59
:1017B000F0BD00BF2DE9F04FCC6C89B00D4654F858
:1017C000041B0694174600F003081E46002B79D030
:1017D0000B0CDAB209048DF81D30022304EB8204ED
:1017E00005918DF81C302B6DB8F1020F08BFAC6B62
:1017F00013F001030CD0384605A900F073FB18B9AB
:10180000082009B0BDE8F08F092009B0BDE8F08FCD
:10181000D4F800A0BAF1000FEDD0019300F0080356
:101820000293022E4AD0B4F800A0B4F80290043417
:10183000AA6C29F0010B0F2138469344FFF74EFFA5
:10184000834539D82AF001025A44824294BF0020CD
:1018500001204FEA490303F002030AF0010A43EAB8
:101860000A03012B49D0022B32D0002BCCD1B8F186
:10187000000F02D0002840F0CD800434D4F800A03E
:10188000BAF1000FCDD105A9384600F02BFB002896
:10189000BAD1019B002BB3D00F213846FFF71EFFB2
:1018A0000E2102463846FFF73DFF38466A4A0F21AF
:1018B000FFF738FF0720A8E70020CAE7D4F8049014
:1018C0000834B5E7090203230591ADF81C308AE717
:1018D000236823F0004BB8F1000F45D128B1029ADC
:1018E000002A5CD0BBF1000F74D0002B00DA043466
:1018F0000BF1010B04EB8B04C0E7B8F1000F19D119
:10190000B0B1D4E90023991C4FEAD2723FF47CAF06
:1019100005F158010133049100F09080201DFFF77C
:10192000C9FD04AB01462846AFF3008000285BD117
:101930000834A3E70D213846D5F82090FFF7CEFEF6
:101940008145F5D1AB6A9C42F2D12046FFF7ECFC11
:101950000F2102463846FFF7E5FE38462A460021A9
:10196000FFF7E0FE072050E70D213846D5F820901C
:10197000FFF7B4FE814501D02368B6E7AB6A9C420D
:10198000FAD104220021C5E90B12A318C5F828B02A
:101990006B6323688B4259DB01230193A8E705F1B0
:1019A0005803CDF80C8004F1040AB04691461E4657
:1019B0000DE00496FFF77EFD04AB014600222846A9
:1019C000AFF3008009F101090AF1040AE8B9D94529
:1019D0005046EED138460D21FFF780FE049B286269
:1019E000C5E90934062010E781460D213846FFF786
:1019F00075FEB9F1020F286225D12B46049A43F8EF
:101A00002C2F6B62AC620620FFE646462368DDF8A9
:101A10000C806AE72046FFF787FC04340246AC637B
:101A200028461446AFF3008000283FF4EDAE384658
:101A300022460F21FFF776FE0720E6E638460D2105
:101A4000FFF74CFE2862049B6B62DBE70BF10100A1
:101A500004EB80007AE700BF000000000023A9E645
:101A60000123A7E60223A5E62DE9F0430646C3B00D
:101A700015461C46042900F2B980DFE801F09A53AC
:101A8000B7290300002C40F0B180102A00F2AE808C
:101A90000368D80600F1F38020AF384600F092F9D1
:101AA000B06B0023012404FA03F22A42014604D059
:101AB00051F8042B47F8232008460133042BF2D1B8
:101AC000B063384600F074F9002043B0BDE8F083FD
:101AD000032C40F08B8094B204EB1243102B4FEA9E
:101AE000124500F2838003681F0700F1D08020AF09
:101AF000384600F03BF907EBC501B56B54B10B4616
:101B0000E81A01EBC401E4001A5843F8042B8B4295
:101B1000FAD125443846B56300F006F9002043B0F9
:101B2000BDE8F083012C4FEA124895B25AD0052C3B
:101B30005CD108EB0509B9F1200F57D8B8F10F0FA8
:101B400077D9A946002D40F08880B36B6DB320AFE4
:101B50004FF0000907EBC807043F03EBC50553F836
:101B6000041B47F8041FAB42F9D1B9F1000F0FD0A5
:101B70006F464146102938BF102107EBC101843957
:101B800003EBC90553F8040B41F8040FAB42F9D13C
:101B9000012C00F08480B8F10F0FB56345D9B9F17D
:101BA000000F02D0684600F0B7F8002043B0BDE84F
:101BB000F083DCB9876B2346012094B206F1040C54
:101BC00000FA03F22242394604D051F8042B4CF8B3
:101BD00023200F460133102BF2D115F40050E4D12D
:101BE000B76304E008EB0503102B03D9022043B0D0
:101BF000BDE8F083B8F10F0FF8D83368DA0706D5DF
:101C0000304623F0030340F8483B00F079F820AF5A
:101C1000384600F075F8B36B002D99D11D46043598
:101C2000B563384600F068F8BFE720A800F06CF80C
:101C3000B5E7B9F1100F40D9A9F110093368D907F8
:101C400008D523F00103304643F0020340F8483B37
:101C500000F05EF8B9F1000F32D033685A0720D493
:101C6000B8F10F0F25D96F463846C8F1100500F0BE
:101C700057F8002DB36B7FF77CAF20AF6AE723F0F6
:101C80001003336006F5E87000F09CF804E723F0D9
:101C90000803036000F5A87000F068F827E720AF9C
:101CA000BDE7304623F0040340F8D03B00F038F89D
:101CB000D6E720A800F02CF8D5E74FF00009BDE7E3
:101CC000B8F10F0F3FF641AF20AF384600F020F8D3
:101CD000B36B002D7FF43CAF384600F015F864E795
:101CE00000F1340191E838009C46A6464CF8045DAA
:101CF00090E8FF0FE54600BD90EC210B704700BF58
:101D000080EC210B704700BF90EC200B704700BFA8
:101D100080EC200B704700BFD0EC200B704700BF59
:101D2000C0EC200B704700BFF0EC0201F0EC021198
:101D3000F0EC0221F0EC0231F0EC0241F0EC025147
:101D4000F0EC0261F0EC0271F0EC0281F0EC029137
:101D5000F0EC02A1F0EC02B1F0EC02C1F0EC02D127
:101D6000F0EC02E1F0EC02F1704700BFE0EC0201A0
:101D7000E0EC0211E0EC0221E0EC0231E0EC024187
:101D8000E0EC0251E0EC0261E0EC0271E0EC028177
:101D9000E0EC0291E0EC02A1E0EC02B1E0EC02C167
:101DA000E0EC02D1E0EC02E1E0EC02F1704700BFB0
:101DB000B0FC0181B0FC0191B0FC01A1B0FC01B10B
:101DC000704700BFA0FC0181A0FC0191A0FC01A113
:101DD000A0FC01B1704700BFEC4600B52DE90050F2
:101DE0002DE9FF1F4FF000032DE90C0001A9FFF7BB
:101DF000F1FBDDF840E012B0704700BFEC4600B5E3
:101E00002DE900502DE9FF1F4FF000032DE90C00D4
:101E100001A9FFF719FCDDF840E012B0704700BFE0
:101E2000EC4600B52DE900502DE9FF1F4FF00003EF
:101E30002DE90C0001A9FFF729FCDDF840E012B004
:101E4000704700BFEC4600B52DE900502DE9FF1F9B
:101E50004FF000032DE90C0001ABFFF7EBFBDDF8C1
:101E600040E012B0704700BFEC4600B52DE90050CD
:101E70002DE9FF1F4FF000032DE90C0001AAFFF729
:101E80005DFCDDF840E012B0704700BF027A7AB91D
:101E9000437AA3B14268013B10B443721368032133
:101EA000141D01721A024460026010BC180E7047C3
:101EB0000368013A02721A020260180E7047B020DD
:101EC000704700BF00B585B003AA002300921946F1
:101ED0000C22FFF7EBFB039805B05DF804FB00BF95
:101EE000F0E700BF2DE9F043054685B00E464FF000
:101EF00000083046FFF7CAFFB028044600F0B28061
:101F0000070620D500F0F003802B4DD0902B36D063
:101F1000A02B60D0B02B74D0C02B00F08B8000F0D1
:101F2000F803D02B0BD100F00702013242F400225B
:101F3000052301212846FFF797FD0028D9D0092065
:101F400005B0BDE8F0830DF10C09002319468700A8
:101F5000CDF800900D222846FFF7A8FBFFB2039BA7
:101F6000CDF80090043760064CBFDF1BFF1800233C
:101F700019460D2228460397FFF7BCFBB9E700F08E
:101F80000D030D2BDBD003AF002300F00F02194629
:101F900000972846FFF78AFB0023009719460D2279
:101FA0002846FFF7A7FBA4E73046FFF76FFF2402A0
:101FB0002043B0F5004FC2D004010023A2B219465D
:101FC0002846FFF751FD0028B9D114F4004F18BF7F
:101FD0004FF001088DE7C24302F007034FF47F6220
:101FE0001A41010702F47F624FF0000348BF42F438
:101FF000804219462846FFF737FD00283FF479AFA5
:102000009DE7B12833D0B22800F08B80B32839D0B7
:1020100000F0FC03B42B92D000F007020132012340
:1020200042F4002219462846FFF71EFD00283FF41F
:1020300060AF84E7C62842D0C7284CD000F0F80330
:10204000C02B5BD0C82860D0C9287FF478AF304659
:10205000FFF71CFF020300F00F0002F470220130B2
:10206000024365E7B8F1000F18D0002068E730465A
:10207000FFF70CFF024600283FF461AF10F0F003B9
:10208000D0D05CE73046FFF701FF010300F00F00FE
:1020900001F47021421C01230A43C3E703AC434609
:1020A0000E22414600942846FFF700FB0094284684
:1020B00043460F224146FFF71DFB404640E73046AE
:1020C000FFF7E4FE010300F00F0001F47021421C51
:1020D00003230A43A6E73046FFF7D8FE024600284E
:1020E0003FF42DAF10F0F0037FF429AF0421284610
:1020F000FFF7BAFC00283FF4FCAE20E700F00F0227
:102100000132032342F420228CE73046FFF7BEFE63
:1021100000F0F00200F00F031032013343EA023204
:1021200006E700230DF10C090D221946CDF80090A9
:102130002846FFF7BBFA3046FFF7A8FE02064FF02D
:1021400002070CD5039B00F07F00B84003443046E3
:102150000393FFF79BFE030607F10707F2D4039BE7
:10216000CDF8009000F07F0403F50172BC4000231D
:10217000144419460D2228460394FFF7BBFAB8E62B
:1021800010B5C26C84B0536803248DF80C401B0258
:1021900002F108040846D279019301A902948DF84E
:1021A0000D20FFF79FFE04B010BD00BF08B5FFF77C
:1021B00097FE806C08BD00BF08B5FFF791FEC06CAC
:1021C000C379023300EB830008BD00BF704700BF36
:1021D000844641EA000313F003036DD1403A41D332
:1021E00051F8043B40F8043B51F8043B40F8043BF1
:1021F00051F8043B40F8043B51F8043B40F8043BE1
:1022000051F8043B40F8043B51F8043B40F8043BD0
:1022100051F8043B40F8043B51F8043B40F8043BC0
:1022200051F8043B40F8043B51F8043B40F8043BB0
:1022300051F8043B40F8043B51F8043B40F8043BA0
:1022400051F8043B40F8043B51F8043B40F8043B90
:1022500051F8043B40F8043B51F8043B40F8043B80
:10226000403ABDD2303211D351F8043B40F8043B20
:1022700051F8043B40F8043B51F8043B40F8043B60
:1022800051F8043B40F8043B103AEDD20C3205D330
:1022900051F8043B40F8043B043AF9D2043208D028
:1022A000D2071CBF11F8013B00F8013B01D30B889A
:1022B00003806046704700BF082A13D38B078DD078
:1022C00010F003038AD0C3F10403D21ADB071CBF4A
:1022D00011F8013B00F8013B80D331F8023B20F8B4
:1022E000023B7BE7043AD9D3013A11F8013B00F8ED
:1022F000013BF9D20B7803704B7843708B78837075
:102300006046704700000000000000000000000070
:1023100001F0FF01102A2BDB10F0070F08D010F896
:10232000013B013A8B422DD010F0070F42B3F6D19A
:10233000F0B441EA012141EA014122F007047FF0B3
:1023400000070023F0E80256083C85EA010586EA0A
:10235000010685FA47F5A3FA87F586FA47F6A5FA46
:1023600087F68EB9EED1F0BC01F0FF0102F0070252
:1023700032B110F8013B013A83EA010313B1F8D1FD
:102380000020704701387047002D06BF35460338DE
:10239000073815F0010F07D1013015F4807F02BF17
:1023A000013015F4C03F0130F0BC0138704700BF68
:1023B000000000000000000000000000000000001D
:1023C00090F800F06DE9024520F007016FF0000C75
:1023D00010F0070491F820F040F049804FF000041D
:1023E0006FF00700D1E9002391F840F000F10800F8
:1023F00082FA4CF2A4FA8CF283FA4CF3A2FA8CF330
:102400004BBBD1E9022382FA4CF200F10800A4FA96
:102410008CF283FA4CF3A2FA8CF3E3B9D1E90423EA
:1024200082FA4CF200F10800A4FA8CF283FA4CF321
:10243000A2FA8CF37BB9D1E9062301F1200182FADB
:102440004CF200F10800A4FA8CF283FA4CF3A2FAE1
:102450008CF3002BC6D0002A04BF04301A4612BAEF
:10246000B2FA82F2FDE8024500EBD2007047D1E9F2
:10247000002304F00305C4F100004FEAC50514F081
:10248000040F91F840F00CFA05F562EA05021CBF52
:1024900063EA050362464FF00004A9E780B590B0F7
:1024A00000AF78600B46FB70FB78002B27D107F15B
:1024B000240300221A605A609A60DA601A615A6135
:1024C0002D4A7B6852F833307B62012387F828302D
:1024D000012387F829304FF0FF333B6307F12403D2
:1024E000184606F023FC244A7B68DB0013440122D3
:1024F0001A717B68DB00204A1344FB6336E0FB78EB
:10250000012B31D107F10C0300221A605A609A6046
:10251000DA601A615A61184A7B6852F83330FB60FE
:1025200001233B754FF0FF33BB6107F10C031846E5
:1025300006F06EFC104A7B68DB00134402221A711D
:102540007B68292B0AD97B682C2B07D80A4A7B6821
:1025500052F833300121184606F096FC7B68DB0008
:10256000054A1344FB6301E00023FB63FB6B184641
:102570004037BD4680BD00BF0000002080B586B05A
:1025800000AF78607B683B613B69002B0BD03B69F7
:102590001B79012B07D13B691B68184606F082FCAA
:1025A0000346FB7501E00023FB753B691B681B0AB2
:1025B000DBB2FB603B691B68DBB2BB60FB68022BD4
:1025C00002D1BB68062B05D0FB68002B09D1BB6884
:1025D000042B06D1FB7D002B0CBF01230023DBB2B3
:1025E000FB75FB7D18461837BD4680BD80B586B0AB
:1025F00000AF78600B46FB707B687B617B69002BCA
:102600002FD07B691B79022B2BD17B691B681B0A9E
:10261000DBB23B617B691B68DBB2FB603B69012B72
:1026200005D1FB68162B08D0FB68152B05D03B693C
:10263000042B0FD1FB681A2B0CD17B691A68FB782D
:10264000012B14BF01230023DBB21946104606F00C
:102650001BFC06E07B691B68FA781146184606F0F9
:1026600013FC00BF1837BD4680BD80B485B000AFF5
:1026700078607B68FB60FB68002B0ED0FB681B79E1
:10268000022B03D1FB6800221A7106E0FB681B795C
:10269000012B02D1FB6800221A7100BF1437BD461E
:1026A0005DF8047B7047000080B584B000AFF8602F
:1026B000B9601346FB71BB681F2B05D90D4B0E4A41
:1026C000FF210E4807F0C4FDFB68BA6853F82230BA
:1026D00023F0807323F4E063FA79120202F4E062DB
:1026E00043EA0201FB68BA6843F8221000BF1037C2
:1026F000BD4680BD40CE000004D000004CCE00009E
:1027000080B483B000AF78600B46FB707B681B68B9
:1027100023F01802FB78DB0003F018031A437B68F0
:102720001A6000BF0C37BD465DF8047B704700009F
:1027300080B58EB000AF786187ED020B87ED001B8E
:10274000524A7B695B01134411331B78002B40F024
:102750008780002387F82830002387F8293000235A
:1027600087F82A308023FB62484A7B695B01134467
:102770001868464A7B695B01134404331968434A6D
:102780007B695B01134410331B781A46FFF78CFFFB
:102790003E4A7B695B01134408331B6807F128023A
:1027A0001146184606F0EAF8384A7B695B01134483
:1027B00008331B68DBB200220121184606F064F9D9
:1027C000324A7B695B011344113304221A702F4A89
:1027D0007B695B01134403F11801D7E90223C1E9C6
:1027E000002302233B7600237B76284A7B695B012A
:1027F00013441833D3E9002310461946FEF7AAFB09
:102800000346FB61D7E90001FEF7A4FB03463B62E8
:102810000023BB841D4A7B695B01134408331B689A
:102820001B4A52F823303B630021386BFFF768FFE7
:10283000164A7B695B01134408331868134A7B69A5
:102840005B0113440C331B68DAB207F11803194615
:1028500006F078F97B695B010C4A13447B630FE057
:102860000A4A7B695B01134411331B78042B05D1A1
:102870007B695B01054A13447B6301E000237B63B2
:102880007B6B18463837BD4680BD00BF78010020FD
:10289000C0D7000080B483B000AF786000BF0C37B1
:1028A000BD465DF8047B704780B58AB000AFF86024
:1028B00087ED000BFB687B627B6A002B2CD07B6A68
:1028C0005B7C042B28D102233B7400237B747B6A3E
:1028D000D3E9062310461946FEF73CFB03467B610D
:1028E000D7E90001FEF736FB0346BB610023BB833B
:1028F0007B6A9B680A4A52F823303B620021386A9F
:10290000FFF7FEFE7B6A98687B6ADB68DAB207F144
:102910001003194606F016F900BF2837BD4680BDE2
:10292000C0D7000080B485B000AF78607B68FB60E2
:10293000FB68002B06D0FB685B7C042B02D1FB6894
:1029400000225A7400BF1437BD465DF8047B7047FF
:1029500080B483B000AF786000BF0C37BD465DF82F
:10296000047B704780B584B000AFF860B9607A60CE
:10297000BB680F2B06D90A4B0A4A40F2E2210A48EB
:1029800007F066FCFA68BB685B01134403F58053EB
:1029900010337A681A6000BF1037BD4680BD00BF93
:1029A00084CE00003CD00000B0CE000080B584B0E2
:1029B00000AFF860B9601346FB71BB680F2B06D9F6
:1029C0000D4B0E4A4FF460710D4807F041FCBB6897
:1029D0005B0103F580531833FA681344043303F1A1
:1029E000424303F580135B010433FA7992B21A80F3
:1029F00000BF1037BD4680BD84CE000058D0000017
:102A0000B0CE000090B587B000AFF8607A603B6050
:102A10000B46FB7200237B61FB681B68032B00F0F5
:102A2000E481032B05D8012B00F09880022B00F0E5
:102A30004781954B00221A60934B1B68934A52F8CA
:102A40002330002B41D1904B1B68914ADB0013448B
:102A500000229A718C4B1B688D4ADB0013440022C4
:102A60001A71894B1B688A4ADB00134400225A7191
:102A7000854B1B68864A4FF4E13142F83310824B94
:102A80001B68184603F03EF97F4B1B689B01814A87
:102A900013448149184605F07DFE7B4B18687A4B3C
:102AA0001A6813461B019B1A9B007C4A9918764BA7
:102AB0001B68DB00764A13441A4606F0E5FE724BAB
:102AC0001B68724A012142F823107B68B3F1FF3F73
:102AD00020D06D4B1A68724913469B0013449B002B
:102AE0000B4427221A60684B1A686D4913469B00F5
:102AF00013449B000B4408336A4A1A60624B1A68FD
:102B0000674913469B0013449B000B440C33664AF1
:102B10001A6015E05C4B1A68614913469B00134428
:102B20009B000B44043306221A60574B1A685C4919
:102B300013469B0013449B000B4410335B4A1A60FE
:102B4000514B1B68504A1268594941F823204E4B9B
:102B50001B689B00564A13447B61DBE14A4B012210
:102B60001A60494B1B68494A52F82330002B41D167
:102B7000454B1B68464ADB00134400229A71424BC6
:102B80001B68434ADB00134400221A713E4B1B684A
:102B90003F4ADB00134400225A713B4B1B683C4AFE
:102BA0004FF4E13142F83310374B1B68184603F0FD
:102BB000A9F8354B1B689B01364A13443649184621
:102BC00005F0E8FD304B18682F4B1A6813461B01BF
:102BD0009B1A9B00314A99182B4B1B68DB002C4A2F
:102BE00013441A4606F050FE274B1B68274A012162
:102BF00042F823107B68B3F1FF3F20D0224B1A68C4
:102C0000274913469B0013449B000B4400221A6083
:102C10001D4B1A68224913469B0013449B000B442A
:102C20000833244A1A60184B1A681D4913469B0042
:102C300013449B000B440C331F4A1A6015E0124BDF
:102C40001A68174913469B0013449B000B44043336
:102C500000221A600C4B1A68114913469B0013445A
:102C60009B000B441033154A1A60074B1B68064A39
:102C700012680F4941F82320034B1B689B000C4A44
:102C800013447B6146E100BFB0120020B412002063
:102C9000D0110020E80E0020380400206810002029
:102CA00008120020900E0020B80E0020E00E002038
:102CB00098120020E00E0020E00E0020E80E002018
:102CC000AD4B02221A60AC4B1B68AC4A52F8233061
:102CD000002B41D1A84B1B68A94ADB0013440022FA
:102CE0009A71A54B1B68A64ADB00134400221A7197
:102CF000A14B1B68A24ADB00134400225A719E4B71
:102D00001B689F4A4FF4E13142F833109A4B1B681D
:102D1000184602F0F7FF984B1B689B01994A134431
:102D20009949184605F036FD934B1868924B1A687E
:102D300013461B019B1A9B00944A99188E4B1B68E3
:102D4000DB008F4A13441A4606F09EFD8A4B1B682F
:102D50008A4A012142F823107B68B3F1FF3F20D05B
:102D6000854B1A688A4913469B0013449B000B4409
:102D700000221A60804B1A68854913469B00134451
:102D80009B000B440833834A1A607B4B1A688049C6
:102D900013469B0013449B000B440C337E4A1A607D
:102DA00015E0754B1A687A4913469B0013449B0043
:102DB0000B44043300221A606F4B1A68744913469F
:102DC0009B0013449B000B441033744A1A606A4BF7
:102DD0001B68694A1268724941F82320664B1B68D8
:102DE0009B006F4A13447B6194E0634B03221A609B
:102DF000614B1B68614A52F82330002B41D15E4B76
:102E00001B685F4ADB00134400229A715A4B1B680F
:102E10005B4ADB00134400221A71574B1B68584A67
:102E2000DB00134400225A71534B1B68544A4FF481
:102E3000E13142F83310504B1B68184602F062FF34
:102E40004D4B1B689B014F4A13444F49184605F0F0
:102E5000A1FC494B1868484B1A6813461B019B1A82
:102E60009B004A4A9918444B1B68DB00444A1344B0
:102E70001A4606F009FD404B1B68404A012142F802
:102E800023107B68B3F1FF3F20D03B4B1A684049C9
:102E900013469B0013449B000B4400221A60364BE0
:102EA0001A683B4913469B0013449B000B440833AC
:102EB0003C4A1A60304B1A68354913469B0013444C
:102EC0009B000B440C33384A1A6015E02A4B1A68F1
:102ED0002F4913469B0013449B000B4404330022EC
:102EE0001A60254B1A682A4913469B0013449B001D
:102EF0000B4410332D4A1A601F4B1B681E4A126880
:102F0000274941F823201C4B1B689B00244A13448B
:102F10007B6100BF7B68B3F1FF3F27D0164B1A6877
:102F200013461B019B1A9B002833184A1344043391
:102F3000114A12681E49184605F06EFC0E4B1868BF
:102F40000D4B1A68124913469B0013449B000B4417
:102F500008331968084B1A680D4C13469B0013443C
:102F60009B0023441B681A4600F0E0F87B69184672
:102F70001C37BD4690BD00BFB0120020B412002027
:102F8000D0110020E80E0020380400206810002036
:102F900008120020E00E0020E00E0020E80E0020C5
:102FA00098120020E00E0020E00E0020E80E002025
:102FB000D931000080B483B000AF7860396000235D
:102FC00018460C37BD465DF8047B704780B483B06B
:102FD00000AF7860084611461A460346FB700B4660
:102FE000BB7013467B70002318460C37BD465DF856
:102FF000047B704780B586B000AFF860B9607A6036
:10300000FB683B613B69002B33D03B691B681F4A5F
:10301000D35C012B2DD13B691B681D4A52F823302C
:10302000012B0FD13B691A681A4913469B001344C0
:103030009B000B4408331B687A681946B868FFF791
:10304000C7F80EE03B691A68124913469B00134407
:103050009B000B440C331B687A681946B868FFF76D
:10306000B7F83B691B68094A0021D1540023FB755E
:1030700006E07A680021B86807F02CFC2023FB7575
:10308000FB7D18461837BD4680BD00BF00120020EA
:10309000801200200812002080B586B000AFF860D2
:1030A000B9607A60FB683B613B69002B2AD03B69C1
:1030B0001B680021184606F03BFD0346082B21D073
:1030C0003B691A68134913469B0013449B000B4449
:1030D00010331B687A68B9681846FFF779F83B69BE
:1030E00018683B691A680B4913469B0013449B0000
:1030F0000B4410331B687A68194606F0F5FC03464A
:10310000FB7501E02023FB75FB7D18461837BD4693
:1031100080BD00BF0812002080B483B000AF78608B
:1031200000BF0C37BD465DF8047B704780B588B0A2
:1031300000AFF860B9607A60FB68052B06D9214BB7
:10314000214A40F28911214807F082F8204AFB68A1
:1031500052F82330FB61FB6993F82C301B09DBB27A
:103160001A461C4B53F82230BB61FB6993F82C3094
:1031700003F00F037B61FB695B78DBB2002B01D0AE
:1031800009231AE0FB6901225A70BB681A46796963
:10319000B869FFF7E7FB7A687969B86905F038FA2A
:1031A00001227969B869FFF701FC7B69DBB2012272
:1031B0001946B86905F017F9002318462037BD46AF
:1031C00080BD00BFE8CE000018D0000008CF00008E
:1031D0003445002080D5000080B582B000AF786013
:1031E0000B46FB707B68184600F004F800BF0837F8
:1031F000BD4680BD80B586B000AF78607B68052B8A
:1032000006D93C4B3C4A40F2AD113C4807F020F84F
:103210003B4A7B6852F823307B617B6993F82C3002
:103220001B09DBB21A46374B53F822303B617B69EE
:1032300093F82C3003F00F03FB600022F968386923
:10324000FFF7B4FBFB68DBB200221946386905F0D2
:10325000CAF87B69DB78DBB2002B04D07B691033C2
:10326000184604F03DFE7B6900225A70264A7B68AE
:10327000134401221A70254A7B6852F82330002B30
:103280001AD123497A6813469B0013449B000B44D0
:103290000C3319681E487A6813469B0013449B0040
:1032A00003441B681A467868FFF740FF174A7B689B
:1032B000012142F8231019E015497A6813469B0052
:1032C00013449B000B440833196811487A6813466D
:1032D0009B0013449B0003441B681A467868FFF761
:1032E00025FF0A4A7B68002142F8231000BF1837E7
:1032F000BD4680BDE8CE000070D0000008CF0000C1
:103300003445002080D500000012002080120020EB
:103310000812002080B586B000AF7861184B1B689A
:103320001B68002B0CBF01230023DBB21A46154B90
:103330001A7011E03B461449184603F0B4F800F047
:103340001FFC0F4B1B681B68002B14BF01230023BD
:10335000DBB21A460D4B1A700A4B1B78DBB2002BFE
:10336000E8D1084B00221A70786900F011F80020AB
:1033700002F0F2FF002318461837BD4680BD00BF9B
:1033800094D000003A040020D8120020CC12002073
:1033900080B582B000AF7860074B01221A60074BFE
:1033A00000221A7001F0A6FE054803F069F8002318
:1033B00018460837BD4680BDF41200203A040020AC
:1033C000D012002080B586B000AF7861396102F07C
:1033D00069FA02F031FC0A4B1B6800221A6001F006
:1033E000ABFB00209FED070A02F008FF3B460649B1
:1033F000184603F058F8002318461837BD4680BD1C
:1034000094D000006F12833AD012002080B483B0B1
:1034100000AF7860396026494FF00002254BC1E9C2
:103420002A233B68D3E900232149C1E932232049FB
:103430004FF000021F4BC1E928231D494FF0000245
:103440004FF00003C1E9202319494FF000024FF06B
:103450000003C1E92E2316494FF000024FF000038C
:10346000C1E9302312494FF000024FF00003C1E9D7
:1034700026230F494FF000020E4BC1E924230C49CB
:103480004FF000024FF00003C1E922237B68D3E92B
:1034900000230749C1E92C2305494FF00002054BE1
:1034A000C1E91E2300BF0C37BD465DF8047B7047A1
:1034B000F81200200000F03F80B483B000AF7860C5
:1034C00039603B68D3E900232149C1E9322320490F
:1034D0004FF000021F4BC1E928231D494FF00002A5
:1034E0004FF00003C1E9202319494FF000024FF0CB
:1034F0000003C1E92E2316494FF000024FF00003EC
:10350000C1E9302312494FF000024FF00003C1E936
:1035100026230F494FF000020E4BC1E924230C492A
:103520004FF000024FF00003C1E922237B68D3E98A
:1035300000230749C1E92C2305494FF00002054B40
:10354000C1E91E2300BF0C37BD465DF8047B704700
:10355000F81200200000F03FB0B52DED028B84B0D2
:1035600000AFF860B9607A603B60914B93F80A3124
:10357000032B08D08F4B002283F8B3218D4B0322FD
:1035800083F8B0216DE18B4B93F8B331012B03D05D
:10359000022B00F0A88011E185494FF00002864B14
:1035A000C1E92A2382494FF00002834BC1E9282355
:1035B0007F494FF000024FF00003C1E920237C490E
:1035C0004FF000024FF00003C1E92E2378494FF07D
:1035D00000024FF00003C1E9302375494FF00002AB
:1035E0004FF00003C1E9262371494FF00002724BEE
:1035F000C1E924236E494FF000024FF00003C1E9F6
:1036000022236B494FF000026B4BC1E91E23BB6ABA
:103610001B78002B13D067494FF000024FF00003D6
:10362000C1E96823634B032283F8B321614B002275
:10363000C3F8A8213968B868FFF73EFF11E15D4B78
:10364000D3F8A83107EE903AB8EE678AFB68D3E961
:1036500000457B68D3E90001564BD3E96823FDF7A9
:10366000DFF902460B4620462946FDF721F80246BF
:103670000B4610461946FDF78DFC07EE100A4C4B21
:10368000D3ED3E7A77EE677AB4EEE78AF1EE10FA80
:1036900000DAE6E0474B022283F8B321454B0022D3
:1036A000C3F8A8213B68D3E900234149C1E932238B
:1036B0003F494FF000024FF00003C1E91E233C498F
:1036C0004FF000024FF00003C1E9242338494FF0C6
:1036D0000002394BC1E92023BB68D3E900233449F8
:1036E000C1E92C23BDE032494FF00002324BC1E961
:1036F0002A232F494FF000024FF00003C1E91E2397
:103700002B494FF000022C4BC1E9282328494FF0E8
:1037100000024FF00003C1E9222325494FF00002C7
:103720004FF00003C1E9262321494FF000024FF07A
:103730000003C1E92E231E494FF000024FF00003A1
:10374000C1E930231A494FF000024FF00003C1E9EC
:10375000242317494FF00002174BC1E92023154BD2
:10376000D3F8A8417B6893ED007BB0EE470AF0EEFA
:10377000670A06F055FC53EC102B10461946FDF76E
:10378000E9FB03469C426BD30A494FF000020A4B07
:10379000C1E96823074B032283F8B321054B0022BC
:1037A000C3F8A8213968B868FFF786FE58E000BF63
:1037B000F8120020081400200000F03F2C494FF0C0
:1037C00000022C4BC1E9282329494FF000024FF099
:1037D0000003C1E9202326494FF000024FF0000307
:1037E000C1E92E2322494FF000024FF00003C1E946
:1037F00030231F494FF000024FF00003C1E9262398
:103800001B494FF000021B4BC1E9242318494FF01C
:1038100000024FF00003C1E9222315494FF00002D6
:10382000144BC1E91E23144BD3F8A83107EE903A8C
:10383000B8EE677A0E4BD3ED3E7AB4EEE77AF1EE4E
:1038400010FA00DA0DE00C4B012283F8B3210A4B89
:103850000022C3F8A8213968B868FFF7D7FD00E057
:1038600000BF00BF1037BD46BDEC028BB0BD00BF2E
:10387000F81200200000F03F0814002080B483B04C
:1038800000AF7860396026494FF00002254BC1E94E
:103890002A233B68D3E900232149C1E93423204985
:1038A0004FF000021F4BC1E928231D494FF00002D1
:1038B0004FF00003C1E9202319494FF000024FF0F7
:1038C0000003C1E92E2316494FF000024FF0000318
:1038D000C1E9302312494FF00002124BC1E92623FF
:1038E0000F494FF000024FF00003C1E924230C49B7
:1038F0004FF000024FF00003C1E922237B68D3E9B7
:1039000000230749C1E92C2305494FF00002054B6C
:10391000C1E91E2300BF0C37BD465DF8047B70472C
:10392000F81200200000F03F80B483B000AF786050
:1039300039603B68D3E900232149C1E93423204998
:103940004FF000021F4BC1E928231D494FF0000230
:103950004FF00003C1E9202319494FF000024FF056
:103960000003C1E92E2316494FF000024FF0000377
:10397000C1E9302312494FF00002124BC1E926235E
:103980000F494FF000024FF00003C1E924230C4916
:103990004FF000024FF00003C1E922237B68D3E916
:1039A00000230749C1E92C2305494FF00002054BCC
:1039B000C1E91E2300BF0C37BD465DF8047B70478C
:1039C000F81200200000F03F80B483B000AF7860B0
:1039D00023494FF00002234BC1E9282320494FF02F
:1039E00000024FF00003C1E920231D494FF00002FF
:1039F0004FF00003C1E92E2319494FF000024FF0A8
:103A00000003C1E9302316494FF00002154BC1E90C
:103A1000262313494FF000024FF00003C1E924238D
:103A20000F494FF000024FF00003C1E922237B68E9
:103A3000D3E900230A49C1E92C2309494FF00002C8
:103A4000084BC1E91E2306494FF000024FF0000366
:103A5000C1E92A2300BF0C37BD465DF8047B7047DF
:103A6000F81200200000F03F80B483B000AF78600F
:103A700023494FF00002234BC1E9282320494FF08E
:103A800000024FF00003C1E920231D494FF000025E
:103A90004FF00003C1E92E2319494FF000024FF007
:103AA0000003C1E9302316494FF000024FF0000334
:103AB000C1E9262312494FF00002124BC1E9242329
:103AC0000F494FF000024FF00003C1E922237B6849
:103AD000D3E900230A49C1E92C2309494FF0000228
:103AE000084BC1E91E2306494FF000024FF00003C6
:103AF000C1E92A2300BF0C37BD465DF8047B70473F
:103B0000F81200200000F03F80B584B000AF78606C
:103B10007B6800221A727B6801225A60164B4FF0B4
:103B2000FF321A65144B00225A65134B1B6D0A2293
:103B300000211248FEF766FF02467B681A617B6827
:103B40001B694FF4E1311846FFF734FA0A4B0122A2
:103B500083F858200023FB737B681869064B93F8A1
:103B60005830FA7B0821FFF731FA7B6801221A727C
:103B700000BF1037BD4680BDF81200204C13002056
:103B8000B0B592B002AF494BD3E91601484BD3E927
:103B90000423FDF7ADF90346002B05D1444BD3E9CF
:103BA00004234249C1E91623404B1B6D272241499A
:103BB0001846FFF71FFA034687F83D3027223D4994
:103BC0003D48FEF705FB394B93F8AE31032B0AD085
:103BD000032B0DDC012B67D0022B09D1334B0422C0
:103BE00083F8AE2187E0314B042283F8AE2182E0D6
:103BF00097F83D30002B7DD12F4B1B78162B4DD1E4
:103C00002D4B5B78222B3DD0552B42D1274B0322E5
:103C100083F8AE21042229492948FEF7D9FA264B18
:103C20009A79254B83F80A21234BDA79224B83F8C2
:103C30000B21214B5A7A204B83F80C210422214975
:103C40002148FEF7C5FA042220492148FEF7C0FAB0
:103C5000042220492048FEF7BBFA174B9A7D164BE9
:103C600083F80D2104221D491D48FEF7B1FA0422F4
:103C70001C491D48FEF7ACFA02221C491C48FEF7FD
:103C8000A7FA10E0094B012283F8AE2101F04CFCA9
:103C900009E0064B042283F8AE2104E0034B042222
:103CA00083F8AE2126E025E000BF24E008140020C0
:103CB000400400201F130020F8120020FA120020F8
:103CC000E413002002130020E81300200613002054
:103CD000EC1300200A130020F01300200F13002023
:103CE000F413002013130020F813002017130020F2
:103CF000FC13002000BFB14B93F80C311846FCF7C1
:103D000015FEAF4BD3E90623FCF7B4FF02460B4682
:103D1000C7E90823A94B93F80D311846FCF706FEB6
:103D2000A74BD3E90823FCF7A5FF02460B46C7E9DA
:103D30000C23A24BD3F8F0301846FCF719FEA04B29
:103D4000D3E90A23FCF796FF02460B4610461946B4
:103D50009B4BD3E90C23FCF763FE02460B46C7E9F5
:103D60000223964BD3F8FC301846FCF701FE944B27
:103D7000D3E90E23FCF77EFF02460B461046194698
:103D80008F4BD3E91023FCF74BFE02460B468B49C1
:103D9000C1E93823894B93F80B311846FCF7C6FD6F
:103DA000874BD3E91223FCF765FF02460B464FF021
:103DB00000008449FCF75EFF02460B467F49C1E9DB
:103DC0003623814BD3E90E017D4BD3E90023FDF768
:103DD0008FF80346002B05D1794BD3E900237A49AC
:103DE000C1E90E23784B1B6B1846FEF7C7FB034651
:103DF00087F82F30744BD3E90601714BD3E90223C6
:103E0000FDF776F80346002B05D16D4BD3E902236D
:103E10006D49C1E906236C4B1B691846FEF7AEFBE2
:103E20000346FB71654BD3F8F4301846FCF7A0FD50
:103E3000634BD3E91623FCF71DFF02460B461046E1
:103E400019465F4BD3E91823FCF7EAFD02460B46FF
:103E5000C7E90623594BD3F800311846FCF788FD13
:103E6000574BD3E91A23FCF705FF02460B461046D1
:103E70001946534BD3E91C23FCF7D2FD02460B46EF
:103E8000C7E90423504BD3F8A831B3F1FF3F06D064
:103E90004D4BD3F8A83101334B4AC2F8A8314A4BF5
:103EA00093F8AF31002B09D1474B012283F8AF21A2
:103EB000454B032283F8B02100F023BC424B93F81A
:103EC000B031013B032B00F2018401A252F823F030
:103ED000E13E00003D42000025440000DF440000B8
:103EE000364B93F80A31042B09D0374B002283F864
:103EF000B421354B032283F8B02100F002BC324BD1
:103F000093F8B431012B03D0022B00F0E48043E19D
:103F10002A494FF000022B4BC1E92A2327494FF0D1
:103F20000002284BC1E9282324494FF000024FF03A
:103F30000003C1E9202321494FF000024FF00003A4
:103F4000C1E92E231D494FF000024FF00003C1E9E3
:103F500030231A494FF000021A4BC1E926231749B2
:103F60004FF000024FF00003C1E9242313494FF042
:103F700000024FF00003C1E9222310494FF0000274
:103F8000104BC1E91E2397F82F30002B20D00E498B
:103F90004FF000024FF00003C1E968230A4B0322EF
:103FA00083F8B421084B0022C3F8A82107F11003BD
:103FB00019460648FFF7B8FC3AE100BFF8120020A6
:103FC000400400200000F03F08140020D813002017
:103FD000A14BD3E93645A14BD3E96801D7E90C23BE
:103FE000FCF71EFD02460B4620462946FCF760FB07
:103FF00002460B4614461D46974BB3F8043118464B
:10400000FCF794FC02460B4620462946FCF750FB81
:1040100002460B4643EC172BB0EE470AF0EE670A58
:1040200002F05CFAB0EE407AF0EE607A87ED087B41
:10403000D7E908014FF00002894BFCF763FF034604
:10404000002B16D0D7E908014FF000024FF0000313
:10405000FCF76CFF0346002B08D0D7E90823104675
:104060001946FCF777FF0346FB8705E00023FB8733
:1040700002E04FF6FF73FB87784BD3F8A821FB8F44
:104080009A42C0F0D580754B022283F8B421734B5D
:104090000022C3F8A821D7E904236F49C1E93423DA
:1040A0006D494FF000024FF00003C1E91E236A4939
:1040B0004FF000026B4BC1E9222367494FF0000229
:1040C0004FF00003C1E92623634BD3E9382362494B
:1040D000C1E92C23ACE060494FF00002614BC1E91B
:1040E0002A235D494FF000024FF00003C1E91E236F
:1040F00059494FF000025B4BC1E9282356494FF064
:104100000002584BC1E9222353494FF000024FF0FF
:104110000003C1E9262350494FF000024FF000038D
:10412000C1E92E234C494FF000024FF00003C1E9D2
:10413000302349494FF000024FF00003C1E9242326
:1041400045494FF000024FF00003C1E92023434BE3
:10415000D3F8A84197ED0C0B05F062FF53EC102B40
:1041600010461946FCF7F6FE03469C4262D33B49D3
:104170004FF000023B4BC1E96823384B032283F820
:10418000B421364B0022C3F8A82107F110031946C9
:104190003548FFF7C9FB4DE02F494FF00002314B86
:1041A000C1E928232C494FF000024FF00003C1E978
:1041B000202329494FF000024FF00003C1E92E23CC
:1041C00025494FF000024FF00003C1E93023224996
:1041D0004FF00002234BC1E926231F494FF0000294
:1041E0004FF00003C1E924231B494FF000024FF0B8
:1041F0000003C1E9222318494FF00002194BC1E91D
:104200001E23164BD3F8A831134AB2F80421934267
:1042100012D3124B012283F8B421104B0022C3F8B1
:10422000A82107F1100319460F48FFF727FB03E009
:1042300000BF66E200BF64E200BF62E2064B93F893
:104240000A31022B12D0054B002283F8B221034B16
:10425000032283F8B02146E2F8120020081400205F
:104260000000F0400000F03FD8130020A34B93F86B
:10427000B231012B7CD1A2494FF00002A14BC1E920
:1042800028239F494FF000024FF00003C1E920238B
:104290009B494FF000024FF00003C1E92E239849DB
:1042A0004FF000024FF00003C1E9302394494FF072
:1042B0000002944BC1E9262391494FF000024FF0D0
:1042C0000003C1E924238E494FF000024FF00003A0
:1042D000C1E922238A494FF000028A4BC1E91E231B
:1042E00087494FF000024FF00003C1E92A23834BB6
:1042F000D3F8A841824BD3E93601D7E90C23FCF768
:10430000D7F902460B4643EC172BB0EE470AF0EE06
:10431000670A05F085FE53EC102B10461946FCF792
:1043200019FE03469C42C0F0DE81744B022283F8E2
:10433000B221724B0022C3F8A82171494FF000024C
:104340004FF00003C1E91E236D494FF000026D4B91
:10435000C1E922236A494FF000024FF00003C1E98E
:104360002623674BD3E938236549C1E92C23BAE1F9
:1043700063494FF000024FF00003C1E91E2360497A
:104380004FF000025F4BC1E928235D494FF0000266
:104390005C4BC1E922235A494FF000024FF0000361
:1043A000C1E9262356494FF000024FF00003C1E94E
:1043B0002E2353494FF000024FF00003C1E9302390
:1043C0004F494FF000024FF00003C1E924234C494C
:1043D0004FF000024FF00003C1E9202348494FF09D
:1043E00000024FF00003C1E92A23444BD3F8A8414F
:1043F00097ED0C0B05F014FE53EC102B10461946EC
:10440000FCF7A8FD03469C42C0F06D813B4B0122A6
:1044100083F8B221394B0022C3F8A8213A48FFF7AC
:10442000D3FA60E1364B93F80A31013B032B00F2DB
:104430005C8101A252F823F06F4400009344000015
:10444000B3440000494400002C4B012283F8B02102
:104450002A4B012283F8B421284B0022C3F8A8215B
:1044600007F1100319462848FFF708FA36E0234BF6
:10447000042283F8B021214B012283F8B1211F4B84
:104480000022C3F8A82107F108031846FFF7ECFA49
:1044900024E01A4B022283F8B021184B012283F842
:1044A000B221164B0022C3F8A8211748FFF78CFA57
:1044B00014E0124B052283F8B021104B012283F83F
:1044C000B3210E4B0022C3F8A82107F1180207F10F
:1044D000080311461846FEF799FF00BF05E1084B97
:1044E00093F80A31012B11D0044B002283F8B1213B
:1044F000024B032283F8B02102E100BF0814002020
:10450000F81200200000F03FD8130020784B93F8F9
:10451000B131012B7BD177494FF00002764BC1E9D5
:10452000282374494FF000024FF00003C1E9202313
:1045300070494FF000024FF00003C1E92E236D498E
:104540004FF000024FF00003C1E9302369494FF0FA
:1045500000024FF00003C1E9262366494FF0000234
:10456000654BC1E9242363494FF000024FF000037B
:10457000C1E922235F494FF000025F4BC1E91E23CE
:104580005C494FF000024FF00003C1E92A23584B69
:10459000D3F8A841574BD3E93601D7E90823FCF7F4
:1045A00087F802460B4643EC172BB0EE470AF0EEB5
:1045B000670A05F035FD53EC102B10461946FCF741
:1045C000C9FC03469C42C0F09B80494B022283F801
:1045D000B121474B0022C3F8A82146494FF0000201
:1045E0004FF00003C1E91E2342494FF000024FF093
:1045F0000003C1E924233F494FF000023E4BC1E9CB
:104600002023D7E902233B49C1E92C2378E039492B
:104610004FF000024FF00003C1E91E2335494FF06F
:104620000002354BC1E9282332494FF000024FF018
:104630000003C1E922232F494FF000024FF000038D
:10464000C1E926232B494FF000024FF00003C1E9D6
:104650002E2328494FF000024FF00003C1E9302318
:1046600024494FF000024FF00003C1E924232149FF
:104670004FF00002204BC1E920231E494FF00002F9
:104680004FF00003C1E92A23194BD3F8A84197ED55
:10469000087BB0EE470AF0EE670A05F0C1FC53EC68
:1046A000102B10461946FCF755FC03469C4227D3B5
:1046B0000F4B012283F8B1210D4B0022C3F8A82132
:1046C00007F108031846FFF7CFF919E007F11800C2
:1046D00007F1200207F10801FB1D0093034607487C
:1046E000FEF73AFF0DE000BF0BE000BF09E000BF9E
:1046F00008140020F81200200000F03FD013002022
:1047000000BFB94BD3F83841B84BD3E91E010123A0
:104710001D464FF000024FF00003FCF7E9FB034693
:10472000002B01D000231D46EBB219462046FDF7B1
:104730005DFFAD4BD3F81041AC4BD3E92001012311
:104740001D464FF000024FF00003FCF7D1FB03467B
:10475000002B01D000231D46EBB219462046FDF781
:1047600045FFA14BD3F82441A04BD3E922010123FB
:104770001D464FF000024FF00003FCF7B9FB034663
:10478000002B01D000231D46EBB219462046FDF751
:104790002DFF954BD3F8FC40944BD3E92401012322
:1047A0001D464FF000024FF00003FCF7A1FB03464B
:1047B000002B01D000231D46EBB219462046FDF721
:1047C00015FF894BD3F8E840884BD3E92601012334
:1047D0001D464FF000024FF00003FCF789FB034633
:1047E000002B01D000231D46EBB219462046FDF7F1
:1047F000FDFE7D4BD3F8D4407C4BD3E92801012347
:104800001D464FF000024FF00003FCF771FB03461A
:10481000002B01D000231D46EBB219462046FDF7C0
:10482000E5FE714BD3F8C040704BD3E92A01012358
:104830001D464FF000024FF00003FCF759FB034602
:10484000002B01D000231D46EBB219462046FDF790
:10485000CDFE654BD3F89C31644A92ED2C7BB0EED3
:10486000470AF0EE670A1846FEF71EF85E4BD3F8CB
:104870004C415E4BD3E92E0101231D464FF000024F
:104880004FF00003FCF734FB0346002B01D000235C
:104890001D46EBB219462046FDF7A8FE524BD3F851
:1048A0006041524BD3E9300101231D464FF0000215
:1048B0004FF00003FCF71CFB0346002B01D0002344
:1048C0001D46EBB219462046FDF790FE464BD3F845
:1048D0008831464A92ED327BB0EE470AF0EE670A25
:1048E0001846FDF7E1FF404BD3F874313F4A92ED93
:1048F000347BB0EE470AF0EE670A1846FDF7D4FFA6
:10490000394B93F8AC31002B08D1374B012283F897
:10491000AC21354B022283F8AD21B8E0324B93F83D
:10492000AD31032B00F08080032B00F39680012B28
:1049300002D0022B19D090E02C494FF000024FF02A
:104940000003C1E9182329494FF00002284BC1E9AF
:104950001A2326494FF000024FF00003C1E91C233F
:10496000214B022283F8AD2191E0204B93F80A31CC
:10497000032B20D0032B00F38980012B3AD0022B8C
:1049800040F08480184B012283F8AD2117494FF085
:1049900000024FF00003C1E9182314494FF0000250
:1049A000134BC1E91A2311494FF000024FF00003E5
:1049B000C1E91C2337E00C4B042283F8AD210B49DD
:1049C0004FF000024FF00003C1E9182307494FF0F0
:1049D00000024FF00003C1E91A2304494FF000021E
:1049E000034BC1E91C231EE008140020F81200202C
:1049F0000000F03F4C4B032283F8AD214B494FF0B0
:104A000000024B4BC1E9182348494FF000024FF018
:104A10000003C1E91A2345494FF000024FF000039B
:104A2000C1E91C2300BF31E040494FF00002404B78
:104A3000C1E918233D494FF000024FF00003C1E9DE
:104A40001A233A494FF000024FF00003C1E91C233A
:104A5000354B022283F8AD2119E034494FF00002B2
:104A60004FF00003C1E9182330494FF000024FF026
:104A70000003C1E91A232D494FF000022C4BC1E974
:104A80001C23294B022283F8AD2100E000BF264BF6
:104A9000D3F8AC40254BD3E9180101231D464FF054
:104AA00000024FF00003FCF723FA0346002B01D06D
:104AB00000231D46EBB219462046FDF797FD1A4B21
:104AC000D3F89840194BD3E91C0101231D464FF040
:104AD00000024FF00003FCF70BFA0346002B01D055
:104AE00000231D46EBB219462046FDF77FFD0E4B15
:104AF000D3F884400D4BD3E91A0101231D464FF032
:104B000000024FF00003FCF7F3F90346002B01D03D
:104B100000231D46EBB219462046FDF767FD00BF96
:104B20004037BD46B0BD00BF08140020F812002079
:104B30000000F03F0000000080B584B000AFB94B2A
:104B4000022283F8AE21B84B022283F80A21B64B29
:104B50003C2283F80B21B44B142283F80C21B24B76
:104B6000B24AC3F8F020B04BB14AC3F8F420AE4BC0
:104B7000B04AC3F8F820AC4B142283F80D21AA4B9D
:104B8000AA4AC3F8FC20A84B4FF07D52C3F800217D
:104B9000A54BC822A3F8042100F0B4FCA14B0022CD
:104BA0005A64A04B002283F84020A34BD3E904238E
:104BB0009C49C1E91623A148FEF7A6FF994B0122A3
:104BC00083F82020974B00225A6296494FF000024A
:104BD0009B4BC1E90E23934B002283F82020964B78
:104BE000D3E900238F49C1E90E23964BFB608D4B1F
:104BF000002283F828208B4B01225A6200210020DA
:104C0000FDF74CFC0246FB681A61864B012283F8D3
:104C10002820844B01221A70824B00225A6081495D
:104C20004FF00002864BC1E906237E4B00221A702A
:104C3000814BD3E902237B49C1E90623794BFB6011
:104C4000784B00221A72774B01225A600021012012
:104C5000FDF724FC0246FB681A61724B01221A72AE
:104C6000704B012283F828216E4B0022C3F82C21BF
:104C70006C4B002283F82821734BBB60694B0022E8
:104C800083F83021674B0122C3F82C210121022037
:104C9000FDF704FC0246BB681A61624B012283F8EF
:104CA0003021604B012283F800215E4B0022C3F8C3
:104CB00004215C4B002283F80021644BBB60594BFC
:104CC000002283F80821574B0122C3F80421012157
:104CD0000920FDF7E3FB0246BB681A61514B012234
:104CE00083F808214F4B012283F814214D4B0022F9
:104CF000C3F818214B4B002283F81421544BBB609E
:104D0000484B002283F81C21464B0122C3F818218E
:104D100001210820FDF7C2FB0246BB681A61414B26
:104D2000012283F81C213F4B012283F8EC203D4BEC
:104D30000022C3F8F0203B4B002283F8EC20454BC7
:104D4000BB60384B002283F8F420364B0122C3F8B5
:104D5000F02001210C20FDF7A1FB0246BB681A617F
:104D6000304B012283F8F4202E4B012283F8D82007
:104D70002C4B0022C3F8DC202A4B002283F8D820D9
:104D8000354BBB60274B002283F8E020254B0122E6
:104D9000C3F8DC2001210B20FDF780FB0246BB6835
:104DA0001A61204B012283F8E0201E4B012283F878
:104DB000C4201C4B0022C3F8C8201A4B002283F8E1
:104DC000C420264BBB60174B002283F8CC20154B28
:104DD0000122C3F8C82001210A20FDF75FFB02462B
:104DE000BB681A610F4B012283F8CC200D4B0122C6
:104DF00083F8B0200B4B0022C3F8B420094B0022EB
:104E000083F8B020164BBB60064B002283F8B82015
:104E1000044B0122C3F8B42001210D20FDF73EFB15
:104E200002461FE008140020F81200200000604035
:104E3000000020400000A04340040020481400204F
:104E40000000F0BF281400203015002008150020B5
:104E50001C150020F4140020E0140020CC140020C5
:104E6000B8140020BB681A61994B012283F8B8205E
:104E7000974B012283F88C21954B0022C3F8902197
:104E8000934B002283F88C21924B7B60904B002245
:104E900083F894218E4B0122C3F890219FED881B4B
:104EA0009FED890B0520FDF743FC02467B681A61E4
:104EB000874BD3F89C311846FDF7ECFC844B01225C
:104EC00083F89421824B012283F83C21804B0022FD
:104ED000C3F840217E4B002283F83C217E4BBB600F
:104EE0007B4B002283F84421794B0122C3F84021F7
:104EF00001210420FDF7D2FA0246BB681A61744B07
:104F0000012283F84421724B012283F85021704B17
:104F10000022C3F854216E4B002283F850216F4BBE
:104F2000BB606B4B002283F85821694B0122C3F808
:104F3000542101210720FDF7B1FA0246BB681A612E
:104F4000634B012283F85821614B012283F87821B9
:104F50005F4B0022C3F87C215D4B002283F878214F
:104F60005F4B7B605A4B002283F88021584B012213
:104F7000C3F87C219FED521B9FED530B0320FDF7DF
:104F8000D7FB02467B681A61514BD3F8883118462B
:104F9000FDF780FC4E4B012283F880214C4B01220F
:104FA00083F864214A4B0022C3F86821484B002251
:104FB00083F864214B4B7B60454B002283F86C21C6
:104FC000434B0122C3F868219FED3D1B9FED3E0B33
:104FD0000620FDF7ADFB02467B681A613C4BD3F817
:104FE00074311846FDF756FC394B012283F86C21C9
:104FF000374B012283F89C20354B0022C3F8A020B8
:10500000334B002283F89C20374BBB60304B00228F
:1050100083F8A4202E4B0122C3F8A02001212B20CD
:10502000FDF73CFA0246BB681A61294B012283F85E
:10503000A420274B012283F88820254B0022C3F8A7
:105040008C20234B002283F88820284BBB60204B08
:10505000002283F890201E4B0122C3F88C200121EE
:105060002C20FDF71BFA0246BB681A61184B01227F
:1050700083F89020164B012283F87420144B0022F1
:105080009A67134B002283F87420194BBB60104BB6
:10509000002283F87C200E4B01229A6701212A20EE
:1050A000FDF7FCF90246BB681A61094B012283F83F
:1050B0007C2000BF1037BD4680BD00BFAFF300802D
:1050C00000000000000000000000000000409F40C1
:1050D00008140020941500204415002058150020C5
:1050E000801500206C150020A414002090140020CE
:1050F0007C14002080B500AFBD4B93F84030002BEE
:1051000011D1BB4B012283F84020B94B5B6C012BC2
:1051100009D1B74B93F84830002B04D0B44B1B6D2A
:105120001846FDF7F9FF00F049FAB14B93F820302B
:10513000002B11D1AE4B012283F82020AC4B5B6ACF
:10514000012B09D1AA4B93F82830002B04D0A84B8F
:105150001B6B1846FDF789FAA54B1B78002B0FD166
:10516000A34B01221A70A24B5B68012B08D1A04B04
:105170001B7A002B04D09E4B1B691846FDF775FA6D
:105180009B4B93F82831002B13D1994B012283F8C4
:105190002821974BD3F82C31012B0AD1944B93F84B
:1051A0003031002B05D0924BD3F838311846FDF73B
:1051B0005CFA8F4B93F80031002B13D18C4B0122FA
:1051C00083F800218A4BD3F80431012B0AD1884B94
:1051D00093F80831002B05D0854BD3F810311846D1
:1051E000FDF743FA824B93F81431002B13D1804B17
:1051F000012283F814217E4BD3F81831012B0AD1F8
:105200007B4B93F81C31002B05D0794BD3F824311C
:105210001846FDF72AFA764B93F8EC30002B13D1A1
:10522000734B012283F8EC20714BD3F8F030012B43
:105230000AD16F4B93F8F430002B05D06C4BD3F8A8
:10524000FC301846FDF711FA694B93F8D830002B63
:1052500013D1674B012283F8D820654BD3F8DC309B
:10526000012B0AD1624B93F8E030002B05D0604B44
:10527000D3F8E8301846FDF7F8F95D4B93F8C430E1
:10528000002B13D15A4B012283F8C420584BD3F87A
:10529000C830012B0AD1564B93F8CC30002B05D0E7
:1052A000534BD3F8D4301846FDF7DFF9504B93F841
:1052B000B030002B13D14E4B012283F8B0204C4B61
:1052C000D3F8B430012B0AD1494B93F8B830002BF6
:1052D00005D0474BD3F8C0301846FDF7C6F9444B0C
:1052E00093F88C31002B19D1414B012283F88C218A
:1052F0003F4BD3F89031012B10D13D4B93F89431B3
:10530000002B0BD03A4BD3F89C311846FDF70AFB23
:10531000374BD3F89C311846FDF71AFB344B93F802
:105320003C31002B13D1324B012283F83C21304B0E
:10533000D3F84031012B0AD12D4B93F84431002B87
:1053400005D02B4BD3F84C311846FDF78EF9284B7E
:1053500093F85031002B13D1254B012283F85021B3
:10536000234BD3F85431012B0AD1214B93F85831F8
:10537000002B05D01E4BD3F860311846FDF775F9A8
:105380001B4B93F87831002B19D1194B012283F86C
:105390007821174BD3F87C31012B10D1144B93F8A3
:1053A0008031002B0BD0124BD3F888311846FDF713
:1053B000B9FA0F4BD3F888311846FDF7C9FA0C4BF0
:1053C00093F86431002B1DD1094B012283F864212D
:1053D000074BD3F86831012B14D1054B93F86C318E
:1053E000002B0FD0024BD3F87431184602E000BFF7
:1053F00008140020FDF796FA284BD3F874311846AC
:10540000FDF7A6FA254B93F89C30002B13D1234BC4
:10541000012283F89C20214BD3F8A030012B0AD124
:105420001E4B93F8A430002B05D01C4BD3F8AC30A6
:105430001846FDF71AF9194B93F88830002B13D151
:10544000164B012283F88820144BD3F88C30012BA3
:105450000AD1124B93F89030002B05D00F4BD3F8A4
:1054600098301846FDF701F90C4B93F87430002B77
:1054700012D10A4B012283F87420084B9B6F012B39
:105480000AD1064B93F87C30002B05D0034BD3F8A0
:1054900084301846FDF7E9F800BF80BD08140020ED
:1054A00080B586B000AF78607B6800221A727B6896
:1054B00001225A604FF0FF337B610023FB6007F14C
:1054C0000C000A237A690021FDF79CFA02467B68EA
:1054D0001A617B681B694FF4E1311846FDF76AFDDC
:1054E0000123FB740023BB747B681869FB7CBA7CC6
:1054F0000821FDF76BFD7B6801221A7200BF183787
:10550000BD4680BD80B500AF054B00225A66044BF6
:10551000002283F860200348FFF7C2FF00BF80BD70
:10552000081400206814002080B584B000AF1F4B21
:10553000D3F8EC301D4AC2F8E83004221C491D485B
:10554000FCF746FE194B93F80A313B70174B93F862
:105550000B317B70154B93F80631BB70134B93F8EE
:105560000731FB70114B93F808313B710F4B93F8E7
:1055700009317B710123FB7310E0394607F1080301
:1055800006221846FCF724FE0B4B1B6F07F108019F
:1055900006221846FDF780FD0346FB73FB7B002BBC
:1055A000EBD100BF00BF1037BD4680BDF812002010
:1055B000E0130020FE1300200814002080B500AF87
:1055C0000C4B93F86030002B11D10A4B012283F869
:1055D0006020084B5B6E012B09D1064B93F86830B5
:1055E000002B04D0034B1B6F1846FDF795FD00BF41
:1055F00080BD00BF0814002080B489B000AF294BE3
:10560000FB60294A294B9A4216D00023FB610AE02D
:10561000264AFB6952F823202349FB6941F82320DD
:10562000FB690133FB61FB689B08FA699A42EFD37F
:105630001F4B1D4A9A6002E01D4B1C4A9A601D4B8D
:10564000BB611D4B7B611D4BBB60BA687B69D31A84
:10565000FB6107E07A69531C7B61BB69591CB96126
:1056600012781A70FB695A1EFA61002BF2D1144BA2
:105670003B61144B7B607A683B69D31AFB6104E0A1
:105680003B695A1C3A6100221A70FB695A1EFA6182
:10569000002BF5D100BF00BF2437BD465DF8047B69
:1056A000704700BF00000000000000000000000084
:1056B00000ED00E00000002010E4000080F2000097
:1056C000700E00202846002080B400AF6B4BD3F84A
:1056D00088306A4A43F47003C2F88830684B4CF251
:1056E0002052DA81664B4DF62812DA81644B4FF472
:1056F000E9721A80634B1B78DBB203F00103002BC5
:105700000FD0614B9B78DBB203F00803002B2ED047
:105710005D4B9B78DBB25C4A43F00803DBB29370CD
:1057200025E05A4B03F581531C331B68574943F05E
:10573000005201F581531C331A60554B1B6903F469
:105740008073002B13D1524B1B6923F47C53504AB6
:1057500043F4407313614E4B1B694D4A43F480730D
:1057600013614B4B1B694A4A23F400731361494B85
:105770002A221A70454B03F5825304334FF08A7284
:105780001A60424B1B6823F44023404A43F4002331
:1057900013603E4B03F5805304331B6823F44033FE
:1057A0003A4943F4803201F5805304331A60374B91
:1057B00003F5815318331B68344943F4007201F533
:1057C000815318331A60344B9B6C334A23F0807337
:1057D00023F4E0639364314B00221A722F4B5B7801
:1057E000DBB223F06003DBB22C4A43F02003DBB2D0
:1057F00053702B4B80221A70284B00221A73274BB0
:10580000BA221A7000BF254B9B79DBB203F010035C
:10581000002BF8D1214BDB78DBB2204A03F01F03C9
:10582000DBB2D3701D4B13221A711C4B18225A7114
:105830001A4B5B79DBB2194A43F04003DBB2537178
:1058400000BF164B9B79DBB203F04003002BF8D06E
:10585000124B1B78DBB2114A03F03F03DBB213702B
:1058600000BF0E4B9B79DBB203F00C030C2BF8D17D
:1058700000BF00BFBD465DF8047B704700ED00E04F
:105880000020054000F0074000D0074000700440B1
:1058900000D0034000E00740009004400040064074
:1058A0000050064080B483B000AF9C4B1B78DBB245
:1058B00003F0C003002B40F0DE80984B5B79DBB235
:1058C00003F04003002B40F0B980944B1B78DBB20F
:1058D00003F00403002B4ED1904B1B7BDBB203F093
:1058E0000303002B02D0012B03D006E08C4B7B601E
:1058F00006E04FF400437B6002E08A4B7B6000BF10
:10590000864B5B78DBB203F03003002B23D0834B54
:105910001B7BDBB203F00303012B1CD07F4B1B78F6
:10592000DBB203F03803302B05D0382B07D14FF40E
:10593000C0637B800EE04FF4A0637B800AE0774B6E
:105940001B78DBB2DB0803F00703202202FA03F323
:105950007B8000BF09E0714B1B78DBB2DB0803F0F2
:105960000703012202FA03F37B807B887A68B2FB8B
:10597000F3F37B6002E04FF400437B60674BDB781E
:10598000DBB203F0E003E02B51D0E02B00F2B0805B
:10599000C02B45D0C02B00F2AB80A02B39D0A02B60
:1059A00000F2A680802B2DD0802B00F2A180602BEE
:1059B00021D0602B00F29C80402B15D0402B00F2B0
:1059C0009780002B02D0202B07D091E07A681346F5
:1059D0009B001344DB017B608BE07A6813469B00DD
:1059E00013441B027B6084E07A6813461B019B1AF8
:1059F000DB017B607DE07A6813469B0013445B0209
:105A00007B6076E07B684FF4377202FB03F37B60C8
:105A10006FE07B684FF4B76202FB03F37B6068E0E2
:105A20007B6840F6950202FB03F37B6061E07B68D4
:105A300040F6713202FB03F37B605AE0374B1B796F
:105A4000DBB29BB203F01F039BB201337B807B88E8
:105A5000334AB2FBF3F37B60304B5B79DBB29BB232
:105A600003F01F039BB218337B807A887B6802FBAC
:105A700003F37B603DE0294B1B78DBB203F0C003EE
:105A8000402B1AD1254B5B78DBB203F00103002BCE
:105A900003D14FF400437B602BE0204B1B7ADBB239
:105AA0005B0803F00703012202FA03F37B807B8883
:105AB0001D4AB2FBF3F37B601BE0184B1B78DBB293
:105AC00003F0C003802B23D1144B1B7BDBB203F00C
:105AD0000303002B02D0012B03D006E0104B7B60A8
:105AE00007E04FF400437B6003E00E4B7B6000E077
:105AF00000BF0E4B03F5825304331B681B0F03F0EA
:105B00000F0301337A68B2FBF3F3094A136000E034
:105B100000BF0C37BD465DF8047B7047004006406F
:105B200080F0FA02006CDC0200093D0000700440C5
:105B3000B804002080B584B000AFF860B9601346A7
:105B4000FB71BB681F2B05D90D4B0E4AFF210E4878
:105B500004F07EFBFB68BA6853F8223023F08073B0
:105B600023F4E063FA79120202F4E06243EA0201EC
:105B7000FB68BA6843F8221000BF1037BD4680BDED
:105B800070CF0000B0D000007CCF000080B483B0A4
:105B900000AF78600B46FB707B68FA781A7000BF24
:105BA0000C37BD465DF8047B7047000080B584B0BB
:105BB00000AF3B4600221A605A609A60DA60064BDA
:105BC0003B6002237B723B461946002002F086FAB6
:105BD00000BF1037BD4680BD80F0FA0280B584B0AA
:105BE00000AF074A3B1D07CA83E807003B1D194663
:105BF000002002F0BFFA00BF1037BD4680BD00BFD5
:105C0000B4CF000080B500AF2A210848FFF7BEFFDF
:105C1000002212210648FFF78DFFFFF7C7FFFFF7AD
:105C2000DDFF044802F0FCFA00BF80BD00E0074041
:105C30000090044098D0000080B582B000AF02F020
:105C400089F90023FB7106E0FB79184602F06CFB32
:105C5000FB790133FB71FB79042BF5D9FFF7D2FFF8
:105C600000BF0837BD4680BD80B584B000AFF86086
:105C7000B9601346FB71BB681F2B05D90D4B0E4A4B
:105C8000FF210E4804F0E4FAFB68BA6853F82230AA
:105C900023F0807323F4E063FA79120202F4E062E5
:105CA00043EA0201FB68BA6843F8221000BF1037CC
:105CB000BD4680BDC0CF0000C4D00000CCCF0000E6
:105CC00080B483B000AF78600B46FB707B6803F54F
:105CD00081530833FA785209D2B29200134403F187
:105CE000424303F58013DA00FB7803F01F031344EB
:105CF0009B001A460123136000BF0C37BD465DF8B8
:105D0000047B704780B584B000AF786089215D481E
:105D1000FFF7D6FF8A215B48FFF7D2FF8B21594856
:105D2000FFF7CEFF8C215748FFF7CAFF8D2155485A
