:1000000000000020FD040000EB600000F160000033
:10001000F7600000FD6000000361000000000000C8
:100020000000000000000000000000006D0500005E
:1000300009610000000000001306000073060000C4
:10004000A95F0000B75F0000C55F0000D35F00003C
:10005000E15F0000EF5F0000FD5F00000B6000004B
:100060001960000027600000356000004360000058
:10007000516000005F6000006D6000007B60000068
:10008000896000000F610000156100001B61000025
:1000900021610000276100002D6100003361000034
:1000A000396100003F610000456100004B610000C4
:1000B00051610000576100005D6100009760000021
:1000C00063610000A560000069610000B36000008A
:1000D0006F610000C1600000756100007B6100007D
:1000E00081610000876100008D6100009361000064
:1000F000996100009F610000A5610000AB610000F4
:100100000D0500000D0500000D0500000D050000A7
:10011000B1610000B7610000BD610000C361000073
:10012000C9610000CF610000D5610000DB61000003
:10013000E1610000E7610000ED610000F361000093
:10014000F9610000FF610000CF600000056200005F
:10015000DD6000000B620000116200001762000009
:100160001D62000023620000296200002F6200006F
:10017000356200003B6200004162000047620000FF
:100180004D6200000D0500000D0500000D0500008A
:100190000D0500000D0500000D0500000D05000017
:1001A0000D0500000D0500000D0500000D05000007
:1001B0000D0500000D0500000D0500000D050000F7
:1001C0000D0500000D0500000D0500000D050000E7
:1003F0000D0500000D0500000D050000FFFFFFFFCB
:10040000FFFFFFFFFFFFFFFFFFFFFFFFFEFFFFFFFD
:1004400010B5054C237833B9044B13B10448AFF30E
:1004500000800123237010BDF01000200000000078
:100460001CE3000008B5034B1BB103490348AFF37D
:10047000008008BD00000000F41000201CE3000014
:10048000A3F5803A704700BF174B002B08BF134BF2
:100490009D46FFF7F5FF00218B460F461348144A8F
:1004A000121A0AF00BFB0E4B002B00D098470D4B95
:1004B000002B00D098470020002104000D000D48BB
:1004C000002802D00C4809F0D5FF0AF019F82000E6
:1004D000290003F013F809F0D9FF00BF000008005D
:1004E00000000000D563000000000020F010002094
:1004F0005048002075A40000ADA4000072B605F0BD
:100500006BF905F001F962B6FFF7BEFFFFF7FEBF1A
:1005100080F309887047EFF309807047684680F3DD
:1005200009885A480078C00714BF0220032080F3CE
:1005300014887047DFF858C1EFF305831B0618BF16
:100540006047EFF31483DB0708BF604700DF7047A5
:10055000DFF840C1EFF305831B0618BF6047EFF3D8
:100560001483DB0708BF604700DF7047EFF30980A3
:10057000816911F8021CE1BB90E80F1010B5E0474B
:10058000BDE81040EFF3098C8CE80700424B93E87C
:100590000600914208BF704741B91EF0100F16D1F6
:1005A0003E49086820F00100086010E01EF0100FBE
:1005B00006BF2CED108A0120002081F825002CE9CF
:1005C000F00FC1F828C00CB407F08CF90CBC1A600D
:1005D000D2F828C0BCE8F00F92F8250000280EBF22
:1005E0006FF0020E6FF0120EBCEC108A8CF30988CB
:1005F000704710B52A4A1268914209D8294C54F81C
:10060000214090E80F10A047EFF3098C8CE80F0011
:1006100010BD10B507F0D8F8BDE810401E4B93E8A8
:100620000600914208BF7047EFF3098C1EF0100FCF
:1006300006BF2CED108A0120002081F825002CE94E
:10064000F00FC1F828C00CB407F04CF90CBC1A60CC
:10065000D2F828C0BCE8F00F92F8250000280EBFA1
:100660006FF0020E6FF0120EBCEC108A8CF309884A
:10067000704710B507F018F9FFF7CEBF10B507F0B7
:1006800011F907F011F9FFF7C7BF0000CCD2000045
:100690005571000071710000EC47002034EF00E05C
:1006A00000000000FCFFFFFF81F0004102E000BFFE
:1006B00083F0004330B54FEA41044FEA430594EA22
:1006C000050F08BF90EA020F1FBF54EA000C55EA5D
:1006D000020C7FEA645C7FEA655C00F0E2804FEA2E
:1006E0005454D4EB5555B8BF6D420CDD2C4480EA10
:1006F000020281EA030382EA000083EA010180EA40
:10070000020281EA0303362D88BF30BD11F0004F8D
:100710004FEA01314FF4801C4CEA113102D04042C3
:1007200061EB410113F0004F4FEA03334CEA1333FE
:1007300002D0524263EB430394EA050F00F0A78016
:10074000A4F10104D5F1200E0DDB02FA0EFC22FA11
:1007500005F2801841F1000103FA0EF2801843FA05
:1007600005F359410EE0A5F120050EF1200E012AF6
:1007700003FA0EFC28BF4CF0020C43FA05F3C01834
:1007800051EBE37101F0004507D54FF0000EDCF1AD
:10079000000C7EEB00006EEB0101B1F5801F1BD356
:1007A000B1F5001F0CD349085FEA30004FEA3C0C5A
:1007B00004F101044FEA445212F5800F80F09A8050
:1007C000BCF1004F08BF5FEA500C50F1000041EB54
:1007D000045141EA050130BD5FEA4C0C404141EB58
:1007E0000101013C28BFB1F5801FE9D291F0000F53
:1007F00004BF01460020B1FA81F308BF2033A3F102
:100800000B03B3F120020CDA0C3208DD02F1140CF8
:10081000C2F10C0201FA0CF021FA02F10CE002F133
:100820001402D8BFC2F1200C01FA02F120FA0CFC2C
:10083000DCBF41EA0C019040E41AA2BF01EB045175
:10084000294330BD6FEA04041F3C1CDA0C340EDC73
:1008500004F11404C4F1200220FA04F001FA02F3B6
:1008600040EA030021FA04F345EA030130BDC4F174
:100870000C04C4F1200220FA02F001FA04F340EA69
:100880000300294630BD21FA04F0294630BD94F01A
:10089000000F83F4801306BF81F480110134013D01
:1008A0004EE77FEA645C18BF7FEA655C29D094EA72
:1008B000050F08BF90EA020F05D054EA000C04BFF0
:1008C0001946104630BD91EA030F1EBF00210020DB
:1008D00030BD5FEA545C05D14000494128BF41F07A
:1008E000004130BD14F580043CBF01F5801130BDDE
:1008F00001F0004545F0FE4141F470014FF0000069
:1009000030BD7FEA645C1ABF194610467FEA655C19
:100910001CBF0B46024650EA013406BF52EA0335BB
:1009200091EA030F41F4002130BD00BF90F0000FA9
:1009300004BF0021704730B54FF4806404F13204E5
:100940004FF000054FF0000150E700BF90F0000F9E
:1009500004BF0021704730B54FF4806404F13204C5
:1009600010F0004548BF40424FF000013EE700BF95
:1009700042004FEAE2014FEA31014FEA02701FBF25
:1009800012F07F4393F07F4F81F06051704732F057
:100990007F4208BF704793F07F4F04BF41F40021AE
:1009A000704730B54FF4607401F0004521F000410C
:1009B0001CE700BF50EA010208BF704730B54FF096
:1009C00000050AE050EA010208BF704730B511F097
:1009D000004502D5404261EB41014FF4806404F1CF
:1009E00032045FEA915C3FF4D8AE4FF003025FEA55
:1009F000DC0C18BF03325FEADC0C18BF033202EBD9
:100A0000DC02C2F1200300FA03FC20FA02F001FA32
:100A100003FE40EA0E0021FA02F11444BDE600BFD5
:100A200070B54FF0FF0C4CF4E06C1CEA11541DBF84
:100A30001CEA135594EA0C0F95EA0C0F00F0DEF84F
:100A40002C4481EA030621EA4C5123EA4C5350EA34
:100A5000013518BF52EA033541F4801143F4801385
:100A600038D0A0FB02CE4FF00005E1FB02E506F016
:100A70000042E0FB03E54FF00006E1FB03569CF06B
:100A8000000F18BF4EF0010EA4F1FF04B6F5007F71
:100A900064F5407404D25FEA4E0E6D4146EB0606E3
:100AA00042EAC62141EA55514FEAC52040EA5E506C
:100AB0004FEACE2EB4F1FD0C88BFBCF5E06F1ED816
:100AC000BEF1004F08BF5FEA500E50F1000041EB4D
:100AD000045170BD06F0004646EA010140EA0200FA
:100AE00081EA0301B4EB5C04C2BFD4EB0C0541EA1C
:100AF000045170BD41F480114FF0000E013C00F331
:100B0000AB8014F1360FDEBF002001F0004170BD54
:100B1000C4F10004203C35DA0C341BDC04F114046D
:100B2000C4F1200500FA05F320FA04F001FA05F2F9
:100B300040EA020001F0004221F0004110EBD370C6
:100B400021FA04F642EB06015EEA430E08BF20EAF2
:100B5000D37070BDC4F10C04C4F1200500FA04F395
:100B600020FA05F001FA04F240EA020001F0004127
:100B700010EBD37041F100015EEA430E08BF20EA9A
:100B8000D37070BDC4F1200500FA05F24EEA020EE2
:100B900020FA04F301FA05F243EA020321FA04F011
:100BA00001F0004121FA04F220EA020000EBD370C8
:100BB0005EEA430E08BF20EAD37070BD94F0000FC8
:100BC0000FD101F00046400041EB010111F4801FFC
:100BD00008BF013CF7D041EA060195F0000F18BFAD
:100BE000704703F00046520043EB030313F4801FE9
:100BF00008BF013DF7D043EA0603704794EA0C0FA3
:100C00000CEA135518BF95EA0C0F0CD050EA4106B8
:100C100018BF52EA4306D1D181EA030101F0004135
:100C20004FF0000070BD50EA410606BF104619465D
:100C300052EA430619D094EA0C0F02D150EA013669
:100C400013D195EA0C0F05D152EA03361CBF1046AA
:100C500019460AD181EA030101F0004141F0FE4149
:100C600041F470014FF0000070BD41F0FE4141F4CD
:100C7000780170BD70B54FF0FF0C4CF4E06C1CEACD
:100C800011541DBF1CEA135594EA0C0F95EA0C0F82
:100C900000F0A7F8A4EB050481EA030E52EA03353D
:100CA0004FEA013100F088804FEA03334FF080555E
:100CB00045EA131343EA12634FEA022245EA11158B
:100CC00045EA10654FEA00260EF000419D4208BF3C
:100CD000964244F1FD0404F5407402D25B084FEAE9
:100CE0003202B61A65EB03055B084FEA32024FF495
:100CF00080104FF4002CB6EB020E75EB030E22BFF2
:100D0000B61A754640EA0C005B084FEA3202B6EBB1
:100D1000020E75EB030E22BFB61A754640EA5C0060
:100D20005B084FEA3202B6EB020E75EB030E22BFF0
:100D3000B61A754640EA9C005B084FEA3202B6EBF1
:100D4000020E75EB030E22BFB61A754640EADC00B0
:100D500055EA060E18D04FEA051545EA16754FEA12
:100D600006164FEAC30343EA52734FEAC2025FEA30
:100D70001C1CC0D111F4801F0BD141EA00014FF0BF
:100D800000004FF0004CB6E711F4801F04BF014390
:100D90000020B4F1FD0C88BFBCF5E06F3FF6AFAEAC
:100DA000B5EB030C04BFB6EB020C5FEA500C50F13C
:100DB000000041EB045170BD0EF0004E4EEA1131BF
:100DC00014EB5C04C2BFD4EB0C0541EA045170BDC6
:100DD00041F480114FF0000E013C90E645EA060E0A
:100DE0008DE60CEA135594EA0C0F08BF95EA0C0F38
:100DF0003FF43BAF94EA0C0F0AD150EA01347FF480
:100E000034AF95EA0C0F7FF425AF104619462CE756
:100E100095EA0C0F06D152EA03353FF4FDAE1046B9
:100E2000194622E750EA410618BF52EA43067FF40A
:100E3000C5AE50EA41047FF40DAF52EA43057FF49A
:100E4000EBAE12E74FF0FF3C06E000BF4FF0010CA5
:100E500002E000BF4FF0010C4DF804CD4FEA410C09
:100E60007FEA6C5C4FEA430C18BF7FEA6C5C1BD0D6
:100E700001B050EA410C0CBF52EA430C91EA030F57
:100E800002BF90EA020F0020704710F1000F91EAB4
:100E9000030F58BF994208BF90422CBFD8176FEA82
:100EA000E37040F0010070474FEA410C7FEA6C5C50
:100EB00002D150EA013C07D14FEA430C7FEA6C5C57
:100EC000D6D152EA033CD3D05DF8040B704700BF83
:100ED0008446104662468C461946634600E000BFD1
:100EE00001B5FFF7B7FF002848BF10F1000F01BDA3
:100EF0004DF808EDFFF7F4FF0CBF012000205DF86E
:100F000008FB00BF4DF808EDFFF7EAFF34BF0120F2
:100F100000205DF808FB00BF4DF808EDFFF7E0FF8B
:100F200094BF012000205DF808FB00BF4DF808EDDC
:100F3000FFF7CEFF94BF012000205DF808FB00BF43
:100F40004DF808EDFFF7C4FF34BF012000205DF825
:100F500008FB00BF4A0011D212F5001211D20DD5C4
:100F60006FF47873B3EB62520ED44FEAC12343F0AF
:100F7000004343EA505323FA02F070474FF0000059
:100F8000704750EA013002D14FF0FF3070474FF008
:100F90000000704753B94AB9002908BF00281CBF98
:100FA0004FF0FF314FF0FF3001F0C0B8ADF1080C49
:100FB0006DE904CE00F006F8DDF804E0DDE9022377
:100FC00004B070472DE9F047089D04468C46002B7D
:100FD00040F083808A42174647D9B2FA82F242B182
:100FE000C2F1200024FA00F09140974040EA010C41
:100FF00094404FEA1748230CBCFBF8F61FFA87FE13
:1010000008FB16C143EA014306FB0EF1994209D9D8
:10101000FB1806F1FF3080F01981994240F21681E9
:10102000023E3B445B1AA4B2B3FBF8F008FB10335A
:1010300044EA034400FB0EFEA64509D93C1900F121
:10104000FF3380F00581A64540F2028102383C441E
:1010500040EA0640A4EB0E0400261DB1D440002354
:10106000C5E900433146BDE8F08702B9FFDEB2FAB8
:1010700082F2002A50D1CB1B4FEA174E1FFA87F895
:101080000126B3FBFEFC210C0EFB1C3341EA03419D
:1010900008FB0CF38B4207D979180CF1FF3002D210
:1010A0008B4200F2E9808446C91AA3B2B1FBFEF07C
:1010B0000EFB101143EA014408FB00F8A04507D9D4
:1010C0003C1900F1FF3302D2A04500F2D980184646
:1010D000A4EB080440EA0C40BFE78B4209D9002D7D
:1010E00000F0B1800026C5E9000130463146BDE878
:1010F000F087B3FA83F6002E4AD18B4202D38242A4
:1011000000F2B880841A61EB030101208C46002DA7
:10111000A8D0C5E9004CA5E7C2F1200320FA03F6E8
:10112000974001FA02F04FEA174ED9403043030CC2
:10113000B1FBFEF61FFA87F80EFB161143EA0143D6
:1011400006FB08F1994204FA02F409D9FB1806F1EA
:10115000FF3C80F08D80994240F28A80023E3B4401
:101160005B1A81B2B3FBFEF00EFB103341EA034180
:1011700000FB08F38B4207D9791800F1FF3C73D2CA
:101180008B4271D902383944CB1A40EA064678E7D7
:10119000C6F1200C03FA06F422FA0CF31C4320FAE1
:1011A0000CF701FA06F34FEA144E21FA0CF11F4333
:1011B0003B0CB1FBFEF91FFA84F80EFB191143EA50
:1011C000014109FB08FA8A4502FA06F200FA06F321
:1011D00008D9611809F1FF3048D28A4546D9A9F1EA
:1011E00002092144A1EB0A01BFB2B1FBFEF00EFBE4
:1011F000101147EA014700FB08F8B84507D9E7197D
:1012000000F1FF312ED2B8452CD90238274440EAEC
:101210000940A7EB0807A0FB02894F45C64649468F
:101220001AD317D05DB1B3EB0E0267EB010707FAD3
:101230000CFCF2404CEA0202F740C5E90027002608
:101240003146BDE8F0872E4628460BE70646E9E61C
:101250001846FDE64345E5D2B8EB020E69EB040102
:101260000138DFE70846D2E760468DE78146B9E7F7
:10127000664675E730464AE7ACF1020C394413E79D
:1012800002383C4424E700BF03685A004CBF43F0D7
:10129000004323F000431844704700BF2DE9F84392
:1012A00029B34F1E044615463E464FF0000808EB92
:1012B000060101EBD171491004EBC1094846FFF763
:1012C000E3FF0346C80008308F42204409D0AB42F8
:1012D00009D8FFF7D9FF0138A8420AD201F1010865
:1012E000E5E7AB4205D9884501D04E1EDFE74FF058
:1012F00000094846BDE8F883012807D0022807D036
:10130000044B00280CBF1846002070470248704765
:1013100002487047BD190000C1190000C51900003E
:1013200030B5234B83B004468D1E3BB301A928463C
:10133000AFF30080E8B101992A46FFF7AFFF0146FD
:10134000B8B1FFF7A1FF4B68A064012B2BD0002B95
:1013500001F1040023DBFFF797FF0023C4E9130327
:101360000368002B10DBFFF78FFF2061002003B024
:1013700030BD00230920236103B030BD0D490E4864
:10138000091AC9100191D7E7C3F30360FFF7B4FF4F
:101390000028206114BF0020092003B030BD0123C4
:1013A000C4E91303DCE7002323610520DFE700BF66
:1013B0000000000014E8000044E500000368DA07BC
:1013C00010B5044606D49B0700F1480009D500F08B
:1013D0004BFC2368590709D51A070ED5DB0613D530
:1013E00010BD00F039FC23685907F5D404F1D00092
:1013F00000F042FC23681A07F0D404F5A87000F04E
:1014000043FC2368DB06EBD404F5E870BDE810402C
:1014100000F07EBC0346006800B11844704700BF6E
:1014200009207047704700BF70B504460E46316C06
:101430002046FFF775FF054688B9336C6361324675
:1014400023692146012098470828F0D0072806D1B3
:101450002846316CFFF7E6FF301D00F0F1FB08F085
:10146000E3FF00BF2DE9F0470D1D064614460FCDE2
:10147000ADF5727D0DF10C0CACE80F000FCDACE8B2
:101480000F000FCDACE80F0095E80F0002ADF76834
:10149000D6F818808CE80F0000232B6021E02B6C1D
:1014A00073614FF4F07229467AA800F041FE336967
:1014B0007AAA314650469847889BCDE90058214684
:1014C0006B648146334632460120B8470446E8B98A
:1014D0004FF4F0727AA9284600F02AFEB9F1080FFD
:1014E0001BD1296C3046FFF71BFF09345FFA84FAE1
:1014F00081460028D3D0AB6B4AF01001CDE90058EB
:1015000032466B6401203346B84708B14FF00909F1
:1015100048460DF5727DBDE8F087B9F1070FF5D1AA
:101520002046296CFFF77EFF03A800F089FB00BF6F
:10153000406C7047F0B5CB6B0B640E1D0F46054633
:101540000FCEF9B001AC0FC40FCE0FC40FCE0FC435
:1015500096E80F004FF0FF3684E80F00009606E093
:101560002B696A46294698470828044608D11099ED
:101570002846FFF7D5FE0028F2D0092079B0F0BD4B
:101580006846FFF71BFF062CF7D139462846FFF7C0
:101590004BFF00BF30B4DD6BC160826119461D6432
:1015A000002230BC5EE700BF70B5C66843690B64BB
:1015B000AEB903690A4604460D4601460220984723
:1015C000072805D008280FD129462046FFF72CFF11
:1015D0003046296CFFF726FF281D00F031FB012261
:1015E000FFF740FF08F020FF08F01EFFC2681AB1A5
:1015F000CA6B0A64002235E79CE700BF704700BF52
:10160000836801460BB1012018477047012912D0A9
:1016100009D873B90F2A0CD800EB82021846536818
:10162000009A136070470339012994BF01200220FA
:101630007047022070470846704700BF10B584B05D
:10164000002303AC0A4600941946FFF7DFFF039816
:1016500004B010BD012912D009D873B90F2A0CD8D3
:1016600000EB8200009A1268426018467047033906
:10167000012994BF012002207047022070470846CC
:10168000704700BF10B584B0002303AC03920094F0
:101690000A461946FFF7DEFF04B010BDF0B5D36B64
:1016A0001364151D8C4606460FCDADF50F7D17ACA6
:1016B0000FC40FCD0FC40FCD0FC495E80F004FF02E
:1016C000FF3784E80F006546169710E0FFF7DAFF52
:1016D000294616A8B047034616AA6946082083B9CA
:1016E000049B9847052804460CD0092809D0269960
:1016F0006846FFF715FE03466A460C2116A8002B24
:10170000E4D0092416A8FFF759FE20460DF50F7DF9
:10171000F0BD00BF2DE9F04FCC6C89B00D4654F8F8
:10172000041B0694174600F003081E46002B79D0D0
:101730000B0CDAB209048DF81D30022304EB82048D
:1017400005918DF81C302B6DB8F1020F08BFAC6B02
:1017500013F001030CD0384605A900F073FB18B94B
:10176000082009B0BDE8F08F092009B0BDE8F08F6E
:10177000D4F800A0BAF1000FEDD0019300F00803F7
:101780000293022E4AD0B4F800A0B4F802900434B8
:10179000AA6C29F0010B0F2138469344FFF74EFF46
:1017A000834539D82AF001025A44824294BF00206E
:1017B00001204FEA490303F002030AF0010A43EA59
:1017C0000A03012B49D0022B32D0002BCCD1B8F127
:1017D000000F02D0002840F0CD800434D4F800A0DF
:1017E000BAF1000FCDD105A9384600F02BFB002837
:1017F000BAD1019B002BB3D00F213846FFF71EFF53
:101800000E2102463846FFF73DFF38466A4A0F214F
:10181000FFF738FF0720A8E70020CAE7D4F80490B4
:101820000834B5E7090203230591ADF81C308AE7B7
:10183000236823F0004BB8F1000F45D128B1029A7C
:10184000002A5CD0BBF1000F74D0002B00DA043406
:101850000BF1010B04EB8B04C0E7B8F1000F19D1B9
:10186000B0B1D4E90023991C4FEAD2723FF47CAFA7
:1018700005F158010133049100F09080201DFFF71D
:10188000C9FD04AB01462846AFF3008000285BD1B8
:101890000834A3E70D213846D5F82090FFF7CEFE97
:1018A0008145F5D1AB6A9C42F2D12046FFF7ECFCB2
:1018B0000F2102463846FFF7E5FE38462A4600214A
:1018C000FFF7E0FE072050E70D213846D5F82090BD
:1018D000FFF7B4FE814501D02368B6E7AB6A9C42AE
:1018E000FAD104220021C5E90B12A318C5F828B0CB
:1018F0006B6323688B4259DB01230193A8E705F151
:101900005803CDF80C8004F1040AB04691461E46F7
:101910000DE00496FFF77EFD04AB01460022284649
:10192000AFF3008009F101090AF1040AE8B9D945C9
:101930005046EED138460D21FFF780FE049B286209
:10194000C5E90934062010E781460D213846FFF726
:1019500075FEB9F1020F286225D12B46049A43F88F
:101960002C2F6B62AC620620FFE646462368DDF84A
:101970000C806AE72046FFF787FC04340246AC631C
:1019800028461446AFF3008000283FF4EDAE3846F9
:1019900022460F21FFF776FE0720E6E638460D21A6
:1019A000FFF74CFE2862049B6B62DBE70BF1010042
:1019B00004EB80007AE700BF000000000023A9E6E6
:1019C0000123A7E60223A5E62DE9F0430646C3B0AE
:1019D00015461C46042900F2B980DFE801F09A534D
:1019E000B7290300002C40F0B180102A00F2AE802D
:1019F0000368D80600F1F38020AF384600F092F972
:101A0000B06B0023012404FA03F22A42014604D0F9
:101A100051F8042B47F8232008460133042BF2D158
:101A2000B063384600F074F9002043B0BDE8F0839D
:101A3000032C40F08B8094B204EB1243102B4FEA3E
:101A4000124500F2838003681F0700F1D08020AFA9
:101A5000384600F03BF907EBC501B56B54B10B46B6
:101A6000E81A01EBC401E4001A5843F8042B8B4236
:101A7000FAD125443846B56300F006F9002043B09A
:101A8000BDE8F083012C4FEA124895B25AD0052CDC
:101A90005CD108EB0509B9F1200F57D8B8F10F0F49
:101AA00077D9A946002D40F08880B36B6DB320AF85
:101AB0004FF0000907EBC807043F03EBC50553F8D7
:101AC000041B47F8041FAB42F9D1B9F1000F0FD046
:101AD0006F464146102938BF102107EBC1018439F8
:101AE00003EBC90553F8040B41F8040FAB42F9D1DD
:101AF000012C00F08480B8F10F0FB56345D9B9F11E
:101B0000000F02D0684600F0B7F8002043B0BDE8EF
:101B1000F083DCB9876B2346012094B206F1040CF4
:101B200000FA03F22242394604D051F8042B4CF853
:101B300023200F460133102BF2D115F40050E4D1CD
:101B4000B76304E008EB0503102B03D9022043B070
:101B5000BDE8F083B8F10F0FF8D83368DA0706D57F
:101B6000304623F0030340F8483B00F079F820AFFB
:101B7000384600F075F8B36B002D99D11D46043539
:101B8000B563384600F068F8BFE720A800F06CF8AD
:101B9000B5E7B9F1100F40D9A9F110093368D90799
:101BA00008D523F00103304643F0020340F8483BD8
:101BB00000F05EF8B9F1000F32D033685A0720D434
:101BC000B8F10F0F25D96F463846C8F1100500F05F
:101BD00057F8002DB36B7FF77CAF20AF6AE723F097
:101BE0001003336006F5E87000F09CF804E723F07A
:101BF0000803036000F5A87000F068F827E720AF3D
:101C0000BDE7304623F0040340F8D03B00F038F83D
:101C1000D6E720A800F02CF8D5E74FF00009BDE783
:101C2000B8F10F0F3FF641AF20AF384600F020F873
:101C3000B36B002D7FF43CAF384600F015F864E735
:101C400000F1340191E838009C46A6464CF8045D4A
:101C500090E8FF0FE54600BD90EC210B704700BFF8
:101C600080EC210B704700BF90EC200B704700BF49
:101C700080EC200B704700BFD0EC200B704700BFFA
:101C8000C0EC200B704700BFF0EC0201F0EC021139
:101C9000F0EC0221F0EC0231F0EC0241F0EC0251E8
:101CA000F0EC0261F0EC0271F0EC0281F0EC0291D8
:101CB000F0EC02A1F0EC02B1F0EC02C1F0EC02D1C8
:101CC000F0EC02E1F0EC02F1704700BFE0EC020141
:101CD000E0EC0211E0EC0221E0EC0231E0EC024128
:101CE000E0EC0251E0EC0261E0EC0271E0EC028118
:101CF000E0EC0291E0EC02A1E0EC02B1E0EC02C108
:101D0000E0EC02D1E0EC02E1E0EC02F1704700BF50
:101D1000B0FC0181B0FC0191B0FC01A1B0FC01B1AB
:101D2000704700BFA0FC0181A0FC0191A0FC01A1B3
:101D3000A0FC01B1704700BFEC4600B52DE9005092
:101D40002DE9FF1F4FF000032DE90C0001A9FFF75B
:101D5000F1FBDDF840E012B0704700BFEC4600B583
:101D60002DE900502DE9FF1F4FF000032DE90C0075
:101D700001A9FFF719FCDDF840E012B0704700BF81
:101D8000EC4600B52DE900502DE9FF1F4FF0000390
:101D90002DE90C0001A9FFF729FCDDF840E012B0A5
:101DA000704700BFEC4600B52DE900502DE9FF1F3C
:101DB0004FF000032DE90C0001ABFFF7EBFBDDF862
:101DC00040E012B0704700BFEC4600B52DE900506E
:101DD0002DE9FF1F4FF000032DE90C0001AAFFF7CA
:101DE0005DFCDDF840E012B0704700BF027A7AB9BE
:101DF000437AA3B14268013B10B4437213680321D4
:101E0000141D01721A024460026010BC180E704763
:101E10000368013A02721A020260180E7047B0207D
:101E2000704700BF00B585B003AA00230092194691
:101E30000C22FFF7EBFB039805B05DF804FB00BF35
:101E4000F0E700BF2DE9F043054685B00E464FF0A0
:101E500000083046FFF7CAFFB028044600F0B28001
:101E6000070620D500F0F003802B4DD0902B36D004
:101E7000A02B60D0B02B74D0C02B00F08B8000F072
:101E8000F803D02B0BD100F00702013242F40022FC
:101E9000052301212846FFF797FD0028D9D0092006
:101EA00005B0BDE8F0830DF10C0900231946870049
:101EB000CDF800900D222846FFF7A8FBFFB2039B48
:101EC000CDF80090043760064CBFDF1BFF180023DD
:101ED00019460D2228460397FFF7BCFBB9E700F02F
:101EE0000D030D2BDBD003AF002300F00F021946CA
:101EF00000972846FFF78AFB0023009719460D221A
:101F00002846FFF7A7FBA4E73046FFF76FFF240240
:101F10002043B0F5004FC2D004010023A2B21946FD
:101F20002846FFF751FD0028B9D114F4004F18BF1F
:101F30004FF001088DE7C24302F007034FF47F62C0
:101F40001A41010702F47F624FF0000348BF42F4D8
:101F5000804219462846FFF737FD00283FF479AF45
:101F60009DE7B12833D0B22800F08B80B32839D058
:101F700000F0FC03B42B92D000F0070201320123E1
:101F800042F4002219462846FFF71EFD00283FF4C0
:101F900060AF84E7C62842D0C7284CD000F0F803D1
:101FA000C02B5BD0C82860D0C9287FF478AF3046FA
:101FB000FFF71CFF020300F00F0002F47022013053
:101FC000024365E7B8F1000F18D0002068E73046FB
:101FD000FFF70CFF024600283FF461AF10F0F0035A
:101FE000D0D05CE73046FFF701FF010300F00F009F
:101FF00001F47021421C01230A43C3E703AC4346AA
:102000000E22414600942846FFF700FB0094284624
:1020100043460F224146FFF71DFB404640E730464E
:10202000FFF7E4FE010300F00F0001F47021421CF1
:1020300003230A43A6E73046FFF7D8FE02460028EE
:102040003FF42DAF10F0F0037FF429AF04212846B0
:10205000FFF7BAFC00283FF4FCAE20E700F00F02C7
:102060000132032342F420228CE73046FFF7BEFE04
:1020700000F0F00200F00F031032013343EA0232A5
:1020800006E700230DF10C090D221946CDF800904A
:102090002846FFF7BBFA3046FFF7A8FE02064FF0CE
:1020A00002070CD5039B00F07F00B8400344304684
:1020B0000393FFF79BFE030607F10707F2D4039B88
:1020C000CDF8009000F07F0403F50172BC400023BE
:1020D000144419460D2228460394FFF7BBFAB8E6CC
:1020E00010B5C26C84B0536803248DF80C401B02F9
:1020F00002F108040846D279019301A902948DF8EF
:102100000D20FFF79FFE04B010BD00BF08B5FFF71C
:1021100097FE806C08BD00BF08B5FFF791FEC06C4C
:10212000C379023300EB830008BD00BF704700BFD6
:10213000844641EA000313F003036DD1403A41D3D2
:1021400051F8043B40F8043B51F8043B40F8043B91
:1021500051F8043B40F8043B51F8043B40F8043B81
:1021600051F8043B40F8043B51F8043B40F8043B71
:1021700051F8043B40F8043B51F8043B40F8043B61
:1021800051F8043B40F8043B51F8043B40F8043B51
:1021900051F8043B40F8043B51F8043B40F8043B41
:1021A00051F8043B40F8043B51F8043B40F8043B31
:1021B00051F8043B40F8043B51F8043B40F8043B21
:1021C000403ABDD2303211D351F8043B40F8043BC1
:1021D00051F8043B40F8043B51F8043B40F8043B01
:1021E00051F8043B40F8043B103AEDD20C3205D3D1
:1021F00051F8043B40F8043B043AF9D2043208D0C9
:10220000D2071CBF11F8013B00F8013B01D30B883A
:1022100003806046704700BF082A13D38B078DD018
:1022200010F003038AD0C3F10403D21ADB071CBFEA
:1022300011F8013B00F8013B80D331F8023B20F854
:10224000023B7BE7043AD9D3013A11F8013B00F88D
:10225000013BF9D20B7803704B7843708B78837015
:102260006046704700000000000000000000000011
:1022700001F0FF01102A2BDB10F0070F08D010F837
:10228000013B013A8B422DD010F0070F42B3F6D13B
:10229000F0B441EA012141EA014122F007047FF054
:1022A00000070023F0E80256083C85EA010586EAAB
:1022B000010685FA47F5A3FA87F586FA47F6A5FAE7
:1022C00087F68EB9EED1F0BC01F0FF0102F00702F3
:1022D00032B110F8013B013A83EA010313B1F8D19E
:1022E0000020704701387047002D06BF354603387F
:1022F000073815F0010F07D1013015F4807F02BFB8
:10230000013015F4C03F0130F0BC0138704700BF08
:1023100000000000000000000000000000000000BD
:1023200000000000000000000000000000000000AD
:10233000000000000000000000000000000000009D
:1023400090F800F06DE9024520F007016FF0000CF5
:1023500010F0070491F820F040F049804FF000049D
:102360006FF00700D1E9002391F840F000F1080078
:1023700082FA4CF2A4FA8CF283FA4CF3A2FA8CF3B0
:102380004BBBD1E9022382FA4CF200F10800A4FA17
:102390008CF283FA4CF3A2FA8CF3E3B9D1E904236B
:1023A00082FA4CF200F10800A4FA8CF283FA4CF3A2
:1023B000A2FA8CF37BB9D1E9062301F1200182FA5C
:1023C0004CF200F10800A4FA8CF283FA4CF3A2FA62
:1023D0008CF3002BC6D0002A04BF04301A4612BA70
:1023E000B2FA82F2FDE8024500EBD2007047D1E973
:1023F000002304F00305C4F100004FEAC50514F002
:10240000040F91F840F00CFA05F562EA05021CBFD2
:1024100063EA050362464FF00004A9E780B586B081
:1024200000AF786026497A6813465B0013449B002E
:102430000B4409331B78002B27D107F108031846FA
:1024400006F000F80323FB721D497A6813465B000F
:1024500013449B000B441B6807F108021146184601
:1024600006F002F816497A6813465B0013449B0095
:102470000B44093303221A707A6813465B00134435
:102480009B000F4A13447B6115E00D497A6813469F
:102490005B0013449B000B4409331B78032B08D1CA
:1024A0007A6813465B0013449B00054A13447B6122
:1024B00001E000237B617B6918461837BD4680BD6B
:1024C0003804002080B485B000AFF8600B467A6015
:1024D000FB7200BF1437BD465DF8047B70470000F7
:1024E00080B58AB000AFF860B9601346FB71FB6835
:1024F000FB61FB69002B3AD0FB691B7A3B7500231B
:10250000BB7500237B75FB691B680121184605F02C
:10251000F3FFFB691868FB695B6807F11402194651
:1025200006F00AF8FB691A68FB695B6819461046F1
:1025300006F01EF8FB691A68FB695B6819461046CD
:1025400006F03AF803467B837B8B07EE903AF8EE71
:10255000677A17EE900AFEF70BFA0DA3D3E9002372
:10256000FEF75EFA02460B46C7E9082305E04FF086
:1025700000024FF00003C7E90823B968D7E9082330
:10258000C1E9002300BF2837BD4680BDAFF30080FE
:10259000100010001000F03E80B483B000AF7860EF
:1025A00000BF0C37BD465DF8047B704780B483B034
:1025B00000AF786000BF0C37BD465DF8047B704704
:1025C00080B483B000AF786000BF0C37BD465DF8C3
:1025D000047B704780B590B000AF78600B46FB700D
:1025E000FB78002B27D107F1240300221A605A60E0
:1025F0009A60DA601A615A612D4A7B6852F833306A
:102600007B62012387F82830012387F829304FF0B7
:10261000FF333B6307F12403184606F09DFC244A70
:102620007B68DB00134401221A717B68DB00204ABF
:102630001344FB6336E0FB78012B31D107F10C0327
:1026400000221A605A609A60DA601A615A61184A68
:102650007B6852F83330FB6001233B754FF0FF334A
:10266000BB6107F10C03184606F0E8FC104A7B68D2
:10267000DB00134402221A717B68292B0AD97B687C
:102680002C2B07D80A4A7B6852F8333001211846B0
:1026900006F010FD7B68DB00054A1344FB6301E094
:1026A0000023FB63FB6B18464037BD4680BD00BF6F
:1026B0000000002080B586B000AF78607B683B6189
:1026C0003B69002B0BD03B691B79012B07D13B6980
:1026D0001B68184606F0FCFC0346FB7501E000236E
:1026E000FB753B691B681B0ADBB2FB603B691B681F
:1026F000DBB2BB60FB68022B02D1BB68062B05D0A6
:10270000FB68002B09D1BB68042B06D1FB7D002B95
:102710000CBF01230023DBB2FB75FB7D1846183785
:10272000BD4680BD80B586B000AF78600B46FB70BB
:102730007B687B617B69002B2FD07B691B79022B27
:102740002BD17B691B681B0ADBB23B617B691B6871
:10275000DBB2FB603B69012B05D1FB68162B08D06F
:10276000FB68152B05D03B69042B0FD1FB681A2B96
:102770000CD17B691A68FB78012B14BF012300235D
:10278000DBB21946104606F095FC06E07B691B6833
:10279000FA781146184606F08DFC00BF1837BD4682
:1027A00080BD80B485B000AF78607B68FB60FB685B
:1027B000002B0ED0FB681B79022B03D1FB68002293
:1027C0001A7106E0FB681B79012B02D1FB6800221D
:1027D0001A7100BF1437BD465DF8047B70470000D6
:1027E00080B584B000AFF860B9601346FB71BB6878
:1027F0001F2B05D90D4B0E4AFF210E4807F01CFE7A
:10280000FB68BA6853F8223023F0807323F4E06346
:10281000FA79120202F4E06243EA0201FB68BA6844
:1028200043F8221000BF1037BD4680BD28D00000FD
:10283000ECD1000034D0000080B483B000AF7860E9
:102840000B46FB707B681B6823F01802FB78DB00EB
:1028500003F018031A437B681A6000BF0C37BD46AB
:102860005DF8047B7047000080B58EB000AF7861E2
:1028700087ED020B87ED001B524A7B695B01134415
:1028800011331B78002B40F08780002387F8283015
:10289000002387F82930002387F82A308023FB6241
:1028A000484A7B695B0113441868464A7B695B01AF
:1028B000134404331968434A7B695B0113441033A2
:1028C0001B781A46FFF78CFF3E4A7B695B01134475
:1028D00008331B6807F128021146184606F064F910
:1028E000384A7B695B01134408331B68DBB2002262
:1028F0000121184606F0DEF9324A7B695B01134478
:10290000113304221A702F4A7B695B01134403F1CF
:102910001801D7E90223C1E9002302233B760023F3
:102920007B76284A7B695B0113441833D3E9002383
:1029300010461946FEF70EFB0346FB61D7E900017E
:10294000FEF708FB03463B620023BB841D4A7B69FC
:102950005B01134408331B681B4A52F823303B6366
:102960000021386BFFF768FF164A7B695B0113444F
:1029700008331868134A7B695B0113440C331B68E6
:10298000DAB207F11803194606F0F2F97B695B0128
:102990000C4A13447B630FE00A4A7B695B011344D2
:1029A00011331B78042B05D17B695B01054A134465
:1029B0007B6301E000237B637B6B18463837BD46A1
:1029C00080BD00BF7801002094DB000080B483B09C
:1029D00000AF786000BF0C37BD465DF8047B7047E0
:1029E00080B58AB000AFF86087ED000BFB687B62B2
:1029F0007B6A002B2CD07B6A5B7C042B28D10223C2
:102A00003B7400237B747B6AD3E906231046194686
:102A1000FEF7A0FA03467B61D7E90001FEF79AFAB8
:102A20000346BB610023BB837B6A9B680A4A52F85A
:102A300023303B620021386AFFF7FEFE7B6A98680C
:102A40007B6ADB68DAB207F11003194606F090F9E9
:102A500000BF2837BD4680BD94DB000080B485B040
:102A600000AF78607B68FB60FB68002B06D0FB68DA
:102A70005B7C042B02D1FB6800225A7400BF143720
:102A8000BD465DF8047B704780B483B000AF7860CA
:102A900000BF0C37BD465DF8047B704780B584B03D
:102AA00000AFF860B9607A60BB680F2B06D90A4B9B
:102AB0000A4A40F2E2210A4807F0BEFCFA68BB6805
:102AC0005B01134403F5805310337A681A6000BF2A
:102AD0001037BD4680BD00BF6CD0000024D200007E
:102AE00098D0000080B584B000AFF860B96013469C
:102AF000FB71BB680F2B06D90D4B0E4A4FF460716A
:102B00000D4807F099FCBB685B0103F5805318334F
:102B1000FA681344043303F1424303F580135B0165
:102B20000433FA7992B21A8000BF1037BD4680BDD7
:102B30006CD0000040D2000098D0000090B587B063
:102B400000AFF8607A603B600B46FB7200237B614C
:102B5000FB681B68032B00F0E481032B05D8012BD5
:102B600000F09880022B00F04781954B00221A60FC
:102B7000934B1B68934A52F82330002B41D1904B62
:102B80001B68914ADB00134400229A718C4B1B682E
:102B90008D4ADB00134400221A71894B1B688A4A54
:102BA000DB00134400225A71854B1B68864A4FF4A0
:102BB000E13142F83310824B1B68184603F02AF9C2
:102BC0007F4B1B689B01814A13448149184605F0DD
:102BD000F7FE7B4B18687A4B1A6813461B019B1A49
:102BE0009B007C4A9918764B1B68DB00764A13449D
:102BF0001A4606F05FFF724B1B68724A012142F8C9
:102C000023107B68B3F1FF3F20D06D4B1A687249E7
:102C100013469B0013449B000B440B221A60684B25
:102C20001A686D4913469B0013449B000B440833FC
:102C30006A4A1A60624B1A68674913469B0013443C
:102C40009B000B440C33664A1A6015E05C4B1A6813
:102C5000614913469B0013449B000B4404330A2232
:102C60001A60574B1A685C4913469B0013449B003B
:102C70000B4410335B4A1A60514B1B68504A126870
:102C8000594941F823204E4B1B689B00564A134478
:102C90007B61DBE14A4B01221A60494B1B68494AC0
:102CA00052F82330002B41D1454B1B68464ADB00CC
:102CB000134400229A71424B1B68434ADB001344C1
:102CC00000221A713E4B1B683F4ADB00134400226E
:102CD0005A713B4B1B683C4A4FF4E13142F83310C8
:102CE000374B1B68184603F095F8354B1B689B0162
:102CF000364A13443649184605F062FE304B1868D0
:102D00002F4B1A6813461B019B1A9B00314A9918D6
:102D10002B4B1B68DB002C4A13441A4606F0CAFEF4
:102D2000274B1B68274A012142F823107B68B3F127
:102D3000FF3F20D0224B1A68274913469B001344BB
:102D40009B000B4400221A601D4B1A68224913464F
:102D50009B0013449B000B440833244A1A60184B11
:102D60001A681D4913469B0013449B000B440C3307
:102D70001F4A1A6015E0124B1A68174913469B0048
:102D800013449B000B44043300221A600C4B1A6856
:102D9000114913469B0013449B000B441033154A02
:102DA0001A60074B1B68064A12680F4941F8232036
:102DB000034B1B689B000C4A13447B6146E100BF38
:102DC000FC140020001500201C14002034110020E9
:102DD00078060020B41200205414002010110020A6
:102DE0001C11002028110020E414002028110020CC
:102DF0002811002034110020AD4B02221A60AC4B88
:102E00001B68AC4A52F82330002B41D1A84B1B68F9
:102E1000A94ADB00134400229A71A54B1B68A64AFD
:102E2000DB00134400221A71A14B1B68A24ADB008D
:102E3000134400225A719E4B1B689F4A4FF4E131A4
:102E400042F833109A4B1B68184602F0E3FF984B88
:102E50001B689B01994A13449949184605F0B0FD37
:102E6000934B1868924B1A6813461B019B1A9B00E0
:102E7000944A99188E4B1B68DB008F4A13441A46FC
:102E800006F018FE8A4B1B688A4A012142F823107B
:102E90007B68B3F1FF3F20D0854B1A688A491346FF
:102EA0009B0013449B000B4400221A60804B1A685D
:102EB000854913469B0013449B000B440833834A07
:102EC0001A607B4B1A68804913469B0013449B0091
:102ED0000B440C337E4A1A6015E0754B1A687A4928
:102EE00013469B0013449B000B44043300221A60DA
:102EF0006F4B1A68744913469B0013449B000B44A4
:102F00001033744A1A606A4B1B68694A1268724926
:102F100041F82320664B1B689B006F4A13447B617A
:102F200094E0634B03221A60614B1B68614A52F8BC
:102F30002330002B41D15E4B1B685F4ADB001344FA
:102F400000229A715A4B1B685B4ADB001344002233
:102F50001A71574B1B68584ADB00134400225A7100
:102F6000534B1B68544A4FF4E13142F83310504B35
:102F70001B68184602F04EFF4D4B1B689B014F4AE1
:102F800013444F49184605F01BFD494B1868484B40
:102F90001A6813461B019B1A9B004A4A9918444B16
:102FA0001B68DB00444A13441A4606F083FD404B7D
:102FB0001B68404A012142F823107B68B3F1FF3FB0
:102FC00020D03B4B1A68404913469B0013449B009A
:102FD0000B4400221A60364B1A683B4913469B008B
:102FE00013449B000B4408333C4A1A60304B1A6868
:102FF000354913469B0013449B000B440C33384A5D
:103000001A6015E02A4B1A682F4913469B00134497
:103010009B000B44043300221A60254B1A682A498E
:1030200013469B0013449B000B4410332D4A1A6037
:103030001F4B1B681E4A1268274941F823201C4B6E
:103040001B689B00244A13447B6100BF7B68B3F17B
:10305000FF3F27D0164B1A6813461B019B1A9B0093
:103060002833184A13440433114A12681E4918467B
:1030700005F0E8FC0E4B18680D4B1A681249134610
:103080009B0013449B000B4408331968084B1A68D3
:103090000D4C13469B0013449B0023441B681A46A7
:1030A00000F0E0F87B6918461C37BD4690BD00BFB4
:1030B000FC140020001500201C14002034110020F6
:1030C00078060020B412002054140020281100209B
:1030D0002811002034110020E414002028110020C1
:1030E00028110020341100201133000080B483B077
:1030F00000AF78603960002318460C37BD465DF894
:10310000047B704780B483B000AF786008461146F6
:103110001A460346FB700B46BB7013467B700023B8
:1031200018460C37BD465DF8047B704780B586B005
:1031300000AFF860B9607A60FB683B613B69002BC7
:1031400033D03B691B681F4AD35C012B2DD13B69EF
:103150001B681D4A52F82330012B0FD13B691A68B6
:103160001A4913469B0013449B000B4408331B6809
:103170007A681946B868FEF7DBFF0EE03B691A680B
:10318000124913469B0013449B000B440C331B68ED
:103190007A681946B868FEF7CBFF3B691B68094A95
:1031A0000021D1540023FB7506E07A680021B8683D
:1031B00007F084FC2023FB75FB7D18461837BD46BD
:1031C00080BD00BF4C140020CC14002054140020FB
:1031D00080B586B000AFF860B9607A60FB683B618B
:1031E0003B69002B2AD03B691B680021184606F07A
:1031F000B5FD0346082B21D03B691A6813491346D5
:103200009B0013449B000B4410331B687A68B96819
:103210001846FEF78DFF3B6918683B691A680B4931
:1032200013469B0013449B000B4410331B687A68C1
:10323000194606F06FFD0346FB7501E02023FB7580
:10324000FB7D18461837BD4680BD00BF54140020D2
:1032500080B483B000AF786000BF0C37BD465DF826
:10326000047B704780B588B000AFF860B9607A60C1
:10327000FB68052B06D9214B214A40F289112148D0
:1032800007F0DAF8204AFB6852F82330FB61FB694B
:1032900093F82C301B09DBB21A461C4B53F8223032
:1032A000BB61FB6993F82C3003F00F037B61FB6972
:1032B0005B78DBB2002B01D009231AE0FB69012205
:1032C0005A70BB681A467969B869FFF7E7FB7A68F4
:1032D0007969B86905F0B2FA01227969B869FFF72E
:1032E00001FC7B69DBB201221946B86905F091F94E
:1032F000002318462037BD4680BD00BFD0D0000057
:1033000000D20000F0D000005C47002054D900003B
:1033100080B582B000AF78600B46FB707B681846C2
:1033200000F004F800BF0837BD4680BD80B586B008
:1033300000AF78607B68052B06D93C4B3C4A40F2D5
:10334000AD113C4807F078F83B4A7B6852F82330CF
:103350007B617B6993F82C301B09DBB21A46374B33
:1033600053F822303B617B6993F82C3003F00F0354
:10337000FB600022F9683869FFF7B4FBFB68DBB239
:1033800000221946386905F044F97B69DB78DBB225
:10339000002B04D07B691033184604F0AFFD7B6925
:1033A00000225A70264A7B68134401221A70254A6B
:1033B0007B6852F82330002B1AD123497A681346D0
:1033C0009B0013449B000B440C3319681E487A6819
:1033D00013469B0013449B0003441B681A467868FD
:1033E000FFF740FF174A7B68012142F8231019E0DC
:1033F00015497A6813469B0013449B000B4408331D
:10340000196811487A6813469B0013449B000344D3
:103410001B681A467868FFF725FF0A4A7B68002177
:1034200042F8231000BF1837BD4680BDD0D0000041
:1034300058D20000F0D000005C47002054D90000B2
:103440004C140020CC1400205414002080B586B009
:1034500000AF7861184B1B681B68002B0CBF012361
:103460000023DBB21A46154B1A7011E03B46144993
:10347000184603F0A0F800F031FC0F4B1B681B68E6
:10348000002B14BF01230023DBB21A460D4B1A7028
:103490000A4B1B78DBB2002BE8D1084B00221A70D4
:1034A000786900F011F8002002F0DEFF00231846D2
:1034B0001837BD4680BD00BF7CD200007A060020D0
:1034C000241500201815002080B582B000AF786068
:1034D000074B01221A60074B00221A7001F06CFEA4
:1034E000054803F055F8002318460837BD4680BD4F
:1034F000401500207A0600201C15002080B586B0FB
:1035000000AF7861396102F055FA02F01DFC0A4BF8
:103510001B6800221A6001F06BFB00209FED070A78
:1035200002F0F4FE3B460649184603F044F8002337
:1035300018461837BD4680BD7CD200006F12833A12
:103540001C15002080B483B000AF78603960264934
:103550004FF00002254BC1E91E233B68D3E900234D
:103560002149C1E9262320494FF000021F4BC1E940
:103570001C231D494FF000024FF00003C1E9142342
:1035800019494FF000024FF00003C1E92223164908
:103590004FF000024FF00003C1E9242312494FF01D
:1035A00000024FF00003C1E91A230F494FF0000257
:1035B0000E4BC1E918230C494FF000024FF00003F5
:1035C000C1E916237B68D3E900230749C1E9202319
:1035D00005494FF00002054BC1E9122300BF0C372B
:1035E000BD465DF8047B7047481500200000F03FA1
:1035F00080B483B000AF786039603B68D3E90023C2
:103600002149C1E9262320494FF000021F4BC1E99F
:103610001C231D494FF000024FF00003C1E91423A1
:1036200019494FF000024FF00003C1E92223164967
:103630004FF000024FF00003C1E9242312494FF07C
:1036400000024FF00003C1E91A230F494FF00002B6
:103650000E4BC1E918230C494FF000024FF0000354
:10366000C1E916237B68D3E900230749C1E9202378
:1036700005494FF00002054BC1E9122300BF0C378A
:10368000BD465DF8047B7047481500200000F03F00
:10369000F0B585B000AFF860B9607A603B60944BDC
:1036A00093F8C030032B08D0924B002283F8D4212A
:1036B000904B032283F8D1217EE18E4B93F8D431D5
:1036C000012B03D0022B00F0AE8019E188494FF0A6
:1036D0000002894BC1E91E2385494FF00002864B49
:1036E000C1E91C2382494FF000024FF00003C1E9F9
:1036F00014237F494FF000024FF00003C1E9222359
:103700007B494FF000024FF00003C1E924237849C0
:103710004FF000024FF00003C1E91A2374494FF043
:103720000002754BC1E9182371494FF000024FF0B8
:103730000003C1E916236E494FF000026E4BC1E948
:1037400012237B681B78002B13D06A494FF00002CC
:103750004FF00003C1E97023664B032283F8D421A4
:10376000644B0022C3F8C8213968B868FFF740FFEE
:103770001DE1604BD3F8C861FB68D3E900455F4B9E
:10378000D3E908015B4BD3E97023FDF749F9024601
:103790000B4620462946FCF78BFF02460B46104697
:1037A0001946564BD3E91E23FCF782FF02460B460F
:1037B00043EC172BB0EE470AF0EE670A06F0B4FDB3
:1037C00053EC102B10461946FDF7C4FB03469E42EE
:1037D000C0F0ED80474B022283F8D421454B0022F4
:1037E000C3F8C8213B68D3E900234149C1E9262336
:1037F0003F494FF000024FF00003C1E912233C495A
:103800004FF000024FF00003C1E9182338494FF090
:103810000002394BC1E91423BB68D3E900233449C2
:10382000C1E92023C3E032494FF00002324BC1E925
:103830001E232F494FF000024FF00003C1E912236D
:103840002B494FF000022C4BC1E91C2328494FF0B3
:1038500000024FF00003C1E9162325494FF0000292
:103860004FF00003C1E91A2321494FF000024FF045
:103870000003C1E922231E494FF000024FF000036C
:10388000C1E924231A494FF000024FF00003C1E9B7
:10389000182317494FF00002174BC1E91423154BA9
:1038A000D3F8C841154B93ED087BB0EE470AF0EE14
:1038B000670A06F039FD53EC102B10461946FDF748
:1038C00049FB03469C4274D30A494FF000020A4B5D
:1038D000C1E97023074B032283F8D421054B002252
:1038E000C3F8C8213968B868FFF782FE61E000BFFD
:1038F00048150020101600200000F03F8006002030
:103900002F494FF000022F4BC1E91C232C494FF0E7
:1039100000024FF00003C1E9142329494FF00002CF
:103920004FF00003C1E9222325494FF000024FF078
:103930000003C1E9242322494FF000024FF00003A5
:10394000C1E91A231E494FF000021E4BC1E918239A
:103950001B494FF000024FF00003C1E9162318493C
:103960004FF00002174BC1E91223174BD3F8C8419F
:10397000164B93ED1E7BB0EE470AF0EE670A06F099
:10398000D3FC53EC102B10461946FDF7E3FA03461F
:103990009C4210D30C4B012283F8D4210A4B002205
:1039A000C3F8C8213968B868FFF7CCFD03E000BF51
:1039B00002E000BF00E000BF00BF1437BD46F0BD0D
:1039C000481500200000F03F10160020800600205F
:1039D00080B483B000AF7860396026494FF00002B0
:1039E000254BC1E91E233B68D3E900232149C1E9E6
:1039F000282320494FF000021F4BC1E91C231D4919
:103A00004FF000024FF00003C1E9142319494FF0B1
:103A100000024FF00003C1E9222316494FF00002D3
:103A20004FF00003C1E9242312494FF00002124B6A
:103A3000C1E91A230F494FF000024FF00003C1E91A
:103A400018230C494FF000024FF00003C1E9162380
:103A50007B68D3E900230749C1E9202305494FF0DA
:103A60000002054BC1E9122300BF0C37BD465DF8CB
:103A7000047B7047481500200000F03F80B483B0FD
:103A800000AF786039603B68D3E900232149C1E980
:103A9000282320494FF000021F4BC1E91C231D4978
:103AA0004FF000024FF00003C1E9142319494FF011
:103AB00000024FF00003C1E9222316494FF0000233
:103AC0004FF00003C1E9242312494FF00002124BCA
:103AD000C1E91A230F494FF000024FF00003C1E97A
:103AE00018230C494FF000024FF00003C1E91623E0
:103AF0007B68D3E900230749C1E9202305494FF03A
:103B00000002054BC1E9122300BF0C37BD465DF82A
:103B1000047B7047481500200000F03F80B483B05C
:103B200000AF786023494FF00002234BC1E91C230A
:103B300020494FF000024FF00003C1E914231D4952
:103B40004FF000024FF00003C1E9222319494FF062
:103B500000024FF00003C1E9242316494FF0000290
:103B6000154BC1E91A2313494FF000024FF000032F
:103B7000C1E918230F494FF000024FF00003C1E9DB
:103B800016237B68D3E900230A49C1E920230949A8
:103B90004FF00002084BC1E9122306494FF0000222
:103BA0004FF00003C1E91E2300BF0C37BD465DF88E
:103BB000047B7047481500200000F03F80B483B0BC
:103BC00000AF786023494FF00002234BC1E91C236A
:103BD00020494FF000024FF00003C1E914231D49B2
:103BE0004FF000024FF00003C1E9222319494FF0C2
:103BF00000024FF00003C1E9242316494FF00002F0
:103C00004FF00003C1E91A2312494FF00002124B92
:103C1000C1E918230F494FF000024FF00003C1E93A
:103C200016237B68D3E900230A49C1E92023094907
:103C30004FF00002084BC1E9122306494FF0000281
:103C40004FF00003C1E91E2300BF0C37BD465DF8ED
:103C5000047B7047481500200000F03F80B582B01B
:103C600000AF78607B6800221A727B6801225A607C
:103C7000184B4FF0FF329A61164B0022DA61154B58
:103C80009B690A2200211448FEF758FF02467B6810
:103C90001A617B681B694FF4E1311846FFF726FA79
:103CA0000C4B012283F820200A4B002283F82120AC
:103CB0007B681869074B93F82120064B93F8203056
:103CC0000821FFF71FFA7B6801221A7200BF08372C
:103CD000BD4680BD4815002064150020F0B58DB0AC
:103CE00000AFAA4BD3E91E01A94BD3E90623FDF788
:103CF000FFF80346002B05D1A54BD3E90623A349C2
:103D0000C1E91E23A14B1B6F0B22A2491846FFF7E6
:103D10000DFA034687F82F300B229E499E48FEF786
:103D200007FA9A4BD3E90601994BD3E90023FDF733
:103D3000DFF80346002B05D1954BD3E900239349C7
:103D4000C1E90623914B1B691846FEF725FC8F4BF2
:103D50001B69072291491846FEF7C2FB8B4B93F86B
:103D6000CE31002B10D1894B012283F8CE21874B15
:103D7000022283F8CF21884B022283F8C020864B91
:103D80003C2283F8C12049E0804B93F8CF31032BCC
:103D900010D0032B13DC012B02D0022B05D00EE038
:103DA0007A4B042283F8CF2138E0784B042283F841
:103DB000CF2133E0754B042283F8CF212EE097F812
:103DC0002F30002B29D1744B1B78162B20D1724B2E
:103DD0005B78222B10D0552B15D16C4B032283F826
:103DE000CF216D4B9A796C4B83F8C0206A4BDA79FE
:103DF000694B83F8C12010E0644B012283F8CF2186
:103E000001F012FC09E0614B042283F8CF2104E0A9
:103E10005E4B042283F8CF21FFE700BF5C4BD3E960
:103E20000C015B4BD3E90E23FCF724FF02460B4643
:103E300010461946564BD3E91023FCF7F1FD024614
:103E40000B46C7E90223524BD3E91201504BD3E989
:103E50001423FCF70FFF02460B46104619464C4B45
:103E6000D3E91623FCF7DCFD02460B46C7E9042321
:103E7000494B93F8C1301846FCF758FD444BD3E941
:103E80001823FCF7F7FE02460B464FF000004449AA
:103E9000FCF7F0FE02460B463F49C1E92C233B4BA1
:103EA000D3E916013A4BD3E90223FDF721F8034683
:103EB000002B05D1364BD3E902233449C1E916233F
:103EC000324B1B6D1846FEF7F5FB034687F82E3084
:103ED0002E4BD3E90E012E4BD3E90423FDF708F84E
:103EE0000346002B05D12A4BD3E904232749C1E916
:103EF0000E23264B1B6B1846FEF7DCFB0346FB71BB
:103F0000234BD3E92001224BD3E92223FCF7B2FE55
:103F100002460B46104619461D4BD3E92423FCF7F5
:103F20007FFD02460B46C7E90823194BD3E9280158
:103F3000174BD3E92A23FCF79DFE02460B46104699
:103F40001946134BD3E92C23FCF76AFD02460B46B6
:103F5000C7E906230D4BD3F8C831B3F1FF3F06D0B4
:103F60000A4BD3F8C8310133084AC2F8C831074BAD
:103F700093F8D031002B15D1044B012283F8D021C6
:103F8000024B032283F8D12100F017BC1016002049
:103F9000800600205315002048150020F015002051
:103FA0000000F03F9F4B93F8D131013B032B00F20F
:103FB000EC8301A252F823F0C93F0000F742000051
:103FC000D9440000AB450000974B93F8C030042B58
:103FD00008D0944B002283F8D521924B032283F81A
:103FE000D121EAE38F4B93F8D531012B03D0022B7B
:103FF00000F0B0801EE18C494FF000028B4BC1E90C
:104000001E2389494FF00002884BC1E91C238649D1
:104010004FF000024FF00003C1E9142382494FF032
:1040200000024FF00003C1E922237F494FF0000254
:104030004FF00003C1E924237B494FF000027B4B82
:10404000C1E91A2378494FF000024FF00003C1E99B
:10405000182375494FF000024FF00003C1E9162301
:1040600071494FF00002714BC1E9122397F82E30CD
:10407000002B17D06B494FF000024FF00003C1E94D
:104080007023684B032283F8D521664B0022C3F8C6
:10409000C82107F1180207F1100311461846FFF76F
:1040A000EDFC22E15F4BD3F8C8615F4BD3E92C45AF
:1040B0005F4BD3E90A015B4BD3E97023FCF7B0FCFB
:1040C00002460B4620462946FCF7F2FA02460B460A
:1040D00010461946564BD3E92623FCF7E9FA024667
:1040E0000B4643EC172BB0EE470AF0EE670A06F0DA
:1040F0001BF953EC102B10461946FCF72BFF034617
:104100009E42C0F0F280474B022283F8D521454BF6
:104110000022C3F8C821D7E906234349C1E928236F
:1041200041494FF000024FF00003C1E912233E491C
:104130004FF000023D4BC1E916233B494FF000020E
:104140004FF00003C1E91A23D7E904233649C1E936
:104150002023CAE034494FF00002344BC1E91E234A
:1041600031494FF000024FF00003C1E912232E49FC
:104170004FF000022D4BC1E91C232B494FF00002E8
:104180002A4BC1E9162328494FF000024FF00003E3
:10419000C1E91A2324494FF000024FF00003C1E99E
:1041A000222321494FF000024FF00003C1E92423EC
:1041B0001D494FF000024FF00003C1E918231A49CE
:1041C0004FF000024FF00003C1E91423154BD3F860
:1041D000C841174B93ED0A7BB0EE470AF0EE670A31
:1041E00006F0A2F853EC102B10461946FCF7B2FE6D
:1041F00003469C427BD30B494FF000020B4BC1E9B5
:104200007023084B032283F8D521064B0022C3F804
:10421000C82107F1180207F1100311461846FFF7ED
:104220002DFC64E010160020481500200000F03F2F
:1042300080060020B1494FF00002B14BC1E91C23B8
:10424000AE494FF000024FF00003C1E91423AB491F
:104250004FF000024FF00003C1E92223A7494FF0BD
:1042600000024FF00003C1E92423A4494FF00002EB
:10427000A34BC1E91A23A1494FF000024FF00003FC
:10428000C1E918239D494FF000024FF00003C1E936
:1042900016239A494FF00002994BC1E91223994B1A
:1042A000D3F8C841984B93ED267BB0EE470AF0EE69
:1042B000670A06F039F853EC102B10461946FCF744
:1042C00049FE03469C4214D38E4B012283F8D5212C
:1042D0008C4B0022C3F8C82107F1180207F1100324
:1042E00011461846FFF774FB03E000BF65E200BF0C
:1042F00063E200BF61E2814B93F8C030022B08D02B
:10430000804B002283F8D3217E4B032283F8D121F6
:1043100044E27C4B93F8D331012B7CD177494FF0A9
:104320000002774BC1E91C2374494FF000024FF0A3
:104330000003C1E9142371494FF000024FF000035C
:10434000C1E922236D494FF000024FF00003C1E99B
:1043500024236A494FF00002694BC1E91A236749D7
:104360004FF000024FF00003C1E9182363494FF0FA
:1043700000024FF00003C1E9162360494FF000022C
:104380005F4BC1E912235D494FF000024FF000037B
:10439000C1E91E235B4BD3F8C841584BD3E92C012C
:1043A000594BD3E90A23FCF783F902460B4643EC49
:1043B000172BB0EE470AF0EE670A05F0B5FF53EC95
:1043C000102B10461946FCF7C5FD03469C42C0F071
:1043D000E5814C4B022283F8D3214A4B0022C3F8DB
:1043E000C82146494FF000024FF00003C1E91223F3
:1043F00042494FF00002424BC1E916233F494FF0BA
:1044000000024FF00003C1E91A23D7E904233B4916
:10441000C1E92023C2E139494FF000024FF0000307
:10442000C1E9122335494FF00002354BC1E91C2385
:1044300032494FF00002324BC1E916232F494FF0A9
:1044400000024FF00003C1E91A232C494FF000028B
:104450004FF00003C1E9222328494FF000024FF03A
:104460000003C1E9242325494FF000024FF0000367
:10447000C1E9182321494FF000024FF00003C1E9C0
:1044800014231E494FF000024FF00003C1E91E2320
:104490001C4BD3F8C8411C4B93ED0A7BB0EE470A86
:1044A000F0EE670A05F040FF53EC102B104619465A
:1044B000FCF750FD03469C42C0F07081114B012275
:1044C00083F8D3210F4B0022C3F8C82107F1100352
:1044D0001846FFF723FB61E1084B93F8C030013B1E
:1044E000032B00F25D8101A252F823F03745000052
:1044F0005B4500007F4500000D4500004815002089
:104500000000F03F1016002080060020A54B01227D
:1045100083F8D121A34B012283F8D521A14B00229E
:10452000C3F8C82107F1180207F110031146184615
:10453000FFF74EFA38E09B4B042283F8D121994BC8
:10454000012283F8D221974B0022C3F8C82107F13A
:1045500008031846FFF732FB26E0924B022283F84D
:10456000D121904B012283F8D3218E4B0022C3F836
:10457000C82107F110031846FFF7D0FA14E0894B61
:10458000052283F8D121874B012283F8D421854B62
:104590000022C3F8C82107F1200207F108031146E1
:1045A0001846FEF7CFFF00BFFAE07F4B93F8C0300C
:1045B000012B08D07B4B002283F8D221794B0322B8
:1045C00083F8D121F8E0774B93F8D231012B7CD1DD
:1045D00075494FF00002754BC1E91C2372494FF039
:1045E00000024FF00003C1E914236F494FF00002AD
:1045F0004FF00003C1E922236B494FF000024FF056
:104600000003C1E9242368494FF000024FF0000382
:10461000C1E91A2364494FF00002644BC1E9182331
:1046200061494FF000024FF00003C1E916235E49D3
:104630004FF000025D4BC1E912235B494FF00002CD
:104640004FF00003C1E91E23564BD3F8C841564B27
:10465000D3E92C01564BD3E90823FCF729F802468D
:104660000B4643EC172BB0EE470AF0EE670A05F055
:104670005BFE53EC102B10461946FCF76BFC03460F
:104680009C42C0F09980474B022283F8D221454BCF
:104690000022C3F8C82144494FF000024FF0000344
:1046A000C1E9122340494FF000024FF00003C1E975
:1046B00018233D494FF000023C4BC1E91423D7E9D0
:1046C00002233949C1E9202376E037494FF000023F
:1046D0004FF00003C1E9122333494FF00002334B7E
:1046E000C1E91C2330494FF000024FF00003C1E93B
:1046F00016232D494FF000024FF00003C1E91A23A1
:1047000029494FF000024FF00003C1E92223264956
:104710004FF000024FF00003C1E9242322494FF07B
:1047200000024FF00003C1E918231F494FF00002B7
:104730001E4BC1E914231C494FF000024FF0000347
:10474000C1E91E23174BD3F8C841194B93ED087BE1
:10475000B0EE470AF0EE670A05F0E6FD53EC102BC9
:1047600010461946FCF7F6FB03469C4224D30D4B3A
:10477000012283F8D2210B4B0022C3F8C82107F194
:1047800008031846FFF71AFA16E007F12003FA1D8E
:1047900007F108010748FEF77BFF0EE000BF0CE0C1
:1047A00000BF0AE010160020481500200000F03F6E
:1047B00080060020F815002000BFB94BD3F85841FF
:1047C000B84BD3E9120101231D464FF000024FF010
:1047D0000003FCF78DFB0346002B01D000231D4690
:1047E000EBB219462046FDF79DFFAD4BD3F83041A3
:1047F000AC4BD3E9140101231D464FF000024FF0EA
:104800000003FCF775FB0346002B01D000231D4677
:10481000EBB219462046FDF785FFA14BD3F8444182
:10482000A04BD3E9160101231D464FF000024FF0C3
:104830000003FCF75DFB0346002B01D000231D465F
:10484000EBB219462046FDF76DFF954BD3F81C419E
:10485000944BD3E9180101231D464FF000024FF09D
:104860000003FCF745FB0346002B01D000231D4647
:10487000EBB219462046FDF755FF894BD3F80841A6
:10488000884BD3E91A0101231D464FF000024FF077
:104890000003FCF72DFB0346002B01D000231D462F
:1048A000EBB219462046FDF73DFF7D4BD3F8F440AF
:1048B0007C4BD3E91C0101231D464FF000024FF051
:1048C0000003FCF715FB0346002B01D000231D4617
:1048D000EBB219462046FDF725FF714BD3F8E040B7
:1048E000704BD3E91E0101231D464FF000024FF02B
:1048F0000003FCF7FDFA0346002B01D000231D4600
:10490000EBB219462046FDF70DFF654BD3F8BC31DD
:10491000644A92ED207BB0EE470AF0EE670A184633
:10492000FEF75EF85E4BD3F86C415E4BD3E9220193
:1049300001231D464FF000024FF00003FCF7D8FAA8
:104940000346002B01D000231D46EBB2194620463A
:10495000FDF7E8FE524BD3F88041524BD3E92401D6
:1049600001231D464FF000024FF00003FCF7C0FA90
:104970000346002B01D000231D46EBB2194620460A
:10498000FDF7D0FE464BD3F8A831464A92ED267B80
:10499000B0EE470AF0EE670A1846FEF721F8404BE2
:1049A000D3F894313F4A92ED287BB0EE470AF0EEFF
:1049B000670A1846FEF714F8394B93F8CC31002BF0
:1049C00008D1374B012283F8CC21354B022283F8E2
:1049D000CD21B8E0324B93F8CD31032B00F080802D
:1049E000032B00F39680012B02D0022B19D090E00C
:1049F0002C494FF000024FF00003C1E90C23294974
:104A00004FF00002284BC1E90E2326494FF0000267
:104A10004FF00003C1E91023214B022283F8CD217E
:104A200091E0204B93F8C030032B20D0032B00F3F0
:104A30008980012B3AD0022B40F08480184B012250
:104A400083F8CD2117494FF000024FF00003C1E970
:104A50000C2314494FF00002134BC1E90E231149F6
:104A60004FF000024FF00003C1E9102337E00C4B78
:104A7000042283F8CD210B494FF000024FF00003D0
:104A8000C1E90C2307494FF000024FF00003C1E9D0
:104A90000E2304494FF00002034BC1E910231EE02E
:104AA00010160020481500200000F03F4C4B032258
:104AB00083F8CD214B494FF000024B4BC1E90C2349
:104AC00048494FF000024FF00003C1E90E23454969
:104AD0004FF000024FF00003C1E9102300BF31E0A6
:104AE00040494FF00002404BC1E90C233D494FF0D3
:104AF00000024FF00003C1E90E233A494FF00002D3
:104B00004FF00003C1E91023354B022283F8CD2179
:104B100019E034494FF000024FF00003C1E90C23C3
:104B200030494FF000024FF00003C1E90E232D4938
:104B30004FF000022C4BC1E91023294B022283F8CD
:104B4000CD2100E000BF264BD3F8CC40254BD3E964
:104B50000C0101231D464FF000024FF00003FCF74B
:104B6000C7F90346002B01D000231D46EBB21946BE
:104B70002046FDF7D7FD1A4BD3F8B840194BD3E9BF
:104B8000100101231D464FF000024FF00003FCF717
:104B9000AFF90346002B01D000231D46EBB21946A6
:104BA0002046FDF7BFFD0E4BD3F8A4400D4BD3E9D3
:104BB0000E0101231D464FF000024FF00003FCF7E9
:104BC00097F90346002B01D000231D46EBB219468E
:104BD0002046FDF7A7FD00BF3437BD46F0BD00BF3E
:104BE00010160020481500200000F03F00000000D3
:104BF00080B584B000AF00F003FDB54B00225A66CB
:104C0000B34B002283F86020B24BD3E90623B049AE
:104C1000C1E91E23B048FFF721F8AD4B01221A70FD
:104C2000AB4B00225A60AA494FF00002AB4BC1E9DE
:104C30000623A74B00221A70A64BD3E90023A449F0
:104C4000C1E90623A24BFB60A14B00221A72A04BC4
:104C500001225A601120FDF7E1FB0246FB681A6150
:104C60009F4B00229A759A4B1B699D4A917D0022A9
:104C70001846FDF727FC964B01221A72944B01222D
:104C800083F84020924B00225A6491494FF0000271
:104C9000924BC1E916238E4B002283F840208D4BA6
:104CA000D3E902238A49C1E916238E4BBB60884BA6
:104CB000002283F84820864B01225A6400210020FC
:104CC000FDF788FC0246BB681A61814B012283F81C
:104CD00048207F4B012283F820207D4B00225A621E
:104CE0007B494FF000027D4BC1E90E23784B002237
:104CF00083F82020774BD3E904237549C1E90E23BB
:104D0000794BBB60724B002283F82820704B012244
:104D10005A6200210120FDF75DFC0246BB681A6162
:104D20006B4B012283F82820694B012283F848212C
:104D3000674B0022C3F84C21654B002283F84821C1
:104D40006A4B7B60624B002283F85021604B01224A
:104D5000C3F84C2101210220FDF73CFC02467B6890
:104D60001A615B4B012283F85021594B012283F8D1
:104D70002021574B0022C3F82421554B002283F8F1
:104D800020215B4B7B60524B002283F82821504B43
:104D90000122C3F8242101210920FDF71BFC024652
:104DA0007B681A614A4B012283F82821484B012273
:104DB00083F83421464B0022C3F83821444B0022AB
:104DC00083F834214B4B7B60414B002283F83C211C
:104DD0003F4B0122C3F8382101210820FDF7FAFBDF
:104DE00002467B681A613A4B012283F83C21384B1A
:104DF000012283F80C21364B0022C3F81021344BDA
:104E0000002283F80C213C4B7B60314B002283F85D
:104E100014212F4B0122C3F8102101210C20FDF792
:104E2000D9FB02467B681A61294B012283F81421C1
:104E3000274B012283F8F820254B0022C3F8FC20E1
:104E4000234B002283F8F8202C4B7B60204B002260
:104E500083F800211E4B0122C3F8FC2001210B2006
:104E6000FDF7B8FB02467B681A61194B012283F8F3
:104E70000021174B012283F8E420154B0022C3F8D0
:104E8000E820134B002283F8E4201D4B7B60104B7D
:104E9000002283F8EC200E4B0122C3F8E820012108
:104EA0000A20FDF797FB02467B681A61084B012236
:104EB00083F8EC20064B012283F8D020044B00221B
:104EC000C3F8D420024B002283F8D0201AE000BFA0
:104ED0001016002080060020701600200000F0BF91
:104EE00048150020501600203016002058170020CA
:104EF00030170020441700201C170020081700203E
:104F0000F4160020A24B7B60A24B002283F8D8202D
:104F1000A04B0122C3F8D42001210D20FDF75AFB3C
:104F200002467B681A619B4B012283F8D820994B7B
:104F3000012283F8AC21974B0022C3F8B021954B96
:104F4000002283F8AC21944B3B60924B002283F803
:104F5000B421904B0122C3F8B0219FED891B9FED36
:104F60008A0B0520FDF780FC02463B681A61894BDD
:104F7000D3F8BC311846FDF729FD864B012283F892
:104F8000B421844B012283F85C21824B0022C3F8B8
:104F90006021804B002283F85C21804B7B607D4B3D
:104FA000002283F864217B4B0122C3F86021012198
:104FB0000420FDF70FFB02467B681A61754B012246
:104FC00083F86421734B012283F87021714B002216
:104FD000C3F874216F4B002283F87021704B7B6003
:104FE0006C4B002283F878216A4B0122C3F87421AC
:104FF00001210720FDF7EEFA02467B681A61654B36
:10500000012283F87821634B012283F89821614BB8
:105010000022C3F89C215F4B002283F89821614B4A
:105020003B605C4B002283F8A0215A4B0122C3F85D
:105030009C219FED531B9FED540B0320FDF714FCA7
:1050400002463B681A61534BD3F8A8311846FDF766
:10505000BDFC504B012283F8A0214E4B012283F866
:1050600084214C4B0022C3F888214A4B002283F84C
:1050700084214D4B3B60474B002283F88C21454BEC
:105080000122C3F888219FED3E1B9FED3F0B0620B8
:10509000FDF7EAFB02463B681A613E4BD3F89431B8
:1050A0001846FDF793FC3B4B012283F88C21394BCA
:1050B000012283F8BC20374B0022C3F8C020354BB7
:1050C000002283F8BC20394B7B60324B002283F8EE
:1050D000C420304B0122C3F8C02001212B20FDF752
:1050E00079FA02467B681A612A4B012283F8C420B0
:1050F000284B012283F8A820264B0022C3F8AC20BD
:10510000244B002283F8A820294B7B60214B0022EE
:1051100083F8B0201F4B0122C3F8AC2001212C20C2
:10512000FDF758FA02467B681A611A4B012283F890
:10513000B020184B012283F89420164B0022C3F8AC
:105140009820144B002283F894201A4B7B60114B5B
:10515000002283F89C200F4B0122C3F898200121E4
:105160002A20FDF737FA02467B681A61094B0122B3
:1051700083F89C2000BF1037BD4680BDAFF3008090
:1051800000000000000000000000000000409F4000
:10519000E016002010160020BC1700206C1700201D
:1051A00080170020A817002094170020CC1600209C
:1051B000B8160020A416002080B500AFBB4B93F8B2
:1051C0006030002B11D1B94B012283F86020B74B1E
:1051D0005B6E012B09D1B54B93F86830002B04D0DE
:1051E000B24B1B6F1846FEF733F8B04B1B78002B01
:1051F00014D1AE4B01221A70AC4B5B68012B0DD160
:10520000AA4B1B7A002B09D0A84B1B691846FDF747
:10521000CDF9A64B1B691846FDF7D2F900F054FAF8
:10522000A24B93F84030002B11D1A04B012283F800
:1052300040209E4B5B6C012B09D19C4B93F848306E
:10524000002B04D0994B1B6D1846FDF7AAFA974B1B
:1052500093F82030002B11D1944B012283F82020A9
:10526000924B5B6A012B09D1904B93F82830002BAD
:1052700004D08E4B1B6B1846FDF793FA8B4B93F8BB
:105280004831002B13D1894B012283F84821874BE9
:10529000D3F84C31012B0AD1844B93F85031002BB9
:1052A00005D0824BD3F858311846FDF77AFA7F4B78
:1052B00093F82031002B13D17C4B012283F820215D
:1052C0007A4BD3F82431012B0AD1784B93F828314B
:1052D000002B05D0754BD3F830311846FDF761FA35
:1052E000724B93F83431002B13D1704B012283F8A9
:1052F00034216E4BD3F83831012B0AD16B4B93F824
:105300003C31002B05D0694BD3F844311846FDF7EA
:1053100048FA664B93F80C31002B13D1634B0122F2
:1053200083F80C21614BD3F81031012B0AD15F4B6C
:1053300093F81431002B05D05C4BD3F81C31184680
:10534000FDF72FFA594B93F8F830002B13D1574B38
:10535000012283F8F820554BD3F8FC30012B0AD1F9
:10536000524B93F80031002B05D0504BD3F8083145
:105370001846FDF716FA4D4B93F8E430002B13D185
:105380004A4B012283F8E420484BD3F8E830012B44
:105390000AD1464B93F8EC30002B05D0434BD3F8A1
:1053A000F4301846FDF7FDF9404B93F8D030002B50
:1053B00013D13E4B012283F8D0203C4BD3F8D4309C
:1053C000012B0AD1394B93F8D830002B05D0374B3D
:1053D000D3F8E0301846FDF7E4F9344B93F8AC31DC
:1053E000002B19D1314B012283F8AC212F4BD3F87C
:1053F000B031012B10D12D4B93F8B431002B0BD0D1
:105400002A4BD3F8BC311846FDF728FB274BD3F8BD
:10541000BC311846FDF738FB244B93F85C31002B68
:1054200013D1224B012283F85C21204BD3F8603149
:10543000012B0AD11D4B93F86431002B05D01B4B77
:10544000D3F86C311846FDF7ACF9184B93F870316E
:10545000002B13D1154B012283F87021134BD3F885
:105460007431012B0AD1114B93F87831002B05D000
:105470000E4BD3F880311846FDF793F90B4B93F898
:105480009831002B1CD1094B012283F89821074B3E
:10549000D3F89C31012B13D1044B93F8A031002B8E
:1054A0000ED0024BD3F8A831184601E010160020A8
:1054B000FDF7D4FA384BD3F8A8311846FDF7E4FAD3
:1054C000354B93F88431002B19D1334B012283F8EB
:1054D0008421314BD3F88831012B10D12E4B93F816
:1054E0008C31002B0BD02C4BD3F894311846FDF7A0
:1054F000B5FA294BD3F894311846FDF7C5FA264B77
:1055000093F8BC30002B13D1234B012283F8BC202D
:10551000214BD3F8C030012B0AD11F4B93F8C43074
:10552000002B05D01C4BD3F8CC301846FDF739F9C9
:10553000194B93F8A830002B13D1174B012283F895
:10554000A820154BD3F8AC30012B0AD1124B93F89D
:10555000B030002B05D0104BD3F8B8301846FDF70B
:1055600020F90D4B93F89430002B13D10A4B0122F4
:1055700083F89420084BD3F89830012B0AD1064BBE
:1055800093F89C30002B05D0034BD3F8A430184679
:10559000FDF707F900BF80BD1016002080B586B06A
:1055A00000AF78607B6800221A727B6801225A6023
:1055B0004FF0FF337B610023FB6007F10C000A23EF
:1055C0007A690021FDF7BAFA02467B681A617B68A6
:1055D0001B694FF4E1311846FDF788FD0123FB7488
:1055E0000023BB747B681869FB7CBA7C0821FDF73B
:1055F00089FD7B6801221A7200BF1837BD4680BD45
:1056000080B500AF064B0022C3F88420044B002273
:1056100083F880200348FFF7C1FF00BF80BD00BFB3
:10562000101600209016002080B588B000AF224BE5
:10563000D3E92A232049C1E90A2308221F49204827
:10564000FCF776FD1C4B93F8C0303B710023FB61E7
:105650000EE0FB6901331849FA690A44B83212783E
:1056600007F120010B4403F81C2CFB690133FB619B
:10567000FB69072BEDDD104B93F8C1307B730123E1
:10568000FB7611E0391D07F110030A221846FCF7DA
:105690004FFD0C4BD3F8903007F110010A22184649
:1056A000FDF796FD0346FB76FB7E002BEAD100BF9B
:1056B00000BF2037BD4680BD481500207015002072
:1056C000001600201016002080B500AF0D4B93F897
:1056D0008030002B13D10B4B012283F88020094B23
:1056E000D3F88430012B0AD1064B93F88830002B75
:1056F00005D0044BD3F890301846FDF7A9FD00BF44
:1057000080BD00BF1016002080B489B000AF294BC7
:10571000FB60294A294B9A4216D00023FB610AE01C
:10572000264AFB6952F823202349FB6941F82320CC
:10573000FB690133FB61FB689B08FA699A42EFD36E
:105740001F4B1D4A9A6002E01D4B1C4A9A601D4B7C
:10575000BB611D4B7B611D4BBB60BA687B69D31A73
:10576000FB6107E07A69531C7B61BB69591CB96115
:1057700012781A70FB695A1EFA61002BF2D1144B91
:105780003B61144B7B607A683B69D31AFB6104E090
:105790003B695A1C3A6100221A70FB695A1EFA6171
:1057A000002BF5D100BF00BF2437BD465DF8047B58
:1057B000704700BF00000000000000000000000073
:1057C00000ED00E00000002020E8000010F90000DB
:1057D000F01000205048002080B400AF6B4BD3F88D
:1057E00088306A4A43F47003C2F88830684B4CF240
:1057F0002052DA81664B4DF62812DA81644B4FF461
:10580000E9721A80634B1B78DBB203F00103002BB3
:105810000FD0614B9B78DBB203F00803002B2ED036
:105820005D4B9B78DBB25C4A43F00803DBB29370BC
:1058300025E05A4B03F581531C331B68574943F04D
:10584000005201F581531C331A60554B1B6903F458
:105850008073002B13D1524B1B6923F47C53504AA5
:1058600043F4407313614E4B1B694D4A43F48073FC
:1058700013614B4B1B694A4A23F400731361494B74
:105880002A221A70454B03F5825304334FF08A7273
:105890001A60424B1B6823F44023404A43F4002320
:1058A00013603E4B03F5805304331B6823F44033ED
:1058B0003A4943F4803201F5805304331A60374B80
:1058C00003F5815318331B68344943F4007201F522
:1058D000815318331A60344B9B6C334A23F0807326
:1058E00023F4E0639364314B00221A722F4B5B78F0
:1058F000DBB223F06003DBB22C4A43F02003DBB2BF
:1059000053702B4B80221A70284B00221A73274B9E
:10591000BA221A7000BF254B9B79DBB203F010034B
:10592000002BF8D1214BDB78DBB2204A03F01F03B8
:10593000DBB2D3701D4B13221A711C4B18225A7103
:105940001A4B5B79DBB2194A43F04003DBB2537167
:1059500000BF164B9B79DBB203F04003002BF8D05D
:10596000124B1B78DBB2114A03F03F03DBB213701A
:1059700000BF0E4B9B79DBB203F00C030C2BF8D16C
:1059800000BF00BFBD465DF8047B704700ED00E03E
:105990000020054000F0074000D0074000700440A0
:1059A00000D0034000E00740009004400040064063
:1059B0000050064080B483B000AF9C4B1B78DBB234
:1059C00003F0C003002B40F0DE80984B5B79DBB224
:1059D00003F04003002B40F0B980944B1B78DBB2FE
:1059E00003F00403002B4ED1904B1B7BDBB203F082
:1059F0000303002B02D0012B03D006E08C4B7B600D
:105A000006E04FF400437B6002E08A4B7B6000BFFE
:105A1000864B5B78DBB203F03003002B23D0834B43
:105A20001B7BDBB203F00303012B1CD07F4B1B78E5
:105A3000DBB203F03803302B05D0382B07D14FF4FD
:105A4000C0637B800EE04FF4A0637B800AE0774B5D
:105A50001B78DBB2DB0803F00703202202FA03F312
:105A60007B8000BF09E0714B1B78DBB2DB0803F0E1
:105A70000703012202FA03F37B807B887A68B2FB7A
:105A8000F3F37B6002E04FF400437B60674BDB780D
:105A9000DBB203F0E003E02B51D0E02B00F2B0804A
:105AA000C02B45D0C02B00F2AB80A02B39D0A02B4F
:105AB00000F2A680802B2DD0802B00F2A180602BDD
:105AC00021D0602B00F29C80402B15D0402B00F29F
:105AD0009780002B02D0202B07D091E07A681346E4
:105AE0009B001344DB017B608BE07A6813469B00CC
:105AF00013441B027B6084E07A6813461B019B1AE7
:105B0000DB017B607DE07A6813469B0013445B02F7
:105B10007B6076E07B684FF4377202FB03F37B60B7
:105B20006FE07B684FF4B76202FB03F37B6068E0D1
:105B30007B6840F6950202FB03F37B6061E07B68C3
:105B400040F6713202FB03F37B605AE0374B1B795E
:105B5000DBB29BB203F01F039BB201337B807B88D7
:105B6000334AB2FBF3F37B60304B5B79DBB29BB221
:105B700003F01F039BB218337B807A887B6802FB9B
:105B800003F37B603DE0294B1B78DBB203F0C003DD
:105B9000402B1AD1254B5B78DBB203F00103002BBD
:105BA00003D14FF400437B602BE0204B1B7ADBB228
:105BB0005B0803F00703012202FA03F37B807B8872
:105BC0001D4AB2FBF3F37B601BE0184B1B78DBB282
:105BD00003F0C003802B23D1144B1B7BDBB203F0FB
:105BE0000303002B02D0012B03D006E0104B7B6097
:105BF00007E04FF400437B6003E00E4B7B6000E066
:105C000000BF0E4B03F5825304331B681B0F03F0D8
:105C10000F0301337A68B2FBF3F3094A136000E023
:105C200000BF0C37BD465DF8047B7047004006405E
:105C300080F0FA02006CDC0200093D0000700440B4
:105C40003807002080B584B000AFF860B960134613
:105C5000FB71BB681F2B05D90D4B0E4AFF210E4867
:105C600004F0EAFBFB68BA6853F8223023F0807333
:105C700023F4E063FA79120202F4E06243EA0201DB
:105C8000FB68BA6843F8221000BF1037BD4680BDDC
:105C900058D1000098D2000064D1000080B483B0D5
:105CA00000AF78600B46FB707B68FA781A7000BF13
:105CB0000C37BD465DF8047B7047000080B584B0AA
:105CC00000AF3B4600221A605A609A60DA60064BC9
:105CD0003B6002237B723B461946002002F00CFA1F
:105CE00000BF1037BD4680BD80F0FA0280B584B099
:105CF00000AF074A3B1D07CA83E807003B1D194652
:105D0000002002F045FA00BF1037BD4680BD00BF3D
:105D10009CD1000080B500AF2A210848FFF7BEFFE4
:105D2000002212210648FFF78DFFFFF7C7FFFFF79C
