:1000000000000020FD040000EF5D0000F55D000031
:10001000FB5D0000015E0000075E000000000000C4
:100020000000000000000000000000006D0500005E
:100030000D5E0000000000001306000073060000C3
:10004000AD5C0000BB5C0000C95C0000D75C000038
:10005000E55C0000F35C0000015D00000F5D000046
:100060001D5D00002B5D0000395D0000475D000054
:10007000555D0000635D0000715D00007F5D000064
:100080008D5D0000135E0000195E00001F5E000021
:10009000255E00002B5E0000315E0000375E000030
:1000A0003D5E0000435E0000495E00004F5E0000C0
:1000B000555E00005B5E0000615E00009B5D00001D
:1000C000675E0000A95D00006D5E0000B75D000086
:1000D000735E0000C55D0000795E00007F5E000079
:1000E000855E00008B5E0000915E0000975E000060
:1000F0009D5E0000A35E0000A95E0000AF5E0000F0
:100100000D0500000D0500000D0500000D050000A7
:10011000B55E0000BB5E0000C15E0000C75E00006F
:10012000CD5E0000D35E0000D95E0000DF5E0000FF
:10013000E55E0000EB5E0000F15E0000F75E00008F
:10014000FD5E0000035F0000D35D0000095F00005A
:10015000E15D00000F5F0000155F00001B5F000005
:10016000215F0000275F00002D5F0000335F00006B
:10017000395F00003F5F0000455F00004B5F0000FB
:10018000515F00000D0500000D0500000D05000089
:100190000D0500000D0500000D0500000D05000017
:1001A0000D0500000D0500000D0500000D05000007
:1001B0000D0500000D0500000D0500000D050000F7
:1001C0000D0500000D0500000D0500000D050000E7
:1003F0000D0500000D0500000D050000FFFFFFFFCB
:10040000FFFFFFFFFFFFFFFFFFFFFFFFFEFFFFFFFD
:1004400010B5054C237833B9044B13B10448AFF30E
:1004500000800123237010BDA80E002000000000C2
:1004600018DB000008B5034B1BB103490348AFF389
:10047000008008BD00000000AC0E002018DB00006A
:10048000A3F5803A704700BF174B002B08BF134BF2
:100490009D46FFF7F5FF00218B460F461348144A8F
:1004A000121A0AF017F80E4B002B00D098470D4B8C
:1004B000002B00D098470020002104000D000D48BB
:1004C000002802D00C4809F0E1FC09F025FD2000CD
:1004D000290002F037FF09F0E5FC00BF000008002A
:1004E00000000000D960000000000020A80E0020DD
:1004F000B04500208D9E0000C59E000072B604F03D
:10050000EDFF04F083FF62B6FFF7BEFFFFF7FEBF0B
:1005100080F309887047EFF309807047684680F3DD
:1005200009885A480078C00714BF0220032080F3CE
:1005300014887047DFF858C1EFF305831B0618BF16
:100540006047EFF31483DB0708BF604700DF7047A5
:10055000DFF840C1EFF305831B0618BF6047EFF3D8
:100560001483DB0708BF604700DF7047EFF30980A3
:10057000816911F8021CE1BB90E80F1010B5E0474B
:10058000BDE81040EFF3098C8CE80700424B93E87C
:100590000600914208BF704741B91EF0100F16D1F6
:1005A0003E49086820F00100086010E01EF0100FBE
:1005B00006BF2CED108A0120002081F825002CE9CF
:1005C000F00FC1F828C00CB407F00EF80CBC1A608C
:1005D000D2F828C0BCE8F00F92F8250000280EBF22
:1005E0006FF0020E6FF0120EBCEC108A8CF30988CB
:1005F000704710B52A4A1268914209D8294C54F81C
:10060000214090E80F10A047EFF3098C8CE80F0011
:1006100010BD10B506F05AFFBDE810401E4B93E820
:100620000600914208BF7047EFF3098C1EF0100FCF
:1006300006BF2CED108A0120002081F825002CE94E
:10064000F00FC1F828C00CB406F0CEFF0CBC1A6045
:10065000D2F828C0BCE8F00F92F8250000280EBFA1
:100660006FF0020E6FF0120EBCEC108A8CF309884A
:10067000704710B506F09AFFFFF7CEBF10B506F031
:1006800093FF06F093FFFFF7C7BF0000E4CC000024
:10069000596E0000756E00004C45002034EF00E0FC
:1006A00000000000FCFFFFFF81F0004102E000BFFE
:1006B00083F0004330B54FEA41044FEA430594EA22
:1006C000050F08BF90EA020F1FBF54EA000C55EA5D
:1006D000020C7FEA645C7FEA655C00F0E2804FEA2E
:1006E0005454D4EB5555B8BF6D420CDD2C4480EA10
:1006F000020281EA030382EA000083EA010180EA40
:10070000020281EA0303362D88BF30BD11F0004F8D
:100710004FEA01314FF4801C4CEA113102D04042C3
:1007200061EB410113F0004F4FEA03334CEA1333FE
:1007300002D0524263EB430394EA050F00F0A78016
:10074000A4F10104D5F1200E0DDB02FA0EFC22FA11
:1007500005F2801841F1000103FA0EF2801843FA05
:1007600005F359410EE0A5F120050EF1200E012AF6
:1007700003FA0EFC28BF4CF0020C43FA05F3C01834
:1007800051EBE37101F0004507D54FF0000EDCF1AD
:10079000000C7EEB00006EEB0101B1F5801F1BD356
:1007A000B1F5001F0CD349085FEA30004FEA3C0C5A
:1007B00004F101044FEA445212F5800F80F09A8050
:1007C000BCF1004F08BF5FEA500C50F1000041EB54
:1007D000045141EA050130BD5FEA4C0C404141EB58
:1007E0000101013C28BFB1F5801FE9D291F0000F53
:1007F00004BF01460020B1FA81F308BF2033A3F102
:100800000B03B3F120020CDA0C3208DD02F1140CF8
:10081000C2F10C0201FA0CF021FA02F10CE002F133
:100820001402D8BFC2F1200C01FA02F120FA0CFC2C
:10083000DCBF41EA0C019040E41AA2BF01EB045175
:10084000294330BD6FEA04041F3C1CDA0C340EDC73
:1008500004F11404C4F1200220FA04F001FA02F3B6
:1008600040EA030021FA04F345EA030130BDC4F174
:100870000C04C4F1200220FA02F001FA04F340EA69
:100880000300294630BD21FA04F0294630BD94F01A
:10089000000F83F4801306BF81F480110134013D01
:1008A0004EE77FEA645C18BF7FEA655C29D094EA72
:1008B000050F08BF90EA020F05D054EA000C04BFF0
:1008C0001946104630BD91EA030F1EBF00210020DB
:1008D00030BD5FEA545C05D14000494128BF41F07A
:1008E000004130BD14F580043CBF01F5801130BDDE
:1008F00001F0004545F0FE4141F470014FF0000069
:1009000030BD7FEA645C1ABF194610467FEA655C19
:100910001CBF0B46024650EA013406BF52EA0335BB
:1009200091EA030F41F4002130BD00BF90F0000FA9
:1009300004BF0021704730B54FF4806404F13204E5
:100940004FF000054FF0000150E700BF90F0000F9E
:1009500004BF0021704730B54FF4806404F13204C5
:1009600010F0004548BF40424FF000013EE700BF95
:1009700042004FEAE2014FEA31014FEA02701FBF25
:1009800012F07F4393F07F4F81F06051704732F057
:100990007F4208BF704793F07F4F04BF41F40021AE
:1009A000704730B54FF4607401F0004521F000410C
:1009B0001CE700BF50EA010208BF704730B54FF096
:1009C00000050AE050EA010208BF704730B511F097
:1009D000004502D5404261EB41014FF4806404F1CF
:1009E00032045FEA915C3FF4D8AE4FF003025FEA55
:1009F000DC0C18BF03325FEADC0C18BF033202EBD9
:100A0000DC02C2F1200300FA03FC20FA02F001FA32
:100A100003FE40EA0E0021FA02F11444BDE600BFD5
:100A200070B54FF0FF0C4CF4E06C1CEA11541DBF84
:100A30001CEA135594EA0C0F95EA0C0F00F0DEF84F
:100A40002C4481EA030621EA4C5123EA4C5350EA34
:100A5000013518BF52EA033541F4801143F4801385
:100A600038D0A0FB02CE4FF00005E1FB02E506F016
:100A70000042E0FB03E54FF00006E1FB03569CF06B
:100A8000000F18BF4EF0010EA4F1FF04B6F5007F71
:100A900064F5407404D25FEA4E0E6D4146EB0606E3
:100AA00042EAC62141EA55514FEAC52040EA5E506C
:100AB0004FEACE2EB4F1FD0C88BFBCF5E06F1ED816
:100AC000BEF1004F08BF5FEA500E50F1000041EB4D
:100AD000045170BD06F0004646EA010140EA0200FA
:100AE00081EA0301B4EB5C04C2BFD4EB0C0541EA1C
:100AF000045170BD41F480114FF0000E013C00F331
:100B0000AB8014F1360FDEBF002001F0004170BD54
:100B1000C4F10004203C35DA0C341BDC04F114046D
:100B2000C4F1200500FA05F320FA04F001FA05F2F9
:100B300040EA020001F0004221F0004110EBD370C6
:100B400021FA04F642EB06015EEA430E08BF20EAF2
:100B5000D37070BDC4F10C04C4F1200500FA04F395
:100B600020FA05F001FA04F240EA020001F0004127
:100B700010EBD37041F100015EEA430E08BF20EA9A
:100B8000D37070BDC4F1200500FA05F24EEA020EE2
:100B900020FA04F301FA05F243EA020321FA04F011
:100BA00001F0004121FA04F220EA020000EBD370C8
:100BB0005EEA430E08BF20EAD37070BD94F0000FC8
:100BC0000FD101F00046400041EB010111F4801FFC
:100BD00008BF013CF7D041EA060195F0000F18BFAD
:100BE000704703F00046520043EB030313F4801FE9
:100BF00008BF013DF7D043EA0603704794EA0C0FA3
:100C00000CEA135518BF95EA0C0F0CD050EA4106B8
:100C100018BF52EA4306D1D181EA030101F0004135
:100C20004FF0000070BD50EA410606BF104619465D
:100C300052EA430619D094EA0C0F02D150EA013669
:100C400013D195EA0C0F05D152EA03361CBF1046AA
:100C500019460AD181EA030101F0004141F0FE4149
:100C600041F470014FF0000070BD41F0FE4141F4CD
:100C7000780170BD70B54FF0FF0C4CF4E06C1CEACD
:100C800011541DBF1CEA135594EA0C0F95EA0C0F82
:100C900000F0A7F8A4EB050481EA030E52EA03353D
:100CA0004FEA013100F088804FEA03334FF080555E
:100CB00045EA131343EA12634FEA022245EA11158B
:100CC00045EA10654FEA00260EF000419D4208BF3C
:100CD000964244F1FD0404F5407402D25B084FEAE9
:100CE0003202B61A65EB03055B084FEA32024FF495
:100CF00080104FF4002CB6EB020E75EB030E22BFF2
:100D0000B61A754640EA0C005B084FEA3202B6EBB1
:100D1000020E75EB030E22BFB61A754640EA5C0060
:100D20005B084FEA3202B6EB020E75EB030E22BFF0
:100D3000B61A754640EA9C005B084FEA3202B6EBF1
:100D4000020E75EB030E22BFB61A754640EADC00B0
:100D500055EA060E18D04FEA051545EA16754FEA12
:100D600006164FEAC30343EA52734FEAC2025FEA30
:100D70001C1CC0D111F4801F0BD141EA00014FF0BF
:100D800000004FF0004CB6E711F4801F04BF014390
:100D90000020B4F1FD0C88BFBCF5E06F3FF6AFAEAC
:100DA000B5EB030C04BFB6EB020C5FEA500C50F13C
:100DB000000041EB045170BD0EF0004E4EEA1131BF
:100DC00014EB5C04C2BFD4EB0C0541EA045170BDC6
:100DD00041F480114FF0000E013C90E645EA060E0A
:100DE0008DE60CEA135594EA0C0F08BF95EA0C0F38
:100DF0003FF43BAF94EA0C0F0AD150EA01347FF480
:100E000034AF95EA0C0F7FF425AF104619462CE756
:100E100095EA0C0F06D152EA03353FF4FDAE1046B9
:100E2000194622E750EA410618BF52EA43067FF40A
:100E3000C5AE50EA41047FF40DAF52EA43057FF49A
:100E4000EBAE12E74FF0FF3C06E000BF4FF0010CA5
:100E500002E000BF4FF0010C4DF804CD4FEA410C09
:100E60007FEA6C5C4FEA430C18BF7FEA6C5C1BD0D6
:100E700001B050EA410C0CBF52EA430C91EA030F57
:100E800002BF90EA020F0020704710F1000F91EAB4
:100E9000030F58BF994208BF90422CBFD8176FEA82
:100EA000E37040F0010070474FEA410C7FEA6C5C50
:100EB00002D150EA013C07D14FEA430C7FEA6C5C57
:100EC000D6D152EA033CD3D05DF8040B704700BF83
:100ED0008446104662468C461946634600E000BFD1
:100EE00001B5FFF7B7FF002848BF10F1000F01BDA3
:100EF0004DF808EDFFF7F4FF0CBF012000205DF86E
:100F000008FB00BF4DF808EDFFF7EAFF34BF0120F2
:100F100000205DF808FB00BF4DF808EDFFF7E0FF8B
:100F200094BF012000205DF808FB00BF4DF808EDDC
:100F3000FFF7CEFF94BF012000205DF808FB00BF43
:100F40004DF808EDFFF7C4FF34BF012000205DF825
:100F500008FB00BF4A0011D212F5001211D20DD5C4
:100F60006FF47873B3EB62520ED44FEAC12343F0AF
:100F7000004343EA505323FA02F070474FF0000059
:100F8000704750EA013002D14FF0FF3070474FF008
:100F90000000704753B94AB9002908BF00281CBF98
:100FA0004FF0FF314FF0FF3001F0C0B8ADF1080C49
:100FB0006DE904CE00F006F8DDF804E0DDE9022377
:100FC00004B070472DE9F047089D04468C46002B7D
:100FD00040F083808A42174647D9B2FA82F242B182
:100FE000C2F1200024FA00F09140974040EA010C41
:100FF00094404FEA1748230CBCFBF8F61FFA87FE13
:1010000008FB16C143EA014306FB0EF1994209D9D8
:10101000FB1806F1FF3080F01981994240F21681E9
:10102000023E3B445B1AA4B2B3FBF8F008FB10335A
:1010300044EA034400FB0EFEA64509D93C1900F121
:10104000FF3380F00581A64540F2028102383C441E
:1010500040EA0640A4EB0E0400261DB1D440002354
:10106000C5E900433146BDE8F08702B9FFDEB2FAB8
:1010700082F2002A50D1CB1B4FEA174E1FFA87F895
:101080000126B3FBFEFC210C0EFB1C3341EA03419D
:1010900008FB0CF38B4207D979180CF1FF3002D210
:1010A0008B4200F2E9808446C91AA3B2B1FBFEF07C
:1010B0000EFB101143EA014408FB00F8A04507D9D4
:1010C0003C1900F1FF3302D2A04500F2D980184646
:1010D000A4EB080440EA0C40BFE78B4209D9002D7D
:1010E00000F0B1800026C5E9000130463146BDE878
:1010F000F087B3FA83F6002E4AD18B4202D38242A4
:1011000000F2B880841A61EB030101208C46002DA7
:10111000A8D0C5E9004CA5E7C2F1200320FA03F6E8
:10112000974001FA02F04FEA174ED9403043030CC2
:10113000B1FBFEF61FFA87F80EFB161143EA0143D6
:1011400006FB08F1994204FA02F409D9FB1806F1EA
:10115000FF3C80F08D80994240F28A80023E3B4401
:101160005B1A81B2B3FBFEF00EFB103341EA034180
:1011700000FB08F38B4207D9791800F1FF3C73D2CA
:101180008B4271D902383944CB1A40EA064678E7D7
:10119000C6F1200C03FA06F422FA0CF31C4320FAE1
:1011A0000CF701FA06F34FEA144E21FA0CF11F4333
:1011B0003B0CB1FBFEF91FFA84F80EFB191143EA50
:1011C000014109FB08FA8A4502FA06F200FA06F321
:1011D00008D9611809F1FF3048D28A4546D9A9F1EA
:1011E00002092144A1EB0A01BFB2B1FBFEF00EFBE4
:1011F000101147EA014700FB08F8B84507D9E7197D
:1012000000F1FF312ED2B8452CD90238274440EAEC
:101210000940A7EB0807A0FB02894F45C64649468F
:101220001AD317D05DB1B3EB0E0267EB010707FAD3
:101230000CFCF2404CEA0202F740C5E90027002608
:101240003146BDE8F0872E4628460BE70646E9E61C
:101250001846FDE64345E5D2B8EB020E69EB040102
:101260000138DFE70846D2E760468DE78146B9E7F7
:10127000664675E730464AE7ACF1020C394413E79D
:1012800002383C4424E700BF03685A004CBF43F0D7
:10129000004323F000431844704700BF2DE9F84392
:1012A00029B34F1E044615463E464FF0000808EB92
:1012B000060101EBD171491004EBC1094846FFF763
:1012C000E3FF0346C80008308F42204409D0AB42F8
:1012D00009D8FFF7D9FF0138A8420AD201F1010865
:1012E000E5E7AB4205D9884501D04E1EDFE74FF058
:1012F00000094846BDE8F883012807D0022807D036
:10130000044B00280CBF1846002070470248704765
:1013100002487047BD190000C1190000C51900003E
:1013200030B5234B83B004468D1E3BB301A928463C
:10133000AFF30080E8B101992A46FFF7AFFF0146FD
:10134000B8B1FFF7A1FF4B68A064012B2BD0002B95
:1013500001F1040023DBFFF797FF0023C4E9130327
:101360000368002B10DBFFF78FFF2061002003B024
:1013700030BD00230920236103B030BD0D490E4864
:10138000091AC9100191D7E7C3F30360FFF7B4FF4F
:101390000028206114BF0020092003B030BD0123C4
:1013A000C4E91303DCE7002323610520DFE700BF66
:1013B00000000000D8DF000028DD00000368DA0725
:1013C00010B5044606D49B0700F1480009D500F08B
:1013D0004BFC2368590709D51A070ED5DB0613D530
:1013E00010BD00F039FC23685907F5D404F1D00092
:1013F00000F042FC23681A07F0D404F5A87000F04E
:1014000043FC2368DB06EBD404F5E870BDE810402C
:1014100000F07EBC0346006800B11844704700BF6E
:1014200009207047704700BF70B504460E46316C06
:101430002046FFF775FF054688B9336C6361324675
:1014400023692146012098470828F0D0072806D1B3
:101450002846316CFFF7E6FF301D00F0F1FB08F085
:10146000EFFC00BF2DE9F0470D1D064614460FCDD9
:10147000ADF5727D0DF10C0CACE80F000FCDACE8B2
:101480000F000FCDACE80F0095E80F0002ADF76834
:10149000D6F818808CE80F0000232B6021E02B6C1D
:1014A00073614FF4F07229467AA800F041FE336967
:1014B0007AAA314650469847889BCDE90058214684
:1014C0006B648146334632460120B8470446E8B98A
:1014D0004FF4F0727AA9284600F02AFEB9F1080FFD
:1014E0001BD1296C3046FFF71BFF09345FFA84FAE1
:1014F00081460028D3D0AB6B4AF01001CDE90058EB
:1015000032466B6401203346B84708B14FF00909F1
:1015100048460DF5727DBDE8F087B9F1070FF5D1AA
:101520002046296CFFF77EFF03A800F089FB00BF6F
:10153000406C7047F0B5CB6B0B640E1D0F46054633
:101540000FCEF9B001AC0FC40FCE0FC40FCE0FC435
:1015500096E80F004FF0FF3684E80F00009606E093
:101560002B696A46294698470828044608D11099ED
:101570002846FFF7D5FE0028F2D0092079B0F0BD4B
:101580006846FFF71BFF062CF7D139462846FFF7C0
:101590004BFF00BF30B4DD6BC160826119461D6432
:1015A000002230BC5EE700BF70B5C66843690B64BB
:1015B000AEB903690A4604460D4601460220984723
:1015C000072805D008280FD129462046FFF72CFF11
:1015D0003046296CFFF726FF281D00F031FB012261
:1015E000FFF740FF08F02CFC08F02AFCC2681AB193
:1015F000CA6B0A64002235E79CE700BF704700BF52
:10160000836801460BB1012018477047012912D0A9
:1016100009D873B90F2A0CD800EB82021846536818
:10162000009A136070470339012994BF01200220FA
:101630007047022070470846704700BF10B584B05D
:10164000002303AC0A4600941946FFF7DFFF039816
:1016500004B010BD012912D009D873B90F2A0CD8D3
:1016600000EB8200009A1268426018467047033906
:10167000012994BF012002207047022070470846CC
:10168000704700BF10B584B0002303AC03920094F0
:101690000A461946FFF7DEFF04B010BDF0B5D36B64
:1016A0001364151D8C4606460FCDADF50F7D17ACA6
:1016B0000FC40FCD0FC40FCD0FC495E80F004FF02E
:1016C000FF3784E80F006546169710E0FFF7DAFF52
:1016D000294616A8B047034616AA6946082083B9CA
:1016E000049B9847052804460CD0092809D0269960
:1016F0006846FFF715FE03466A460C2116A8002B24
:10170000E4D0092416A8FFF759FE20460DF50F7DF9
:10171000F0BD00BF2DE9F04FCC6C89B00D4654F8F8
:10172000041B0694174600F003081E46002B79D0D0
:101730000B0CDAB209048DF81D30022304EB82048D
:1017400005918DF81C302B6DB8F1020F08BFAC6B02
:1017500013F001030CD0384605A900F073FB18B94B
:10176000082009B0BDE8F08F092009B0BDE8F08F6E
:10177000D4F800A0BAF1000FEDD0019300F00803F7
:101780000293022E4AD0B4F800A0B4F802900434B8
:10179000AA6C29F0010B0F2138469344FFF74EFF46
:1017A000834539D82AF001025A44824294BF00206E
:1017B00001204FEA490303F002030AF0010A43EA59
:1017C0000A03012B49D0022B32D0002BCCD1B8F127
:1017D000000F02D0002840F0CD800434D4F800A0DF
:1017E000BAF1000FCDD105A9384600F02BFB002837
:1017F000BAD1019B002BB3D00F213846FFF71EFF53
:101800000E2102463846FFF73DFF38466A4A0F214F
:10181000FFF738FF0720A8E70020CAE7D4F80490B4
:101820000834B5E7090203230591ADF81C308AE7B7
:10183000236823F0004BB8F1000F45D128B1029A7C
:10184000002A5CD0BBF1000F74D0002B00DA043406
:101850000BF1010B04EB8B04C0E7B8F1000F19D1B9
:10186000B0B1D4E90023991C4FEAD2723FF47CAFA7
:1018700005F158010133049100F09080201DFFF71D
:10188000C9FD04AB01462846AFF3008000285BD1B8
:101890000834A3E70D213846D5F82090FFF7CEFE97
:1018A0008145F5D1AB6A9C42F2D12046FFF7ECFCB2
:1018B0000F2102463846FFF7E5FE38462A4600214A
:1018C000FFF7E0FE072050E70D213846D5F82090BD
:1018D000FFF7B4FE814501D02368B6E7AB6A9C42AE
:1018E000FAD104220021C5E90B12A318C5F828B0CB
:1018F0006B6323688B4259DB01230193A8E705F151
:101900005803CDF80C8004F1040AB04691461E46F7
:101910000DE00496FFF77EFD04AB01460022284649
:10192000AFF3008009F101090AF1040AE8B9D945C9
:101930005046EED138460D21FFF780FE049B286209
:10194000C5E90934062010E781460D213846FFF726
:1019500075FEB9F1020F286225D12B46049A43F88F
:101960002C2F6B62AC620620FFE646462368DDF84A
:101970000C806AE72046FFF787FC04340246AC631C
:1019800028461446AFF3008000283FF4EDAE3846F9
:1019900022460F21FFF776FE0720E6E638460D21A6
:1019A000FFF74CFE2862049B6B62DBE70BF1010042
:1019B00004EB80007AE700BF000000000023A9E6E6
:1019C0000123A7E60223A5E62DE9F0430646C3B0AE
:1019D00015461C46042900F2B980DFE801F09A534D
:1019E000B7290300002C40F0B180102A00F2AE802D
:1019F0000368D80600F1F38020AF384600F092F972
:101A0000B06B0023012404FA03F22A42014604D0F9
:101A100051F8042B47F8232008460133042BF2D158
:101A2000B063384600F074F9002043B0BDE8F0839D
:101A3000032C40F08B8094B204EB1243102B4FEA3E
:101A4000124500F2838003681F0700F1D08020AFA9
:101A5000384600F03BF907EBC501B56B54B10B46B6
:101A6000E81A01EBC401E4001A5843F8042B8B4236
:101A7000FAD125443846B56300F006F9002043B09A
:101A8000BDE8F083012C4FEA124895B25AD0052CDC
:101A90005CD108EB0509B9F1200F57D8B8F10F0F49
:101AA00077D9A946002D40F08880B36B6DB320AF85
:101AB0004FF0000907EBC807043F03EBC50553F8D7
:101AC000041B47F8041FAB42F9D1B9F1000F0FD046
:101AD0006F464146102938BF102107EBC1018439F8
:101AE00003EBC90553F8040B41F8040FAB42F9D1DD
:101AF000012C00F08480B8F10F0FB56345D9B9F11E
:101B0000000F02D0684600F0B7F8002043B0BDE8EF
:101B1000F083DCB9876B2346012094B206F1040CF4
:101B200000FA03F22242394604D051F8042B4CF853
:101B300023200F460133102BF2D115F40050E4D1CD
:101B4000B76304E008EB0503102B03D9022043B070
:101B5000BDE8F083B8F10F0FF8D83368DA0706D57F
:101B6000304623F0030340F8483B00F079F820AFFB
:101B7000384600F075F8B36B002D99D11D46043539
:101B8000B563384600F068F8BFE720A800F06CF8AD
:101B9000B5E7B9F1100F40D9A9F110093368D90799
:101BA00008D523F00103304643F0020340F8483BD8
:101BB00000F05EF8B9F1000F32D033685A0720D434
:101BC000B8F10F0F25D96F463846C8F1100500F05F
:101BD00057F8002DB36B7FF77CAF20AF6AE723F097
:101BE0001003336006F5E87000F09CF804E723F07A
:101BF0000803036000F5A87000F068F827E720AF3D
:101C0000BDE7304623F0040340F8D03B00F038F83D
:101C1000D6E720A800F02CF8D5E74FF00009BDE783
:101C2000B8F10F0F3FF641AF20AF384600F020F873
:101C3000B36B002D7FF43CAF384600F015F864E735
:101C400000F1340191E838009C46A6464CF8045D4A
:101C500090E8FF0FE54600BD90EC210B704700BFF8
:101C600080EC210B704700BF90EC200B704700BF49
:101C700080EC200B704700BFD0EC200B704700BFFA
:101C8000C0EC200B704700BFF0EC0201F0EC021139
:101C9000F0EC0221F0EC0231F0EC0241F0EC0251E8
:101CA000F0EC0261F0EC0271F0EC0281F0EC0291D8
:101CB000F0EC02A1F0EC02B1F0EC02C1F0EC02D1C8
:101CC000F0EC02E1F0EC02F1704700BFE0EC020141
:101CD000E0EC0211E0EC0221E0EC0231E0EC024128
:101CE000E0EC0251E0EC0261E0EC0271E0EC028118
:101CF000E0EC0291E0EC02A1E0EC02B1E0EC02C108
:101D0000E0EC02D1E0EC02E1E0EC02F1704700BF50
:101D1000B0FC0181B0FC0191B0FC01A1B0FC01B1AB
:101D2000704700BFA0FC0181A0FC0191A0FC01A1B3
:101D3000A0FC01B1704700BFEC4600B52DE9005092
:101D40002DE9FF1F4FF000032DE90C0001A9FFF75B
:101D5000F1FBDDF840E012B0704700BFEC4600B583
:101D60002DE900502DE9FF1F4FF000032DE90C0075
:101D700001A9FFF719FCDDF840E012B0704700BF81
:101D8000EC4600B52DE900502DE9FF1F4FF0000390
:101D90002DE90C0001A9FFF729FCDDF840E012B0A5
:101DA000704700BFEC4600B52DE900502DE9FF1F3C
:101DB0004FF000032DE90C0001ABFFF7EBFBDDF862
:101DC00040E012B0704700BFEC4600B52DE900506E
:101DD0002DE9FF1F4FF000032DE90C0001AAFFF7CA
:101DE0005DFCDDF840E012B0704700BF027A7AB9BE
:101DF000437AA3B14268013B10B4437213680321D4
:101E0000141D01721A024460026010BC180E704763
:101E10000368013A02721A020260180E7047B0207D
:101E2000704700BF00B585B003AA00230092194691
:101E30000C22FFF7EBFB039805B05DF804FB00BF35
:101E4000F0E700BF2DE9F043054685B00E464FF0A0
:101E500000083046FFF7CAFFB028044600F0B28001
:101E6000070620D500F0F003802B4DD0902B36D004
:101E7000A02B60D0B02B74D0C02B00F08B8000F072
:101E8000F803D02B0BD100F00702013242F40022FC
:101E9000052301212846FFF797FD0028D9D0092006
:101EA00005B0BDE8F0830DF10C0900231946870049
:101EB000CDF800900D222846FFF7A8FBFFB2039B48
:101EC000CDF80090043760064CBFDF1BFF180023DD
:101ED00019460D2228460397FFF7BCFBB9E700F02F
:101EE0000D030D2BDBD003AF002300F00F021946CA
:101EF00000972846FFF78AFB0023009719460D221A
:101F00002846FFF7A7FBA4E73046FFF76FFF240240
:101F10002043B0F5004FC2D004010023A2B21946FD
:101F20002846FFF751FD0028B9D114F4004F18BF1F
:101F30004FF001088DE7C24302F007034FF47F62C0
:101F40001A41010702F47F624FF0000348BF42F4D8
:101F5000804219462846FFF737FD00283FF479AF45
:101F60009DE7B12833D0B22800F08B80B32839D058
:101F700000F0FC03B42B92D000F0070201320123E1
:101F800042F4002219462846FFF71EFD00283FF4C0
:101F900060AF84E7C62842D0C7284CD000F0F803D1
:101FA000C02B5BD0C82860D0C9287FF478AF3046FA
:101FB000FFF71CFF020300F00F0002F47022013053
:101FC000024365E7B8F1000F18D0002068E73046FB
:101FD000FFF70CFF024600283FF461AF10F0F0035A
:101FE000D0D05CE73046FFF701FF010300F00F009F
:101FF00001F47021421C01230A43C3E703AC4346AA
:102000000E22414600942846FFF700FB0094284624
:1020100043460F224146FFF71DFB404640E730464E
:10202000FFF7E4FE010300F00F0001F47021421CF1
:1020300003230A43A6E73046FFF7D8FE02460028EE
:102040003FF42DAF10F0F0037FF429AF04212846B0
:10205000FFF7BAFC00283FF4FCAE20E700F00F02C7
:102060000132032342F420228CE73046FFF7BEFE04
:1020700000F0F00200F00F031032013343EA0232A5
:1020800006E700230DF10C090D221946CDF800904A
:102090002846FFF7BBFA3046FFF7A8FE02064FF0CE
:1020A00002070CD5039B00F07F00B8400344304684
:1020B0000393FFF79BFE030607F10707F2D4039B88
:1020C000CDF8009000F07F0403F50172BC400023BE
:1020D000144419460D2228460394FFF7BBFAB8E6CC
:1020E00010B5C26C84B0536803248DF80C401B02F9
:1020F00002F108040846D279019301A902948DF8EF
:102100000D20FFF79FFE04B010BD00BF08B5FFF71C
:1021100097FE806C08BD00BF08B5FFF791FEC06C4C
:10212000C379023300EB830008BD00BF704700BFD6
:10213000844641EA000313F003036DD1403A41D3D2
:1021400051F8043B40F8043B51F8043B40F8043B91
:1021500051F8043B40F8043B51F8043B40F8043B81
:1021600051F8043B40F8043B51F8043B40F8043B71
:1021700051F8043B40F8043B51F8043B40F8043B61
:1021800051F8043B40F8043B51F8043B40F8043B51
:1021900051F8043B40F8043B51F8043B40F8043B41
:1021A00051F8043B40F8043B51F8043B40F8043B31
:1021B00051F8043B40F8043B51F8043B40F8043B21
:1021C000403ABDD2303211D351F8043B40F8043BC1
:1021D00051F8043B40F8043B51F8043B40F8043B01
:1021E00051F8043B40F8043B103AEDD20C3205D3D1
:1021F00051F8043B40F8043B043AF9D2043208D0C9
:10220000D2071CBF11F8013B00F8013B01D30B883A
:1022100003806046704700BF082A13D38B078DD018
:1022200010F003038AD0C3F10403D21ADB071CBFEA
:1022300011F8013B00F8013B80D331F8023B20F854
:10224000023B7BE7043AD9D3013A11F8013B00F88D
:10225000013BF9D20B7803704B7843708B78837015
:102260006046704700000000000000000000000011
:1022700001F0FF01102A2BDB10F0070F08D010F837
:10228000013B013A8B422DD010F0070F42B3F6D13B
:10229000F0B441EA012141EA014122F007047FF054
:1022A00000070023F0E80256083C85EA010586EAAB
:1022B000010685FA47F5A3FA87F586FA47F6A5FAE7
:1022C00087F68EB9EED1F0BC01F0FF0102F00702F3
:1022D00032B110F8013B013A83EA010313B1F8D19E
:1022E0000020704701387047002D06BF354603387F
:1022F000073815F0010F07D1013015F4807F02BFB8
:10230000013015F4C03F0130F0BC0138704700BF08
:1023100000000000000000000000000000000000BD
:1023200000000000000000000000000000000000AD
:10233000000000000000000000000000000000009D
:1023400090F800F06DE9024520F007016FF0000CF5
:1023500010F0070491F820F040F049804FF000049D
:102360006FF00700D1E9002391F840F000F1080078
:1023700082FA4CF2A4FA8CF283FA4CF3A2FA8CF3B0
:102380004BBBD1E9022382FA4CF200F10800A4FA17
:102390008CF283FA4CF3A2FA8CF3E3B9D1E904236B
:1023A00082FA4CF200F10800A4FA8CF283FA4CF3A2
:1023B000A2FA8CF37BB9D1E9062301F1200182FA5C
:1023C0004CF200F10800A4FA8CF283FA4CF3A2FA62
:1023D0008CF3002BC6D0002A04BF04301A4612BA70
:1023E000B2FA82F2FDE8024500EBD2007047D1E973
:1023F000002304F00305C4F100004FEAC50514F002
:10240000040F91F840F00CFA05F562EA05021CBFD2
:1024100063EA050362464FF00004A9E780B590B077
:1024200000AF78600B46FB70FB78002B27D107F1DB
:10243000240300221A605A609A60DA601A615A61B5
:102440002D4A7B6852F833307B62012387F82830AD
:10245000012387F829304FF0FF333B6307F1240352
:10246000184606F0F3FA244A7B68DB001344012285
:102470001A717B68DB00204A1344FB6336E0FB786B
:10248000012B31D107F10C0300221A605A609A60C7
:10249000DA601A615A61184A7B6852F83330FB607F
:1024A00001233B754FF0FF33BB6107F10C03184666
:1024B00006F03EFB104A7B68DB00134402221A71CF
:1024C0007B68292B0AD97B682C2B07D80A4A7B68A2
:1024D00052F833300121184606F066FB7B68DB00BA
:1024E000054A1344FB6301E00023FB63FB6B1846C2
:1024F0004037BD4680BD00BF0000002080B586B0DB
:1025000000AF78607B683B613B69002B0BD03B6977
:102510001B79012B07D13B691B68184606F052FB5B
:102520000346FB7501E00023FB753B691B681B0A32
:10253000DBB2FB603B691B68DBB2BB60FB68022B54
:1025400002D1BB68062B05D0FB68002B09D1BB6804
:10255000042B06D1FB7D002B0CBF01230023DBB233
:10256000FB75FB7D18461837BD4680BD80B586B02B
:1025700000AF78600B46FB707B687B617B69002B4A
:102580002FD07B691B79022B2BD17B691B681B0A1F
:10259000DBB23B617B691B68DBB2FB603B69012BF3
:1025A00005D1FB68162B08D0FB68152B05D03B69BD
:1025B000042B0FD1FB681A2B0CD17B691A68FB78AE
:1025C000012B14BF01230023DBB21946104606F08D
:1025D000EBFA06E07B691B68FA781146184606F0AC
:1025E000E3FA00BF1837BD4680BD80B485B000AFA8
:1025F00078607B68FB60FB68002B0ED0FB681B7962
:10260000022B03D1FB6800221A7106E0FB681B79DC
:10261000012B02D1FB6800221A7100BF1437BD469E
:102620005DF8047B7047000080B584B000AFF860AF
:10263000B9601346FB71BB681F2B05D90D4B0E4AC1
:10264000FF210E4807F004FCFB68BA6853F82230FB
:1026500023F0807323F4E063FA79120202F4E0625B
:1026600043EA0201FB68BA6843F8221000BF103742
:10267000BD4680BD40CA000004CC00004CCA00002A
:1026800080B483B000AF78600B46FB707B681B683A
:1026900023F01802FB78DB0003F018031A437B6871
:1026A0001A6000BF0C37BD465DF8047B7047000020
:1026B00080B58EB000AF786187ED020B87ED001B0F
:1026C000524A7B695B01134411331B78002B40F0A5
:1026D0008780002387F82830002387F829300023DB
:1026E00087F82A308023FB62484A7B695B011344E8
:1026F0001868464A7B695B01134404331968434AEE
:102700007B695B01134410331B781A46FFF78CFF7B
:102710003E4A7B695B01134408331B6807F12802BA
:102720001146184605F0BAFF384A7B695B0113442D
:1027300008331B68DBB200220121184606F034F88A
:10274000324A7B695B011344113304221A702F4A09
:102750007B695B01134403F11801D7E90223C1E946
:10276000002302233B7600237B76284A7B695B01AA
:1027700013441833D3E9002310461946FEF7EAFB49
:102780000346FB61D7E90001FEF7E4FB03463B6229
:102790000023BB841D4A7B695B01134408331B681B
:1027A0001B4A52F823303B630021386BFFF768FF68
:1027B000164A7B695B01134408331868134A7B6926
:1027C0005B0113440C331B68DAB207F11803194696
:1027D00006F048F87B695B010C4A13447B630FE009
:1027E0000A4A7B695B01134411331B78042B05D122
:1027F0007B695B01054A13447B6301E000237B6333
:102800007B6B18463837BD4680BD00BF780100207D
:10281000C0D3000080B483B000AF786000BF0C3735
:10282000BD465DF8047B704780B58AB000AFF860A4
:1028300087ED000BFB687B627B6A002B2CD07B6AE8
:102840005B7C042B28D102233B7400237B747B6ABE
:10285000D3E9062310461946FEF77CFB03467B614D
:10286000D7E90001FEF776FB0346BB610023BB837B
:102870007B6A9B680A4A52F823303B620021386A1F
:10288000FFF7FEFE7B6A98687B6ADB68DAB207F1C5
:102890001003194605F0E6FF00BF2837BD4680BD8E
:1028A000C0D3000080B485B000AF78607B68FB6067
:1028B000FB68002B06D0FB685B7C042B02D1FB6815
:1028C00000225A7400BF1437BD465DF8047B704780
:1028D00080B483B000AF786000BF0C37BD465DF8B0
:1028E000047B704780B584B000AFF860B9607A604F
:1028F000BB680F2B06D90A4B0A4A40F2E2210A486C
:1029000007F0A6FAFA68BB685B01134403F580532D
:1029100010337A681A6000BF1037BD4680BD00BF13
:1029200084CA00003CCC0000B0CA000080B584B06E
:1029300000AFF860B9601346FB71BB680F2B06D976
:102940000D4B0E4A4FF460710D4807F081FABB68D9
:102950005B0103F580531833FA681344043303F121
:10296000424303F580135B010433FA7992B21A8073
:1029700000BF1037BD4680BD84CA000058CC00009F
:10298000B0CA000090B587B000AFF8607A603B60D5
:102990000B46FB7200237B61FB681B68032B00F076
:1029A000E481032B05D8012B00F09880022B00F066
:1029B0004781954B00221A60934B1B68934A52F84B
:1029C0002330002B41D1904B1B68914ADB0013440C
:1029D00000229A718C4B1B688D4ADB001344002245
:1029E0001A71894B1B688A4ADB00134400225A7112
:1029F000854B1B68864A4FF4E13142F83310824B15
:102A00001B68184603F088F87F4B1B689B01814ABE
:102A100013448149184605F04DFD7B4B18687A4BED
:102A20001A6813461B019B1A9B007C4A9918764B27
:102A30001B68DB00764A13441A4606F0B5FD724B5C
:102A40001B68724A012142F823107B68B3F1FF3FF3
:102A500020D06D4B1A68724913469B0013449B00AB
:102A60000B440B221A60684B1A686D4913469B0091
:102A700013449B000B4408336A4A1A60624B1A687D
:102A8000674913469B0013449B000B440C33664A72
:102A90001A6015E05C4B1A68614913469B001344A9
:102AA0009B000B44043302221A60574B1A685C499E
:102AB00013469B0013449B000B4410335B4A1A607F
:102AC000514B1B68504A1268594941F823204E4B1C
:102AD0001B689B00564A13447B61DBE14A4B012291
:102AE0001A60494B1B68494A52F82330002B41D1E8
:102AF000454B1B68464ADB00134400229A71424B47
:102B00001B68434ADB00134400221A713E4B1B68CA
:102B10003F4ADB00134400225A713B4B1B683C4A7E
:102B20004FF4E13142F83310374B1B68184602F07E
:102B3000F3FF354B1B689B01364A13443649184650
:102B400005F0B8FC304B18682F4B1A6813461B0170
:102B50009B1A9B00314A99182B4B1B68DB002C4AAF
:102B600013441A4606F020FD274B1B68274A012113
:102B700042F823107B68B3F1FF3F20D0224B1A6844
:102B8000274913469B0013449B000B4400221A6004
:102B90001D4B1A68224913469B0013449B000B44AB
:102BA0000833244A1A60184B1A681D4913469B00C3
:102BB00013449B000B440C331F4A1A6015E0124B60
:102BC0001A68174913469B0013449B000B440433B7
:102BD00000221A600C4B1A68114913469B001344DB
:102BE0009B000B441033154A1A60074B1B68064ABA
:102BF00012680F4941F82320034B1B689B000C4AC5
:102C000013447B6146E100BFAC120020B0120020EB
:102C1000CC110020E40E00203804002064100020B5
:102C200004120020C80E0020D40E0020E00E002068
:102C300094120020E00E0020E00E0020E40E0020A0
:102C4000AD4B02221A60AC4B1B68AC4A52F82330E1
:102C5000002B41D1A84B1B68A94ADB00134400227A
:102C60009A71A54B1B68A64ADB00134400221A7117
:102C7000A14B1B68A24ADB00134400225A719E4BF1
:102C80001B689F4A4FF4E13142F833109A4B1B689E
:102C9000184602F041FF984B1B689B01994A134468
:102CA0009949184605F006FC934B1868924B1A6830
:102CB00013461B019B1A9B00944A99188E4B1B6864
:102CC000DB008F4A13441A4606F06EFC8A4B1B68E1
:102CD0008A4A012142F823107B68B3F1FF3F20D0DC
:102CE000854B1A688A4913469B0013449B000B448A
:102CF00000221A60804B1A68854913469B001344D2
:102D00009B000B440833834A1A607B4B1A68804946
:102D100013469B0013449B000B440C337E4A1A60FD
:102D200015E0754B1A687A4913469B0013449B00C3
:102D30000B44043300221A606F4B1A68744913461F
:102D40009B0013449B000B441033744A1A606A4B77
:102D50001B68694A1268724941F82320664B1B6858
:102D60009B006F4A13447B6194E0634B03221A601B
:102D7000614B1B68614A52F82330002B41D15E4BF6
:102D80001B685F4ADB00134400229A715A4B1B6890
:102D90005B4ADB00134400221A71574B1B68584AE8
:102DA000DB00134400225A71534B1B68544A4FF402
:102DB000E13142F83310504B1B68184602F0ACFE6C
:102DC0004D4B1B689B014F4A13444F49184605F071
:102DD00071FB494B1868484B1A6813461B019B1A34
:102DE0009B004A4A9918444B1B68DB00444A134431
:102DF0001A4606F0D9FB404B1B68404A012142F8B5
:102E000023107B68B3F1FF3F20D03B4B1A68404949
:102E100013469B0013449B000B4400221A60364B60
:102E20001A683B4913469B0013449B000B4408332C
:102E30003C4A1A60304B1A68354913469B001344CC
:102E40009B000B440C33384A1A6015E02A4B1A6871
:102E50002F4913469B0013449B000B44043300226C
:102E60001A60254B1A682A4913469B0013449B009D
:102E70000B4410332D4A1A601F4B1B681E4A126800
:102E8000274941F823201C4B1B689B00244A13440C
:102E90007B6100BF7B68B3F1FF3F27D0164B1A68F8
:102EA00013461B019B1A9B002833184A1344043312
:102EB000114A12681E49184605F03EFB0E4B186871
:102EC0000D4B1A68124913469B0013449B000B4498
:102ED00008331968084B1A680D4C13469B001344BD
:102EE0009B0023441B681A4600F0E0F87B691846F3
:102EF0001C37BD4690BD00BFAC120020B0120020B0
:102F0000CC110020E40E00203804002064100020C2
:102F100004120020E00E0020E00E0020E40E00204D
:102F200094120020E00E0020E00E0020E40E0020AD
:102F30005931000080B483B000AF7860396000235D
:102F400018460C37BD465DF8047B704780B483B0EB
:102F500000AF7860084611461A460346FB700B46E0
:102F6000BB7013467B70002318460C37BD465DF8D6
:102F7000047B704780B586B000AFF860B9607A60B6
:102F8000FB683B613B69002B33D03B691B681F4AE0
:102F9000D35C012B2DD13B691B681D4A52F82330AD
:102FA000012B0FD13B691A681A4913469B00134441
:102FB0009B000B4408331B687A681946B868FFF712
:102FC000B7F80EE03B691A68124913469B00134498
:102FD0009B000B440C331B687A681946B868FFF7EE
:102FE000A7F83B691B68094A0021D1540023FB75EF
:102FF00006E07A680021B86807F06CFA2023FB75B8
:10300000FB7D18461837BD4680BD00BFFC1100206F
:103010007C1200200412002080B586B000AFF8605A
:10302000B9607A60FB683B613B69002B2AD03B6941
:103030001B680021184606F00BFC0346082B21D024
:103040003B691A68134913469B0013449B000B44C9
:1030500010331B687A68B9681846FFF769F83B694E
:1030600018683B691A680B4913469B0013449B0080
:103070000B4410331B687A68194606F0C5FB0346FB
:10308000FB7501E02023FB75FB7D18461837BD4614
:1030900080BD00BF0412002080B483B000AF786010
:1030A00000BF0C37BD465DF8047B704780B588B023
:1030B00000AFF860B9607A60FB68052B06D9214B38
:1030C000214A40F28911214806F0C2FE204AFB68DD
:1030D00052F82330FB61FB6993F82C301B09DBB2FB
:1030E0001A461C4B53F82230BB61FB6993F82C3015
:1030F00003F00F037B61FB695B78DBB2002B01D02F
:1031000009231AE0FB6901225A70BB681A467969E3
:10311000B869FFF7E7FB7A687969B86905F008F9DB
:1031200001227969B869FFF701FC7B69DBB20122F2
:103130001946B86904F0E7FF002318462037BD465A
:1031400080BD00BFE8CA000018CC000008CB00001A
:10315000BC44002080D1000080B582B000AF786010
:103160000B46FB707B68184600F004F800BF083778
:10317000BD4680BD80B586B000AF78607B68052B0A
:1031800006D93C4B3C4A40F2AD113C4806F060FE8B
:103190003B4A7B6852F823307B617B6993F82C3083
:1031A0001B09DBB21A46374B53F822303B617B696F
:1031B00093F82C3003F00F03FB600022F9683869A4
:1031C000FFF7B4FBFB68DBB200221946386904F054
:1031D0009AFF7B69DB78DBB2002B04D07B6910336C
:1031E000184604F00DFD7B6900225A70264A7B6860
:1031F000134401221A70254A7B6852F82330002BB1
:103200001AD123497A6813469B0013449B000B4450
:103210000C3319681E487A6813469B0013449B00C0
:1032200003441B681A467868FFF740FF174A7B681B
:10323000012142F8231019E015497A6813469B00D2
:1032400013449B000B440833196811487A681346ED
:103250009B0013449B0003441B681A467868FFF7E1
:1032600025FF0A4A7B68002142F8231000BF183767
:10327000BD4680BDE8CA000070CC000008CB00004D
:10328000BC44002080D10000FC1100207C120020F2
:103290000412002080B586B000AF7861184B1B681F
:1032A0001B68002B0CBF01230023DBB21A46154B11
:1032B0001A7011E03B461449184602F0FEFF00F078
:1032C0002BFC0F4B1B681B68002B14BF0123002332
:1032D000DBB21A460D4B1A700A4B1B78DBB2002B7F
:1032E000E8D1084B00221A70786900F011F800202C
:1032F00002F03CFF002318461837BD4680BD00BFD2
:1033000094CC00003A040020D4120020C8120020FF
:1033100080B582B000AF7860074B01221A60074B7E
:1033200000221A7001F010FE054802F0B3FF0023DE
:1033300018460837BD4680BDF01200203A04002030
:10334000CC12002080B586B000AF7861396102F000
:10335000B3F902F07BFB0A4B1B6800221A6001F0F4
:1033600043FB00209FED070A02F052FE3B46064950
:10337000184602F0A2FF002318461837BD4680BD4C
:1033800094CC00006F12833ACC12002080B483B03A
:1033900000AF7860396026494FF00002254BC1E943
:1033A00018233B68D3E900232149C1E920232049A0
:1033B0004FF000021F4BC1E916231D494FF00002D8
:1033C0004FF00003C1E90E2319494FF000024FF0FE
:1033D0000003C1E91C2316494FF000024FF000031F
:1033E000C1E91E2312494FF000024FF00003C1E96A
:1033F00014230F494FF000020E4BC1E912230C4970
:103400004FF000024FF00003C1E910237B68D3E9BD
:1034100000230749C1E91A2305494FF00002054B73
:10342000C1E90C2300BF0C37BD465DF8047B704733
:10343000F81200200000F03F80B483B000AF786045
:1034400039603B68D3E900232149C1E920232049A1
:103450004FF000021F4BC1E916231D494FF0000237
:103460004FF00003C1E90E2319494FF000024FF05D
:103470000003C1E91C2316494FF000024FF000037E
:10348000C1E91E2312494FF000024FF00003C1E9C9
:1034900014230F494FF000020E4BC1E912230C49CF
:1034A0004FF000024FF00003C1E910237B68D3E91D
:1034B00000230749C1E91A2305494FF00002054BD3
:1034C000C1E90C2300BF0C37BD465DF8047B704793
:1034D000F81200200000F03FF0B585B000AFF860B2
:1034E000B9607A603B60944B93F89030032B08D01E
:1034F000924B002283F8B421904B032283F8B12130
:103500007EE18E4B93F8B431012B03D0022B00F0F7
:10351000AE8019E188494FF00002894BC1E91823B8
:1035200085494FF00002864BC1E9162382494FF0CE
:1035300000024FF00003C1E90E237F494FF0000263
:103540004FF00003C1E91C237B494FF000024FF00C
:103550000003C1E91E2378494FF000024FF0000339
:10356000C1E9142374494FF00002754BC1E91223DD
:1035700071494FF000024FF00003C1E910236E497A
:103580004FF000026E4BC1E90C237B681B78002BC7
:1035900013D06A494FF000024FF00003C1E96823DD
:1035A000664B032283F8B421644B0022C3F8A821A0
:1035B0003968B868FFF740FF1DE1604BD3F8A86198
:1035C000FB68D3E900455F4BD3E906015B4BD3E9C8
:1035D0006823FDF725FA02460B4620462946FDF7EB
:1035E00067F802460B4610461946564BD3E91C2392
:1035F000FDF75EF802460B4643EC172BB0EE470A88
:10360000F0EE670A06F09CFB53EC102B10461946AF
:10361000FDF7A0FC03469E42C0F0ED80474B02221E
:1036200083F8B421454B0022C3F8A8213B68D3E9B5
:1036300000234149C1E920233F494FF000024FF0E8
:103640000003C1E90C233C494FF000024FF0000396
:10365000C1E9122338494FF00002394BC1E90E236A
:10366000BB68D3E900233449C1E91A23C3E03249D6
:103670004FF00002324BC1E918232F494FF00002EE
:103680004FF00003C1E90C232B494FF000022C4BF3
:10369000C1E9162328494FF000024FF00003C1E9A9
:1036A000102325494FF000024FF00003C1E9142315
:1036B00021494FF000024FF00003C1E91C231E49CD
:1036C0004FF000024FF00003C1E91E231A494FF0EA
:1036D00000024FF00003C1E9122317494FF0000226
:1036E000174BC1E90E23154BD3F8A841154B93EDA9
:1036F000067BB0EE470AF0EE670A06F021FB53ECBA
:10370000102B10461946FDF725FC03469C4274D346
:103710000A494FF000020A4BC1E96823074B032214
:1037200083F8B421054B0022C3F8A8213968B86892
:10373000FFF782FE61E000BFF81200209013002026
:103740000000F03F400400202F494FF000022F4BB3
:10375000C1E916232C494FF000024FF00003C1E9E4
:103760000E2329494FF000024FF00003C1E91C234A
:1037700025494FF000024FF00003C1E91E23224902
:103780004FF000024FF00003C1E914231E494FF02F
:1037900000021E4BC1E912231B494FF000024FF0FB
:1037A0000003C1E9102318494FF00002174BC1E98B
:1037B0000C23174BD3F8A841164B93ED1C7BB0EEAE
:1037C000470AF0EE670A06F0BBFA53EC102B1046DE
:1037D0001946FDF7BFFB03469C4210D30C4B012258
:1037E00083F8B4210A4B0022C3F8A8213968B868CD
:1037F000FFF7CCFD03E000BF02E000BF00E000BF28
:1038000000BF1437BD46F0BDF81200200000F03FA5
:10381000901300204004002080B483B000AF786093
:10382000396026494FF00002254BC1E918233B6857
:10383000D3E900232149C1E9222320494FF00002A6
:103840001F4BC1E916231D494FF000024FF0000342
:10385000C1E90E2319494FF000024FF00003C1E9FE
:103860001C2316494FF000024FF00003C1E91E234C
:1038700012494FF00002124BC1E914230F494FF0D7
:1038800000024FF00003C1E912230C494FF000027F
:103890004FF00003C1E910237B68D3E900230749F7
:1038A000C1E91A2305494FF00002054BC1E90C2379
:1038B00000BF0C37BD465DF8047B7047F81200204E
:1038C0000000F03F80B483B000AF786039603B689F
:1038D000D3E900232149C1E9222320494FF0000206
:1038E0001F4BC1E916231D494FF000024FF00003A2
:1038F000C1E90E2319494FF000024FF00003C1E95E
:103900001C2316494FF000024FF00003C1E91E23AB
:1039100012494FF00002124BC1E914230F494FF036
:1039200000024FF00003C1E912230C494FF00002DE
:103930004FF00003C1E910237B68D3E90023074956
:10394000C1E91A2305494FF00002054BC1E90C23D8
:1039500000BF0C37BD465DF8047B7047F8120020AD
:103960000000F03F80B483B000AF786023494FF08F
:103970000002234BC1E9162320494FF000024FF00B
:103980000003C1E90E231D494FF000024FF0000370
:10399000C1E91C2319494FF000024FF00003C1E9AF
:1039A0001E2316494FF00002154BC1E91423134999
:1039B0004FF000024FF00003C1E912230F494FF00E
:1039C00000024FF00003C1E910237B68D3E9002314
:1039D0000A49C1E91A2309494FF00002084BC1E91D
:1039E0000C2306494FF000024FF00003C1E91823F1
:1039F00000BF0C37BD465DF8047B7047F81200200D
:103A00000000F03F80B483B000AF786023494FF0EE
:103A10000002234BC1E9162320494FF000024FF06A
:103A20000003C1E90E231D494FF000024FF00003CF
:103A3000C1E91C2319494FF000024FF00003C1E90E
:103A40001E2316494FF000024FF00003C1E9142372
:103A500012494FF00002124BC1E912230F494FF0F7
:103A600000024FF00003C1E910237B68D3E9002373
:103A70000A49C1E91A2309494FF00002084BC1E97C
:103A80000C2306494FF000024FF00003C1E9182350
:103A900000BF0C37BD465DF8047B7047F81200206C
:103AA0000000F03F80B584B000AF78607B680022F2
:103AB0001A727B6801225A60154B4FF0FF32DA60B0
:103AC000134B00221A61124BDB680A2200211148B5
:103AD000FEF758FF02467B681A617B681B694FF44A
:103AE000E1311846FFF726FA094B01221A75002327
:103AF000FB737B681869064B1B7DFA7B0821FFF777
:103B000025FA7B6801221A7200BF1037BD4680BDBE
:103B1000F812002008130020F0B591B000AFAC4BB4
:103B2000D3E91601AB4BD3E90423FDF7E1F90346D2
:103B3000002B05D1A74BD3E90423A549C1E91623DE
:103B4000A34B1B6D391D0B221846FFF713FA0346D2
:103B500087F83F303B1D0B2219469F48FEF7E8FAD5
:103B60009B4B93F8AE31002B10D1994B012283F877
:103B7000AE21974B022283F8AF21974B022283F8A4
:103B80009020954B3C2283F8912049E0904B93F88C
:103B9000AF31032B10D0032B13DC012B02D0022BEF
:103BA00005D00EE08A4B042283F8AF2138E0884B21
:103BB000042283F8AF2133E0854B042283F8AF2140
:103BC0002EE097F83F30002B29D1834B1B78162B22
:103BD00020D1814B5B78222B10D0552B15D17C4BFB
:103BE000032283F8AF217C4B9A797B4B83F890209A
:103BF000794BDA79784B83F8912010E0744B0122ED
:103C000083F8AF2101F0BAFB09E0714B042283F87D
:103C1000AF2104E06E4B042283F8AF21FFE700BF21
:103C20006C4BD3E90A016B4BD3E90C23FDF722F867
:103C300002460B4610461946664BD3E90E23FCF7A5
:103C4000EFFE02460B46C7E90623624BD3E910019B
:103C5000604BD3E91223FDF70DF802460B461046E0
:103C600019465C4BD3E91423FCF7DAFE02460B46F7
:103C7000C7E90823584B93F891301846FCF756FED5
:103C8000544BD3E91623FCF7F5FF02460B464FF0E1
:103C900000005249FCF7EEFF02460B46C7E9042339
:103CA0004B4BD3E90E014B4BD3E90023FDF720F931
:103CB0000346002B05D1474BD3E900234449C1E912
:103CC0000E23434B1B6B1846FEF718FC034687F880
:103CD0003E303F4BD3E906013E4BD3E90223FDF7CB
:103CE00007F90346002B05D13A4BD3E902233849A3
:103CF000C1E90623364B1B691846FEF7FFFB034656
:103D0000FB70344BD3E91E01324BD3E92023FCF77F
:103D1000B1FF02460B46104619462E4BD3E922232B
:103D2000FCF77EFE02460B46C7E90C23294BD3E97C
:103D30002601284BD3E92823FCF79CFF02460B46BB
:103D400010461946234BD3E92A23FCF769FE0246A5
:103D50000B46C7E90A231E4BD3F8A831B3F1FF3F46
:103D600006D01B4BD3F8A8310133194AC2F8A83149
:103D7000174B93F8B031002B09D1154B012283F872
:103D8000B021134B032283F8B12100F012BC104B79
:103D900093F8B131013B032B00F2F48301A252F8F6
:103DA00023F000BFB53D0000F3400000D342000007
:103DB000A7430000084B93F89030042B10D0044B1D
:103DC000002283F8B521024B032283F8B121F0E3EE
:103DD0009013002040040020F81200200000F03F63
:103DE0008F4B93F8B531012B03D0022B00F0AF803D
:103DF0001EE18C494FF000028B4BC1E91823894921
:103E00004FF00002884BC1E9162386494FF00002AB
:103E10004FF00003C1E90E2382494FF000024FF03A
:103E20000003C1E91C237F494FF000024FF000035B
:103E3000C1E91E237B494FF000027B4BC1E91423EB
:103E400078494FF000024FF00003C1E91223754991
:103E50004FF000024FF00003C1E9102371494FF009
:103E60000002714BC1E90C2397F83E30002B17D0AC
:103E70006B494FF000024FF00003C1E96823684B23
:103E8000032283F8B521664B0022C3F8A82107F16D
:103E9000280207F1200311461846FFF713FD22E11F
:103EA0005F4BD3F8A861D7E90445604BD3E908011B
:103EB0005B4BD3E96823FCF7B3FD02460B46204673
:103EC0002946FCF7F5FB02460B4610461946574BB0
:103ED000D3E92423FCF7ECFB02460B4643EC172BFB
:103EE000B0EE470AF0EE670A05F02AFF53EC102BFC
:103EF00010461946FDF72EF803469E42C0F0F380A7
:103F0000474B022283F8B521454B0022C3F8A82174
:103F1000D7E90A234349C1E9222342494FF000026D
:103F20004FF00003C1E90C233E494FF000023E4B25
:103F3000C1E910233B494FF000024FF00003C1E9F3
:103F40001423D7E908233749C1E91A23CBE03549BF
:103F50004FF00002344BC1E9182332494FF0000200
:103F60004FF00003C1E90C232E494FF000022E4B05
:103F7000C1E916232B494FF000022B4BC1E9102356
:103F800028494FF000024FF00003C1E914232549EE
:103F90004FF000024FF00003C1E91C2321494FF00C
:103FA00000024FF00003C1E91E231E494FF000023A
:103FB0004FF00003C1E912231A494FF000024FF0FD
:103FC0000003C1E90E23164BD3F8A841174B93ED1C
:103FD000087BB0EE470AF0EE670A05F0B1FE53EC3D
:103FE000102B10461946FCF7B5FF03469C427CD3C4
:103FF0000B494FF000020C4BC1E96823084B032228
:1040000083F8B521064B0022C3F8A82107F1280246
:1040100007F1200311461846FFF754FC65E000BF86
:1040200090130020F81200200000F03F4004002010
:10403000B1494FF00002B14BC1E91623AE494FF030
:1040400000024FF00003C1E90E23AB494FF000021C
:104050004FF00003C1E91C23A7494FF000024FF0C5
:104060000003C1E91E23A4494FF00002A34BC1E99C
:104070001423A1494FF000024FF00003C1E91223BD
:104080009D494FF000024FF00003C1E910239A4907
:104090004FF00002994BC1E90C23994BD3F8A8418A
:1040A000984B93ED247BB0EE470AF0EE670A05F0DB
:1040B00047FE53EC102B10461946FCF74BFF034606
:1040C0009C4214D38E4B012283F8B5218C4B0022E5
:1040D000C3F8A82107F1280207F12003114618466A
:1040E000FFF79AFB03E000BF63E200BF61E200BF9D
:1040F0005FE2814B93F89030022B08D0804B002276
:1041000083F8B3217E4B032283F8B12144E27C4B38
:1041100093F8B331012B7BD177494FF00002774BF5
:10412000C1E9162374494FF000024FF00003C1E9C2
:104130000E2371494FF000024FF00003C1E91C2328
:104140006D494FF000024FF00003C1E91E236A4998
:104150004FF00002694BC1E9142367494FF0000298
:104160004FF00003C1E9122363494FF000024FF002
:104170000003C1E9102360494FF000025F4BC1E921
:104180000C235D494FF000024FF00003C1E91823F2
:104190005B4BD3F8A841D7E904015A4BD3E9082374
:1041A000FCF786FA02460B4643EC172BB0EE470AA3
:1041B000F0EE670A05F0C4FD53EC102B10461946CB
:1041C000FCF7C8FE03469C42C0F0E6814C4B02223D
:1041D00083F8B3214A4B0022C3F8A82146494FF087
:1041E00000024FF00003C1E90C2343494FF00002E5
:1041F000424BC1E9102340494FF000024FF0000349
:10420000C1E91423D7E908233B49C1E91A23C3E1D3
:1042100039494FF000024FF00003C1E90C23364941
:104220004FF00002354BC1E9162333494FF000022D
:10423000324BC1E9102330494FF000024FF0000328
:10424000C1E914232C494FF000024FF00003C1E9EB
:104250001C2329494FF000024FF00003C1E91E233F
:1042600025494FF000024FF00003C1E91223224913
:104270004FF000024FF00003C1E90E231E494FF03A
:1042800000024FF00003C1E918231D4BD3F8A841E9
:104290001C4B93ED087BB0EE470AF0EE670A05F081
:1042A0004FFD53EC102B10461946FCF753FE034606
:1042B0009C42C0F07181124B012283F8B321104B54
:1042C0000022C3F8A82107F120031846FFF74AFB94
:1042D00062E1094B93F89030013B032B00F25E81C1
:1042E00001A252F823F000BF3343000057430000FF
:1042F0007B43000009430000F81200200000F03F5B
:104300009013002040040020A54B012283F8B12126
:10431000A34B012283F8B521A14B0022C3F8A821A9
:1043200007F1280207F1200311461846FFF774FA37
:1043300038E09B4B042283F8B121994B012283F88A
:10434000B221974B0022C3F8A82107F118031846A1
:10435000FFF758FB26E0924B022283F8B121904BE5
:10436000012283F8B3218E4B0022C3F8A82107F164
:1043700020031846FFF7F6FA14E0894B052283F86C
:10438000B121874B012283F8B421854B0022C3F869
:10439000A82107F1300207F1180311461846FEF76D
:1043A000F5FF00BFFAE07F4B93F89030012B08D067
:1043B0007B4B002283F8B221794B032283F8B12191
:1043C000F6E0774B93F8B231012B7BD175494FF072
:1043D0000002754BC1E9162372494FF000024FF0FD
:1043E0000003C1E90E236F494FF000024FF00003B4
:1043F000C1E91C236B494FF000024FF00003C1E9F3
:104400001E2368494FF000024FF00003C1E9142356
:1044100064494FF00002644BC1E9122361494FF037
:1044200000024FF00003C1E910235E494FF0000283
:104430005D4BC1E90C235B494FF000024FF00003D4
:10444000C1E91823564BD3F8A841D7E90401574BCB
:10445000D3E90623FCF72CF902460B4643EC172B55
:10446000B0EE470AF0EE670A05F06AFC53EC102B39
:1044700010461946FCF76EFD03469C42C0F098803A
:10448000474B022283F8B221454B0022C3F8A821F2
:1044900044494FF000024FF00003C1E90C234149A9
:1044A0004FF000024FF00003C1E912233D494FF0E5
:1044B00000023D4BC1E90E23D7E906233949C1E982
:1044C0001A2375E037494FF000024FF00003C1E9AD
:1044D0000C2334494FF00002334BC1E91623314914
:1044E0004FF000024FF00003C1E910232D494FF0B7
:1044F00000024FF00003C1E914232A494FF00002E3
:104500004FF00003C1E91C2326494FF000024FF091
:104510000003C1E91E2323494FF000024FF00003BE
:10452000C1E912231F494FF000021F4BC1E90E23BE
:104530001C494FF000024FF00003C1E91823184B4B
:10454000D3F8A841194B93ED067BB0EE470AF0EE85
:10455000670A05F0F5FB53EC102B10461946FCF7E3
:10456000F9FC03469C4223D30D4B012283F8B22170
:104570000B4B0022C3F8A82107F118031846FFF7D8
:1045800041FA15E007F13003FA1C07F1180107F1B1
:104590001000FEF7A1FF0CE000BF0AE000BF08E03A
:1045A00090130020F81200200000F03F400400208B
:1045B00000BFB94BD3F83841B84BD3E90C01012304
:1045C0001D464FF000024FF00003FCF791FC03463C
:1045D000002B01D000231D46EBB219462046FDF703
:1045E000C5FFAD4BD3F81041AC4BD3E90E0101230D
:1045F0001D464FF000024FF00003FCF779FC034624
:10460000002B01D000231D46EBB219462046FDF7D2
:10461000ADFFA14BD3F82441A04BD3E910010123F6
:104620001D464FF000024FF00003FCF761FC03460B
:10463000002B01D000231D46EBB219462046FDF7A2
:1046400095FF954BD3F8FC40944BD3E9120101231D
:104650001D464FF000024FF00003FCF749FC0346F3
:10466000002B01D000231D46EBB219462046FDF772
:104670007DFF894BD3F8E840884BD3E9140101232F
:104680001D464FF000024FF00003FCF731FC0346DB
:10469000002B01D000231D46EBB219462046FDF742
:1046A00065FF7D4BD3F8D4407C4BD3E91601012341
:1046B0001D464FF000024FF00003FCF719FC0346C3
:1046C000002B01D000231D46EBB219462046FDF712
:1046D0004DFF714BD3F8C040704BD3E91801012353
:1046E0001D464FF000024FF00003FCF701FC0346AB
:1046F000002B01D000231D46EBB219462046FDF7E2
:1047000035FF654BD3F89C31644A92ED1A7BB0EECD
:10471000470AF0EE670A1846FEF786F85E4BD3F8B4
:104720004C415E4BD3E91C0101231D464FF00002B2
:104730004FF00003FCF7DCFB0346002B01D0002305
:104740001D46EBB219462046FDF710FF524BD3F839
:104750006041524BD3E91E0101231D464FF0000278
:104760004FF00003FCF7C4FB0346002B01D00023ED
:104770001D46EBB219462046FDF7F8FE464BD3F82E
:104780008831464A92ED207BB0EE470AF0EE670A88
:104790001846FEF749F8404BD3F874313F4A92ED82
:1047A000227BB0EE470AF0EE670A1846FEF73CF8A7
:1047B000394B93F8AC31002B08D1374B012283F8E9
:1047C000AC21354B022283F8AD21B8E0324B93F88F
:1047D000AD31032B00F08080032B00F39680012B7A
:1047E00002D0022B19D090E02C494FF000024FF07C
:1047F0000003C1E9062329494FF00002284BC1E913
:10480000082326494FF000024FF00003C1E90A23B4
:10481000214B022283F8AD2191E0204B93F8903098
:10482000032B20D0032B00F38980012B3AD0022BDD
:1048300040F08480184B012283F8AD2117494FF0D6
:1048400000024FF00003C1E9062314494FF00002B3
:10485000134BC1E9082311494FF000024FF0000348
:10486000C1E90A2337E00C4B042283F8AD210B4940
:104870004FF000024FF00003C1E9062307494FF053
:1048800000024FF00003C1E9082304494FF0000281
:10489000034BC1E90A231EE090130020F812002008
:1048A0000000F03F4C4B032283F8AD214B494FF001
:1048B00000024B4BC1E9062348494FF000024FF07C
:1048C0000003C1E9082345494FF000024FF00003FF
:1048D000C1E90A2300BF31E040494FF00002404BDC
:1048E000C1E906233D494FF000024FF00003C1E942
:1048F00008233A494FF000024FF00003C1E90A23B0
:10490000354B022283F8AD2119E034494FF0000203
:104910004FF00003C1E9062330494FF000024FF089
:104920000003C1E908232D494FF000022C4BC1E9D7
:104930000A23294B022283F8AD2100E000BF264B59
:10494000D3F8AC40254BD3E9060101231D464FF0B7
:1049500000024FF00003FCF7CBFA0346002B01D016
:1049600000231D46EBB219462046FDF7FFFD1A4B0A
:10497000D3F89840194BD3E90A0101231D464FF0A3
:1049800000024FF00003FCF7B3FA0346002B01D0FE
:1049900000231D46EBB219462046FDF7E7FD0E4BFE
:1049A000D3F884400D4BD3E9080101231D464FF095
:1049B00000024FF00003FCF79BFA0346002B01D0E6
:1049C00000231D46EBB219462046FDF7CFFD00BF80
:1049D0004437BD46F0BD00BF90130020F812002000
:1049E0000000F03F0000000080B584B000AF00F090
:1049F000B3FCBB4B00225A64B94B002283F8402021
:104A0000B84BD3E90423B649C1E91623B648FFF7EA
:104A100049F8B34B012283F82020B14B00225A629F
:104A2000AF494FF00002B14BC1E90E23AC4B00225D
:104A300083F82020AB4BD3E90023A949C1E90E2319
:104A4000AB4BFB60A64B002283F82820A44B01222D
:104A50005A6200210020FDF7E1FC0246FB681A6162
:104A60009F4B012283F828209D4B01221A709C4BFA
:104A700000225A609A494FF000029C4BC1E906237C
:104A8000974B00221A70974BD3E902239449C1E94E
:104A90000623934BFB60924B00221A72904B01222B
:104AA0005A6000210120FDF7B9FC0246FB681A613B
:104AB0008B4B01221A728A4B012283F82821884BE2
:104AC0000022C3F82C21864B002283F82821894B31
:104AD000BB60834B002283F83021814B0122C3F855
:104AE0002C2101210220FDF799FC0246BB681A61C6
:104AF0007B4B012283F83021794B012283F800217E
:104B0000774B0022C3F80421754B002283F8002163
:104B1000794BBB60724B002283F80821704B012255
:104B2000C3F8042101210920FDF778FC0246BB6887
:104B30001A616B4B012283F80821694B012283F82B
:104B40001421674B0022C3F81821654B002283F81B
:104B500014216A4BBB60624B002283F81C21604B1E
:104B60000122C3F8182101210820FDF757FC024655
:104B7000BB681A615A4B012283F81C21584B012251
:104B800083F8EC20564B0022C3F8F020544B00224F
:104B900083F8EC205A4BBB60514B002283F8F42081
:104BA0004F4B0122C3F8F02001210C20FDF736FC09
:104BB0000246BB681A614A4B012283F8F420484B35
:104BC000012283F8D820464B0022C3F8DC20444B56
:104BD000002283F8D8204B4BBB60414B002283F866
:104BE000E0203F4B0122C3F8DC2001210B20FDF720
:104BF00015FC0246BB681A61394B012283F8E0209C
:104C0000374B012283F8C420354B0022C3F8C8205B
:104C1000334B002283F8C4203B4BBB60304B002257
:104C200083F8CC202E4B0122C3F8C82001210A2092
:104C3000FDF7F4FB0246BB681A61294B012283F899
:104C4000CC20274B012283F8B020254B0022C3F84B
:104C5000B420234B002283F8B0202C4BBB60204BA8
:104C6000002283F8B8201E4B0122C3F8B420012192
:104C70000D20FDF7D3FB0246BB681A61184B0122D9
:104C800083F8B820164B012283F88C21144B0022A4
:104C9000C3F89021124B002283F88C211C4B7B60BF
:104CA0000F4B002283F894210D4B0122C3F8902171
:104CB0009FED071B9FED080B0520FDF7F9FC024651
:104CC0007B681A61064BD3F89C3123E0AFF3008078
:104CD00000000000000000000000000000409F40B5
:104CE0009013002040040020D01300200000F0BFEB
:104CF000B0130020B814002090140020A414002049
:104D00007C1400206814002054140020401400205B
:104D10001C1500201846FDF77DFD834B012283F80A
:104D20009421814B012283F83C217F4B0022C3F860
:104D300040217D4B002283F83C217C4BBB607A4BA9
:104D4000002283F84421784B0122C3F8402101213D
:104D50000420FDF763FB0246BB681A61724B012217
:104D600083F84421704B012283F850216E4B0022BE
:104D7000C3F854216C4B002283F850216C4BBB606C
:104D8000694B002283F85821674B0122C3F8542154
:104D900001210720FDF742FB0246BB681A61624B06
:104DA000012283F85821604B012283F878215E4B61
:104DB0000022C3F87C215C4B002283F878215D4BF4
:104DC0007B60594B002283F88021574B0122C3F8A6
:104DD0007C219FED511B9FED520B0320FDF768FCDA
:104DE00002467B681A61504BD3F888311846FDF7AC
:104DF00011FD4D4B012283F880214B4B012283F89A
:104E00006421494B0022C3F86821474B002283F8F4
:104E10006421494B7B60444B002283F86C21424B58
:104E20000122C3F868219FED3C1B9FED3D0B06203E
:104E3000FDF73EFC02467B681A613B4BD3F87431A8
:104E40001846FDF7E7FC384B012283F86C21364BFE
:104E5000012283F89C20344B0022C3F8A020324B5F
:104E6000002283F89C20354BBB602F4B002283F837
:104E7000A4202D4B0122C3F8A02001212B20FDF7F7
:104E8000CDFA0246BB681A61274B012283F8A420A1
:104E9000254B012283F88820234B0022C3F88C2065
:104EA000214B002283F88820254BBB601E4B00223B
:104EB00083F890201C4B0122C3F88C2001212C2068
:104EC000FDF7ACFA0246BB681A61174B012283F862
:104ED0009020154B012283F87420134B00229A670F
:104EE000114B002283F87420164BBB600E4B00223E
:104EF00083F87C200C4B01229A6701212A20FDF7C0
:104F00008DFA0246BB681A61074B012283F87C20A8
:104F100000BF1037BD4680BD00000000000000004B
:104F20000000000000409F4090130020CC1400209F
:104F3000E014002008150020F41400202C14002098
:104F4000181400200414002080B500AFBD4B93F866
:104F50004030002B11D1BB4B012283F84020B94BCC
:104F60005B6C012B09D1B74B93F84830002B04D070
:104F7000B44B1B6D1846FEF78FF800F029FAB14BC1
:104F800093F82030002B11D1AE4B012283F8202062
:104F9000AC4B5B6A012B09D1AA4B93F82830002B4C
:104FA00004D0A84B1B6B1846FDF71FFBA54B1B78C5
:104FB000002B0FD1A34B01221A70A24B5B68012B6F
:104FC00008D1A04B1B7A002B04D09E4B1B691846BE
:104FD000FDF70BFB9B4B93F82831002B13D1994B1A
:104FE000012283F82821974BD3F82C31012B0AD1C9
:104FF000944B93F83031002B05D0924BD3F83831D5
:105000001846FDF7F2FA8F4B93F80031002B13D1BD
:105010008C4B012283F800218A4BD3F80431012BF9
:105020000AD1884B93F80831002B05D0854BD3F873
:1050300010311846FDF7D9FA824B93F81431002B42
:1050400013D1804B012283F814217E4BD3F8183101
:10505000012B0AD17B4B93F81C31002B05D0794BE7
:10506000D3F824311846FDF7C0FA764B93F8EC30AC
:10507000002B13D1734B012283F8EC20714BD3F832
:10508000F030012B0AD16F4B93F8F430002B05D090
:105090006C4BD3F8FC301846FDF7A7FA694B93F830
:1050A000D830002B13D1674B012283F8D820654BF1
:1050B000D3F8DC30012B0AD1624B93F8E030002B9F
:1050C00005D0604BD3F8E8301846FDF78EFA5D4BFB
:1050D00093F8C430002B13D15A4B012283F8C4201B
:1050E000584BD3F8C830012B0AD1564B93F8CC302B
:1050F000002B05D0534BD3F8D4301846FDF775FA82
:10510000504B93F8B030002B13D14E4B012283F853
:10511000B0204C4BD3F8B430012B0AD1494B93F853
:10512000B830002B05D0474BD3F8C0301846FDF7F8
:105130005CFA444B93F88C31002B19D1414B01227E
:1051400083F88C213F4BD3F89031012B10D13D4B8C
:1051500093F89431002B0BD03A4BD3F89C3118467E
:10516000FDF7A0FB374BD3F89C311846FDF7B0FB99
:10517000344B93F83C31002B13D1324B012283F88E
:105180003C21304BD3F84031012B0AD12D4B93F801
:105190004431002B05D02B4BD3F84C311846FDF78A
:1051A00024FA284B93F85031002B13D1254B0122C0
:1051B00083F85021234BD3F85431012B0AD1214BD2
:1051C00093F85831002B05D01E4BD3F860311846A8
:1051D000FDF70BFA1B4B93F87831002B19D1194BC3
:1051E000012283F87821174BD3F87C31012B10D1A1
:1051F000144B93F88031002B0BD0124BD3F888312D
:105200001846FDF74FFB0F4BD3F888311846FDF7D2
:105210005FFB0C4B93F86431002B1DD1094B01222D
:1052200083F86421074BD3F86831012B14D1054B67
:1052300093F86C31002B0FD0024BD3F87431184621
:1052400002E000BF90130020FDF72CFB284BD3F8A1
:1052500074311846FDF73CFB254B93F89C30002B2E
:1052600013D1234B012283F89C20214BD3F8A0308B
:10527000012B0AD11E4B93F8A430002B05D01C4BF8
:10528000D3F8AC301846FDF7B0F9194B93F88830D5
:10529000002B13D1164B012283F88820144BD3F82E
:1052A0008C30012B0AD1124B93F89030002B05D093
:1052B0000F4BD3F898301846FDF797F90C4B93F83D
:1052C0007430002B12D10A4B012283F87420084B52
:1052D0009B6F012B0AD1064B93F87C30002B05D035
:1052E000034BD3F884301846FDF77FF900BF80BD2B
:1052F0009013002080B586B000AF78607B680022F4
:105300001A727B6801225A604FF0FF337B610023E1
:10531000FB6007F10C000A237A690021FDF732FBDC
:1053200002467B681A617B681B694FF4E1311846BD
:10533000FDF700FE0123FB740023BB747B68186932
:10534000FB7CBA7C0821FDF701FE7B6801221A7202
:1053500000BF1837BD4680BD80B500AF054B0022A9
:105360005A66044B002283F860200348FFF7C2FF0F
:1053700000BF80BD90130020F013002080B582B0E4
:1053800000AF114B93F890303B700F4B93F8913076
:105390007B700123FB710EE039463B1D022218464B
:1053A000FCF7C6FE094B1B6F391D02221846FDF79C
:1053B00033FE0346FB71FB79002BEDD100BF00BF2C
:1053C0000837BD4680BD00BFF812002090130020B2
:1053D00080B500AF0C4B93F86030002B11D10A4B15
:1053E000012283F86020084B5B6E012B09D1064B2C
:1053F00093F86830002B04D0034B1B6F1846FDF761
:105400004BFE00BF80BD00BF9013002080B489B068
:1054100000AF294BFB60294A294B9A4216D0002342
:10542000FB610AE0264AFB6952F823202349FB6905
:1054300041F82320FB690133FB61FB689B08FA6993
:105440009A42EFD31F4B1D4A9A6002E01D4B1C4A43
:105450009A601D4BBB611D4B7B611D4BBB60BA68E5
:105460007B69D31AFB6107E07A69531C7B61BB69D6
:10547000591CB96112781A70FB695A1EFA61002B27
:10548000F2D1144B3B61144B7B607A683B69D31AB1
:10549000FB6104E03B695A1C3A6100221A70FB6907
:1054A0005A1EFA61002BF5D100BF00BF2437BD465C
:1054B0005DF8047B704700BF0000000000000000A2
:1054C0000000000000ED00E000000020E4DF00002C
:1054D0008CEE0000A80E0020B045002080B400AF84
:1054E0006B4BD3F888306A4A43F47003C2F88830B3
:1054F000684B4CF22052DA81664B4DF62812DA8165
:10550000644B4FF4E9721A80634B1B78DBB203F0F3
:105510000103002B0FD0614B9B78DBB203F0080333
:10552000002B2ED05D4B9B78DBB25C4A43F0080326
:10553000DBB2937025E05A4B03F581531C331B6893
:10554000574943F0005201F581531C331A60554B03
:105550001B6903F48073002B13D1524B1B6923F496
:105560007C53504A43F4407313614E4B1B694D4AC0
:1055700043F4807313614B4B1B694A4A23F4007355
:105580001361494B2A221A70454B03F582530433A9
:105590004FF08A721A60424B1B6823F44023404A42
:1055A00043F4002313603E4B03F5805304331B6820
:1055B00023F440333A4943F4803201F580530433F5
:1055C0001A60374B03F5815318331B68344943F491
:1055D000007201F5815318331A60344B9B6C334AC7
:1055E00023F0807323F4E0639364314B00221A723A
:1055F0002F4B5B78DBB223F06003DBB22C4A43F025
:105600002003DBB253702B4B80221A70284B0022F0
:105610001A73274BBA221A7000BF254B9B79DBB255
:1056200003F01003002BF8D1214BDB78DBB2204ACA
:1056300003F01F03DBB2D3701D4B13221A711C4BF6
:1056400018225A711A4B5B79DBB2194A43F04003B6
:10565000DBB2537100BF164B9B79DBB203F0400302
:10566000002BF8D0124B1B78DBB2114A03F03F033A
:10567000DBB2137000BF0E4B9B79DBB203F00C035F
:105680000C2BF8D100BF00BFBD465DF8047B70470E
:1056900000ED00E00020054000F0074000D007408A
:1056A0000070044000D0034000E007400090044038
:1056B000004006400050064080B483B000AF9C4BD1
:1056C0001B78DBB203F0C003002B40F0DE80984B68
:1056D0005B79DBB203F04003002B40F0B980944BC0
:1056E0001B78DBB203F00403002B4ED1904B1B7BE5
:1056F000DBB203F00303002B02D0012B03D006E042
:105700008C4B7B6006E04FF400437B6002E08A4BE9
:105710007B6000BF864B5B78DBB203F03003002B6D
:1057200023D0834B1B7BDBB203F00303012B1CD084
:105730007F4B1B78DBB203F03803302B05D0382BBE
:1057400007D14FF4C0637B800EE04FF4A0637B80F1
:105750000AE0774B1B78DBB2DB0803F0070320225B
:1057600002FA03F37B8000BF09E0714B1B78DBB2C8
:10577000DB0803F00703012202FA03F37B807B8836
:105780007A68B2FBF3F37B6002E04FF400437B6086
:10579000674BDB78DBB203F0E003E02B51D0E02B6A
:1057A00000F2B080C02B45D0C02B00F2AB80A02B04
:1057B00039D0A02B00F2A680802B2DD0802B00F2B8
:1057C000A180602B21D0602B00F29C80402B15D053
:1057D000402B00F29780002B02D0202B07D091E0C5
:1057E0007A6813469B001344DB017B608BE07A6888
:1057F00013469B0013441B027B6084E07A681346C7
:105800001B019B1ADB017B607DE07A6813469B00DD
:1058100013445B027B6076E07B684FF4377202FBD7
:1058200003F37B606FE07B684FF4B76202FB03F326
:105830007B6068E07B6840F6950202FB03F37B60C7
:1058400061E07B6840F6713202FB03F37B605AE053
:10585000374B1B79DBB29BB203F01F039BB20133C2
:105860007B807B88334AB2FBF3F37B60304B5B7900
:10587000DBB29BB203F01F039BB218337B807A88A4
:105880007B6802FB03F37B603DE0294B1B78DBB2B6
:1058900003F0C003402B1AD1254B5B78DBB203F039
:1058A0000103002B03D14FF400437B602BE0204B1E
:1058B0001B7ADBB25B0803F00703012202FA03F351
:1058C0007B807B881D4AB2FBF3F37B601BE0184BA7
:1058D0001B78DBB203F0C003802B23D1144B1B7B5E
:1058E000DBB203F00303002B02D0012B03D006E050
:1058F000104B7B6007E04FF400437B6003E00E4BEE
:105900007B6000E000BF0E4B03F5825304331B683D
:105910001B0F03F00F0301337A68B2FBF3F3094A5C
:10592000136000E000BF0C37BD465DF8047B704794
:105930000040064080F0FA02006CDC0200093D00E5
:1059400000700440F004002080B584B000AFF8601F
:10595000B9601346FB71BB681F2B05D90D4B0E4A6E
:10596000FF210E4804F074FAFB68BA6853F822303D
:1059700023F0807323F4E063FA79120202F4E06208
:1059800043EA0201FB68BA6843F8221000BF1037EF
:10599000BD4680BD70CB0000B0CC00007CCB0000C9
:1059A00080B483B000AF78600B46FB707B68FA78F8
:1059B0001A7000BF0C37BD465DF8047B70470000CD
:1059C00080B584B000AF3B4600221A605A609A60EE
:1059D000DA60064B3B6002237B723B46194600208F
:1059E00002F00CFA00BF1037BD4680BD80F0FA020D
:1059F00080B584B000AF074A3B1D07CA83E80700A3
:105A00003B1D1946002002F045FA00BF1037BD4685
:105A100080BD00BFB4CB000080B500AF2A2108488C
:105A2000FFF7BEFF002212210648FFF78DFFFFF7A8
:105A3000C7FFFFF7DDFF044802F082FA00BF80BD18
:105A400000E007400090044098CC000080B582B090
:105A500000AF02F00FF90023FB7106E0FB79184656
:105A600002F0F2FAFB790133FB71FB79042BF5D9D3
:105A7000FFF7D2FF00BF0837BD4680BD80B584B0B8
:105A800000AFF860B9601346FB71BB681F2B05D9E6
:105A90000D4B0E4AFF210E4804F0DAF9FB68BA6894
:105AA00053F8223023F0807323F4E063FA79120272
:105AB00002F4E06243EA0201FB68BA6843F822108C
:105AC00000BF1037BD4680BDC0CB0000C4CC000075
:105AD000CCCB000080B483B000AF78600B46FB7085
:105AE0007B6803F581530833FA785209D2B29200E9
:105AF000134403F1424303F58013DA00FB7803F00B
:105B00001F0313449B001A460123136000BF0C3788
:105B1000BD465DF8047B704780B584B000AF786007
:105B200089215D48FFF7D6FF8A215B48FFF7D2FF46
:105B30008B215948FFF7CEFF8C215748FFF7CAFF4A
:105B40008D215548FFF7C6FF7B68032B00F2968036
:105B500001A252F823F000BF695B0000DB5B00008C
:105B6000055C00002F5C00000023FB600023BB608D
:105B7000FB68002B05D1032211214848FFF77EFF67
:105B800010E0FB68012B05D1032202214448FFF7F6
:105B900075FF07E0FB68022B04D10322072141486F
:105BA000FFF76CFFBB68002B05D1032210213B4897
:105BB000FFF764FF64E0BB68012B05D103220121DC
:105BC0003748FFF75BFF5BE0BB68022B58D103222D
:105BD00006213448FFF752FF52E00023FB60002308
:105BE000BB60FB68002B04D1032204212E48FFF781
:105BF00045FFBB68002B45D1032203212A48FFF74C
:105C00003DFF3FE00023FB600023BB60FB68002BEF
:105C100004D1032203212348FFF730FFBB68002B88
:105C200032D1032202211F48FFF728FF2CE0002376
:105C3000FB600023BB60FB68002B05D10322112110
:105C40001948FFF71BFF07E0FB68012B04D1032273
:105C50000B211248FFF712FFBB68002B05D103226E
:105C600010211148FFF70AFF10E0BB68012B0DD18E
:105C700003220A210948FFF701FF07E000BF06E001
:105C800000BF04E000BF02E000BF00E000BF00BFB3
:105C90001037BD4680BD00BF0070044000A0044026
:105CA0000090044000C0044000B0044080B500AF44
:105CB000002002F07DFC00BF80BD80B500AF012058
:105CC00002F076FC00BF80BD80B500AF022002F07C
:105CD0006FFC00BF80BD80B500AF032002F068FC00
:105CE00000BF80BD80B500AF042002F061FC00BFA2
:105CF00080BD80B500AF052002F05AFC00BF80BD1A
:105D000080B500AF062002F053FC00BF80BD80B517
:105D100000AF072002F04CFC00BF80BD80B500AF93
:105D2000082002F045FC00BF80BD80B500AF09200F
