:1000000000000020FD040000434E0000494E0000A7
:100010004F4E0000554E00005B4E000000000000F7
:100020000000000000000000000000006D0500005E
:10003000614E00000000000013060000730600007F
:10004000014D00000F4D00001D4D00002B4D000024
:10005000394D0000474D0000554D0000634D000034
:10006000714D00007F4D00008D4D00009B4D000044
:10007000A94D0000B74D0000C54D0000D34D000054
:10008000E14D0000674E00006D4E0000734E000011
:10009000794E00007F4E0000854E00008B4E000020
:1000A000914E0000974E00009D4E0000A34E0000B0
:1000B000A94E0000AF4E0000B54E0000EF4D00000D
:1000C000BB4E0000FD4D0000C14E00000B4E000075
:1000D000C74E0000194E0000CD4E0000D34E000068
:1000E000D94E0000DF4E0000E54E0000EB4E000050
:1000F000F14E0000F74E0000FD4E0000034F0000DF
:100100000D0500000D0500000D0500000D050000A7
:10011000094F00000F4F0000154F00001B4F00005B
:10012000214F0000274F00002D4F0000334F0000EB
:10013000394F00003F4F0000454F00004B4F00007B
:10014000514F0000574F0000274E00005D4F000048
:10015000354E0000634F0000694F00006F4F0000F4
:10016000754F00007B4F0000814F0000874F00005B
:100170008D4F0000934F0000994F00009F4F0000EB
:10018000A54F00000D0500000D0500000D05000045
:100190000D0500000D0500000D0500000D05000017
:1001A0000D0500000D0500000D0500000D05000007
:1001B0000D0500000D0500000D0500000D050000F7
:1001C0000D0500000D0500000D0500000D050000E7
:1003F0000D0500000D0500000D050000FFFFFFFFCB
:10040000FFFFFFFFFFFFFFFFFFFFFFFFFEFFFFFFFD
:1004400010B5054C237833B9044B13B10448AFF30E
:1004500000800123237010BD700E002000000000FA
:1004600048BC000008B5034B1BB103490348AFF378
:10047000008008BD00000000740E002048BC000091
:10048000A3F5803A704700BF174B002B08BF134BF2
:100490009D46FFF7F5FF00218B460F461348144A8F
:1004A000121A08F00FFB0E4B002B00D098470D4B93
:1004B000002B00D098470020002104000D000D48BB
:1004C000002802D00C4807F0D9FF08F01DF82000E2
:1004D000290002F05FFA07F0DDFF00BF000008000E
:1004E000000000002D51000000000020700E0020D0
:1004F000184100207D840000B584000072B604F02D
:100500002FF904F0C5F862B6FFF7BEFFFFF7FEBF94
:1005100080F309887047EFF309807047684680F3DD
:1005200009885A480078C00714BF0220032080F3CE
:1005300014887047DFF858C1EFF305831B0618BF16
:100540006047EFF31483DB0708BF604700DF7047A5
:10055000DFF840C1EFF305831B0618BF6047EFF3D8
:100560001483DB0708BF604700DF7047EFF30980A3
:10057000816911F8021CE1BB90E80F1010B5E0474B
:10058000BDE81040EFF3098C8CE80700424B93E87C
:100590000600914208BF704741B91EF0100F16D1F6
:1005A0003E49086820F00100086010E01EF0100FBE
:1005B00006BF2CED108A0120002081F825002CE9CF
:1005C000F00FC1F828C00CB406F038F80CBC1A6063
:1005D000D2F828C0BCE8F00F92F8250000280EBF22
:1005E0006FF0020E6FF0120EBCEC108A8CF30988CB
:1005F000704710B52A4A1268914209D8294C54F81C
:10060000214090E80F10A047EFF3098C8CE80F0011
:1006100010BD10B505F084FFBDE810401E4B93E8F7
:100620000600914208BF7047EFF3098C1EF0100FCF
:1006300006BF2CED108A0120002081F825002CE94E
:10064000F00FC1F828C00CB405F0F8FF0CBC1A601C
:10065000D2F828C0BCE8F00F92F8250000280EBFA1
:100660006FF0020E6FF0120EBCEC108A8CF309884A
:10067000704710B505F0C4FFFFF7CEBF10B505F009
:10068000BDFF05F0BDFFFFF7C7BF000014B10000BC
:10069000AD5E0000C95E0000B440002034EF00E011
:1006A00000000000FCFFFFFF81F0004102E000BFFE
:1006B00083F0004330B54FEA41044FEA430594EA22
:1006C000050F08BF90EA020F1FBF54EA000C55EA5D
:1006D000020C7FEA645C7FEA655C00F0E2804FEA2E
:1006E0005454D4EB5555B8BF6D420CDD2C4480EA10
:1006F000020281EA030382EA000083EA010180EA40
:10070000020281EA0303362D88BF30BD11F0004F8D
:100710004FEA01314FF4801C4CEA113102D04042C3
:1007200061EB410113F0004F4FEA03334CEA1333FE
:1007300002D0524263EB430394EA050F00F0A78016
:10074000A4F10104D5F1200E0DDB02FA0EFC22FA11
:1007500005F2801841F1000103FA0EF2801843FA05
:1007600005F359410EE0A5F120050EF1200E012AF6
:1007700003FA0EFC28BF4CF0020C43FA05F3C01834
:1007800051EBE37101F0004507D54FF0000EDCF1AD
:10079000000C7EEB00006EEB0101B1F5801F1BD356
:1007A000B1F5001F0CD349085FEA30004FEA3C0C5A
:1007B00004F101044FEA445212F5800F80F09A8050
:1007C000BCF1004F08BF5FEA500C50F1000041EB54
:1007D000045141EA050130BD5FEA4C0C404141EB58
:1007E0000101013C28BFB1F5801FE9D291F0000F53
:1007F00004BF01460020B1FA81F308BF2033A3F102
:100800000B03B3F120020CDA0C3208DD02F1140CF8
:10081000C2F10C0201FA0CF021FA02F10CE002F133
:100820001402D8BFC2F1200C01FA02F120FA0CFC2C
:10083000DCBF41EA0C019040E41AA2BF01EB045175
:10084000294330BD6FEA04041F3C1CDA0C340EDC73
:1008500004F11404C4F1200220FA04F001FA02F3B6
:1008600040EA030021FA04F345EA030130BDC4F174
:100870000C04C4F1200220FA02F001FA04F340EA69
:100880000300294630BD21FA04F0294630BD94F01A
:10089000000F83F4801306BF81F480110134013D01
:1008A0004EE77FEA645C18BF7FEA655C29D094EA72
:1008B000050F08BF90EA020F05D054EA000C04BFF0
:1008C0001946104630BD91EA030F1EBF00210020DB
:1008D00030BD5FEA545C05D14000494128BF41F07A
:1008E000004130BD14F580043CBF01F5801130BDDE
:1008F00001F0004545F0FE4141F470014FF0000069
:1009000030BD7FEA645C1ABF194610467FEA655C19
:100910001CBF0B46024650EA013406BF52EA0335BB
:1009200091EA030F41F4002130BD00BF90F0000FA9
:1009300004BF0021704730B54FF4806404F13204E5
:100940004FF000054FF0000150E700BF90F0000F9E
:1009500004BF0021704730B54FF4806404F13204C5
:1009600010F0004548BF40424FF000013EE700BF95
:1009700042004FEAE2014FEA31014FEA02701FBF25
:1009800012F07F4393F07F4F81F06051704732F057
:100990007F4208BF704793F07F4F04BF41F40021AE
:1009A000704730B54FF4607401F0004521F000410C
:1009B0001CE700BF50EA010208BF704730B54FF096
:1009C00000050AE050EA010208BF704730B511F097
:1009D000004502D5404261EB41014FF4806404F1CF
:1009E00032045FEA915C3FF4D8AE4FF003025FEA55
:1009F000DC0C18BF03325FEADC0C18BF033202EBD9
:100A0000DC02C2F1200300FA03FC20FA02F001FA32
:100A100003FE40EA0E0021FA02F11444BDE600BFD5
:100A200070B54FF0FF0C4CF4E06C1CEA11541DBF84
:100A30001CEA135594EA0C0F95EA0C0F00F0DEF84F
:100A40002C4481EA030621EA4C5123EA4C5350EA34
:100A5000013518BF52EA033541F4801143F4801385
:100A600038D0A0FB02CE4FF00005E1FB02E506F016
:100A70000042E0FB03E54FF00006E1FB03569CF06B
:100A8000000F18BF4EF0010EA4F1FF04B6F5007F71
:100A900064F5407404D25FEA4E0E6D4146EB0606E3
:100AA00042EAC62141EA55514FEAC52040EA5E506C
:100AB0004FEACE2EB4F1FD0C88BFBCF5E06F1ED816
:100AC000BEF1004F08BF5FEA500E50F1000041EB4D
:100AD000045170BD06F0004646EA010140EA0200FA
:100AE00081EA0301B4EB5C04C2BFD4EB0C0541EA1C
:100AF000045170BD41F480114FF0000E013C00F331
:100B0000AB8014F1360FDEBF002001F0004170BD54
:100B1000C4F10004203C35DA0C341BDC04F114046D
:100B2000C4F1200500FA05F320FA04F001FA05F2F9
:100B300040EA020001F0004221F0004110EBD370C6
:100B400021FA04F642EB06015EEA430E08BF20EAF2
:100B5000D37070BDC4F10C04C4F1200500FA04F395
:100B600020FA05F001FA04F240EA020001F0004127
:100B700010EBD37041F100015EEA430E08BF20EA9A
:100B8000D37070BDC4F1200500FA05F24EEA020EE2
:100B900020FA04F301FA05F243EA020321FA04F011
:100BA00001F0004121FA04F220EA020000EBD370C8
:100BB0005EEA430E08BF20EAD37070BD94F0000FC8
:100BC0000FD101F00046400041EB010111F4801FFC
:100BD00008BF013CF7D041EA060195F0000F18BFAD
:100BE000704703F00046520043EB030313F4801FE9
:100BF00008BF013DF7D043EA0603704794EA0C0FA3
:100C00000CEA135518BF95EA0C0F0CD050EA4106B8
:100C100018BF52EA4306D1D181EA030101F0004135
:100C20004FF0000070BD50EA410606BF104619465D
:100C300052EA430619D094EA0C0F02D150EA013669
:100C400013D195EA0C0F05D152EA03361CBF1046AA
:100C500019460AD181EA030101F0004141F0FE4149
:100C600041F470014FF0000070BD41F0FE4141F4CD
:100C7000780170BD70B54FF0FF0C4CF4E06C1CEACD
:100C800011541DBF1CEA135594EA0C0F95EA0C0F82
:100C900000F0A7F8A4EB050481EA030E52EA03353D
:100CA0004FEA013100F088804FEA03334FF080555E
:100CB00045EA131343EA12634FEA022245EA11158B
:100CC00045EA10654FEA00260EF000419D4208BF3C
:100CD000964244F1FD0404F5407402D25B084FEAE9
:100CE0003202B61A65EB03055B084FEA32024FF495
:100CF00080104FF4002CB6EB020E75EB030E22BFF2
:100D0000B61A754640EA0C005B084FEA3202B6EBB1
:100D1000020E75EB030E22BFB61A754640EA5C0060
:100D20005B084FEA3202B6EB020E75EB030E22BFF0
:100D3000B61A754640EA9C005B084FEA3202B6EBF1
:100D4000020E75EB030E22BFB61A754640EADC00B0
:100D500055EA060E18D04FEA051545EA16754FEA12
:100D600006164FEAC30343EA52734FEAC2025FEA30
:100D70001C1CC0D111F4801F0BD141EA00014FF0BF
:100D800000004FF0004CB6E711F4801F04BF014390
:100D90000020B4F1FD0C88BFBCF5E06F3FF6AFAEAC
:100DA000B5EB030C04BFB6EB020C5FEA500C50F13C
:100DB000000041EB045170BD0EF0004E4EEA1131BF
:100DC00014EB5C04C2BFD4EB0C0541EA045170BDC6
:100DD00041F480114FF0000E013C90E645EA060E0A
:100DE0008DE60CEA135594EA0C0F08BF95EA0C0F38
:100DF0003FF43BAF94EA0C0F0AD150EA01347FF480
:100E000034AF95EA0C0F7FF425AF104619462CE756
:100E100095EA0C0F06D152EA03353FF4FDAE1046B9
:100E2000194622E750EA410618BF52EA43067FF40A
:100E3000C5AE50EA41047FF40DAF52EA43057FF49A
:100E4000EBAE12E74FF0FF3C06E000BF4FF0010CA5
:100E500002E000BF4FF0010C4DF804CD4FEA410C09
:100E60007FEA6C5C4FEA430C18BF7FEA6C5C1BD0D6
:100E700001B050EA410C0CBF52EA430C91EA030F57
:100E800002BF90EA020F0020704710F1000F91EAB4
:100E9000030F58BF994208BF90422CBFD8176FEA82
:100EA000E37040F0010070474FEA410C7FEA6C5C50
:100EB00002D150EA013C07D14FEA430C7FEA6C5C57
:100EC000D6D152EA033CD3D05DF8040B704700BF83
:100ED0008446104662468C461946634600E000BFD1
:100EE00001B5FFF7B7FF002848BF10F1000F01BDA3
:100EF0004DF808EDFFF7F4FF0CBF012000205DF86E
:100F000008FB00BF4DF808EDFFF7EAFF34BF0120F2
:100F100000205DF808FB00BF4DF808EDFFF7E0FF8B
:100F200094BF012000205DF808FB00BF4DF808EDDC
:100F3000FFF7CEFF94BF012000205DF808FB00BF43
:100F40004DF808EDFFF7C4FF34BF012000205DF825
:100F500008FB00BF4A0011D212F5001211D20DD5C4
:100F60006FF47873B3EB62520ED44FEAC12343F0AF
:100F7000004343EA505323FA02F070474FF0000059
:100F8000704750EA013002D14FF0FF3070474FF008
:100F90000000704753B94AB9002908BF00281CBF98
:100FA0004FF0FF314FF0FF3001F0C0B8ADF1080C49
:100FB0006DE904CE00F006F8DDF804E0DDE9022377
:100FC00004B070472DE9F047089D04468C46002B7D
:100FD00040F083808A42174647D9B2FA82F242B182
:100FE000C2F1200024FA00F09140974040EA010C41
:100FF00094404FEA1748230CBCFBF8F61FFA87FE13
:1010000008FB16C143EA014306FB0EF1994209D9D8
:10101000FB1806F1FF3080F01981994240F21681E9
:10102000023E3B445B1AA4B2B3FBF8F008FB10335A
:1010300044EA034400FB0EFEA64509D93C1900F121
:10104000FF3380F00581A64540F2028102383C441E
:1010500040EA0640A4EB0E0400261DB1D440002354
:10106000C5E900433146BDE8F08702B9FFDEB2FAB8
:1010700082F2002A50D1CB1B4FEA174E1FFA87F895
:101080000126B3FBFEFC210C0EFB1C3341EA03419D
:1010900008FB0CF38B4207D979180CF1FF3002D210
:1010A0008B4200F2E9808446C91AA3B2B1FBFEF07C
:1010B0000EFB101143EA014408FB00F8A04507D9D4
:1010C0003C1900F1FF3302D2A04500F2D980184646
:1010D000A4EB080440EA0C40BFE78B4209D9002D7D
:1010E00000F0B1800026C5E9000130463146BDE878
:1010F000F087B3FA83F6002E4AD18B4202D38242A4
:1011000000F2B880841A61EB030101208C46002DA7
:10111000A8D0C5E9004CA5E7C2F1200320FA03F6E8
:10112000974001FA02F04FEA174ED9403043030CC2
:10113000B1FBFEF61FFA87F80EFB161143EA0143D6
:1011400006FB08F1994204FA02F409D9FB1806F1EA
:10115000FF3C80F08D80994240F28A80023E3B4401
:101160005B1A81B2B3FBFEF00EFB103341EA034180
:1011700000FB08F38B4207D9791800F1FF3C73D2CA
:101180008B4271D902383944CB1A40EA064678E7D7
:10119000C6F1200C03FA06F422FA0CF31C4320FAE1
:1011A0000CF701FA06F34FEA144E21FA0CF11F4333
:1011B0003B0CB1FBFEF91FFA84F80EFB191143EA50
:1011C000014109FB08FA8A4502FA06F200FA06F321
:1011D00008D9611809F1FF3048D28A4546D9A9F1EA
:1011E00002092144A1EB0A01BFB2B1FBFEF00EFBE4
:1011F000101147EA014700FB08F8B84507D9E7197D
:1012000000F1FF312ED2B8452CD90238274440EAEC
:101210000940A7EB0807A0FB02894F45C64649468F
:101220001AD317D05DB1B3EB0E0267EB010707FAD3
:101230000CFCF2404CEA0202F740C5E90027002608
:101240003146BDE8F0872E4628460BE70646E9E61C
:101250001846FDE64345E5D2B8EB020E69EB040102
:101260000138DFE70846D2E760468DE78146B9E7F7
:10127000664675E730464AE7ACF1020C394413E79D
:1012800002383C4424E700BF03685A004CBF43F0D7
:10129000004323F000431844704700BF2DE9F84392
:1012A00029B34F1E044615463E464FF0000808EB92
:1012B000060101EBD171491004EBC1094846FFF763
:1012C000E3FF0346C80008308F42204409D0AB42F8
:1012D00009D8FFF7D9FF0138A8420AD201F1010865
:1012E000E5E7AB4205D9884501D04E1EDFE74FF058
:1012F00000094846BDE8F883012807D0022807D036
:10130000044B00280CBF1846002070470248704765
:1013100002487047BD190000C1190000C51900003E
:1013200030B5234B83B004468D1E3BB301A928463C
:10133000AFF30080E8B101992A46FFF7AFFF0146FD
:10134000B8B1FFF7A1FF4B68A064012B2BD0002B95
:1013500001F1040023DBFFF797FF0023C4E9130327
:101360000368002B10DBFFF78FFF2061002003B024
:1013700030BD00230920236103B030BD0D490E4864
:10138000091AC9100191D7E7C3F30360FFF7B4FF4F
:101390000028206114BF0020092003B030BD0123C4
:1013A000C4E91303DCE7002323610520DFE700BF66
:1013B00000000000ECBF0000D4BD00000368DA07A5
:1013C00010B5044606D49B0700F1480009D500F08B
:1013D0004BFC2368590709D51A070ED5DB0613D530
:1013E00010BD00F039FC23685907F5D404F1D00092
:1013F00000F042FC23681A07F0D404F5A87000F04E
:1014000043FC2368DB06EBD404F5E870BDE810402C
:1014100000F07EBC0346006800B11844704700BF6E
:1014200009207047704700BF70B504460E46316C06
:101430002046FFF775FF054688B9336C6361324675
:1014400023692146012098470828F0D0072806D1B3
:101450002846316CFFF7E6FF301D00F0F1FB06F087
:10146000E7FF00BF2DE9F0470D1D064614460FCDDE
:10147000ADF5727D0DF10C0CACE80F000FCDACE8B2
:101480000F000FCDACE80F0095E80F0002ADF76834
:10149000D6F818808CE80F0000232B6021E02B6C1D
:1014A00073614FF4F07229467AA800F041FE336967
:1014B0007AAA314650469847889BCDE90058214684
:1014C0006B648146334632460120B8470446E8B98A
:1014D0004FF4F0727AA9284600F02AFEB9F1080FFD
:1014E0001BD1296C3046FFF71BFF09345FFA84FAE1
:1014F00081460028D3D0AB6B4AF01001CDE90058EB
:1015000032466B6401203346B84708B14FF00909F1
:1015100048460DF5727DBDE8F087B9F1070FF5D1AA
:101520002046296CFFF77EFF03A800F089FB00BF6F
:10153000406C7047F0B5CB6B0B640E1D0F46054633
:101540000FCEF9B001AC0FC40FCE0FC40FCE0FC435
:1015500096E80F004FF0FF3684E80F00009606E093
:101560002B696A46294698470828044608D11099ED
:101570002846FFF7D5FE0028F2D0092079B0F0BD4B
:101580006846FFF71BFF062CF7D139462846FFF7C0
:101590004BFF00BF30B4DD6BC160826119461D6432
:1015A000002230BC5EE700BF70B5C66843690B64BB
:1015B000AEB903690A4604460D4601460220984723
:1015C000072805D008280FD129462046FFF72CFF11
:1015D0003046296CFFF726FF281D00F031FB012261
:1015E000FFF740FF06F024FF06F022FFC2681AB1A1
:1015F000CA6B0A64002235E79CE700BF704700BF52
:10160000836801460BB1012018477047012912D0A9
:1016100009D873B90F2A0CD800EB82021846536818
:10162000009A136070470339012994BF01200220FA
:101630007047022070470846704700BF10B584B05D
:10164000002303AC0A4600941946FFF7DFFF039816
:1016500004B010BD012912D009D873B90F2A0CD8D3
:1016600000EB8200009A1268426018467047033906
:10167000012994BF012002207047022070470846CC
:10168000704700BF10B584B0002303AC03920094F0
:101690000A461946FFF7DEFF04B010BDF0B5D36B64
:1016A0001364151D8C4606460FCDADF50F7D17ACA6
:1016B0000FC40FCD0FC40FCD0FC495E80F004FF02E
:1016C000FF3784E80F006546169710E0FFF7DAFF52
:1016D000294616A8B047034616AA6946082083B9CA
:1016E000049B9847052804460CD0092809D0269960
:1016F0006846FFF715FE03466A460C2116A8002B24
:10170000E4D0092416A8FFF759FE20460DF50F7DF9
:10171000F0BD00BF2DE9F04FCC6C89B00D4654F8F8
:10172000041B0694174600F003081E46002B79D0D0
:101730000B0CDAB209048DF81D30022304EB82048D
:1017400005918DF81C302B6DB8F1020F08BFAC6B02
:1017500013F001030CD0384605A900F073FB18B94B
:10176000082009B0BDE8F08F092009B0BDE8F08F6E
:10177000D4F800A0BAF1000FEDD0019300F00803F7
:101780000293022E4AD0B4F800A0B4F802900434B8
:10179000AA6C29F0010B0F2138469344FFF74EFF46
:1017A000834539D82AF001025A44824294BF00206E
:1017B00001204FEA490303F002030AF0010A43EA59
:1017C0000A03012B49D0022B32D0002BCCD1B8F127
:1017D000000F02D0002840F0CD800434D4F800A0DF
:1017E000BAF1000FCDD105A9384600F02BFB002837
:1017F000BAD1019B002BB3D00F213846FFF71EFF53
:101800000E2102463846FFF73DFF38466A4A0F214F
:10181000FFF738FF0720A8E70020CAE7D4F80490B4
:101820000834B5E7090203230591ADF81C308AE7B7
:10183000236823F0004BB8F1000F45D128B1029A7C
:10184000002A5CD0BBF1000F74D0002B00DA043406
:101850000BF1010B04EB8B04C0E7B8F1000F19D1B9
:10186000B0B1D4E90023991C4FEAD2723FF47CAFA7
:1018700005F158010133049100F09080201DFFF71D
:10188000C9FD04AB01462846AFF3008000285BD1B8
:101890000834A3E70D213846D5F82090FFF7CEFE97
:1018A0008145F5D1AB6A9C42F2D12046FFF7ECFCB2
:1018B0000F2102463846FFF7E5FE38462A4600214A
:1018C000FFF7E0FE072050E70D213846D5F82090BD
:1018D000FFF7B4FE814501D02368B6E7AB6A9C42AE
:1018E000FAD104220021C5E90B12A318C5F828B0CB
:1018F0006B6323688B4259DB01230193A8E705F151
:101900005803CDF80C8004F1040AB04691461E46F7
:101910000DE00496FFF77EFD04AB01460022284649
:10192000AFF3008009F101090AF1040AE8B9D945C9
:101930005046EED138460D21FFF780FE049B286209
:10194000C5E90934062010E781460D213846FFF726
:1019500075FEB9F1020F286225D12B46049A43F88F
:101960002C2F6B62AC620620FFE646462368DDF84A
:101970000C806AE72046FFF787FC04340246AC631C
:1019800028461446AFF3008000283FF4EDAE3846F9
:1019900022460F21FFF776FE0720E6E638460D21A6
:1019A000FFF74CFE2862049B6B62DBE70BF1010042
:1019B00004EB80007AE700BF000000000023A9E6E6
:1019C0000123A7E60223A5E62DE9F0430646C3B0AE
:1019D00015461C46042900F2B980DFE801F09A534D
:1019E000B7290300002C40F0B180102A00F2AE802D
:1019F0000368D80600F1F38020AF384600F092F972
:101A0000B06B0023012404FA03F22A42014604D0F9
:101A100051F8042B47F8232008460133042BF2D158
:101A2000B063384600F074F9002043B0BDE8F0839D
:101A3000032C40F08B8094B204EB1243102B4FEA3E
:101A4000124500F2838003681F0700F1D08020AFA9
:101A5000384600F03BF907EBC501B56B54B10B46B6
:101A6000E81A01EBC401E4001A5843F8042B8B4236
:101A7000FAD125443846B56300F006F9002043B09A
:101A8000BDE8F083012C4FEA124895B25AD0052CDC
:101A90005CD108EB0509B9F1200F57D8B8F10F0F49
:101AA00077D9A946002D40F08880B36B6DB320AF85
:101AB0004FF0000907EBC807043F03EBC50553F8D7
:101AC000041B47F8041FAB42F9D1B9F1000F0FD046
:101AD0006F464146102938BF102107EBC1018439F8
:101AE00003EBC90553F8040B41F8040FAB42F9D1DD
:101AF000012C00F08480B8F10F0FB56345D9B9F11E
:101B0000000F02D0684600F0B7F8002043B0BDE8EF
:101B1000F083DCB9876B2346012094B206F1040CF4
:101B200000FA03F22242394604D051F8042B4CF853
:101B300023200F460133102BF2D115F40050E4D1CD
:101B4000B76304E008EB0503102B03D9022043B070
:101B5000BDE8F083B8F10F0FF8D83368DA0706D57F
:101B6000304623F0030340F8483B00F079F820AFFB
:101B7000384600F075F8B36B002D99D11D46043539
:101B8000B563384600F068F8BFE720A800F06CF8AD
:101B9000B5E7B9F1100F40D9A9F110093368D90799
:101BA00008D523F00103304643F0020340F8483BD8
:101BB00000F05EF8B9F1000F32D033685A0720D434
:101BC000B8F10F0F25D96F463846C8F1100500F05F
:101BD00057F8002DB36B7FF77CAF20AF6AE723F097
:101BE0001003336006F5E87000F09CF804E723F07A
:101BF0000803036000F5A87000F068F827E720AF3D
:101C0000BDE7304623F0040340F8D03B00F038F83D
:101C1000D6E720A800F02CF8D5E74FF00009BDE783
:101C2000B8F10F0F3FF641AF20AF384600F020F873
:101C3000B36B002D7FF43CAF384600F015F864E735
:101C400000F1340191E838009C46A6464CF8045D4A
:101C500090E8FF0FE54600BD90EC210B704700BFF8
:101C600080EC210B704700BF90EC200B704700BF49
:101C700080EC200B704700BFD0EC200B704700BFFA
:101C8000C0EC200B704700BFF0EC0201F0EC021139
:101C9000F0EC0221F0EC0231F0EC0241F0EC0251E8
:101CA000F0EC0261F0EC0271F0EC0281F0EC0291D8
:101CB000F0EC02A1F0EC02B1F0EC02C1F0EC02D1C8
:101CC000F0EC02E1F0EC02F1704700BFE0EC020141
:101CD000E0EC0211E0EC0221E0EC0231E0EC024128
:101CE000E0EC0251E0EC0261E0EC0271E0EC028118
:101CF000E0EC0291E0EC02A1E0EC02B1E0EC02C108
:101D0000E0EC02D1E0EC02E1E0EC02F1704700BF50
:101D1000B0FC0181B0FC0191B0FC01A1B0FC01B1AB
:101D2000704700BFA0FC0181A0FC0191A0FC01A1B3
:101D3000A0FC01B1704700BFEC4600B52DE9005092
:101D40002DE9FF1F4FF000032DE90C0001A9FFF75B
:101D5000F1FBDDF840E012B0704700BFEC4600B583
:101D60002DE900502DE9FF1F4FF000032DE90C0075
:101D700001A9FFF719FCDDF840E012B0704700BF81
:101D8000EC4600B52DE900502DE9FF1F4FF0000390
:101D90002DE90C0001A9FFF729FCDDF840E012B0A5
:101DA000704700BFEC4600B52DE900502DE9FF1F3C
:101DB0004FF000032DE90C0001ABFFF7EBFBDDF862
:101DC00040E012B0704700BFEC4600B52DE900506E
:101DD0002DE9FF1F4FF000032DE90C0001AAFFF7CA
:101DE0005DFCDDF840E012B0704700BF027A7AB9BE
:101DF000437AA3B14268013B10B4437213680321D4
:101E0000141D01721A024460026010BC180E704763
:101E10000368013A02721A020260180E7047B0207D
:101E2000704700BF00B585B003AA00230092194691
:101E30000C22FFF7EBFB039805B05DF804FB00BF35
:101E4000F0E700BF2DE9F043054685B00E464FF0A0
:101E500000083046FFF7CAFFB028044600F0B28001
:101E6000070620D500F0F003802B4DD0902B36D004
:101E7000A02B60D0B02B74D0C02B00F08B8000F072
:101E8000F803D02B0BD100F00702013242F40022FC
:101E9000052301212846FFF797FD0028D9D0092006
:101EA00005B0BDE8F0830DF10C0900231946870049
:101EB000CDF800900D222846FFF7A8FBFFB2039B48
:101EC000CDF80090043760064CBFDF1BFF180023DD
:101ED00019460D2228460397FFF7BCFBB9E700F02F
:101EE0000D030D2BDBD003AF002300F00F021946CA
:101EF00000972846FFF78AFB0023009719460D221A
:101F00002846FFF7A7FBA4E73046FFF76FFF240240
:101F10002043B0F5004FC2D004010023A2B21946FD
:101F20002846FFF751FD0028B9D114F4004F18BF1F
:101F30004FF001088DE7C24302F007034FF47F62C0
:101F40001A41010702F47F624FF0000348BF42F4D8
:101F5000804219462846FFF737FD00283FF479AF45
:101F60009DE7B12833D0B22800F08B80B32839D058
:101F700000F0FC03B42B92D000F0070201320123E1
:101F800042F4002219462846FFF71EFD00283FF4C0
:101F900060AF84E7C62842D0C7284CD000F0F803D1
:101FA000C02B5BD0C82860D0C9287FF478AF3046FA
:101FB000FFF71CFF020300F00F0002F47022013053
:101FC000024365E7B8F1000F18D0002068E73046FB
:101FD000FFF70CFF024600283FF461AF10F0F0035A
:101FE000D0D05CE73046FFF701FF010300F00F009F
:101FF00001F47021421C01230A43C3E703AC4346AA
:102000000E22414600942846FFF700FB0094284624
:1020100043460F224146FFF71DFB404640E730464E
:10202000FFF7E4FE010300F00F0001F47021421CF1
:1020300003230A43A6E73046FFF7D8FE02460028EE
:102040003FF42DAF10F0F0037FF429AF04212846B0
:10205000FFF7BAFC00283FF4FCAE20E700F00F02C7
:102060000132032342F420228CE73046FFF7BEFE04
:1020700000F0F00200F00F031032013343EA0232A5
:1020800006E700230DF10C090D221946CDF800904A
:102090002846FFF7BBFA3046FFF7A8FE02064FF0CE
:1020A00002070CD5039B00F07F00B8400344304684
:1020B0000393FFF79BFE030607F10707F2D4039B88
:1020C000CDF8009000F07F0403F50172BC400023BE
:1020D000144419460D2228460394FFF7BBFAB8E6CC
:1020E00010B5C26C84B0536803248DF80C401B02F9
:1020F00002F108040846D279019301A902948DF8EF
:102100000D20FFF79FFE04B010BD00BF08B5FFF71C
:1021100097FE806C08BD00BF08B5FFF791FEC06C4C
:10212000C379023300EB830008BD00BF704700BFD6
:10213000844641EA000313F003036DD1403A41D3D2
:1021400051F8043B40F8043B51F8043B40F8043B91
:1021500051F8043B40F8043B51F8043B40F8043B81
:1021600051F8043B40F8043B51F8043B40F8043B71
:1021700051F8043B40F8043B51F8043B40F8043B61
:1021800051F8043B40F8043B51F8043B40F8043B51
:1021900051F8043B40F8043B51F8043B40F8043B41
:1021A00051F8043B40F8043B51F8043B40F8043B31
:1021B00051F8043B40F8043B51F8043B40F8043B21
:1021C000403ABDD2303211D351F8043B40F8043BC1
:1021D00051F8043B40F8043B51F8043B40F8043B01
:1021E00051F8043B40F8043B103AEDD20C3205D3D1
:1021F00051F8043B40F8043B043AF9D2043208D0C9
:10220000D2071CBF11F8013B00F8013B01D30B883A
:1022100003806046704700BF082A13D38B078DD018
:1022200010F003038AD0C3F10403D21ADB071CBFEA
:1022300011F8013B00F8013B80D331F8023B20F854
:10224000023B7BE7043AD9D3013A11F8013B00F88D
:10225000013BF9D20B7803704B7843708B78837015
:102260006046704700000000000000000000000011
:1022700001F0FF01102A2BDB10F0070F08D010F837
:10228000013B013A8B422DD010F0070F42B3F6D13B
:10229000F0B441EA012141EA014122F007047FF054
:1022A00000070023F0E80256083C85EA010586EAAB
:1022B000010685FA47F5A3FA87F586FA47F6A5FAE7
:1022C00087F68EB9EED1F0BC01F0FF0102F00702F3
:1022D00032B110F8013B013A83EA010313B1F8D19E
:1022E0000020704701387047002D06BF354603387F
:1022F000073815F0010F07D1013015F4807F02BFB8
:10230000013015F4C03F0130F0BC0138704700BF08
:1023100000000000000000000000000000000000BD
:1023200000000000000000000000000000000000AD
:10233000000000000000000000000000000000009D
:1023400090F800F06DE9024520F007016FF0000CF5
:1023500010F0070491F820F040F049804FF000049D
:102360006FF00700D1E9002391F840F000F1080078
:1023700082FA4CF2A4FA8CF283FA4CF3A2FA8CF3B0
:102380004BBBD1E9022382FA4CF200F10800A4FA17
:102390008CF283FA4CF3A2FA8CF3E3B9D1E904236B
:1023A00082FA4CF200F10800A4FA8CF283FA4CF3A2
:1023B000A2FA8CF37BB9D1E9062301F1200182FA5C
:1023C0004CF200F10800A4FA8CF283FA4CF3A2FA62
:1023D0008CF3002BC6D0002A04BF04301A4612BA70
:1023E000B2FA82F2FDE8024500EBD2007047D1E973
:1023F000002304F00305C4F100004FEAC50514F002
:10240000040F91F840F00CFA05F562EA05021CBFD2
:1024100063EA050362464FF00004A9E780B590B077
:1024200000AF78600B46FB70FB78002B27D107F1DB
:10243000240300221A605A609A60DA601A615A61B5
:102440002D4A7B6852F833307B62012387F82830AD
:10245000012387F829304FF0FF333B6307F1240352
:10246000184605F089F8244A7B68DB0013440122F2
:102470001A717B68DB00204A1344FB6336E0FB786B
:10248000012B31D107F10C0300221A605A609A60C7
:10249000DA601A615A61184A7B6852F83330FB607F
:1024A00001233B754FF0FF33BB6107F10C03184666
:1024B00005F0D4F8104A7B68DB00134402221A713D
:1024C0007B68292B0AD97B682C2B07D80A4A7B68A2
:1024D00052F833300121184605F0FCF87B68DB0028
:1024E000054A1344FB6301E00023FB63FB6B1846C2
:1024F0004037BD4680BD00BF0000002080B586B0DB
:1025000000AF78607B683B613B69002B0BD03B6977
:102510001B79012B07D13B691B68184605F0E8F8C9
:102520000346FB7501E00023FB753B691B681B0A32
:10253000DBB2FB603B691B68DBB2BB60FB68022B54
:1025400002D1BB68062B05D0FB68002B09D1BB6804
:10255000042B06D1FB7D002B0CBF01230023DBB233
:10256000FB75FB7D18461837BD4680BD80B586B02B
:1025700000AF78600B46FB707B687B617B69002B4A
:102580002FD07B691B79022B2BD17B691B681B0A1F
:10259000DBB23B617B691B68DBB2FB603B69012BF3
:1025A00005D1FB68162B08D0FB68152B05D03B69BD
:1025B000042B0FD1FB681A2B0CD17B691A68FB78AE
:1025C000012B14BF01230023DBB21946104605F08E
:1025D00081F806E07B691B68FA781146184605F019
:1025E00079F800BF1837BD4680BD80B485B000AF14
:1025F00078607B68FB60FB68002B0ED0FB681B7962
:10260000022B03D1FB6800221A7106E0FB681B79DC
:10261000012B02D1FB6800221A7100BF1437BD469E
:102620005DF8047B7047000080B584B000AFF860AF
:10263000B9601346FB71BB681F2B05D90D4B0E4AC1
:10264000FF210E4805F0FCFEFB68BA6853F8223003
:1026500023F0807323F4E063FA79120202F4E0625B
:1026600043EA0201FB68BA6843F8221000BF103742
:10267000BD4680BD30B00000C4B000003CB00000DA
:1026800080B483B000AF78600B46FB707B681B683A
:1026900023F01802FB78DB0003F018031A437B6871
:1026A0001A6000BF0C37BD465DF8047B7047000020
:1026B00080B58EB000AF786187ED020B87ED001B0F
:1026C000524A7B695B01134411331B78002B40F0A5
:1026D0008780002387F82830002387F829300023DB
:1026E00087F82A308023FB62484A7B695B011344E8
:1026F0001868464A7B695B01134404331968434AEE
:102700007B695B01134410331B781A46FFF78CFF7B
:102710003E4A7B695B01134408331B6807F12802BA
:102720001146184604F050FD384A7B695B0113449A
:1027300008331B68DBB200220121184604F0CAFDF1
:10274000324A7B695B011344113304221A702F4A09
:102750007B695B01134403F11801D7E90223C1E946
:10276000002302233B7600237B76284A7B695B01AA
:1027700013441833D3E9002310461946FEF7EAFB49
:102780000346FB61D7E90001FEF7E4FB03463B6229
:102790000023BB841D4A7B695B01134408331B681B
:1027A0001B4A52F823303B630021386BFFF768FF68
:1027B000164A7B695B01134408331868134A7B6926
:1027C0005B0113440C331B68DAB207F11803194696
:1027D00004F0DEFD7B695B010C4A13447B630FE070
:1027E0000A4A7B695B01134411331B78042B05D122
:1027F0007B695B01054A13447B6301E000237B6333
:102800007B6B18463837BD4680BD00BF780100207D
:1028100058B6000080B483B000AF786000BF0C37BA
:10282000BD465DF8047B704780B58AB000AFF860A4
:1028300087ED000BFB687B627B6A002B2CD07B6AE8
:102840005B7C042B28D102233B7400237B747B6ABE
:10285000D3E9062310461946FEF77CFB03467B614D
:10286000D7E90001FEF776FB0346BB610023BB837B
:102870007B6A9B680A4A52F823303B620021386A1F
:10288000FFF7FEFE7B6A98687B6ADB68DAB207F1C5
:102890001003194604F07CFD00BF2837BD4680BDFB
:1028A00058B6000080B485B000AF78607B68FB60EC
:1028B000FB68002B06D0FB685B7C042B02D1FB6815
:1028C00000225A7400BF1437BD465DF8047B704780
:1028D00080B483B000AF786000BF0C37BD465DF8B0
:1028E000047B704780B586B000AF7861184B1B68D9
:1028F0001B68002B0CBF01230023DBB21A46154BCB
:102900001A7011E03B461449184602F000FD00F031
:102910002BFB0F4B1B681B68002B14BF01230023EC
:10292000DBB21A460D4B1A700A4B1B78DBB2002B38
:10293000E8D1084B00221A70786900F011F80020E5
:1029400002F03EFC002318461837BD4680BD00BF8C
:10295000D8B0000038040020980E00208F0E002010
:1029600080B582B000AF7860074B01221A60074B38
:1029700000221A7001F0D4FC054802F0B5FC0023D7
:1029800018460837BD4680BDB40E0020380400202C
:10299000900E002080B586B000AF7861396101F0FB
:1029A000CDFF02F095F90A4B1B6800221A6001F076
:1029B0001FFA00209FED070A02F054FB3B46064930
:1029C000184602F0A4FC002318461837BD4680BD07
:1029D000D8B000006F12833A900E002080B400AF90
:1029E00029494FF000024FF00003C1E906232649B0
:1029F0004FF00002254BC1E91423254BD3E91823DE
:102A00002149C1E91C2320494FF000021F4BC1E9B5
:102A100012231D494FF000024FF00003C1E90A23C1
:102A200019494FF000024FF00003C1E9182316497D
:102A30004FF000024FF00003C1E91A2312494FF092
:102A400000024FF00003C1E910230F494FF00002CC
:102A50000E4BC1E90E230C494FF000024FF000036A
:102A6000C1E90C230A4BD3E908230749C1E916231E
:102A700005494FF00002054BC1E9082300BFBD46E0
:102A80005DF8047B704700BFB80E00200000F03FE7
:102A90004004002080B400AF2B494FF000024FF0FB
:102AA0008043C1E9062328494FF000024FF000039C
:102AB000C1E9122324494FF000024FF00003C1E99D
:102AC0000A2321494FF000024FF00003C1E9182307
:102AD0001D494FF000024FF00003C1E91A231A49C3
:102AE0004FF000024FF00003C1E9102316494FF0E8
:102AF00000024FF00003C1E90E2313494FF000021A
:102B00004FF00003C1E90C23104BD3E90A230E490F
:102B1000C1E916230D4BD3E91C230B49C1E91C2342
:102B200009494FF000024FF00003C1E908230649AC
:102B30004FF000024FF00003C1E9142300BFBD466F
:102B40005DF8047B704700BFB80E002040040020F1
:102B500080B400AF29494FF000024FF00003C1E9F3
:102B6000062326494FF00002254BC1E912232349D1
:102B70004FF000024FF00003C1E90A231F494FF054
:102B800000024FF00003C1E918231C494FF0000276
:102B90004FF00003C1E91A2318494FF00002184B07
:102BA000C1E9102315494FF000024FF00003C1E9BD
:102BB0000E2312494FF000024FF00003C1E90C232D
:102BC000104BD3E90A230D49C1E916230B494FF0F5
:102BD00000020B4BC1E914230A4BD3E91C2307491C
:102BE000C1E91E2305494FF00002054BC1E9082346
:102BF00000BFBD465DF8047B704700BFB80E0020E3
:102C00000000F03F4004002080B400AF26494FF0A0
:102C100000024FF00003C1E9062323494FF00002F0
:102C2000224BC1E9122320494FF000024FF000036C
:102C3000C1E90A231C494FF000024FF00003C1E92B
:102C4000182319494FF000024FF00003C1E91A237D
:102C500015494FF00002154BC1E9102312494FF0FE
:102C600000024FF00003C1E90E230F494FF00002AC
:102C70004FF00003C1E90C230D4BD3E90A230A49A5
:102C8000C1E9162308494FF00002084BC1E90823A7
:102C900005494FF000024FF00003C1E9142300BFC3
:102CA000BD465DF8047B7047B80E00200000F03F81
:102CB0004004002080B400AF26494FF000024FF0DE
:102CC0000003C1E9062323494FF00002224BC1E96A
:102CD000122320494FF000024FF00003C1E90A23FC
:102CE0001C494FF000024FF00003C1E918231949B5
:102CF0004FF000024FF00003C1E91A2315494FF0CD
:102D000000024FF00003C1E9102312494FF0000206
:102D1000114BC1E90E230F494FF000024FF00003A1
:102D2000C1E90C230D4BD3E908230A49C1E9162355
:102D300008494FF00002084BC1E9082305494FF04C
:102D400000024FF00003C1E9142300BFBD465DF847
:102D5000047B7047B80E00200000F03F40040020C4
:102D600080B400AF2B494FF000024FF08043C1E91F
:102D7000062328494FF000024FF00003C1E9142355
:102D8000254BD3E918232349C1E91C2321494FF0DE
:102D900000024FF00003C1E912231E494FF0000268
:102DA0004FF00003C1E90A231A494FF000024FF027
:102DB0000003C1E9182317494FF000024FF0000348
:102DC000C1E91A2313494FF000024FF00003C1E993
:102DD000102310494FF000024FF00003C1E90E2309
:102DE0000C494FF000024FF00003C1E90C230A4BDD
:102DF000D3E908230749C1E9162306494FF0000229
:102E00004FF00003C1E9082300BFBD465DF8047B15
:102E1000704700BFB80E00204004002090B583B07A
:102E200000AF786039604C494FF000024FF000036A
:102E3000C1E9062348494FF00002484BC1E9142379
:102E400045494FF00002454BC1E9122342494FF07A
:102E500000024FF00003C1E90A233F494FF000028E
:102E60004FF00003C1E918233B494FF000024FF037
:102E70000003C1E91A2338494FF000024FF0000364
:102E8000C1E9102334494FF00002344BC1E90E234D
:102E900031494FF000024FF00003C1E90C232E49E5
:102EA0004FF000022D4BC1E908232D4BD3F86C41A4
:102EB0007B6893ED007BB0EE470AF0EE670A05F001
:102EC00037FA53EC102B10461946FEF743F8034629
:102ED0009C422ED3224B0A2283F87321204B0022DE
:102EE000C3F86C211C494FF000021C4BC1E90623BA
:102EF0001C4BD3E918231849C1E91C2316494FF08C
:102F000000024FF00003C1E9082313494FF000020B
:102F10004FF00003C1E90E230F494FF000020F4BA1
:102F2000C1E90A230F4BD3E908230B49C1E9162352
:102F30000DE03B681B78002B09D0094B0B2283F86E
:102F40007321074B0022C3F86C21FFF709FF00BF74
:102F50000C37BD4690BD00BFB80E00200000F03F0A
:102F6000380F002040040020B0B586B000AF884B79
:102F7000D3E90C01864BD3E90E23FDF77BFE024615
:102F80000B464FF000008349FDF774FE02460B46E6
:102F9000C7E90223804BD3E90E017D4BD3E900231F
:102FA000FDF7A6FF0346002B05D1794BD3E900239B
:102FB0007949C1E90E23784B1B6B1846FFF79EFA3F
:102FC0000346FB75744BD3E90601714BD3E9022329
:102FD000FDF78EFF0346002B05D16D4BD3E902238D
:102FE0006D49C1E906236C4B1B691846FFF786FA49
:102FF0000346FB71684BD3F86C31B3F1FF3F06D049
:10300000654BD3F86C310133634AC2F86C31624BC3
:1030100093F87231002B09D15F4B012283F87221A2
:103020005D4B062283F8732100F0B7BC5A4B93F82E
:103030007331013B092B00F2318401A252F823F0D5
:1030400069300000A1310000673200003533000014
:103050005934000021350000D5350000013700004B
:10306000C9370000D93700004C494FF000024FF03B
:103070000003C1E9062349494FF00002454BC1E96D
:10308000122346494FF000024FF00003C1E90A2322
:1030900042494FF000024FF00003C1E918233F49B5
:1030A0004FF000024FF00003C1E91A233B494FF0F3
:1030B0000002384BC1E9102338494FF000024FF0AD
:1030C0000003C1E90E2335494FF000024FF0000321
:1030D000C1E90C2331494FF000022E4BC1E9142302
:1030E0002E494FF000022B4BC1E908232A4BD3F89D
:1030F0006C4197ED027BB0EE470AF0EE670A05F0EF
:1031000017F953EC102B10461946FDF723FF034621
:103110009C422ED3204B022283F873211E4B0022A7
:10312000C3F86C211D494FF000021A4BC1E9062378
:103130001A494FF000024FF00003C1E90823174974
:103140004FF00002134BC1E90C2314494FF0000269
:103150004FF00003C1E910230D4BD3E90A230F49B7
:10316000C1E916230A4BD3E91C230C49C1E91E23EC
:10317000FAE3FB7D002B00F0F783074B032283F873
:103180007321054B0022C3F86C21FFF783FCEBE3AE
:10319000400400200000F03F380F0020B80E00204F
:1031A000A9494FF00002A94BC1E90623A6494FF0F7
:1031B00000024FF00003C1E90823A3494FF00002C9
:1031C000A24BC1E91223A0494FF000029F4BC1E975
:1031D0000C239D494FF000024FF00003C1E910237A
:1031E00099494FF000024FF00003C1E918239649B6
:1031F0004FF000024FF00003C1E91A2392494FF04B
:1032000000024FF00003C1E90E238F494FF0000286
:103210004FF00003C1E90A238B494FF000028B4BAA
:10322000C1E914238A4BD3F86C418A4B93ED067B9A
:10323000B0EE470AF0EE670A05F07AF853EC102B6F
:1032400010461946FDF786FE03469C42C0F08E8369
:103250007F4B032283F873217D4B0022C3F86C213E
:10326000FFF718FC82E378494FF000024FF08043EB
:10327000C1E9062374494FF000024FF00003C1E991
:10328000122371494FF000024FF00003C1E90A23F5
:103290006D494FF000024FF00003C1E918236A495D
:1032A0004FF000024FF00003C1E91A2366494FF0C6
:1032B00000024FF00003C1E9102363494FF0000200
:1032C0004FF00003C1E90E235F494FF000024FF0B9
:1032D0000003C1E90C235C494FF000024FF00003EA
:1032E000C1E9082358494FF000024FF00003C1E93B
:1032F0001423574BD3F86C41564B93ED1A7BB0EE29
:10330000470AF0EE670A05F013F853EC102B10464D
:103310001946FDF71FFE03469C42C0F029834C4B23
:10332000012283F873214A4B0022C3F86C21FFF776
:103330000FFC1DE344494FF000024FF00003C1E9C8
:10334000062341494FF00002404BC1E912233E4998
:103350004FF000024FF00003C1E90A233A494FF051
:1033600000024FF00003C1E9182337494FF0000273
:103370004FF00003C1E91A2333494FF00002334BE9
:10338000C1E9102330494FF000024FF00003C1E9BA
:103390000E232D494FF000024FF00003C1E90C232A
:1033A00029494FF00002294BC1E9082326494FF073
:1033B00000024FF00003C1E91423254BD3F86C4100
:1033C000D7E90201234BD3E90623FDF771F9024641
:1033D0000B4643EC172BB0EE470AF0EE670A04F0F9
:1033E000A7FF53EC102B10461946FDF7B3FD03461B
:1033F0009C42C0F0BF82164B052283F87321144B08
:103400000022C3F86C2110494FF000020F4BC1E9B4
:1034100006230D494FF000024FF00003C1E90823D5
:1034200009494FF00002094BC1E90C2306494FF04E
:1034300000024FF00003C1E91023064BD3E90A2331
:103440000149C1E9162395E2B80E00200000F03FC3
:10345000380F002040040020A3494FF00002A34B86
:10346000C1E90623A0494FF000024FF00003C1E973
:1034700008239D494FF000029C4BC1E912239A4951
:103480004FF00002994BC1E90C2397494FF000021D
:103490004FF00003C1E9102393494FF000024FF0B1
:1034A0000003C1E9182390494FF000024FF00003D8
:1034B000C1E91A238C494FF000024FF00003C1E923
:1034C0000E2389494FF000024FF00003C1E90A239F
:1034D00085494FF000024FF00003C1E91423844BEB
:1034E000D3F86C41834B93ED067BB0EE470AF0EEC8
:1034F000670A04F01DFF53EC102B10461946FDF728
:1035000029FD03469C42C0F03782794B042283F8A0
:103510007321774B0022C3F86C21FFF775FB2BE278
:10352000744BD3E914014FF00002704BFDF7E0FC3F
:103530000346002B0AD06E4B072283F873216C4B95
:103540000022C3F86C21FFF7B5FB26E2694BD3E9F3
:1035500014014FF000024FF08043FDF7C9FC034611
:10356000002B0AD0624B042283F87321604B0022A7
:10357000C3F86C21FFF748FB0FE25E4BD3E914015F
:103580004FF000025C4BFDF7B3FC0346002B0AD062
:10359000574B092283F87321554B0022C3F86C2145
:1035A000FFF71CFAF9E1534BD3E914014FF0000285
:1035B000524BFDF79DFC0346002B00D1EDE14C4B37
:1035C000012283F873214A4B0022C3F86C21FFF7D4
:1035D000BFFAE2E144494FF000024FF00003C1E9B5
:1035E000062341494FF00002404BC1E912233E49F6
:1035F0004FF000024FF00003C1E90A233A494FF0AF
:1036000000024FF00003C1E9182337494FF00002D0
:103610004FF00003C1E91A2333494FF000024FF085
:103620000003C1E9102330494FF000022F4BC1E9DC
:103630000E232D494FF000024FF00003C1E90C2387
:1036400029494FF00002294BC1E9082326494FF0D0
:1036500000024FF00003C1E91423254BD3F86C415D
:10366000D7E90201234BD3E90423FDF721F80246F1
:103670000B4643EC172BB0EE470AF0EE670A04F056
:1036800057FE53EC102B10461946FDF763FC03461A
:103690009C42C0F07381164B082283F87321144BAF
:1036A0000022C3F86C2110494FF000020F4BC1E912
:1036B00006230D494FF000024FF00003C1E9082333
:1036C00009494FF000024FF00003C1E90E230649FB
:1036D0004FF00002054BC1E90A23064BD3E908234A
:1036E0000149C1E9162349E1B80E00200000F03F6E
:1036F000380F002040040020000008400000104067
:10370000A1494FF00002A14BC1E906239E494FF0A9
:1037100000024FF00003C1E908239B494FF000026B
:103720009A4BC1E9122398494FF000024FF0000371
:10373000C1E90C2394494FF000024FF00003C1E9A6
:10374000102391494FF000024FF00003C1E9182304
:103750008D494FF000024FF00003C1E91A238A4956
:103760004FF000024FF00003C1E90E2386494FF0ED
:103770000002864BC1E90A2383494FF000024FF053
:103780000003C1E91423824BD3F86C41814B93EDC4
:10379000047BB0EE470AF0EE670A04F0C9FD53EC73
:1037A000102B10461946FDF7D5FB03469C42C0F08E
:1037B000E780774B072283F87321754B0022C3F80B
:1037C0006C21FFF777FADBE0FA1D07F108031146D9
:1037D0001846FFF723FBE0E06B494FF000026B4B0C
:1037E000C1E9062368494FF00002684BC1E9142380
:1037F00065494FF000024FF00003C1E90823624918
:103800004FF00002614BC1E912235F494FF0000203
:103810004FF00003C1E90C235B494FF000024FF069
:103820000003C1E9102358494FF000024FF0000394
:10383000C1E9182354494FF000024FF00003C1E9D9
:103840001A2351494FF000024FF00003C1E90E2343
:103850004D494FF000024D4BC1E90A234C4BD3F8C0
:103860006C414C4B93ED047BB0EE470AF0EE670AD7
:1038700004F05EFD53EC102B10461946FDF76AFB71
:1038800003469C427ED3424B0B2283F87321404B6C
:103890000022C3F86C21FFF763FA73E03A494FF056
:1038A00000024FF08043C1E9062337494FF0000280
:1038B0004FF00003C1E9142333494FF000024FF0E9
:1038C0000003C1E9122330494FF000024FF000031A
:1038D000C1E90A232C494FF000024FF00003C1E96F
:1038E000182329494FF000024FF00003C1E91A23C1
:1038F00025494FF000024FF00003C1E9102322498F
:103900004FF000024FF00003C1E90E231E494FF0B3
:1039100000024FF00003C1E90C231B494FF00002E5
:103920004FF00003C1E90823194BD3F86C41194B40
:1039300093ED167BB0EE470AF0EE670A04F0F8FC50
:1039400053EC102B10461946FDF704FB03469C422E
:1039500022D30F4B092283F873210D4B0022C3F8A9
:103960006C21FFF73BF817E000BF16E000BF14E042
:1039700000BF12E000BF10E000BF0EE000BF0CE08F
:1039800000BF0AE000BF08E0B80E00200000F03FD2
:10399000380F00204004002000BFB24BD3F8044190
:1039A000B14BD3E9080101231D464FF000024FF04F
:1039B0000003FDF79DFA0346002B01D000231D46AE
:1039C000EBB219462046FEF7D1FDA64BD3F8DC40FA
:1039D000A54BD3E90A0101231D464FF000024FF029
:1039E0000003FDF785FA0346002B01D000231D4696
:1039F000EBB219462046FEF7B9FD9A4BD3F8F040DA
:103A0000994BD3E90C0101231D464FF000024FF002
:103A10000003FDF76DFA0346002B01D000231D467D
:103A2000EBB219462046FEF7A1FD8E4BD3F8C840F5
:103A30008D4BD3E90E0101231D464FF000024FF0DC
:103A40000003FDF755FA0346002B01D000231D4665
:103A5000EBB219462046FEF789FD824BD3F8B440FD
:103A6000814BD3E9100101231D464FF000024FF0B6
:103A70000003FDF73DFA0346002B01D000231D464D
:103A8000EBB219462046FEF771FD764BD3F8A04005
:103A9000754BD3E9120101231D464FF000024FF090
:103AA0000003FDF725FA0346002B01D000231D4635
:103AB000EBB219462046FEF759FD6A4BD3F88C400D
:103AC000694BD3E9140101231D464FF000024FF06A
:103AD0000003FDF70DFA0346002B01D000231D461D
:103AE000EBB219462046FEF741FD5E4BD3F8683134
:103AF0005D4A92ED167BB0EE470AF0EE670A184673
:103B0000FEF792FE574BD3F81841574BD3E91801F3
:103B100001231D464FF000024FF00003FDF7E8F9C6
:103B20000346002B01D000231D46EBB21946204668
:103B3000FEF71CFD4B4BD3F82C414B4BD3E91A013C
:103B400001231D464FF000024FF00003FDF7D0F9AE
:103B50000346002B01D000231D46EBB21946204638
:103B6000FEF704FD3F4BD3F854313F4A92ED1C7BE6
:103B7000B0EE470AF0EE670A1846FEF755FE394BDD
:103B8000D3F84031384A92ED1E7BB0EE470AF0EE92
:103B9000670A1846FEF748FE324B93F87031002B47
:103BA00008D1304B012283F870212E4B042283F878
:103BB0007121CCE02B4B93F87131032B38D0032BC0
:103BC00056DC012B02D0022B19D051E026494FF0D0
:103BD0000002264BC1E9002323494FF000024FF0B9
:103BE0000003C1E9022320494FF000024FF0000317
:103BF000C1E904231B4B042283F87121A7E01A4971
:103C00004FF000024FF00003C1E9002316494FF0C6
:103C10000002164BC1E9022313494FF000024FF096
:103C20000003C1E904230F4B042283F871218EE0C5
:103C30000D494FF000024FF00003C1E900230A498B
:103C40004FF000024FF00003C1E9022306494FF094
:103C50000002064BC1E90423024B042283F87121C0
:103C600075E000BF380F0020B80E00200000F03FC4
:103C70005B4BD3E906014FF000025A4BFDF738F9D0
:103C80000346002B18D0584B022283F87121544967
:103C90004FF000024FF00003C1E9002350494FF0FC
:103CA0000002504BC1E902234D494FF000024FF092
:103CB0000003C1E9042349E0494BD3E906014FF071
:103CC00000024FF08043FDF713F90346002B18D094
:103CD000454B032283F8712141494FF000024FF018
:103CE0000003C1E900233E494FF000024FF00003FA
:103CF000C1E902233A494FF000023A4BC1E90423DB
:103D000024E0374BD3E906014FF000024FF00003E7
:103D1000FDF7EEF80346002B00D117E0324B0122ED
:103D200083F871212E494FF000022E4BC1E9002388
:103D30002B494FF000024FF00003C1E9022328494C
:103D40004FF000024FF00003C1E9042300BF264BEF
:103D50009C6F234BD3E9000101231D464FF0000265
:103D60004FF00003FDF7C4F80346002B01D00023F9
:103D70001D46EBB219462046FEF7F8FB1A4B5C6E67
:103D8000174BD3E9040101231D464FF000024FF009
:103D90000003FDF7ADF80346002B01D000231D46BC
:103DA000EBB219462046FEF7E1FB0F4B1C6D0C4BA6
:103DB000D3E9020101231D464FF000024FF000033A
:103DC000FDF796F80346002B01D000231D46EBB209
:103DD00019462046FEF7CAFB00BF1837BD46B0BDE6
:103DE000B80E00200000F03F380F00200000000057
:103DF00080B584B000AFBC4B012283F82020BA4BC1
:103E000000225A62B8494FF00002B84BC1E90E23B4
:103E1000B54B002283F82020B54BD3E90023B249EB
:103E2000C1E90E23B34BFB60AF4B002283F828207F
:103E3000AD4B01225A6200210020FEF7EFFA024644
:103E4000FB681A61A84B012283F82820A64B0122A7
:103E50001A70A54B00225A60A3494FF00002A34BF1
:103E6000C1E90623A04B00221A70A14BD3E902231B
:103E70009D49C1E906239C4BFB609B4B00221A72B3
:103E8000994B01225A6000210120FEF7C7FA024631
:103E9000FB681A61944B01221A72934B012283F83A
:103EA000F420914B0022C3F8F8208F4B002283F8B6
:103EB000F420914BBB608C4B002283F8FC208A4B92
:103EC0000122C3F8F82001210220FEF7A7FA0246DA
:103ED000BB681A61844B012283F8FC20824B0122CB
:103EE00083F8CC20804B0022C3F8D0207E4B0022E8
:103EF00083F8CC20814BBB607B4B002283F8D4201D
:103F0000794B0122C3F8D02001210920FEF786FA5F
:103F10000246BB681A61744B012283F8D420724BAD
:103F2000012283F8E020704B0022C3F8E4206E4B9E
:103F3000002283F8E020724BBB606B4B002283F8B9
:103F4000E820694B0122C3F8E42001210820FEF794
:103F500065FA0246BB681A61634B012283F8E820C8
:103F6000614B012283F8B8205F4B0022C3F8BC20CC
:103F70005D4B002283F8B820624BBB605A4B002295
:103F800083F8C020584B0122C3F8BC2001210C202B
:103F9000FEF744FA0246BB681A61534B012283F8CC
:103FA000C020514B012283F8A4204F4B0022C3F8BC
:103FB000A8204D4B002283F8A420534BBB604A4BF2
:103FC000002283F8AC20484B0122C3F8A82001212D
:103FD0000B20FEF723FA0246BB681A61424B01220E
:103FE00083F8AC20404B012283F890203E4B002206
:103FF000C3F894203C4B002283F89020434BBB60D5
:10400000394B002283F89820374B0122C3F89420C3
:1040100001210A20FEF702FA0246BB681A61324B00
:10402000012283F89820304B012283F87C202E4B0C
:104030000022C3F880202C4B002283F87C20344BD4
:10404000BB60294B002283F88420274B0122C3F850
:10405000802001210D20FEF7E1F90246BB681A61BC
:10406000214B012283F884201F4B012283F8582121
:104070001D4B0022C3F85C211B4B002283F8582102
:10408000244B7B60184B002283F86021164B0122E1
:10409000C3F85C219FED101B9FED110B0520FEF76F
:1040A00007FB02467B681A610F4BD3F8683118464C
:1040B000FEF7B0FB0C4B012283F860210A4B012272
:1040C00083F80821084B0022C3F80C21064B00227C
:1040D00083F8082120E000BF00000000000000007D
:1040E0000000000000409F40380F00200000F0BF9B
:1040F00040040020580F00202C1000200410002045
:1041000018100020F00F0020DC0F0020C80F002046
:10411000B40F002090100020794BBB60794B002237
:1041200083F81021774B0122C3F80C2101210420D0
:10413000FEF774F90246BB681A61724B012283F8DC
:104140001021704B012283F81C216E4B0022C3F812
:1041500020216C4B002283F81C216B4BBB60694B08
:10416000002283F82421674B0122C3F8202101217A
:104170000720FEF753F90246BB681A61614B012222
:1041800083F824215F4B012283F844215D4B0022F8
:10419000C3F848215B4B002283F844215B4B7B60D2
:1041A000584B002283F84C21564B0122C3F848217A
:1041B0009FED4F1B9FED500B0320FEF779FA02464F
:1041C0007B681A614F4BD3F854311846FEF722FB37
:1041D0004C4B012283F84C214A4B012283F83021B9
:1041E000484B0022C3F83421464B002283F830218B
:1041F000474B7B60434B002283F83821414B01221F
:10420000C3F834219FED3A1B9FED3B0B0620FEF7D0
:104210004FFA02467B681A613A4BD3F84031184690
:10422000FEF7F8FA374B012283F83821354B01228B
:1042300083F86820334B0022DA66324B002283F881
:104240006820344BBB602F4B002283F870202D4B2D
:104250000122DA6601212B20FEF7E0F80246BB6856
:104260001A61284B012283F87020264B012283F823
:104270005420244B00229A65224B002283F85420BC
:10428000254BBB601F4B002283F85C201D4B012295
:104290009A6501212C20FEF7C1F80246BB681A611D
:1042A000184B012283F85C20164B012283F8402032
:1042B000144B00225A64134B002283F84020174B02
:1042C000BB60104B002283F848200E4B01225A6439
:1042D00001212A20FEF7A2F80246BB681A61094BA9
:1042E000012283F8482000BF1037BD4680BD00BFC3
:1042F00000000000000000000000000000409F409F
:1043000040100020380F0020541000207C100020A6
:1043100068100020A00F00208C0F0020780F0020D4
:1043200080B500AFBD4B93F82030002B11D1BB4BB3
:10433000012283F82020B94B5B6A012B09D1B74BCE
:1043400093F82830002B04D0B44B1B6B1846FEF7B3
:104350004CF9B24B1B78002B0FD1B04B01221A70D5
:10436000AE4B5B68012B08D1AC4B1B7A002B04D001
:10437000AA4B1B691846FEF738F9A84B93F8F4309E
:10438000002B13D1A54B012283F8F420A34BD3F8C3
:10439000F830012B0AD1A14B93F8FC30002B05D04B
:1043A0009E4BD3F804311846FEF71FF99B4B93F848
:1043B000CC30002B13D1994B012283F8CC20974BA2
:1043C000D3F8D030012B0AD1944B93F8D430002B82
:1043D00005D0924BD3F8DC301846FEF706F98F4B28
:1043E00093F8E030002B13D18C4B012283F8E020AE
:1043F0008A4BD3F8E430012B0AD1884B93F8E8308C
:10440000002B05D0854BD3F8F0301846FEF7EDF8B9
:10441000824B93F8B830002B13D1804B012283F8E4
:10442000B8207E4BD3F8BC30012B0AD17B4B93F8DC
:10443000C030002B05D0794BD3F8C8301846FEF7B2
:10444000D4F8764B93F8A430002B13D1734B012290
:1044500083F8A420714BD3F8A830012B0AD16F4BFD
:1044600093F8AC30002B05D06C4BD3F8B430184621
:10447000FEF7BBF8694B93F89030002B13D1674BD4
:10448000012283F89020654BD3F89430012B0AD198
:10449000624B93F89830002B05D0604BD3F8A030D6
:1044A0001846FEF7A2F85D4B93F87C30002B13D131
:1044B0005A4B012283F87C20584BD3F88030012BD3
:1044C0000AD1564B93F88430002B05D0534BD3F8C8
:1044D0008C301846FEF789F8504B93F85831002B72
:1044E00019D14E4B012283F858214C4BD3F85C3143
:1044F000012B10D1494B93F86031002B0BD0474B67
:10450000D3F868311846FEF7CDF9444BD3F868313B
:104510001846FEF7DDF9414B93F80831002B13D113
:104520003E4B012283F808213C4BD3F80C31012B80
:104530000AD13A4B93F81031002B05D0374BD3F802
:1045400018311846FEF751F8344B93F81C31002B04
:1045500013D1324B012283F81C21304BD3F8203188
:10456000012B0AD12D4B93F82431002B05D02B4B76
:10457000D3F82C311846FEF738F8284B93F844311D
:10458000002B19D1254B012283F84421234BD3F86A
:104590004831012B10D1214B93F84C31002B0BD01B
:1045A0001E4BD3F854311846FEF77CF91B4BD3F859
:1045B00054311846FEF78CF9184B93F83031002B24
:1045C00019D1164B012283F83021144BD3F8343122
:1045D000012B10D1114B93F83831002B0BD00F4B1E
:1045E000D3F840311846FEF75DF90C4BD3F8403153
:1045F0001846FEF76DF9094B93F86830002B14D17B
:10460000064B012283F86820044BDB6E012B0CD192
:10461000024B93F87030002B07D001E0380F0020D8
:104620001A4B9B6F1846FDF7E0FF184B93F8543078
:10463000002B11D1154B012283F85420134B9B6D95
:10464000012B09D1114B93F85C30002B04D00F4B98
:104650005B6E1846FDF7C9FF0C4B93F84030002BFA
:1046600011D10A4B012283F84020084B5B6C012BCF
:1046700009D1064B93F84830002B04D0034B1B6D37
:104680001846FDF7B2FF00BF80BD00BF380F002005
:1046900080B489B000AF294BFB60294A294B9A426C
:1046A00016D00023FB610AE0264AFB6952F823205A
:1046B0002349FB6941F82320FB690133FB61FB6857
:1046C0009B08FA699A42EFD31F4B1D4A9A6002E099
:1046D0001D4B1C4A9A601D4BBB611D4B7B611D4BE2
:1046E000BB60BA687B69D31AFB6107E07A69531C27
:1046F0007B61BB69591CB96112781A70FB695A1E3B
:10470000FA61002BF2D1144B3B61144B7B607A6849
:104710003B69D31AFB6104E03B695A1C3A610022F1
:104720001A70FB695A1EFA61002BF5D100BF00BF59
:104730002437BD465DF8047B704700BF00000000D1
:10474000000000000000000000ED00E0000000207C
:10475000F8BF000068CE0000700E00201841002055
:1047600080B400AF6B4BD3F888306A4A43F47003CF
:10477000C2F88830684B4CF22052DA81664B4DF615
:104780002812DA81644B4FF4E9721A80634B1B786C
:10479000DBB203F00103002B0FD0614B9B78DBB23F
:1047A00003F00803002B2ED05D4B9B78DBB25C4AF4
:1047B00043F00803DBB2937025E05A4B03F58153B5
:1047C0001C331B68574943F0005201F581531C33D9
:1047D0001A60554B1B6903F48073002B13D1524BA5
:1047E0001B6923F47C53504A43F4407313614E4BCE
:1047F0001B694D4A43F4807313614B4B1B694A4A52
:1048000023F400731361494B2A221A70454B03F5B8
:10481000825304334FF08A721A60424B1B6823F4B0
:104820004023404A43F4002313603E4B03F580537A
:1048300004331B6823F440333A4943F4803201F5D2
:10484000805304331A60374B03F5815318331B68C8
:10485000344943F4007201F5815318331A60344B24
:104860009B6C334A23F0807323F4E0639364314BF1
:1048700000221A722F4B5B78DBB223F06003DBB2AD
:104880002C4A43F02003DBB253702B4B80221A706A
:10489000284B00221A73274BBA221A7000BF254BEF
:1048A0009B79DBB203F01003002BF8D1214BDB78AE
:1048B000DBB2204A03F01F03DBB2D3701D4B13227F
:1048C0001A711C4B18225A711A4B5B79DBB2194AC8
:1048D00043F04003DBB2537100BF164B9B79DBB250
:1048E00003F04003002BF8D0124B1B78DBB2114AC7
:1048F00003F03F03DBB2137000BF0E4B9B79DBB2BA
:1049000003F00C030C2BF8D100BF00BFBD465DF8CF
:10491000047B704700ED00E00020054000F00740F8
:1049200000D007400070044000D0034000E0074082
:1049300000900440004006400050064080B483B020
:1049400000AF9C4B1B78DBB203F0C003002B40F0A0
:10495000DE80984B5B79DBB203F04003002B40F024
:10496000B980944B1B78DBB203F00403002B4ED1CB
:10497000904B1B7BDBB203F00303002B02D0012B17
:1049800003D006E08C4B7B6006E04FF400437B6075
:1049900002E08A4B7B6000BF864B5B78DBB203F0A2
:1049A0003003002B23D0834B1B7BDBB203F00303CC
:1049B000012B1CD07F4B1B78DBB203F03803302B6C
:1049C00005D0382B07D14FF4C0637B800EE04FF445
:1049D000A0637B800AE0774B1B78DBB2DB0803F037
:1049E0000703202202FA03F37B8000BF09E0714B2A
:1049F0001B78DBB2DB0803F00703012202FA03F3A2
:104A00007B807B887A68B2FBF3F37B6002E04FF433
:104A100000437B60674BDB78DBB203F0E003E02B05
:104A200051D0E02B00F2B080C02B45D0C02B00F25B
:104A3000AB80A02B39D0A02B00F2A680802B2DD0EC
:104A4000802B00F2A180602B21D0602B00F29C8093
:104A5000402B15D0402B00F29780002B02D0202B4A
:104A600007D091E07A6813469B001344DB017B601A
:104A70008BE07A6813469B0013441B027B6084E042
:104A80007A6813461B019B1ADB017B607DE07A6824
:104A900013469B0013445B027B6076E07B684FF417
:104AA000377202FB03F37B606FE07B684FF4B76201
:104AB00002FB03F37B6068E07B6840F6950202FB33
:104AC00003F37B6061E07B6840F6713202FB03F325
:104AD0007B605AE0374B1B79DBB29BB203F01F03BC
:104AE0009BB201337B807B88334AB2FBF3F37B605C
:104AF000304B5B79DBB29BB203F01F039BB21833E0
:104B00007B807A887B6802FB03F37B603DE0294B66
:104B10001B78DBB203F0C003402B1AD1254B5B7826
:104B2000DBB203F00103002B03D14FF400437B60A1
:104B30002BE0204B1B7ADBB25B0803F0070301225A
:104B400002FA03F37B807B881D4AB2FBF3F37B60A0
:104B50001BE0184B1B78DBB203F0C003802B23D182
:104B6000144B1B7BDBB203F00303002B02D0012BA1
:104B700003D006E0104B7B6007E04FF400437B60FE
:104B800003E00E4B7B6000E000BF0E4B03F5825349
:104B900004331B681B0F03F00F0301337A68B2FB69
:104BA000F3F3094A136000E000BF0C37BD465DF81F
:104BB000047B70470040064080F0FA02006CDC0283
:104BC00000093D0000700440B804002080B584B0A6
:104BD00000AFF860B9601346FB71BB681F2B05D9A5
:104BE0000D4B0E4AFF210E4803F02AFCFB68BA6801
:104BF00053F8223023F0807323F4E063FA79120231
:104C000002F4E06243EA0201FB68BA6843F822104A
:104C100000BF1037BD4680BD74B00000F4B0000086
:104C200080B0000080B483B000AF78600B46FB70AA
:104C30007B68FA781A7000BF0C37BD465DF8047BBC
:104C40007047000080B584B000AF3B4600221A6078
:104C50005A609A60DA60064B3B6002237B723B46E7
:104C60001946002002F0DEF800BF1037BD4680BDB7
:104C700080F0FA0280B584B000AF074A3B1D07CA36
:104C800083E807003B1D1946002002F017F900BF1A
:104C90001037BD4680BD00BFB8B0000080B500AF82
:104CA0002A210848FFF7BEFF002212210648FFF71D
:104CB0008DFFFFF7C7FFFFF7DDFF044802F054F94F
:104CC00000BF80BD00E0074000900440DCB0000061
:104CD00080B582B000AF01F0E1FF0023FB7106E078
:104CE000FB79184602F0B8F9FB790133FB71FB79C7
:104CF000042BF5D9FFF7D2FF00BF0837BD4680BDB2
:104D000080B500AF002002F0E9F900BF80BD80B59A
:104D100000AF012002F0E2F900BF80BD80B500AF16
:104D2000022002F0DBF900BF80BD80B500AF032098
:104D300002F0D4F900BF80BD80B500AF042002F0BE
:104D4000CDF900BF80BD80B500AF052002F0C6F9E7
:104D500000BF80BD80B500AF062002F0BFF900BFE4
:104D600080BD80B500AF072002F0B8F900BF80BD5C
:104D700080B500AF082002F0B1F900BF80BD80B55A
:104D800000AF092002F0AAF900BF80BD80B500AFD6
:104D90000A2002F0A3F900BF80BD80B500AF0B2050
:104DA00002F09CF900BF80BD80B500AF0C2002F07E
:104DB00095F900BF80BD80B500AF0D2002F08EF9DF
:104DC00000BF80BD80B500AF0E2002F087F900BFA4
:104DD00080BD80B500AF0F2002F080F900BF80BD1C
:104DE00080B500AF002002F091F900BF80BD80B512
:104DF00000AF002003F054F800BF80BD80B500AFC5
:104E0000012003F04DF800BF80BD80B500AF022047
:104E100003F046F800BF80BD80B500AF032003F06B
:104E20003FF800BF80BD80B500AF042003F038F824
:104E300000BF80BD80B500AF052003F031F800BF92
:104E400080BD80B400AFFEE780B400AFFEE780B461
:104E500000AFFEE780B400AFFEE780B400AFFEE72E
:104E600080B400AFFEE780B400AFFEE780B400AFCF
:104E7000FEE780B400AFFEE780B400AFFEE780B489
:104E800000AFFEE780B400AFFEE780B400AFFEE7FE
:104E900080B400AFFEE780B400AFFEE780B400AF9F
:104EA000FEE780B400AFFEE780B400AFFEE780B459
:104EB00000AFFEE780B400AFFEE780B400AFFEE7CE
:104EC00080B400AFFEE780B400AFFEE780B400AF6F
:104ED000FEE780B400AFFEE780B400AFFEE780B429
:104EE00000AFFEE780B400AFFEE780B400AFFEE79E
:104EF00080B400AFFEE780B400AFFEE780B400AF3F
:104F0000FEE780B400AFFEE780B400AFFEE780B4F8
:104F100000AFFEE780B400AFFEE780B400AFFEE76D
:104F200080B400AFFEE780B400AFFEE780B400AF0E
:104F3000FEE780B400AFFEE780B400AFFEE780B4C8
:104F400000AFFEE780B400AFFEE780B400AFFEE73D
:104F500080B400AFFEE780B400AFFEE780B400AFDE
:104F6000FEE780B400AFFEE780B400AFFEE780B498
:104F700000AFFEE780B400AFFEE780B400AFFEE70D
:104F800080B400AFFEE780B400AFFEE780B400AFAE
:104F9000FEE780B400AFFEE780B400AFFEE780B468
:104FA00000AFFEE780B400AFFEE7000080B584B03C
:104FB00000AF7860114B1B68002B02D10F4B104AD9
:104FC0001A600E4B1B68FB600C4B1A687B6813441D
:104FD0000C4A934207D903F057FA03460C221A6091
:104FE0004FF0FF3306E0054B1A687B681344034A11
:104FF0001360FB6818461037BD4680BDB410002012
:105000000000FF1F0000002080B582B000AF786074
:10501000034800F069F900BF0837BD4680BD00BFF6
:10502000980E002098B500AF094B0A4A1A600A4B47
:105030000A4A1C1D13460FCB84E80F0000F0B9F894
:105040000346054A1360064B034A1A6000BF98BD29
:10505000980E0020A00E0020DC10002048B10000B7
:10506000900E002080B586B002AF87ED010A38604F
:105070000223FB60FFF7D6FF164800F025F9034630
:10508000BB60154800F020F90346BB600023009385
:105090000023FA681149124800F062F80346BB6029
:1050A0000023104A0121104800F09BF80346BB6022
:1050B000D7ED017A9FED0D7A67EE877AFCEEE77AFD
:1050C00017EE901A084800F0B3F800BF1037BD463D
:1050D00080BD00BF980E0020900E0020E528000043
:1050E000A00E002009500000B810002000007A44F3
:1050F00080B400AFFEE700BF80B483B000AF78603B
:105100007B68013B032B0BD801A252F823F000BFB0
:1051100021510000215100002151000021510000C7
:1051200000BFFEE7704700BF704700BF00200021AE
:1051300004460D46084803F0A1F903F0E5F92046BE
:10514000294600F0B1F90548002100F069FA00F0A5
:10515000BFF903F09FF90000B584000048B10000DA
:1051600080B586B000AFF860B9607A603B60FB68DC
:10517000BA685A60FB687A689A60FB680122DA6054
:105180003A68FB681A61FB680433396A184600F014
:1051900047FA0246FB681A60FB681B68002B14BFC5
:1051A00001230023DBB27B617B6918461837BD46BB
:1051B00080BD80B500AF00F085FA0346184680BD7B
:1051C00080B584B000AF786000F07CFA0346FB60E5
:1051D000F86800F083FA0346BB6000BF1037BD4695
:1051E00080BD80B586B000AFF8607A603B600B464A
:1051F000FB72FB6803F10C02FB689A60FB687A683B
:105200005A60FB680433F97A3A68184600F070FB7C
:105210000246FB681A60FB681B68002B14BF012361
:105220000023DBB27B617B6918461837BD4680BD21
:1052300080B584B000AF786039607B681B683968DE
:10524000184600F089FB0346FB60FB6818461037E0
:10525000BD4680BD84B080B582B000AF07F1100CB0
:105260008CE80F003B69796A184600F04BFC034656
:105270007B607B6818460837BD46BDE8804004B0B7
:10528000704784B080B500AF07F1080C8CE80F00C0
:10529000BB68F969184600F055FC03461846BD4640
:1052A000BDE8804004B0704780B582B000AF786040
:1052B00039607B684FF0FF323968184600F050FCC7
:1052C00078680837BD4680BD80B485B000AF78608F
:1052D0007B6801225A600123FB60FB681846143783
:1052E000BD465DF8047B704780B584B002AF78603E
:1052F0007B681B687A68526801921A6900920FCB2A
:10530000FFF7A8FF034618460837BD4680BD80B5A5
:1053100084B002AF786039603B681B683A685268B5
:1053200001921A6900920FCBFFF7ABFF3B685A68F6
:105330007B6811461846FFF7B7FF78680837BD4607
:1053400080BD000000B5DFF80CC000DFDFF808C04A
:1053500000DFFEE7C1550000D95500002DE9F041FE
:10536000344C237853B1344B1B68FF229A70334A74
:105370000020012310702370BDE8F081304B3148CC
:10538000196800F00BFD00284CD101F079FB2A4B85
:1053900021781B68FF229A700029E8D12A4A1368F5
:1053A000002B44D0556845B12A78002A38D1191D00
:1053B000890089B2284600F0B5FD244B244A1E68B6
:1053C000156096B35D68EA1C062A2ED8DF688FB98F
:1053D000291D30463B463A4601F010FA054620B3F7
:1053E0001C4B1D4A681E53F82050AB6A5A631B4B76
:1053F0001D60BCE73946134800F0DEFC8046A0B1D2
:10540000291D41EA072130460023424601F0F6F902
:1054100005460028E4D141460A4800F0F1FCE6E7E1
:105420000D46CAE78520BDE8F0810025DFE71D466F
:10543000C3E700BF70400020B4400020714000204E
:1054400024B10000A83300203CB100002CB10000C2
:105450009C3F00206C3F002045530000783F002017
:1054600038B50F4C207808B1002038BD0D4D2B68A1
:1054700093F8241001F072F92B68DA78FF2A03D12F
:105480009A6A203282F309886A682AB101F066FBC1
:1054900001232370002038BDC5E90023F6E700BFD3
:1054A00071400020B440002010B5EFF305845CB9D2
:1054B000EFF31484E40703D5DFF810C000DF10BD5C
:1054C000BDE81040FFF74ABF822010BD5D530000C9
:1054D00010B588B0EFF305841CBBEFF3148404F01F
:1054E0000304022C24D0032C14D0012C16D008ACB9
:1054F00084F30988114C2478E40715D4032484F339
:105500001488BFF34F8FBFF36F8FDFF834C000DF15
:1055100008B010BD094C2478E407F6D5FF2008B088
:1055200010BD822008B010BD022484F31488E8E77F
:10553000024C2478E407E8D4E0E700BF14B100008F
:105540006154000098B3F8B5066876B34768FB1C51
:10555000062B2AD8C26804460D46BAB11146154832
:1055600000F02AFC064600B36268E1682068043255
:1055700042EA01212B46324601F040F9044660B967
:1055800031460C4800F03CFC2046F8BD0B46304646
:10559000391D01F033F9044638B1601E064B074A45
:1055A00053F82000836A5A63F8BD0020F8BD00203C
:1055B000704700BFA83300206C3F00204553000017
:1055C00008B501F0C3F818B10138024B53F82000B8
:1055D00008BD00BF6C3F0020D0B1820718D138B59C
:1055E0000478BCB9C28C0346C0785AB1DD6A01F0B8
:1055F00069F9FF2810D04DB12946084800F000FC99
:10560000204638BD01F05EF9FF2805D0002038BDE6
:1056100080207047802038BD812038BDA83300200D
:10562000F8B5EFF305848CB9EFF31484E40702D4E2
:105630001F4C247864B1DFF888C000DFF8BD0B464A
:105640003046391D01F0DAF8044640BB0020F8BDB1
:105650000028FBD00668002EF8D04768FB1C062BFC
:10566000F4D8C2680D460446002AE8D01146114815
:1056700000F0A2FB06460028E8D06268E1682068D6
:10568000043242EA01212B46324601F0B7F80446C3
:1056900028B93146074800F0B3FB2046F8BD601E2C
:1056A000054B064A53F82000836A5A63F8BD00BFD1
:1056B00071400020A83300206C3F002045530000BB
:1056C0004555000010B5EFF305841CB9DFF808C09C
:1056D00000DF10BD002010BDC155000010B5EFF374
:1056E00005841CB9DFF808C000DF10BD822010BDA2
:1056F000D9550000A0B103689BB143688BB1012963
:105700000ED830B40A4C24686CB11C795CB9012500
:1057100059711D711C60C3E9042030BC18467047E4
:105720000023184670470023184630BC704700BF5E
:10573000783F0020820727D130B3002951D0F8B537
:10574000314B1A68002312F1FF3643F1FF3704464C
:105750004FF47A70E0FB016730463946FBF71AFCDC
:105760002379012B12D0022B0CD1284D2A684AB183
:10577000944238D0114602E09C4228D019460B686A
:10578000002BF9D18120F8BD802070471F4DE060CB
:1057900002232A682371002A2AD09668B04206D2D2
:1057A0002CE09D688D420BD808462E461A46136899
:1057B000811B002BF5D12360A16014600020F8BD8F
:1057C000A16099682360081A06449E60F5E7236883
:1057D0000B602368002BE0D09968A668314499607B
:1057E000D9E78620704723682B600BB11A46F3E790
:1057F0000023A06023602C600020F8BDA0609368A7
:105800002260181A9060F6E718B10000744000207A
:10581000830704D130B1D0E9041318687047002021
:1058200001467047014670472DE9F8432E4F3C680A
:10583000002C37D0A368013BA360002B32D1DFF8E6
:10584000AC902668D9F800503E6025B195F80080EC
:10585000B8F1010F17D00420FFF74EFCA2609A6840
:105860002360551B65449D600460DEB1B368CBB90D
:10587000D9F8005033683B60002DECD02A78012A1B
:10588000E9D134461E46284600F0ACFB0028E2D0A1
:105890002846214600F0AAFB6379012B04D084F846
:1058A0000480E2E7BDE8F8833868E56890B1D0F895
:1058B00008C0654506D211E099689142CED81546D8
:1058C0008C4618460368A5EB0C02002BF4D123602C
:1058D000A260C9E72060A5603C60C6E7A560836858
:1058E00020605D1B8560F7E7744000209C3F00202E
:1058F00030B5EFF305840CBBEFF31484E40702D456
:10590000124C24782CB1DFF84CC000DF0346184657
:1059100030BDC0B10368002BF9D04368002BF6D02E
:1059200001290ED80A4D2D6845B11D794DB90124C4
:105930001D605971C3E904201C71E8E70023184673
:1059400030BD2346E3E70346E1E700BF7140002096
:10595000783F0020F556000010B5EFF305841CB920
:10596000DFF808C000DF10BD822010BD35570000F1
:1059700008B50B4DEFF305804FF0FF310028F9D14A
:105980002868DFF820C000DF1028F3D10846DFF8D0
:1059900018C000DF04460028ECD00846A047E9E71D
:1059A0009C3F00208D5B00001158000010B570B1C5
:1059B00083070CD1037853B90B0C1B043BB9034686
:1059C00088B21C8BD97800F029FD204610BD4FF01D
:1059D0000044204610BD00BF10B570B183070CD144
:1059E000037853B90B0C1B043BB9034688B21C8BDC
:1059F000D97800F03FFD204610BD4FF0004420460E
:105A000010BD00BF2DE9F0414FEA10484FEA0848A9
:105A1000B8F1000F48D10D46044640B380B291B1B1
:105A20004A1C5DD0344B994263D8344B1A684FF608
:105A3000FE714FF47A73561E03FB0563B3FBF2F35A
:105A40008B4200D899B2012200F0C6FC022844D053
:105A5000002D14BF40240024002001460E460F46AE
:105A600045462046294632463B46BDE8F08159B3BB
:105A70004B1C38D0204B994238D8204B1A684FF62F
:105A8000FE714FF47A73501E03FB0505B5FBF2F56A
:105A90008D4200D8A9B200224FF6FF7000F09CFCA6
:105AA00002280BD04024D7E7002586242E462F4617
:105AB0002046294632463B46BDE8F081104B1B6824
:105AC0000824B3F81A80C7E742464FF6FF7000F08B
:105AD00083FC0228F2D04446BEE7A0460824BBE778
:105AE0004FF6FF71AFE74FF6FF71D4E74FF6FE7147
:105AF000D1E74FF6FE71A6E700093D0018B100009E
:105B0000B440002070B5EFF305852DB9DFF830C043
:105B100000DF0446204670BD044668B183070BD100
:105B200003784BB90B0C1B0433B988B2E178248B92
:105B300000F0ACFC204670BD4FF00044204670BD24
:105B4000AD59000010B5EFF305841CB9DFF80CC0A7
:105B500000DF10BD4FF0004010BD0000D95900001B
:105B600070B50446EFF305854DB908461146DFF8D8
:105B700018C000DFC4E90001A260204670BD822386
:105B80000360204670BD0000055A0000F0B50346D2
:105B900085B000283AD00278012A2AD10C46002983
:105BA0003ED04A1C49D0264A91422CD8254A116839
:105BB0004FF47A75481E4FF6FE7205FB0404B4FBE1
:105BC000F1F4944200D8A2B2184602A900F0B6F946
:105BD000012830D0002002460346102002990446D6
:105BE0000D4616461F462046294632463B4605B01E
:105BF000F0BD002580242E462F46204629463246F9
:105C00003B4605B0F0BD4FF6FE72DDE705460646A1
:105C1000074680242046294632463B4605B0F0BD63
:105C20000A4602A900F08AF90128D3D100200246D1
:105C300003462046D2E74024F8E74FF6FF72C3E759
:105C400000093D0018B10000274B2DE9F047C58C35
:105C5000D3F80090C66AAD0808BFC9F38D0506EBFE
:105C60008504630748BF043C8046A4F140074FF019
:105C700080738A4644F8081C44F8043C38463822AD
:105C8000002102F01FFFD8F81C3044F8203C19F026
:105C9000805F3B46C8F82870C8F830A01FD0112D8F
:105CA0001DD9103D6D08012D12D06FF03702A2EB07
:105CB000C50214444FF0CC3243F8042C43F8082DAD
:105CC000A342F9D1C5EB457507EBC50303F10807FE
:105CD0003B1F9E423CBF4FF0CC3347F8043C034B84
:105CE0003360BDE8F08700BF0CB10000A52E5AE27A
:105CF00090F82520836A12B1603319607047203311
:105D00001960704710B490F82540836A2CB1603355
:105D1000C3E900125DF8044B70472033C3E9001259
:105D20005DF8044B704700BF084B1B68DA0107D5CC
